000890302023MD-MINITRAN .2mg/hr 30s      0000360000003498
000890303023MD-MINITRAN .4mg/hr 30s      0000360000003894
000890304023MD-MINITRAN .6mg/hr 30s      0000144000004250
00074445201AB-ACYCLOVIR 1gm 20ml 10s     0000500000013500
00074442701AB-ACYCLOVIR 500mg 10ml 10s   0000500000006000
00013113691AB-ADRIAMYCIN PFS 10mg 10s    0000288000015000
00013116683AB-ADRIAMYCIN PFS 200mg ea    0000288000017500
00013114694AB-ADRIAMYCIN PFS 20mg ea     0000288000003300
00013115679AB-ADRIAMYCIN PFS 50mg ea     0000288000005700
00013108691AB-ADRIAMYCIN RDF 10mg 10s    0000288000007900
00013111683AB-ADRIAMYCIN RDF 150mg ea    0000288000020000
00013109694AB-ADRIAMYCIN RDF 20mg ea     0000288000003300
00013110679AB-ADRIAMYCIN RDF 50mg ea     0000288000005500
00074150005AB-ALCOHOL w/DEX 5/5% 100ml 5s0000360000005813
00074195701AB-AMIKACIN 1gm/4ml 4ml 10s   0000360000022400
00074195601AB-AMIKACIN 250mg/ml 2ml 10s  0000144000012000
00074195501AB-AMIKACIN 50mg/ml 2ml 10s   0000360000010000
00074434673AB-AMINOCAP 250mg/ml 20ml 25s 0000360000003082
00074592101AB-AMINOPH 250mg 10ml 25s     0000144000001525
00074592201AB-AMINOPH 500mg 20ml 25s     0000360000001794
00074299103AB-AMINOSYN 10% 500ml 12s     0000144000010060
00074407202AB-AMINOSYN 5.2% 300ml 12s    0000360000017365
00074585505AB-AMINOSYN 8.5% 1000ml 6s    0000360000008975
00074108803AB-AMINOSYN 8.5% 500ml 12s    0000144000007500
00074585503AB-AMINOSYN 8.5% IV SOL       0000144000007900
00074109003AB-AMINOSYN II 10% 500ml 12s  0000144000009200
00074712207AB-AMINOSYN II 15% IV SOL     0000144000038016
00007313505AB-ANCEF 10gm 100ml 10s       0000360000017850
00007313705AB-ANCEF 10gm 100ml 10s       0000360000002835
00007313016AB-ANCEF VIAL 1gm 25s         0000144000005200
00007313116AB-ANCEF VL 500mg 10ml 25s    0000360000002992
00074737601AB-ATRACURIUM 10mg/ml 5ml 10s 0000360000017165
00074737901AB-ATRACURIUM 10mg/ml 5ml 10s 0000360000019650
00074491134AB-ATROPINE SULF 10ml 10s     0000288000003360
00074491034AB-ATROPINE SULF ABJT 5ml 10s 0000288000003360
00074427201AB-BUPIVAC AMP .25% 20ml 5s   0000144000001467
00074427301AB-BUPIVAC AMP .5% 20ml 5s    0000360000001672
00074116401AB-BUPIVAC AMP .75% 30ml  5s  0000144000001463
00074115901AB-BUPIVAC HCL .25% 10ml 50s  0000144000004900
00074115801AB-BUPIVAC HCL .25% 30ML A 25 0000144000001150
00074116201AB-BUPIVAC HCL .5% 10ml 50s   0000144000005070
00074116202AB-BUPIVAC HCL .5% 30ml 50s   0000144000004800
00074116301AB-BUPIVAC HCL .5% 50ml 50s   0000144000007602
00074116501AB-BUPIVAC HCL .75% 10ml 25s  0000144000005600
00074115902AB-BUPIVAC VIAL .25% 30ml 25s 0000144000004875
00074116001AB-BUPIVAC VIAL .25% 50ml 25s 0000360000007627
00074361301AB-BUPIVAC/DEX .75% 2ml 10s   0000360000002147
00074904201AB-BUPIVAC/EPI .25% 10ml 10s  0000360000002612
00074904202AB-BUPIVAC/EPI .25% 30ml 10s  0000144000003051
00074904501AB-BUPIVAC/EPI .5% 10ml 10s   0000360000002309
00074118401AB-CAL GLUC 10% 10ml 25s      0000360000001300
00074473203AB-CEFAZOLIN 1GM ADD-VAN VIAL 0000144000008595
00074311831AB-CENOLATE 500mg 1ml 50s     0000360000007462
00074405101AB-CLINDAMYCIN 600MG/3ML 25'S 0000144000011000
00074409201AB-COPPER TRACE .4MG 10ML 25'S0000288000001800
00074793002AB-DEXTROSE 10% 250ml 24s     0000360000015792
00074408902AB-DEXTROSE 10ML 5ML AMP 50   0000144000003060
00074792609AB-DEXTROSE 5% 1/3NS IV SOLN  0000144000006317
00074793309AB-DEXTROSE 5% 1000ml 12s     0000360000008000
00074149401AB-DEXTROSE 5% 100ml 25s      0000360000007410
00074792337AB-DEXTROSE 5% 100ml 80s      0000360000012050
00074710002AB-DEXTROSE 5% 250ml 24s      0000360000009158
00074792336AB-DEXTROSE 5% 50ml 80s       0000360000011975
00074792402AB-DEXTROSE 5%/.225% 250ml 24s0000360000009100
00074792503AB-DEXTROSE 5%/.33% 500ml 24s 0000360000009100
00074792602AB-DEXTROSE 5%/.45% 250ml 24s 0000360000009100
00074792603AB-DEXTROSE 5%/.45% 500ml 24s 0000360000009100
00074153603AB-DEXTROSE 50% 500ml 12s     0000360000008800
00074664802AB-DEXTROSE 50% FLTP 10s      0000240000001600
00074490222AB-DEXTROSE 50%/WATER ABJ     0000240000003045
00074490234AB-DEXTROSE 50%/WATER ABJ     0000240000003230
00074234401AB-DOBUTAMINE 250mg 20ml      0000144000000375
00074234402AB-DOBUTAMINE 250mg 20ml 10s  0000144000005187
00074202554AB-DOBUTAMINE 500mg 40ml 10s  0000360000006080
00074780822AB-DOPAMINE 200mg 250ml 12s   0000360000013175
00074426501AB-DOPAMINE 800mg/5% 10ml 25s 0000360000005020
00074910420AB-DOPAMINE FTV 400mg 10ml 25s0000360000002440
00074780922AB-DOPAMINE HCL 400mg 250ml 120000144000016648
00074910518AB-DOPAMINE SYG 400mg 10ml 10s0000360000004256
00074426618AB-DOPAMINE SYG 800mg 10ml 10s0000360000004315
00074582010AB-DOPAMINE VL 200mg 5ml 25s  0000360000001340
00074940601AB-ENFLURANE INH 125ml        0000360000009230
00074940602AB-ENFLURANE INH 250ml        0000360000014905
00074307331AB-EPHEDRINE 50MG/ML AMP      0000144000003500
00074492134AB-EPINEPHRINE .1MG/ML ABJ    0000240000003340
00074724101AB-EPINEPHRINE 1MG/ML AMP     0000144000000990
00074648101AB-ERY LAC (BENXFR) 1GM VL 10 0000360000004300
00074647844AB-ERY LAC 1GM ADDVANT 10'S   0000240000004636
00074647644AB-ERY LAC 500MG ADDVANT 10'S 0000180000002741
00074636502AB-ERY LAC 500MG VL 10'       0000360000004130
00074634205AB-ERYTHROCIN LAC 1GM VL 10'S 0000120000004777
00074648201AB-ERYTHROCIN LAC 500MG VL 10 0000120000002423
00074406558AB-FAT EMULSION IV SET 48s    0000288000021000
00074610211AB-FUROSEMIDE 100mg 10ml 25s  0000360000001920
00074610110AB-FUROSEMIDE 100mg 10ml 50s  0000288000002993
00074610102AB-FUROSEMIDE 20mg 2ml 100s   0000288000001170
00074610202AB-FUROSEMIDE 20mg 2ml 25s    0000288000001180
00074610204AB-FUROSEMIDE 40mg 4ml 25s    0000288000001100
00074610104AB-FUROSEMIDE 40mg 4ml 50s    0000288000001620
00074340001AB-GENTAMYCIN 10mg/ml 25s     0000144000004059
00074340101AB-GENTAMYCIN 80mg 8ml 50s    0000144000004150
00074128101AB-HEP LF 100usp 1/2ml LL 50s 0000120000002968
00074128125AB-HEP LF 100usp 5/5ml 25s    0000120000003546
00074128023AB-HEP LF 10usp INTERIK 25s   0000144000003000
00074128021AB-HEP LF 10usp INTERIK 50s   0000144000004986
00074128031AB-HEP LF 10usp LL 50s        0000120000004296
00074128132AB-HEP LF CARP 100un 2ml 50s  0000120000004296
00074115270AB-HEP LOCK 100usp 10ml 50s   0000288000001150
00074115178AB-HEP LOCK 10usp 30ml 25s    0000144000001485
00074779362AB-HEPARIN 25000U/D5W 250ml   0000144000010708
00074128001AB-HEPARIN LF 100usp 1/2ml 50s0000144000002812
00074115170AB-HEPARIN LF 10un 10ml 25s   0000360000001060
00074115278AB-HEPARIN LOCK 100U/ML VIAL  0000288000001650
00074724803AB-HETASTARCH 6% Sol          0000480000045187
00074737262AB-IONOSOL MB/DX 5% 250ml 24s 0000360000005107
00074737303AB-IONOSOL T/DEX 5% 500ml 24s 0000360000006590
00074141005AB-ISUPREL AMP .2mg/ml 5ml 10s0000600000010000
00074144304AB-LEVOPHED 1MG/ML AMP 10s    0000144000007700
00074427601AB-LIDO 1% HCL 20ml FT 50s    0000144000001140
00074427902AB-LIDO 1% HCL 30ml 50s       0000288000001235
00074428201AB-LIDO 2% USP 20ml amp 25s   0000288000001000
00074427702AB-LIDO hcl 2% 50ml ft 25s    0000288000001375
00074490434AB-LIDO SYG 1% LF 5ml 10s     0000360000003060
00074793132AB-LIDO/DEX .4/5% 250ml 12s   0000360000007970
00074793124AB-LIDO/DEX .4/5% 500ml 24s   0000360000019135
00074317803AB-LIDOCAINE 1%/EPI 1:200000  0000144000005520
00074317802AB-LIDOCAINE 1%/EPI 30ml 25s  0000144000004260
00074318202AB-LIDOCAINE 2%/EPI 30ml 25s  0000144000006220
00074427501AB-LIDOCAINE HCL .5% VIAL     0000144000005404
00074427602AB-LIDOCAINE HCL 1% VIAL      0000144000001480
00074490334AB-LIDOCAINE HCL 2% ABJ       0000144000002900
00074428301AB-LIDOCAINE HCL 4% AMP       0000144000004000
00074492415AB-LIDOCAINE SYG 1% 5ml 10s   0000360000002964
00074978601AB-LIPOSYN II 10% 200ml 12s   0000288000012935
00074978603AB-LIPOSYN II 10% 500ml 12s   0000288000009600
00074979301AB-LIPOSYN II 10% 500ml 12s   0000360000019115
00074978903AB-LIPOSYN II 20% 500ml 12s   0000288000016500
00074979003AB-LIPOSYN III 10% 500ml 12s  0000360000019200
00074979103AB-LIPOSYN III 20% 500ml 12s  0000144000025500
00074100101AB-LTA II KIT (1601-01)       0000360000007764
00074672923AB-MAG SULF 40mg/ml 100ml 24s 0000360000011942
00074216801AB-MAG SULF 50% 10ml 25s      0000360000002345
00074216802AB-MAG SULF 50% 20ml 25s      0000360000003375
00074216803AB-MAG SULF 50% 50ml 25s      0000360000007000
00074673013AB-MAG SULF 80mg/ml 50ml 24s  0000360000012000
00074409101AB-MANGANESE .1mg/ml 10ml 25s 0000360000001920
00074403101AB-MANNITOL 25% 50ml 25s      0000180000002500
00074771502AB-MANNITOL VL 20% 250ml 24s  0000360000045500
00074155910AB-MARCAINE .25% 10ml         0000600000001850
00074155950AB-MARCAINE .25% 50ml         0000600000002000
00074158750AB-MARCAINE .25% 50ml MLTIDOSE0001200000000290
00074174610AB-MARCAINE .25% W/EPI 10ml   0000600000002100
00074174630AB-MARCAINE .25% W/EPI 30ml   0000600000003300
00074175250AB-MARCAINE .25% W/EPI 50ml   0000600000000550
00074122202AB-MARCAINE .25% W/EPI 50ml   0000600000003375
00074156010AB-MARCAINE .5% 10ml          0000600000001850
00074156030AB-MARCAINE .5% 30ml          0000600000001725
00074156029AB-MARCAINE .5% 30ml 10s      0000600000001490
00074174929AB-MARCAINE .5% 30ml W/EPI    0000600000002800
00074161050AB-MARCAINE .5% 50ml          0002400000000275
00074174910AB-MARCAINE .5% W/EPI 10ml    0000600000002100
00074174930AB-MARCAINE .5% W/EPI 30ml AMP0000600000002921
00074175550AB-MARCAINE .5% W/EPI 50ml    0000600000000620
00074158210AB-MARCAINE .75% 10ml         0000600000002050
00074158229AB-MARCAINE .75% 30ml 10s     0000600000003500
00074158230AB-MARCAINE .75% 30ml AMP     0000600000002769
00074175030AB-MARCAINE .75% 30ml W/EPI   0000600000002000
00074176102AB-MARCAINE AMP 2ml 10s       0000600000002247
00074603004AB-MEPERID INJ 10mg/ml 30ml 100000360000011590
00074341401AB-METOCLOP 10mg/2ml 2ml 25s  0000360000005565
00074341301AB-METOCLOP 5MG/ML AMP        0000144000004200
00074781124AB-METRONID 500MG 100ML BAG 240000288000008116
00074781137AB-METRONID 500MG 80x100ML    0000144000022000
00074146301AB-NALBUPHIN HCL 10MG 1ML A 500000288000000635
00074121901AB-NALOXONE .4mg/ml 10ml 25s  0000360000005735
00074121201AB-NALOXONE AMP .4mg 1ml 10s  0000600000000800
00024180001AB-NEO-SYNE AMP 1% 1ml 25s    0000360000015350
00013560693AB-NEOSAR 100mg 12s           0000288000005300
00013563670AB-NEOSAR 1gm 6s              0000288000021665
00013561693AB-NEOSAR 200mg 12s           0000288000009000
00013564670AB-NEOSAR 2gm 6s              0000288000043319
00013562693AB-NEOSAR 500mg 12s           0000288000019000
00074372301AB-NEOSIGMINE 1mg/ml 10ml 10s 0000360000002720
00074410701AB-NITROGLY 25mg 5ml 25s      0000360000001755
00074410401AB-NITROGLY 50mg 10ml 25s     0000360000003240
00074302401AB-NITROPRES 50mg 2ml ea      0002400000000290
00074704101AB-NOREPINEPHRINE 1MG/ML AMP  0000144000009536
00074454801AB-PENTAMIDINE 300MG VIAL     0000144000005292
00074131701AB-PHENYTOIN 50MG/ML 2ML      0000144000003377
00074131702AB-PHENYTOIN 50MG/ML 5ML      0000144000003850
00074158401AB-PONTOCAINE .5% 59ml        0000600000002150
00074187202AB-PONTOCAINE HCL .2% 2ML AMPS0000300000004075
00074187405AB-PONTOCAINE HCL .3% 5ML AMPS0000300000005250
00074184602AB-PONTOCAINE HCL 2ML AMPS 25S0000300000010500
00074186602AB-PONTOCAINE HCL SOL 2% 118ML0000300000004050
00074329406AB-POT ACET 2meq/ml 100ml 25s 0000360000009725
00074818301AB-POT ACET 2meq/ml 20ml 25s  0000288000002240
00074329451AB-POT ACET 2meq/ml 50ml 25s  0000360000005140
00074663501AB-POT CHL 10meq 5ml 25s      0000144000001069
00074665106AB-POT CHL 20meq 10ml 25s     0000144000000900
00074493201AB-POT CHL 20meq 10ml 25s     0000360000004825
00074663601AB-POT CHL 30meq 15ml 25s     0000288000001075
00074665305AB-POT CHL 40meq 20ml 25s     0000240000001050
00074499419AB-POT CHL Syg 40meq 20ml 10s 0000360000003600
00074420101AB-POT PHOS 150mm 50ml 25s    0000360000012350
00074729601AB-POT PHOS 15mm 5ml 25s      0000360000001595
00074729501AB-POT PHOS 45mm 15ml 5s      0000288000001450
00074149901AB-POTASSIUM CL 2MEQ/ML VIAL  0000144000009095
00074182602AB-PROCAINAMIDE 1000mg 2ml 10s0000360000003700
00074190201AB-PROCAINAMIDE 100mg/ml vial 0000144000002162
00074190301AB-PROCAINAMIDE 500mg/ml vial 0000144000002240
00074192304AB-PROCAINE FTV 1% 30ml 25s   0000360000002795
00074195304AB-PROCAINE FTV 2% 30ml 25s   0000360000002795
00024188022AB-PROCHLOR SYG 5mg 2ml 10s   0000360000002325
00074329906AB-SOD ACET 200meq 100ml 25s  0000360000007000
00074329905AB-SOD ACET 2MEQ 50ML FT 25   0000288000005500
00074729901AB-SOD ACET 40MEQ 20ML 25'S   0000288000001275
00074662502AB-SOD BIC 50MEQ 50ML 50'S    0000288000001575
00074491622AB-SOD BIC 7.5%  50ML 10S     0000300000003213
00074490018AB-SOD BIC 8.4% 10meq 10ml 10s0000240000004000
00074663734AB-SOD BIC 8.4% 50ml 10s      0000300000003474
00074491634AB-SOD BIC 8.4% 50ml 10s      0000300000003573
00074490034AB-SOD BIC SYG 8.4% 10ml 10s  0000360000004625
00074488899AB-SOD CHL .9% 100ml 25s      0000144000002440
00074488810AB-SOD CHL .9% 10ml ea        0000600000000680
00074181222AB-SOD CHL .9% 2/2ml 50s      0000288000003570
00074488820AB-SOD CHL .9% 20ml 25s       0000360000000910
00074181223AB-SOD CHL .9% 3/5ml 25s      0000144000002814
00074488850AB-SOD CHL .9% 50ml 100s      0000144000001850
00074181225AB-SOD CHL .9% SYR 5ml 25s    0000144000002814
00074713202AB-SOD CHLOR .45% 250ml 24s   0000360000007500
00074773020AB-SOD CHLOR .45% 25ml 48s    0000360000015000
00074798437AB-SOD CHLOR .9% 100ml 80s    0000144000011923
00074191833AB-SOD CHLOR .9% 3ml 25s      0000360000002653
00074158401AB-SOD CHLOR .9% 50ml 12s     0000144000006000
00074710102AB-SOD CHLOR .9% 50ml 24s     0000144000008390
00074710113AB-SOD CHLOR .9% 50ml 48s     0000144000011500
00074191835AB-SOD CHLOR .9% 5ml 25s      0000360000002653
00074113002AB-SOD CHLOR 4meq/ml 250ml 12s0000144000005500
00074196607AB-SOD CHLOR BACT .9% 30ml 25s0000600000000890
00074798502AB-SOD CHLOR SOL .45% 250ml 240000360000007000
00074739172AB-SOD PHOS 45mm 15ml 25s     0000144000002423
00074357701AB-TOBRAMYCIN 20mg 2ml 25s    0000144000006600
00074359002AB-TOBRAMYCIN 40mg/ml 5ml     0000144000009328
00074357801AB-TOBRAMYCIN 80mg 2ml 25s    0000144000010604
00074329606AB-TPN ELECTROLYTES 100ml 25s 0000144000016420
00074577901AB-TPN ELECTROLYTES 20ml 25s  0000288000007400
00074329706AB-TPN ELECTROLYTES II VIAL   0000144000016500
00074329806AB-TPN ELECTROLYTES III VIAL  0000144000015800
00074384401AB-TPN ELETROLYTES III 20ml 500000288000006800
00074653301AB-VANCOMYCIN 1GM 25ML FLTP 100000180000005750
00074653501AB-VANCOMYCIN 1GM ADD-VAN     0000144000009500
00074433201AB-VANCOMYCIN 500MG 10ML FT 100000072000002625
00074653401AB-VANCOMYCIN 500MG A/V VIAL  0000144000005283
00074650901AB-VANCOMYCIN 5GM VAIL        0000600000002690
00074401101AB-VERAPAMIL 2.5MG/ML         0000144000000320
00074198202AB-VERAPAMIL 2.5mg/ml 2ML 10s 0000144000002120
00074114401AB-VERAPAMIL 5MG 2ML FLTP 25  0000288000000310
00013745686AB-VINCASAR PFS 1MG 10s       0000288000017636
00013746686AB-VINCASAR PFS 2MG 10s       0000288000035277
00074915701AB-VIT K INJ 10ML A 50        0000024000005300
00074915801AB-VIT K INJ 1MG A 50         0000024000009975
00074488799AB-WATER FOR INJ 100ml 25s    0000144000002600
00074488710AB-WATER FOR INJ 10ml 25s     0000360000000725
00074488720AB-WATER FOR INJ 20ml 25s     0000240000001440
00074488750AB-WATER FOR INJ 50ml 25s     0000144000001645
17478021612AK-AK-CON 15ml .1% Drops      0000144000000363
17478020012AK-AK-DILATE 2.5% 15ml Drops  0000144000000408
17478024035AK-AK-TROL 3.5gm Oint         0000144000000303
17478023910AK-AK-TROL 5ml Drops          0000144000000399
17478006012AK-AKWA TEARS 15ml Drops      0000144000000188
17478006235AK-AKWA TEARS 3.5gm Oint      0000144000000244
17478028310AK-GENTAK 3mg 5ml Drops       0000144000000143
17478006112AK-TEARS RENEWED 15ml Drops   0000144000000338
17478006335AK-TEARS RENEWED 3.5gm Oint   0000144000000290
00065039605ALC-CYCLOGEL Drops 2% 5ml     0000012000001310
00998020615ALC-ISOPTO CARPINE 4% 15ml    0002400000001380
08065183915ALC-VISCOAT SYRINGE .5ml      0000500000009450
00023081799ALG-EXSEL 2.5% LOTION 4oz     0000176000001289
11980021115ALG-FML .1% 15ml              0000720000004196
11980011705ALG-GENOPTIC .3MG 5ML         0000036000000450
00517040125AMR-ATROPINE SULF .4MG SDV 25 0000036000000880
00517101025AMR-ATROPINE SULF 1MG SDV 25  0000036000000880
00517881001AMR-BRETYLIUM TOS 500MG SDV EA0000036000001350
00517150225AMR-CIMET HCL 150MG/ML 2ML 25s0000036000002635
00517013001AMR-CYANCOB 1000MCG VL        0000036000000205
00517857510AMR-DEHYDRATED ALCOHOL 5ML    0000036000013419
00517490525AMR-DEXAMETH 4MG 5ML 25'S     0000036000001235
00517493025AMR-DEXAMETH SOD PHOS MDV 25  0000036000004107
00517490125AMR-DEXAMETH SOD PHOS SDV 25  0000036000000824
00517190525AMR-DOPAMIN HCL 400MG SDV 25  0000036000001438
00517180525AMR-DOPAMINE 200MG 5ML 25'S   0000036000000941
00517130525AMR-DOPAMINE HCL 800MG SDV 25 0000036000002441
00517107125AMR-EPINEPHRINE 1:1000 PF 1ML 0000036000004279
00517571025AMR-FUROSEMIDE 10MG 10ML 25   0000036000001863
00517570225AMR-FUROSEMIDE 10MG SDV 2ML 250000036000000935
00517570425AMR-FUROSEMIDE 10MG SDV 4ML 250000036000001029
00517560225AMR-HYDROX HCL 50mg/ml 2ml    0000036000000824
00469420125AMR-HYDROXYZINE HCL 25MG  25  0000036000000825
00517560125AMR-HYDROXYZINE HCL 50MG 25   0000036000000824
00517206405AMR-L CYSTEINE USP 50MG/ML 10L0000036000001642
00517260225AMR-MAG SULF 50% 2ML SDV 25   0000036000000824
00517890501AMR-METHLDOPATE HCL 250MG 5ML 0000036000000706
00517031010AMR-METHYL BL 1% 10ML SDV 25s 0000036000004861
00517030110AMR-METHYL BL 1% 1ML SDV 25s  0000036000003409
00517306501AMR-MORRHUATE SOD 50MG 30ML EA0000036000006776
00517620225AMR-MULTI TRACE 4 2ML 25S     0000036000003286
00517820125AMR-MULTITRACE -5 1ML 25S     0000036000002362
00517003310AMR-NEOSTIGMINE 1:1000 10S    0000036000000588
00517003410AMR-NEOSTIGMINE 1:2000 10S    0000036000000588
00517480510AMR-NITROGLYC 25MG 5ML SDV 10 0000036000000735
00517481010AMR-NITROGLYC 50MG 10ML SDV 100000036000004500
00517401001AMR-PAPAVER 30MG/ML 10ML VL EA0000036000000559
00517230525AMR-POT PHOS 15MM 5ML SDV 25  0000036000001206
00517280225AMR-SOD CHLOR .9% 2ML 25S     0000036000000824
00517340525AMR-SOD PHOS 15MM 5ML SDV 25  0000036000001294
00517300525AMR-STERILE WATER 5ML SDV     0000036000000754
00517051025AMR-VASOPRESSIN 10U/.5ML 25S  0000036000004245
00517102025AMR-VASOPRESSIN 20U/1ML 25S   0000036000003938
00517540205AMR-VERAPAMIL 5MG 2ML 5'S     0000036000000353
00517540405AMR-VERPAMIL 10MG 4ML 5'S     0000036000000470
63323024601APP-ATROPINE SULF SDV 1mg 25s 0000048000001100
63323023401APP-ATROPINE SULF SDV 1ml 25s 0000024000001100
00469031150APP-CAL GLUC 10% 50ml 25s     0000048000004200
00469031110APP-CALCIUM GLUC SDV 10% 10ml 0000048000001800
63323023861APP-CEFAZOLIN VL 10gm 10s     0000012000022000
63323016505APP-DEXAMETH MDV 4mg 5ml 25s  0000048000002000
63323016530APP-DEXAMETH PHOS 4mg/ml 30ml 0000048000000675
63323016501APP-DEXAMETH SDV 4mg 1ml 25s  0000048000001250
00469100161APP-DOXORUBICIN 2mg 100ml     0000048000016500
63323088330APP-DOXORUBICIN VL 50mg 25ml  0000048000004350
63323013010APP-DOXY 100mg 20ml 5s        0000048000003200
63323000130APP-EMPTY STERILE vial 30ml 250000048000001700
63323000105APP-EMPTY STERILE vial 5ml 25s0000048000001245
63323027205APP-FLUPHENAZ DEC 25mg/ml 5ml 0000048000001750
00469184030APP-FOLIC ACID 5mg 10ml       0000048000000894
63323003810APP-HEPARIN BEEF LUNG 10ml 25s0000048000004700
63323054501APP-HEPARIN LF 100un 1ml 25s  0000048000000850
00469170030APP-HEPARIN LF 10un 10ml 25s  0000048000004000
00469504201APP-HEPARIN SOD 10MU 1ML 25   0000048000001750
63323005102APP-HYDROX SDV 100MG          0000012000001275
63323024710APP-LEVOTHYROXINE 200mcg 10ml 0000048000000900
63323024810APP-LEVOTHYROXINE 500mcg 10ml 0000048000000900
63323020805APP-LIDOCAINE 2% 5ml 25s      0000048000002408
00469090040APP-LYPHOLITE 20ML            0000012000007500
63323014640APP-LYPHOLITE II 20mg 25s     0000048000007300
00469146060APP-LYPHOLITE II 40ml 25s     0000048000012000
63323006402APP-MAG SULF 2ML 25S          0000048000001000
00469810031APP-MTE 4 3ML VL UD           0000048000002000
00469980030APP-MTE 4 CONC MDV 10ML 25    0000048000008000
00469940000APP-MTE 4 CONC SDV 1ML        0000048000002300
63323008110APP-MTE 4 SDV 10ML 25         0000048000006000
00469180030APP-MTE 5 10ML VL             0000048000004200
63323002801APP-MTE 5 1ML 25S             0000048000003150
00469200030APP-MTE 6 REG 10ML            0000048000020000
63323004205APP-MULTI VIT CONC 5ML        0000048000006117
63323042525APP-MULTILYTE-20 CONC SDV 25  0000144000004200
00469011310APP-PENTAM 300MG 15ML 10S     0000048000022500
00469096505APP-POT CHL 10MEQ             0000048000001150
63323096510APP-POT CHL 20MEQ 25X15ML     0000048000001015
63323022905APP-PROTAMINE 10MG 5ML        0000048000003500
63323018602APP-SOD CHL .09% 2ML          0000048000001000
00469118725APP-SOD CHLOR 23.4% 30ml 25s  0000720000001850
63323022110APP-VANCOMYCIN 500MG 10ML 25  0000048000010500
63323029561APP-VANCOMYCIN INJ 5gm 100ml  0000048000004200
63323027810APP-VINBLASTINE SILF 1MG 10ML 0000048000001800
00469018515APP-WATER SDV 10ML 25S        0000336000001200
00338107302BAX-DOBUT HCL/D5W 250ml 2B07910000008000043000
00338049102BAX-INTRA 20% 250ml 10s 1A60220000480000011000
00338049103BAX-INTRA 20% 500ml 10s 1A60230000480000019900
00260063601BAY-BAYHEP B 1ml              0000480000012545
00260063605BAY-BAYHEP B 5ml              0000048000057610
00260063104BAY-BAYRO-D-SOL PFS 300GMSG   0000600000008500
00260063401BAY-BAYTET 250U SYR           0002400000008000
00193280221BAY-DIASTIX 100S              0000012000000833
00193288250BAY-KETO-DIASTIX 50s          0000012000000800
00193288050BAY-KETOSTIX REAG Strip 50s   0000024000000672
30193216121BAY-MULTISTIX 10 SG 100s      0000096000004518
55390005301BED-LEUC CAL 200mg Vial       0000288000001100
55390005110BED-LEUC CAL 50mg Vial        0000288000002875
55390088010BED-LEVOTHYROX 200mcg Vial    0000288000000700
55390010710BED-PAPAV 30mg/ml 10ml        0000288000000540
00015564820BR-4-STADOL INJ 2MG/ML 10ML   0000288000004900
00015564520BR-4-STADOL INJ. 1MG 1ML      0000288000016500
00015564620BR-4-STADOL INJ. 2MG 1ML      0000288000018000
00015564420BR-4-STADOL INJ. 2MG 2ML      0000288000030800
59772617520BR-ALBUTEROL 17GM KIT         0000960000000322
59772617510BR-ALBUTEROL 17GM REF.        0000960000000322
06226921124BR-AMANT HCL 100mg 100s       0000360000000955
06226921129BR-AMANT HCL 100mg 500s       0000360000004500
00015301520BR-AMIKIN VL 100MG 10X2ML     0000240000010882
00015302320BR-AMIKIN VL 1GM 10X4ML       0000240000012500
00015302020BR-AMIKIN VL 500MG 10X2ML     0000240000006450
00015710028BR-AMPICILLIN 10GM BULK VL 10s0001200000006000
00015740436BR-AMPICILLIN 1GM PB 100ML 10s0001200000001275
00015740499BR-AMPICILLIN 1GM VL 10s      0001800000000600
00015740220BR-AMPICILLIN 250MG VL 10s    0001200000000455
00015740518BR-AMPICILLIN 2GM ADDV 10s    0001200000001535
00015740528BR-AMPICILLIN 2GM PB 100ML 10s0001200000001800
00015740520BR-AMPICILLIN 2GM VL 10s      0001200000000990
00015740331BR-AMPICILLIN 500MG PB 100ML  0001200000001150
00015740320BR-AMPICILLIN 500MG VL 10s    0002400000000440
00015740418BR-AMPICILLIN INJ ADDV 10s    0001200000001200
00015740120BR-AMPICILLIN N 125MG VL 10s  0001200000000510
62269020824BR-BENZTROP .5mg MESY 100's   0000360000000275
06226920924BR-BENZTROP 1mg MESY 100's    0000360000000300
62269020930BR-BENZTROP 1mg TB 1000's     0000360000002100
62269021030BR-BENZTROP 2mg MESY 1000s    0000360000002450
62269021024BR-BENZTROP 2mg MESY 100s     0000360000000375
00015301020BR-BLENOXANE 15un vl          0000144000018800
00015306301BR-BLENOXANE 30un vl          0000072000038600
05977270451BR-CAPTO 12.5mg 100s          0000360000000195
05977270471BR-CAPTO 50mg 100s            0000360000000255
59772749004BR-CEFACLOR 125MG/5 1X150     0000240000001750
59772749002BR-CEFACLOR 125MG/5 1X75M     0000240000000675
59772749703BR-CEFACLOR 187MG/5 1X100     0000240000001275
59772749701BR-CEFACLOR 187MG/5 1X50      0000240000000625
05977274914BR-CEFACLOR 250MG CP10 1X100  0000144000004200
59772749204BR-CEFACLOR 250MG/5 1X150     0000240000002000
59772749202BR-CEFACLOR 250MG/5 1X75M     0000240000001000
05977274933BR-CEFACLOR 375MG/5 1X100     0000240000002400
59772749301BR-CEFACLOR 375MG/5 1X50      0000240000001200
05977274944BR-CEFACLOR 500MG CP10 1X100  0000144000009000
00015734639BR-CEFAZOLIN 10GM HO 1X10     0000720000012000
00015733912BR-CEFAZOLIN 1GM VL 10s       0000300000001525
00015733812BR-CEFAZOLIN 500MG VL 10s     0000216000000860
00003074950BR-CEPHALEXIN 250mg Caps 100s 0000360000000640
00003074960BR-CEPHALEXIN 250mg Caps 500s 0000360000002700
00003087450BR-CEPHALEXIN 500mg Caps 100s 0000360000001070
00003087460BR-CEPHALEXIN 500mg Caps 500s 0000360000004900
59772022930BR-CIMETID 300mg 100s         0000360000000912
59772022950BR-CIMETID 300mg 500s         0000360000003100
59772023030BR-CIMETID 400mg 100s         0000360000001000
59772023070BR-CIMETID 400mg 500s         0000360000003800
00015053941BR-CYTOXAN LYOPH 100MG 12'S   0000360000004055
00015054841BR-CYTOXAN LYOPH 1GR 6'S      0000180000007500
00015054641BR-CYTOXAN LYOPH 200MG 12'S   0000216000004665
00015054941BR-CYTOXAN LYOPH 2GR 6'S      0000144000017280
00015054741BR-CYTOXAN LYOPH 500MG 12'S   0000180000008880
00087079641BR-DESYREL 300mg 100s         0000024000040802
00015604811BR-DICLOXACILLIN 250MG 100s   0000360000001120
00003585002BR-DILTIAZEM 120MG TB 100s    0000120000001450
00003525004BR-DILTIAZEM 30MG 1000s       0000180000003200
00003525002BR-DILTIAZEM 30MG 100s        0000240000000410
00003525003BR-DILTIAZEM 30MG 500s        0000120000001750
00003555004BR-DILTIAZEM 60MG 1000s       0000120000005700
00003555002BR-DILTIAZEM 60MG 100s        0000144000000625
00003555003BR-DILTIAZEM 60MG 500s        0000240000003100
00003577002BR-DILTIAZEM 90MG 100s        0000180000000900
00003577003BR-DILTIAZEM 90MG 500s        0000120000004250
00087075601BR-ESTRACE 2mg 100s           0002400000005714
59772002530BR-ESTRADIOL .5mg tab 100s    0000096000000820
59772002630BR-ESTRADIOL 1mg tab 100s     0000360000001040
59772002640BR-ESTRADIOL 1mg tab 500s     0000096000004150
59772002730BR-ESTRADIOL 2mg tab 100s     0000096000001800
59772002740BR-ESTRADIOL 2mg tab 500s     0000096000009750
00003043730BR-FUNGIZONE IV VL 50MG       0002400000000499
62269032029BR-GEMFIBROZIL 600MG TB 500'S 0000144000004400
62269032060BR-GEMFIBROZIL 600MG TB 60'S  0000144000000600
00015029224BR-GLIPIZIDE 10MG TB 100'S EA 0000360000000685
00015029229BR-GLIPIZIDE 10MG TB 500'S EA 0000360000002600
00003083050BR-HYDREA 500MG 100s          0002400000006100
62269025024BR-HYDROXYCHLOR. 200MG 100'S  0000288000004566
62269025029BR-HYDROXYCHLOR. 200MG 500'S  0000288000020650
62269024624BR-INDAPAMIDE 1.25MG 100'S    0000096000000465
62269024630BR-INDAPAMIDE 1.25MG 1000'S   0000096000004500
62269024724BR-INDAPAMIDE 2.5MG 100'S     0000096000000570
62269024730BR-INDAPAMIDE 2.5MG 1000'S EA 0000096000005800
00087076101BR-K-LYTE 25MEQ OR. 30S       0000576000003003
00015350320BR-KANTREX 1GR VL 3ML 10'S    0000036000002100
00015350220BR-KANTREX 500MG VL 2ML 10'S  0000278000001575
00003092328BR-KENALOG vl 40mg/ml 10ml    0002400000003550
00003029305BR-KENALOG vl 40mg/ml 1ml     0007200000000467
00003029320BR-KENALOG vl 40mg/ml 5ml     0002400000002350
00015059501BR-MEGACE 20MG 100'S          0000060000002400
00015059641BR-MEGACE 40MG. 100S          0000600000004500
00015059646BR-MEGACE 40MG. 250S          0000048000013000
00015059645BR-MEGACE 40MG. 500S          0000048000025000
62269026324BR-METOCLOP 5MG TB 100'S EA   0000360000000800
62269026329BR-METOCLOP 5MG TB 500'S EA   0000288000004050
05977236935BR-METOPRO 100mg 1000s        0000360000004600
62269036932BR-METOPRO 100mg 100s         0000360000000525
59772036922BR-METOPRO 50mg 100s          0000360000000425
59772036925BR-METOPROLOL 50MG 1000S      0000360000003100
00087057201BR-MUCOMYST 10% 10ML 3'S      0000360000000885
00087057202BR-MUCOMYST 10% 30ML 3'S      0000360000002050
00087057203BR-MUCOMYST 10% 4ML 12'S      0000360000002375
00087057003BR-MUCOMYST 20% 10ML 3'S      0000360000000925
00087057009BR-MUCOMYST 20% 30ML 3'S      0000360000002600
00087057007BR-MUCOMYST 20% 4ML 12'S      0000360000002600
00015300220BR-MUTAMYCIN 20mg vl          0000010000018000
00015305920BR-MUTAMYCIN 40mg vl          0000288000048235
00015300120BR-MUTAMYCIN 5mg vl           0000288000007500
59772246403BR-NADOLOL 120mg 1000s        0000144000063900
59772024641BR-NADOLOL 120MG TB 100'S     0000096000006500
59772024651BR-NADOLOL 160MG TB 100'S     0000096000007500
59772024611BR-NADOLOL 20MG 100S          0000180000001000
59772024623BR-NADOLOL 40MG 1000S         0000048000024500
59772024621BR-NADOLOL 40MG 100S          0000180000001500
59772024633BR-NADOLOL 80MG 1000S         0000024000030000
59772024631BR-NADOLOL 80MG 100S          0000180000002000
00015710128BR-NAFCIL 10GM BULK VL 10s    0001200000009500
00015722518BR-NAFCIL 1GM ADDVANT 10'S    0001200000001575
00015719528BR-NAFCIL 1GM PB 100ML 10s    0001200000001600
00015722520BR-NAFCIL 1GR 10'S            0001200000001100
00015722618BR-NAFCIL 2GM ADDVANT 10'S    0001200000003500
00015719628BR-NAFCIL 2GM PB 100ML 10s    0001200000003500
00015722620BR-NAFCIL 2GR 10'S            0001200000001695
00015722420BR-NAFCIL 500MG VL 10s        0001200000000875
00015710328BR-OXACILLIN 10GM BULK VL 10s 0000288000014000
00015798189BR-OXACILLIN 1GM ADD A VL 10s 0000600000001600
00015798128BR-OXACILLIN 1GM PB 100ML 10s 0000600000001600
00015798199BR-OXACILLIN 1GM VL 10s       0000600000001600
00015797028BR-OXACILLIN 2gm 100ml 10s    0000144000002500
00015797018BR-OXACILLIN 2GM ADD 10s   adv0000600000003000
00015797020BR-OXACILLIN 2GM VL 10s adv   0000600000002300
00015797920BR-OXACILLIN 500MG VL 10s     0000600000000950
00003096961BR-PRINCI 125mg SUSP 200ml    0000360000000159
00003097252BR-PRINCI 250mg SUSP 100ml    0000360000000140
00003097261BR-PRINCI 250mg SUSP 200ml    0000360000000236
62269027624BR-PROCHLOR 10mg 100s         0000360000003850
62269027524BR-PROCHLOR 5mg 100s          0000360000001275
00003056915BR-PROLIXIN 25mg/ml 5ml       0000480000007500
00015335222BR-RUBEX 50MG                 0000144000006125
00015335322BR-RUBEX VL 100MG             0000144000011200
00003272530BR-TOBRAMYCIN 40MG/ML 30ML    0000200000003300
00003272510BR-TOBRAMYCIN 80 25X2CC       0000500000005800
62269028124BR-TRIFLUOPER HCL 1X100       0000288000002400
00003173740BR-TRIMOX 125mg/5ml 100ml     0000360000000109
00003173745BR-TRIMOX 125mg/5ml 150ml     0000360000000132
00003173840BR-TRIMOX 250mg/5ml 100ml     0000720000000150
00003173845BR-TRIMOX 250mg/5ml 150ml     0000720000000179
00003173830BR-TRIMOX 250mg/5ml 80ml      0000720000000144
00003010150BR-TRIMOX CAP 250MG 100S      0000720000000800
00003010160BR-TRIMOX CAP 250MG 500s      0000720000001800
00015010955BR-TRIMOX CAP 500MG 100S      0000720000000750
00003010960BR-TRIMOX CAP 500MG 500s      0000720000002700
00003095015BR-TUBOCURANINE 3MG 10ML 10   0000048000004700
00003011550BR-VEETIDS 250MG TB 100's     0000360000000222
00003011575BR-VEETIDS 250MG TB 1000's    0000360000001728
00003011650BR-VEETIDS 500MG TB 100's     0000360000000397
00003011675BR-VEETIDS 500MG TB 1000's    0000360000003100
00015309520BR-VEPESID 100MG.             0000288000001475
00015308420BR-VEPESID 150MG              0000288000002000
00015306220BR-VEPESID 1GM.               0000288000013500
00015306120BR-VEPESID 500MG.             0000288000006900
59772038707BR-WARFARIN SOD 10mg 100s     0000144000005711
59772035207BR-WARFARIN SOD 1mg 100s      0000144000003440
59772036407BR-WARFARIN SOD 2.5mg 100s    0000144000003702
59772036307BR-WARFARIN SOD 2mg 100s      0000144000003590
59772036907BR-WARFARIN SOD 4mg 100s      0000144000003728
59772037707BR-WARFARIN SOD 5mg 100s      0000144000003754
59772038607BR-WARFARIN SOD 7.5mg 100s    0000144000005507
79649924030BRK-PRODIUM 30S               0000288000000380
61772060081CHR-AMVISC 16MG/ML            0000150000011500
61772059051CHR-AMVISC Syg 12mg/ml .5ml   0000150000006200
61772059081CHR-AMVISC Syg 12mg/ml .8ml   0000150000009600
58768061010CIB-LIVOSTIN 10ml             0000012000003874
00086006210CRN-SKELEXIN 400MG TB 100s    0000024000004864
00066006960DER-PSORCON CRM 60gm          0000156000007194
00066007131DER-PSORCON OINT 30gm         0000204000004154
00066002825DER-SULFACET R LOT 25GM       0000180000002996
49502018200DEY-ACETYLCYST 20% VIAL       0000600000004200
49502069703DEY-ALBUTEROL .83mg 3ml 25s   0002400000000651
49502069733DEY-ALBUTEROL .83mg 3ml 30s   0002400000000867
49502069760DEY-ALBUTEROL .83mg 3ml 60s   0002400000001562
49502030317DEY-ALBUTEROL 90mcg Inh 17gm  0004800000000287
49502030327DEY-ALBUTEROL 90mcg inh refil 0000600000000290
49502068912DEY-CROMOLYN NEB 120s         0000600000003417
49502068902DEY-CROMOLYN NEB 60s          0000600000001707
49502068503DEY-IPRAT BROM 2.5ml 25s      0002400000001492
49502068560DEY-IPRAT BROM 2.5ml 60s      0002400000003660
49502067803DEY-METAPROTER .4% 2.5ml 25s  0002400000000707
49502067603DEY-METAPROTER .6% 2.5ml 25s  0002400000000707
49502082003DEY-SOD CHL .45% 3ml 100s     0000600000001134
49502082005DEY-SOD CHL .45% 5ml 100s     0000600000001134
49502083003DEY-SOD CHL .9% 3ml 100s      0002400000000804
49502083005DEY-SOD CHL .9% 5ml 100s      0002400000000804
49502064115DEY-SOD CHL 10% 15ml 50s      0000600000003524
49502064015DEY-SOD CHL 3% 15ml 50s       0000600000003524
49502083015DEY-SOD CHLOR .9% UD 24s      0000600000000616
49502043101DEY-THEOPHYLLINE 100MG 100s   0000600000000319
49502043201DEY-THEOPHYLLINE 200MG 100s   0000600000000500
49502043205DEY-THEOPHYLLINE 200MG 500s   0000600000002229
49502043310DEY-THEOPHYLLINE 300MG 1000s  0000600000004904
49502043301DEY-THEOPHYLLINE 300MG 100s   0000600000000663
49502043305DEY-THEOPHYLLINE 300MG 500s   0000600000002711
49502081005DEY-WATER FOR INH VL UD 100s  0000600000001145
51285060105DM-3-APAP/COD. 300/30mg 1000s 0000144000005000
51285060102DM-3-APAP/COD. 300/30mg 100s  0000144000000600
51285060202DM-4-APAP/COD. 300/60mg 100s  0000144000001110
51285060204DM-4-APAP/COD. 300/60mg 500s  0000144000005190
51285036402DM-DURADRIN CAPS 100s         0000600000001951
51285029302DM-DURATEX CAPS 100s          0000600000002100
51285050102DM-ESTRADIOL .5mg 100s        0000720000000520
51285050202DM-ESTRADIOL 1mg 100s         0000720000000825
51285050402DM-ESTRADIOL 2mg 100s         0000720000001020
51285087502DM-ESTROPIPATE .75mg 100s     0000420000001500
51285087602DM-ESTROPIPATE 1.5mg 100s     0000420000001800
51285041702DM-GUAIFEN 600mg 100s         0000720000001020
51285042002DM-GUAIFEN DM 600/30mg 100s   0000720000001120
51285030102DM-METHYLPRED 4mg 100s        0000720000001580
51285030121DM-METHYLPRED 4MG TB 21s      0000960000000350
51285058502DM-METOCLOP 5MG TB 100s       0000600000000500
51285040102DM-PSEU-HCI/GUAIFEN 120/600mg 0000144000001800
51285071757DM-TRIOTANN liquid 16oz       0000144000000900
51285082502DM-TRIOTANN TAB 100s          0000720000000710
00056017475DUP-COUMADIN 10MG UD 100's    0001576000006892
00056018875DUP-COUMADIN 3MG UD 100S      0000710000004766
00056016875DUP-COUMADIN 4MG UD 100S      0001276000004779
00056018975DUP-COUMADIN 6MG UD 100's     0000600000006421
00056017375DUP-COUMADIN 7.5MG UD 100S    0001000000006644
00590043310ENDO-NUBAIN 20MG/ML 1ML       0000070000001620
61703021701FLD-5-EPHEDRINE 50mg 1ml 25s  0000288000004000
61703020331FLD-ACETYLCYST 10% 30ml 10s   0000288000009000
61703020304FLD-ACETYLCYST 10% 4ml 10s    0000288000001200
61703020431FLD-ACETYLCYST 20% 30ml 10s   0000288000008500
61703020404FLD-ACETYLCYST 20% 4ml 10s    0000288000001500
61703031121FLD-ACYCLOVIR 25mg/ml 20ml 10s0000288000030000
61703031143FLD-ACYCLOVIR 25mg/ml 40ml 10s0000288000060000
61703040123FLD-ALCOHOL DEHYD 1ml 10s     0000288000006000
61703040151FLD-ALCOHOL DEHYD 5ml 10s     0000288000030000
61703020207FLD-AMIKACIN 250mg/ml 2ml 10s 0000288000040000
61703020802FLD-AMIKACIN 250mg/ml 3ml 10s 0000288000050000
61703020204FLD-AMIKACIN 250mg/ml 4ml 10s 0000288000080000
61703020107FLD-AMIKACIN 50mg/ml 2ml 10s  0000288000025000
61703031332FLD-ATRACUR 10mg/ml 10ml 10s  0000288000020000
61703031253FLD-ATRACUR 10mg/ml 5ml 10s   0000288000014000
61703030425FLD-CYTARABINE 20mg/ml 25ml 5s0000288000004500
61703030350FLD-CYTARABINE 20mg/ml 50ml 5s0000288000009000
61703030509FLD-CYTARABINE 20mg/ml 5ml 10s0000288000004500
61703040232FLD-METHYLENE BLUE 1% 10ml 10s0000288000008500
61703040242FLD-METHYLENE BLUE 1% 1ml 10s 0000288000003500
61703021011FLD-METOCLOP 5mg/ml 10ml 25s  0000288000006000
61703021021FLD-METOCLOP 5mg/ml 20ml 10s  0000288000004000
61703021007FLD-METOCLOP 5mg/ml 2ml 25s   0000288000001781
61703021031FLD-METOCLOP 5mg/ml 30ml 10s  0000288000006000
61703030605FLD-MITOMYCIN 20mg 50ml ea    0000288000030000
61703040628FLD-PHYSOSTIG 1mg/ml 2ml 10s  0000288000003000
61703031018FLD-VINBLASTINE 1mg/ml 10ml ea0000288000003000
61703030906FLD-VINCRISTINE 1mg/ml 1ml ea 0000288000002650
61703030916FLD-VINCRISTINE 1mg/ml 2ml ea 0000288000002850
55566150101FRR-NOVAREL 10000IU 10ML      0003000000001867
00703352401GEN-DEXAMETH 10mg/ml 10ml ea  0000600000000240
00703504303GEN-DOXORUBICIN 10mg wial 5s  0000144000013000
00703504001GEN-DOXORUBICIN 200mg vial 1000000144000023800
00703504601GEN-DOXORUBICIN 50mg vial 25s 0000144000006780
00703564601GEN-ETOPOSIDE 20mg/ml 25ml ea 0000144000015200
00703564301GEN-ETOPOSIDE 20mg/ml 5ml     0000288000003150
00703532403GEN-L-CYCSTINE 50mg 10ml 10s  0000288000004200
00703514001GEN-LEUCOVORIN CAL 100mg 20ml 0000288000000445
00703540801GEN-LEVOTHYROX SOD 200mg 6ml  0000288000000480
00703537504GEN-MAGNESIUM SULF 50%        0000288000002500
00703450204GEN-METOCLOPRAMINE 5mg/ml 25s 0000480000001200
00703271103GEN-NEOSTIGMINE .5mg 1ml 10s  0000288000001300
00703271403GEN-NEOSTIGMINE 10ml 10s      0000288000001340
00703270403GEN-NEOSTIGMINE 1mg 10ml 10s  0000240000001350
00703180201GEN-NITROPRUSSIDE 25mg 2ml ea 0001400000000240
00703280403GEN-PANCURONIUM 1mg 10ml 10s  0000288000003800
00703281204GEN-PANCURONIUM 2mg 2ml 25s   0000288000003200
00703533803GEN-SODIUM CHLOR 4meq/ml      0000288000002250
00703940204GEN-TOBRAMYCIN 40mg/ml 2ml 25s0000144000008800
00703941601GEN-TOBRAMYCIN 40mg/ml 30ml ea0000240000005000
59762371904GR-4-ALPRAZOLAM .25mg 1000s   0000096000001735
59762371901GR-4-ALPRAZOLAM .25mg 100s    0000288000000193
59762371903GR-4-ALPRAZOLAM .25mg 500s    0000144000000915
59762372004GR-4-ALPRAZOLAM .5mg 1000s    0000096000002165
59762372003GR-4-ALPRAZOLAM .5mg 500s     0000144000001142
59762372104GR-4-ALPRAZOLAM 1mg 1000s     0000096000002314
59762372101GR-4-ALPRAZOLAM 1mg 100s      0000288000000300
59762372103GR-4-ALPRAZOLAM 1mg 500s      0000144000001425
59762372201GR-4-ALPRAZOLAM 2mg 100s      0000288000000700
59762332801GR-CLINDAMYC 150mg 100s       0001200000003000
59762372501GR-GLYBURIDE 1.25mg 100s      0000288000000351
59762372603GR-GLYBURIDE 2.5mg 100s       0000288000000569
59762332702GR-METHYLPRED 4mg 100s        0000288000001962
59762332701GR-METHYLPRED 4mg 21s         0000864000000398
59762378101GR-MICRO GLYBURIDE 1.5mg 100s 0000288000000971
59762378203GR-MICRO GLYBURIDE 3mg 1000s  0000144000017294
59762378201GR-MICRO GLYBURIDE 3mg 100s   0000288000001218
59762378303GR-MICRO GLYBURIDE 6mg 1000s  0000096000038447
59762378301GR-MICRO GLYBURIDE 6mg 100s   0000288000004382
00713011812GW-ACEPHEN 120mg Supp 12s     0000144000000264
00713016412GW-ACEPHEN 325mg Supp 12s     0000144000000277
00713016512GW-ACEPHEN 650mg Supp 12s     0000144000000278
00713010912GW-BISAC-EVAC 10mg Supp 12s   0000288000000132
00713010102GW-SANI-SUPP Adult Supp 100s  0000144000000277
00713010113GW-SANI-SUPP Ped Supp 12s     0000288000000087
00713010709GW-TEBAMIDE 100mg Supp 10s    0000288000000337
00713010809GW-TEBAMIDE 200mg 10s         0000288000000360
00088120632HOE-ANZEMET 100mg VL          0000960000008700
00014000701ICN-LIBRAX CAP 100s           0002500000012305
58406062307IMM-LEUCOVORIN CAL 350MG VL EA0000480000001700
58406067105IMM-METHOTREXATE 1GRM.        0001200000002490
58406068117IMM-METHOTREXATE 25MG/ML 10ML 0004500000000720
58406068315IMM-METHOTREXATE LPF 50MG     0002400000000315
58406068114IMM-METHOTREXATE LPP 50MG     0004800000000320
58406068316IMM-METHOTRXATE 250MG LPF 10CC0001200000000730
58406068312IMM-METHOTRXATE LPF 200MG     0001200000000700
00689113001JMI-LEVOXYL 112MCG 100'S      0000012000000986
00904057160MAJ-3-ACET /COD. #2 TAB 100'S 0000110000000675
00904391660MAJ-3-ACET /COD. #4 TAB 100S  0000110000001685
00904391640MAJ-3-ACET /COD. #4 TAB 500'S 0000110000007600
00904528860MAJ-3-HYDROCO 10/650MG TAB 1000000110000001555
00904344040MAJ-3-HYDROCO 5/500MG TB 500'S0000110000002120
00904763160MAJ-3-HYDROCO 7.5/500MG 100'S 0000110000002590
00904763260MAJ-3-HYDROCO-ES 7.5/750MG 1000000110000002785
00904763240MAJ-3-HYDROCO-ES 7.5/750MG 5000000110000012320
00904763140MAJ-3-HYDROCOD 7.5/500MG 500'S0000110000010565
00904120116MAJ-3-ROLATUSS LIQ. PT        0000110000000930
00904130016MAJ-4-CHLOR HYDR. SYRUP PT    0000110000000775
00904009160MAJ-4-CHLORDIAZ 10MG CAP 100'S0000110000000400
00904009060MAJ-4-CHLORDIAZ 5MG CAP       0000110000000365
00904390260MAJ-4-DIAZEPAM 10MG TAB 100'S 0000110000000270
00904390240MAJ-4-DIAZEPAM 10MG TAB 500'S 0000110000000755
00904390180MAJ-4-DIAZEPAM 5MG TAB 1000'S 0000110000001230
00904189160MAJ-4-OXAZEPAM 15MG CAP 100'S 0000110000004570
00904189260MAJ-4-OXAZEPAM 30MG CAP 100'S 0000110000006945
00904381680MAJ-4-PHENOBARB 1/2GR TB 1000S0000110000000775
00904101516MAJ-4-PHENOBARB ELIXER PT     0000110000000390
00904061460MAJ-4-PHETER 30MG CAP 100'S   0000110000000805
00904770160MAJ-4-PROPOX CMPD CAP 100'S   0000110000001295
00904281060MAJ-4-TEMAZEPAM 15MG CAP 100'S0000110000003465
00904281140MAJ-4-TEMAZEPAM 30MG CAP 500'S0000110000018100
00904777516MAJ-5-ACET /COD. SOLN. PT     0000110000000685
00904506516MAJ-5-ROBAFEN AC SYR. PT      0000110000000600
00904772714MAJ-ACID-GONE TAB 100s        0000300000000286
00904421360MAJ-ACIDOPHILUS CP 100s       0000300000000263
00904227360MAJ-AMINOPHYL 100MG TB 100s   0000300000000290
00901020161MAJ-AMITRIPTYL 25MG UD 100s   0000300000001062
00904399660MAJ-AMOXAPINE 100MG TB 100s   0000300000007295
00904399746MAJ-AMOXAPINE 150MG TB 30s    0000300000003500
00904399460MAJ-AMOXAPINE 25MG TB 100s    0000300000003000
00904399461MAJ-AMOXAPINE 25MG TB UD 100s 0000300000003751
00904399560MAJ-AMOXAPINE 50MG TB 100s    0000300000004000
00904399561MAJ-AMOXAPINE 50MG TB UD 100s 0000300000005946
00904261904MAJ-AMOXICILL 125MG/5ML 100ML 0000300000000180
00904261907MAJ-AMOXICILL 125MG/5ML 150ML 0000300000000226
00904771360MAJ-AMOXICILL 250MG CHW 100s  0000300000001951
00904771340MAJ-AMOXICILL 250MG CHW 500s  0000300000008406
00904261760MAJ-AMOXICILL 250MG CP 100s   0000300000000974
00904261740MAJ-AMOXICILL 250MG CP 500s   0000300000003739
00904262004MAJ-AMOXICILL 250MG/5ML 100ML 0000300000000293
00904262007MAJ-AMOXICILL 250MG/5ML 150ML 0000300000000357
00904261840MAJ-AMOXICILL 500MG CP 500s   0000300000007350
00904261851MAJ-AMOXICILL 500MG CP 50s    0000300000001034
00904201760MAJ-AMPICILLIN 250MG CP 100s  0000300000000717
00904201740MAJ-AMPICILLIN 250MG CP 500s  0000300000002832
00904207360MAJ-AMPICILLIN 500MG CP 100s  0000300000001217
00904207340MAJ-AMPICILLIN 500MG CP 500s  0000300000005250
00904016060MAJ-ANU-MED HC SUPP 100s      0000300000003150
00904768822MAJ-ANU-MED NEW FORM SUPP 12s 0000300000000162
00904016012MAJ-ANU-MED SUPP 12s          0000300000000319
00904025059MAJ-APRODINE 60/2.5mg 100s    0000300000000249
00904200960MAJ-ASPIRIN 325mg 100s        0001200000000073
00904201360MAJ-ASPIRIN 5gr 100s          0001200000000138
00904058260MAJ-ASPIRIN 975mg TB 100s     0001200000000785
00904404073MAJ-ASPIRIN CHILD 81mg TB 36s 0001200000000087
00904770470MAJ-ASPIRIN LOW 81mg EC 250s  0001200000000435
00904122800MAJ-BANOPHEN ELIX 4oz         0000300000000098
00904203559MAJ-BANOPHEN TAB 100s         0000300000000279
00904254860MAJ-BELLAMINE TABS 100s       0000300000002286
00904105561MAJ-BENZTROPINE .5MG UD 100s  0000300000000700
00904076636MAJ-BETAMETH CR .05% 15GM     0000300000000367
00904076645MAJ-BETAMETH CR .05% 45GM     0000300000000688
00904076803MAJ-BETAMETH LOT .05% 60ML    0000300000000752
00904076736MAJ-BETAMETH OINT .05% 15GM   0000300000000367
00904076745MAJ-BETAMETH OINT .05% 45GM   0000300000000680
00904040616MAJ-BETHAPRIM PED SUS PINT    0000300000000550
00904040516MAJ-BETHAPRIM SUSP PINT       0000300000000695
00904020961MAJ-BISACODYL 5MG TB UD 100s  0001200000000300
00904792760MAJ-BISACODYL EC 5MG 100'S    0001200000000185
00904131309MAJ-BISMATROL LIQ 8oz         0001200000000160
00904131546MAJ-BISMATROL TB 30'S         0001200000000185
00904352403MAJ-BOROFAIR OTIC SOL 2oz     0000300000000754
00904071716MAJ-BROMANATE DX COUGH PINT   0000300000000624
00904123020MAJ-BYDRAMINE 12.5MG SYR 120ML0000300000000112
00904123016MAJ-BYDRAMINE COUGH SYR PINT  0000300000000400
00904175089MAJ-CAFATINE PB TB 90s        0000300000004277
00904125892MAJ-CAL ANTACID ASTDTAB       0000300000000220
00904253300MAJ-CALAMINE LOTION 4oz       0000300000000112
00904323261MAJ-CALCIUM CARB 600MG UD 100s0000300000000500
00904776021MAJ-CALLERGY CLEAR LOT 180ML  0000300000000160
00904211574MAJ-CALULOSE SYR 64oz         0000300000005463
00904211516MAJ-CALULOSE SYR PINT         0000300000001581
00904211769MAJ-CATULAC SYR 32oz          0000300000002835
00904211709MAJ-CATULAC SYR 8oz           0000300000000775
00904264013MAJ-CERTA VITE TB 130'S       0001200000000375
00904018460MAJ-CHLOROTHIAZ 500MG TB 100s 0000300000000798
00904354560MAJ-CHLORTOX LA CAP 100s      0000300000001775
00904773303MAJ-CLINDAMYC PHOS 1% SOL 60ML0000300000001200
00904782231MAJ-CLOTRIMAZOLE 30gm 1% CRM  0000300000000465
00904204360MAJ-CORTISONE 25MG TB 100s    0000300000002927
00904315110MAJ-CORTOMYC OT SOL 10ML      0000300000000510
00904780980MAJ-CYCLOBENZAPRI 10MG 1000s  0000300000025000
00904780960MAJ-CYCLOBENZAPRI 10MG 100s   0000300000004838
00904222161MAJ-CYCLOBENZAPRI 10MG UD 100s0000300000005620
00904114616MAJ-CYPROHEPTADIN 2MG/5ML PINT0000300000000490
00904386575MAJ-DEEP SEA .65% NOSE 45ML   0001200000000117
00904024360MAJ-DEXAMETH .5MG TB 100s     0000300000000330
00904024460MAJ-DEXAMETH .75MG TB 100s    0000300000000442
00904024412MAJ-DEXAMETH .75MG UNIPAK 12s 0000300000000265
00904066815MAJ-DEXAPHEN 120/6 TB 10s     0000300000000245
00904066760MAJ-DEXAPHEN TAB 100s         0000300000000883
00904264760MAJ-DICLOXACIL 250MG CP 100s  0000300000002426
00904264860MAJ-DICLOXACIL 500MG CP 100s  0000300000003350
00904789680MAJ-DICYCLOMINE 10MG CP 1000s 0000300000014500
00904776461MAJ-DIFLUNISAL 500MG UD 100s  0000300000008779
00904771760MAJ-DILTIAZEM 120MG TB 100s   0000300000006059
00904771460MAJ-DILTIAZEM 30MG TB 100s    0000300000002100
00904771461MAJ-DILTIAZEM 30MG TB UD 100s 0000300000002500
00904771560MAJ-DILTIAZEM 60MG TB 100s    0000300000003327
00904771661MAJ-DILTIAZEM 90MG TB UD 100s 0000300000005268
00904205661MAJ-DIPHENHYD 50MG CP UD 100s 0000300000000360
00904092416MAJ-DOK SYRUP PINT            0000300000000335
00904098128MAJ-DONNAPINE ELIXER GAL      0000300000004146
00904098116MAJ-DONNAPINE ELIXER PINT     0000300000000633
00904326340MAJ-ENOMINE CAP 500s          0000300000002235
00904326216MAJ-ENOMINE LIQUID PINT       0000300000001071
00904033640MAJ-ERGOLOID MES 1MG ORAL 500s0000300000005325
00904265308MAJ-ERYTH/SUCC 200MG/5ML 200ML0000300000001127
00904774340MAJ-ERYTHRO DEL REL 250CP 100s0000300000001644
00904774340MAJ-ERYTHRO DEL REL 250CP 500s0000300000007360
00904284503MAJ-ERYTHRO SOL 2% 60ML       0000300000000377
00904247016MAJ-ERYTHROMY 125MG/5ML PINT  0000300000001400
00904246216MAJ-ERYTHROMY 200MG PINT      0000300000001450
00904247116MAJ-ERYTHROMY 250MG/5ML PINT  0000300000002325
00904246316MAJ-ERYTHROMY 400MG PINT      0000300000001795
00904166420MAJ-EYE WASH DROPS 120ML      0001200000000155
00904067761MAJ-FERROUS 250MG TR UD 100s  0001200000000457
00904759161MAJ-FERROUS 5GR GRN UD 100s   0001200000000300
00904213780MAJ-FERROUS GLUC 325MG 1000s  0001200000000894
00904146516MAJ-FERROUS SULF 220MG PINT   0001200000000400
00904098950MAJ-FERROUS SULF 50ML DROPS   0001200000000285
00904404360MAJ-FISH OIL 1000mg 100s      0001200000000463
00904077036MAJ-FLUOCINON .05% CR 15GM    0000300000000269
00904266336MAJ-GENTAMICIN CR 15GM        0000300000000202
00904266436MAJ-GENTAMICIN OINT 15GM      0000300000000202
00904190705MAJ-GENTAMICIN OPTH SOL 5ML   0000300000000364
00904257960MAJ-GLUTAMIC ACID 340MG 100s  0000300000000488
00904775960MAJ-GUAIFENESIN 600MG LA 100s 0000300000000700
00904183040MAJ-HALOPERIDOL .5MG WHT 500s 0000300000000800
00904173460MAJ-HALOPERIDOL 10MG AQUA 100s0000300000002827
00904234160MAJ-HYDRALAZINE 100MG TB 100s 0000300000000449
00904208980MAJ-HYDROCHLORTHAL 50MG 1000s 0000300000001074
00904267460MAJ-HYDROCORT 20MG TB 100s    0000300000000743
00904075631MAJ-HYDROCORT CR 2.5% 30GM    0000300000000450
00904762331MAJ-HYDROCORT CRM 1% 1oz      0000300000000125
00904035861MAJ-HYDROXYZINE 25MG UD 100s  0000300000002314
00904037916MAJ-HYDROXYZINE SYR PINT      0000300000000846
00904209560MAJ-ISONIAZID 100MG TB 100s   0000300000000373
00904209680MAJ-ISONIAZID 300MG TB 1000s  0000300000004835
00904063680MAJ-ISOXSUPRINE 20MG TB 1000s 0000300000002975
00904063661MAJ-ISOXSUPRINE 20MG UD 100s  0000300000000495
00904268760MAJ-L-LYSINE 500MG TB 100s    0000300000000205
00904291280MAJ-LITHIUM CARB 300MG CP 10000000300000003936
00904291260MAJ-LITHIUM CARB 300MG CP 100s0000300000000440
00904291416MAJ-LITHIUM CIT SYR PINT      0000300000001135
00904761760MAJ-LOPERAMIDE 2mg 100s       0001200000002400
00904772512MAJ-LOPERAMIDE 2mg 12s        0001200000000218
00904761740MAJ-LOPERAMIDE 2mg 500s       0001200000008300
00904003620MAJ-LOPERAMIDE OR MG/5ML      0001200000000242
00904202060MAJ-MAJORCIN TB 100s          0000300000000158
00904198359MAJ-MAPAP ACETAM 100mg 500s   0000300000000181
00904198259MAJ-MAPAP ACETAM 325mg 100s   0000300000000130
00904238460MAJ-MECLIZINE 12.5mg 100s     0000300000000229
00904357160MAJ-MEGASTROL 40MG TB 100s    0000300000004900
00904357140MAJ-MEGASTROL 40MG TB 500s    0000300000020500
00904287860MAJ-METAPROTER 10MG TB 100s   0000300000000958
00904287960MAJ-METAPROTER 20MG TB 100s   0000300000001196
00904781360MAJ-METHYLDOP 250/15 TB 100s  0000300000001395
00904781460MAJ-METHYLDOP 250/25 TB 100s  0000300000001508
00904145360MAJ-METRONID 250MG TB 100s    0000300000000534
00904145340MAJ-METRONID 250MG TB 500s    0000300000001565
00904506860MAJ-MI-ACID 80mg chew 100s    0000300000000239
00904000514MAJ-MI-ACID II LIQ 12oz       0000300000000192
00904029652MAJ-MI-ACID II TB 60s         0000300000000245
00904000414MAJ-MI-ACID LIQ 12oz          0000300000000134
00904773445MAJ-MICONAZOLE Cream 2% Vag   0001200000000780
00904762260MAJ-MIGRATANE CAP 100s        0001200000000825
00904047860MAJ-MINTOX PLUS 100s          0000300000000246
00904000314MAJ-MINTOX PLUS SUS 12oz      0000300000000218
00904000214MAJ-MINTOX SUSP 12oz          0000300000000134
00904101130MAJ-NALGEST PED DRP 30ML      0000300000000635
00904101016MAJ-NALGEST PED SYRUP PINT    0000300000000452
00024100416MAJ-NALGEST SYRUP PINT        0000300000000423
00904780260MAJ-NAPROXEN 275MG TB 100s    0000300000004050
00904188572MAJ-OYS/SHL 500MG 300'S       0001200000000555
00904188261MAJ-OYS/SHL D 250MG UD 100'S  0001200000000300
00904766069MAJ-PEDIATRIC ELECTRO 32oz    0000300000002500
00904268360MAJ-POLY TAB CHEW .5MG 100s   0000300000000285
00904100716MAJ-POT CHLOR RED 10% 16oz    0000300000000170
00904531360MAJ-PRENATAL OTC TB 100s      0001200000000310
00904056060MAJ-PRIMIDONE 250MG TB 100s   0000300000002328
00904234440MAJ-PROPANTHELINE 15MG TB 500s0000300000005830
00904041180MAJ-PROPRANOL 10MG TB 1000s   0000300000000650
00904041160MAJ-PROPRANOL 10MG TB 100s    0000300000000275
00904041161MAJ-PROPRANOL 10MG TB UD 100s 0000300000001004
00904041261MAJ-PROPRANOL 20MG TB UD 100s 0000300000001464
00904041460MAJ-PROPRANOL 40MG TB 100s    0000300000000525
00904041461MAJ-PROPRANOL 40MG TB UD 100s 0000300000001875
00904042160MAJ-PROPRANOL LA 60MG CP 100s 0000300000004582
00045041660MAJ-PROPRANOLOL 60MG TB 100s  0000300000000375
00904424616MAJ-PROTIEN PWDR VANILLA 1 LB 0000300000000460
00904132377MAJ-PSEU-ALL NITE CHRY 10oz   0000300000000244
00904132321MAJ-PSEU-ALL NITE CHRY 6oz    0000300000000167
00904132277MAJ-PSEU-ALL NITE FORM 10oz   0000300000000244
00904765220MAJ-PSEU-DIMAPHEN DM ELX 4oz  0000300000000147
00904071300MAJ-PSEU-DIMAPHEN ELIX 4oz    0000300000000100
00904071328MAJ-PSEU-DIMAPHEN ELIXER GAL  0000300000001920
00904021412MAJ-PSEU-DIMAPHEN TAB 12s     0000300000000211
00904021624MAJ-PSEU-DIMAPHEN TB 24'S     0000300000000130
00904768960MAJ-PSEU-G/PSI CPLTS 100s     0000300000002610
00904768970MAJ-PSEU-G/PSI CPLTS 250s     0000300000006922
00904788420MAJ-PSEU-THERA HISTAL SYR 4oz 0000300000000127
00904033020MAJ-PSEU-THERA-HIST EXPECT 4oz0000300000000117
00904166616MAJ-RENTAMINE PED SUS PINT    0000300000002295
00904765016MAJ-RHINATATE PED PINT        0000300000001195
00904166960MAJ-RHINATATE TAB 100s        0000300000000765
00904166970MAJ-RHINATATE TAB 250s        0000300000002076
00904119840MAJ-ROLATUSS SR TB 500s       0000300000003245
00904772614MAJ-RON ACID SUS 12oz         0000300000000204
00904323514MAJ-RON-AID SUS 12oz          0000300000000175
00904070300MAJ-RONDAMINE DM SYR 120ML    0000300000000195
00904112730MAJ-S0D FLUOR .125MG DRP 30ML 0000300000000243
00904125360MAJ-SALSALATE 500MG BLU 100s  0000300000000791
00904125340MAJ-SALSALATE 500MG BLU 500s  0000300000002700
00904125040MAJ-SALSALATE 500MG YLW 500s  0000300000002700
00904125460MAJ-SALSALATE 750MG BLU 100s  0000300000000775
00904125440MAJ-SALSALATE 750MG BLU 500s  0000300000003661
00904125160MAJ-SALSALATE 750MG YLW 100s  0000300000000775
00904125140MAJ-SALSALATE 750MG YLW 500s  0000300000003661
00904125061MAJ-SALSALATE YLW UD 100s     0000300000001400
00904272454MAJ-SEL-PEN BLUE 1% SHP 7oz   0000300000000299
00904516559MAJ-SENNA LAX 187mg 100s      0001200000000250
00904272660MAJ-SMZ 400/80 SS 100s        0000300000000845
00904272561MAJ-SMZ 800/160 DS UD 100s    0000300000002466
00904177021MAJ-SORE THROAT SPYMENTH 6oz  0000300000000140
00904034380MAJ-SPIRONOLACT 25MG TB 1000s 0000300000003061
00904512559MAJ-SUDOGEST 60mg 100s        0000300000000269
00904118660MAJ-SULFINPYRAZ 100MG TB 100s 0000300000000702
00904118760MAJ-SULFINPYRAZ 200MG CP 100s 0000300000001435
00904337860MAJ-SULINDAC 150MG TB 100s    0000300000004725
00904337840MAJ-SULINDAC 150MG TB 500s    0000300000015000
00904337960MAJ-SULINDAC 200MG TB 100s    0000300000005000
00904337940MAJ-SULINDAC 200MG TB 500s    0000300000020000
00904053060MAJ-TAB-A-VITE TB 100s        0000300000000181
00904144416MAJ-THEOPHYLLIN ELIXER PINT   0000300000000263
00904077460MAJ-THEOTAL TAB 100s          0000300000000769
00904053820MAJ-THERA LIQUID 4oz          0000300000000399
00904054013MAJ-THERA M MULTIVITE 130s    0000300000000370
00904430309MAJ-THERA-DERM BATH OIL 8oz   0000300000000195
00904429909MAJ-THERA-DERM MOIST LOT 8oz  0000300000000172
00904404451MAJ-THERMAOMETER PROBE COV 50s0000300000000229
00904399160MAJ-TRAZODONE 100MG TB 100s   0000300000002200
00904399140MAJ-TRAZODONE 100MG TB 500s   0000300000005500
00904399161MAJ-TRAZODONE 100MG TB UD 100s0000300000004500
00904399060MAJ-TRAZODONE 50MG TB 100s    0000300000001500
00904399040MAJ-TRAZODONE 50MG TB 500s    0000300000003862
00904088444MAJ-TRIAMCINOL 4MG UNIPAK 16s 0000300000000680
00904032240MAJ-TUSSOGEST CAP SA 500s     0000300000004468
00904032260MAJ-TUSSOGEST CP SA 100s      0000300000001694
00904521730MAJ-TWICE-A-DAY .05% SPY 30ML 0000300000000113
00904328680MAJ-URAPINE TB 1000s          0000300000003950
00904328660MAJ-URAPINE TB 100s           0000300000000515
00904210316MAJ-VALPROIC ACID 250MG PINT  0000300000002876
00904031535MAJ-VASOLATE EAR 2% SOL 15ML  0000300000000194
00904292460MAJ-VERAPAMIL 120MG TB 100s   0000300000000670
00904292440MAJ-VERAPAMIL 120MG TB 500s   0000300000003000
00904292461MAJ-VERAPAMIL 120MG UD 100s   0000300000002850
00904292080MAJ-VERAPAMIL 80MG TB 1000s   0000300000007950
00904292060MAJ-VERAPAMIL 80MG TB 100s    0000300000000640
00904292040MAJ-VERAPAMIL 80MG TB 500s    0000300000002485
00904292061MAJ-VERAPAMIL 80MG TB UD 100s 0000300000002175
00904260822MAJ-VIT A&D OINT 120ML        0000600000000147
00904418160MAJ-VIT B COMP W/B-12 100s    0000600000000257
00904054480MAJ-VIT B-1 100MG TB 1000s    0000600000001245
00904051860MAJ-VIT B-6 100MG TB 100s     0000600000000212
00904052660MAJ-VIT C 500MG 100'S         0000600000000286
00904052360MAJ-VIT C 500MG 100'S         0000600000000286
00904052361MAJ-VIT C 500MG TB UD 100s    0000600000000493
00904030361MAJ-VIT C CAP-D 100s          0000600000000497
00904424960MAJ-VIT C W/RH 500MG TB 100s  0000600000000248
00904029160MAJ-VIT D 50,000 UNITS 100s   0000600000000465
00904027460MAJ-VIT E 400IU 100s          0000600000000365
00904275260MAJ-VIT E CAP NAT 100s        0000600000000512
00904184322MAJ-VIT E CREAM 120ML         0000600000000189
00904430535MAJ-WART-AWAY LIQUID 5oz      0000300000000125
00904325580MAJ-YOHIMBINE 5MG TB 1000s    0000600000005500
00904325560MAJ-YOHIMBINE 5MG TB 100s     0000600000000500
00904275802MAJ-ZINC OXIDE OINT 2oz       0000600000000115
00904428160MAJ-ZINC/C 23MG 100'S         0000600000000290
60574310101MDI-CYTOGAM 2.5GM VL          0000175000040813
53014037751MED-AMERICAINE 20% SOL .5oz   0000144000001350
53014001710MED-DECONSAL II 100s          0000096000004930
53014031114MED-SYN RX DM TAB 56s         0000324000002890
00006477500MER-RECOMBIVAX 10MCG/ML 1ML   0002400000003973
00006477300MER-RECOMBIVAX HB 10MG/ML 3ML 0000480000014200
00006479900MER-RECOMBIVAX SDV 2.5MG .5ML 0002400000001285
61570058210MON-3-KETALAR 50mg/ml 10ml    0000012000017400
61570001716MON-3-NUCOFED 20mg/60mg 473ml 0000096000005318
61570001860MON-3-NUCOFED 20mg/60mg 60s   0000096000003949
61570001616MON-3-NUCOFED EXPECT SOL 473ml0000096000005539
61570000416MON-3-TUSSEND 2.5/30/2mg 480ml0000096000004565
61570001101MON-3-TUSSEND 5/60/4mg 100s   0000096000005736
61570000516MON-3-TUSSEND EXPECT 2.5/30mg 0000096000004876
61570001516MON-5-NUCOFED PED 10/30/100mg 0000096000003801
61570030031MON-ADRENALIN 1mg/ml 30ml     0000096000000884
61570017261MON-ANUSOL HC 25mg supp 12s   0000276000002604
61570017262MON-ANUSOL HC 25mg supp 24s   0000612000004376
61570031311MON-ANUSOL HC Cream 2.5oz     0000360000002350
00068009904MON-AVC CREAM W/APPL 4oz      0000816000002905
61570008416MON-AVC W/INSERT SUPP 16s     0000012000003155
61570041451MON-COLY MYCIN M 150mg 2ml    0003214000003252
61570003150MON-CORTISPORIN Oint 15gm     0001651000003050
61570003535MON-CORTISPORIN Oint 3.5gm    0001292000002465
61570003675MON-CORTISPORIN Opth sus 7.5ml0001316000002763
61570003410MON-CORTISPORIN Otic sol 10ml 0001645000002958
61570003310MON-CORTISPORIN Otic sus 10ml 0001998000002958
61570009010MON-CORTISPORIN-TC susp 10ml  0000246000003006
61570005901MON-KEMADRIN 5mg 100s         0000775000004753
61570007201MON-MENEST .3mg 100s          0000024000001269
61570004510MON-NEOSPORIN Opth 10ml       0000296000002145
61570003875MON-PEDIOTIC susp 7.5ml       0002319000002605
61570004935MON-POLYSPORIN Opth Oint 3.5gm0000108000002234
61570002801MON-PROCTOCORT Cream 1% 30gm  0000441000002876
61570002512MON-PROCTOCORT supp 30gm 12s  0001973000003009
61570001901MON-QUIBRON T/SR 300mg 100s   0000144000004476
00173085496MON-SEPTRA susp grape 16oz.   0000144000004542
00088105072MON-SILVADENE Cream 1% 400gm  0001008000002605
00088105050MON-SILVADENE Cream 1% 50gm   0000386000000621
61570002401MON-THALITONE 15mg 100s       0000024000006004
61570036771MON-VIRA-A OINT 3.5gm         0000959000002055
09381597172MSS-EXACTECH 100s             0001200000005750
09381597103MSS-EXACTECH 60s              0001200000003000
00451150016MURO-PRELONE 16oz Syrup       0000024000008350
00378202001MYL-PIROXICAM 20mg 100s       0000024000000400
00378325291MYL-RANITIDINE 150mg 60s      0000096000000681
00378325493MYL-RANITIDINE 300mg 30s      0000264000000705
05595309434NOV-ACYCLOVIR 400mg 100s      0000288000002300
55953072401NOV-AMOXICILLIN 250mg UD 100s 0000288000000835
55953071670NOV-AMOXICILLIN 500mg 500s    0000288000002824
55953071601NOV-AMOXICILLIN 500mg UD 100s 0000288000001150
55953071640NOV-AMOXICILLIN CAP 500mg 100s0000288000000735
55953003980NOV-ATENOLOL 50mg 1000s       0000288000001529
55953013240NOV-CAPTOPRIL 12.5mg 100s     0000600000000207
55953013340NOV-CAPTOPRIL 25mg 100s       0000600000000276
55953013440NOV-CAPTOPRIL 50mg 100s       0000600000000452
55953010640NOV-CEPHALEXIN 125mg/ml 100ml 0000600000000138
55953084001NOV-CEPHALEXIN 250MG 100 UD   0000600000000905
55953011401NOV-CEPHALEXIN 500MG 100 U/D  0000600000001418
55953011440NOV-CEPHALEXIN 500mg 100s     0000600000001059
55953011470NOV-CEPHALEXIN 500mg 500s     0000600000004706
55953009240NOV-CEPHALEXIN SUS 250mg 100ml0000600000000191
55953034240NOV-GLYBURIDE 1.25mg 100s     0000600000000555
55953034440NOV-GLYBURIDE 5mg 100s        0000600000001054
55953043940NOV-INDOMETHACIN 50mg 100s    0000600000000471
55953073440NOV-METOPROLOL 100mg 100s     0000600000000464
55953072740NOV-METOPROLOL 50mg 100s      0000600000000346
55953017140NOV-NIFEDIPINE 10mg 100s      0000600000000281
55950017141NOV-NIFIDIPINE 10mg YLW UD 1000000600000000492
55953054440NOV-RANITIDINE 150mg 100s     0000600000000782
55953054435NOV-RANITIDINE 150mg 60s      0000600000000476
55953054740NOV-RANITIDINE 300mg 100s     0000600000001706
00083007430NOVT-LOTENSIN 20/12.5 100s    0000012000006733
00083007530NOVT-LOTENSIN 20/25 100s      0000048000006705
00083005730NOVT-LOTENSIN 5/6.25mg        0000480000006000
57267090226NOVT-TRANSDERM NIT .1MG/HR    0000024000003594
57267090526NOVT-TRANSDERM NIT .2MG/HR    0000204000003679
57267091026NOVT-TRANSDERM NIT .4MG/HR    0000036000004204
57267091526NOVT-TRANSDERM NIT .6MG/HR    0000180000005149
00052030022ORG-HUMEGON VL 75IU 5S        0000300000022230
00071052524PD-CELONTIN 300MG 100S        0000024000006954
00054418425ROX-DEXAMETH*4MG 100'S        0000010000001100
00054380563ROX-SODIUM POLY SULF 500ML    0000600000002270
54092009701RPC-NOROXIN 400MG TAB 100S    0000012000024625
54092005601RPC-SALUTENSIN 50MG TB 100s   0000048000010950
00075245153RPR-DDAVP INJ.                0000276000018500
00536267573RUG-ALBUTEROL SOL .5% 20ML    0000500000000924
00536300905RUG-ALBUTEROL SUL 4MG 500s TB 0000500000002763
00536041585RUG-ALBUTEROLSUL LQ STRAW 16oz0000500000001050
00536011183RUG-ALENIC ALKA SUS. SP. 12OZ 0000500000000300
00536001583RUG-ALMACONE II DBL/STRNG 12oz0000500000000240
00536002583RUG-ALMACONE LIQUID 12oz      0000500000000185
00536303501RUG-ALMACONE MLT TB 100s      0001500000000229
00536197072RUG-ARTIFICIAL TEARS SOL 15ML 0000500000000225
00536327801RUG-AS-CAFF TABS 100s         0000500000000200
00536331310RUG-ASPIRIN 325MG EC ORNG 10000000500000001150
00536331301RUG-ASPIRIN 325MG ER ORG 100s 0000500000000235
00536329736RUG-ASPIRIN 80MG TB 36s       0000500000000120
00536308610RUG-ASPIRIN 81MG EC TABS 1000s0000500000001157
00536308641RUG-ASPIRIN 81MG EC TABS 120s 0000500000000245
00536496001RUG-BACLOFEN 20MG 100s        0000500000000960
00536495905RUG-BACLOFEN TAB 10MG 500s    0000500000002390
00536495901RUG-BACLOFEN TB 10MG 100s     0000500000000530
00536409256RUG-BENZOL PEROX GEL 10% 1.5oz0000500000000220
00536431026RUG-BETAMETH VAL CR .1% 45GM  0000500000000360
00536135512RUG-BISCODYL 10MG SUPP 12s    0000500000000185
00536338110RUG-BISCODYL 5MG EC LAX 1000s 0000500000001200
00536338101RUG-BISCODYL 5MG EC LAX 100s  0000500000000250
00536230259RUG-BLUE GEL MUSCLE REL 8oz   0000500000000207
00536337935RUG-BROMALINE TB BL/PK 24s    0001000000000163
00536342608RUG-CALCIUM 600 SUPP TB 60s   0000500000000240
00536342408RUG-CALCIUM 600 W/D SUPP 60s  0000500000000240
00536342210RUG-CALCIUM LACT 10GR 1000s   0000500000001041
00536555501RUG-CARBIDOPA 10MG/100MG 100s 0000500000002799
00536342905RUG-CARSOPRO/ASPIR 200/325MG  0000500000020567
00536342001RUG-CHLORDRINE SR CAP 100S    0000500000000910
00536666808RUG-CHROMIUM PIC 200MG 60s    0000500000000436
00536566201RUG-CIMETIDINE 300MG TB 100s  0000500000001030
00536566301RUG-CIMETIDINE 400MG TB 100s  0000500000001250
00536566305RUG-CIMETIDINE 400MG TB 500s  0000500000005900
00536566407RUG-CIMETIDINE 800MG TB 30s   0000500000000900
00332310907RUG-CLOMIPHENE CIT 50MG 30s   0000500000008190
00536299026RUG-CLOTRIMAZOLE CR 1% 45GM   0000500000000890
00536354701RUG-DAILY-VITE TAB 100s       0000500000000235
00536932059RUG-DERMA VIVA DRY SKIN LO 8oz0000500000000213
00536488101RUG-DESIPRAMINE 25MG 100s     0000500000000440
00536488105RUG-DESIPRAMINE 25MG 500s     0000500000002100
00536488201RUG-DESIPRAMINE 50MG TB 100s  0000500000000660
00536488205RUG-DESIPRAMINE 50MG TB 500s  0000500000003200
00536750220RUG-DESONIDE CR .05% 15GM     0000500000000531
00536336701RUG-DICYCLOMINE 10MG 100S     0000500000001225
00536336710RUG-DICYCLOMINE 10MG CP 1000s 0000500000010800
00536337701RUG-DICYCLOMINE 20MG CP 100s  0001000000001700
00536337710RUG-DICYLOMINE 20MG CP 1000s  0000500000013500
00536310401RUG-DILITAZEM 120MG TB 100s   0000500000001375
00536310105RUG-DILTIAZEM TB 30MG 500s    0000500000001960
00536310205RUG-DILTIAZEM TB 60MG 500s    0000500000003175
00536374501RUG-DIMENHYDRINATE 50MG 100s  0000500000000320
00536061085RUG-DIOCTO C SYRUP PINT       0000500000000350
00536060085RUG-DIOCTO SYRUP PINT         0000500000000345
00536359435RUG-DIPHENHIST 25MG BAN 24s   0000500000000170
00536077097RUG-DIPHENHIST ELIXIR BOX 4oz 0001000000000180
00536377206RUG-DIPHENHYD 50MG 50S        0000500000000281
00536376201RUG-DIPHENHYD 50MG CP 100s    0000500000000260
00091362001RUG-DIPYRIDAMOLE 75MG TB 100s 0000500000000511
00536375601RUG-DOCUSATE 100MG 100's      0001500000000337
00536375110RUG-DOCUSATE SOD W/CAS CP 10000000500000002325
00536375101RUG-DOCUSATE SOD W/CAS CP 100s0000500000000366
00536896059RUG-DRY SKIN BATH OIL 8oz     0000500000000240
00536844072RUG-EAR DROPS 15ML            0000500000000165
00536090197RUG-EYE IRRIGATING SOL 120ML  0000500000000242
00536071080RUG-FER IRON DROPS 50ML       0000500000000300
00536380401RUG-FEROTRINSIC CAPS 100s     0000500000000575
00536382410RUG-FERROUS GLUC 300MG  1000s 0000500000001283
00536382401RUG-FERROUS GLUC 300MG TB 100s0000500000000230
00536065085RUG-FERROUS SUL ELIXIR PNT    0000500000000320
00536435020RUG-FLUOCINON CR .05% 15GM    0000500000000385
00536435028RUG-FLUOCINON CR .05% 30GM    0000500000000445
00536435025RUG-FLUOCINON CR .05% 60GM    0000500000000720
00536383501RUG-FUROSEMIDE 80MG TB 100s   0000500000000380
00536138912RUG-HEMORRHOIDAL SUPP 12s     0000500000000194
00536050195RUG-HYDROCORT 1% CR 1oz       0000500000000170
00536050199RUG-HYDROCORT 1% CR 20GM      0000500000000161
00536510895RUG-HYDROCORT 1% HYDRO 1oz    0000500000000165
00536061199RUG-HYDROCORT 2.5% CR 20GM    0000500000000353
00536061195RUG-HYDROCORT 2.5% CR 30GM    0000500000000600
00536510597RUG-HYDROCORT LOT 1% 4oz      0000500000000455
00536062099RUG-HYDROCORT OINT 2.5% 20GM  0000500000000314
00536456710RUG-HYDROXY 10MG TB 1000s     0000500000001330
00536456901RUG-HYDROXY 50MG TB 100s      0000500000000325
00536389301RUG-HYDROXY PAM 25MG CP 100s  0000500000000590
00536389305RUG-HYDROXY PAM 25MG CP 500s  0000500000002630
00536509008RUG-I VITE TB 60s             0002400000000278
00536394310RUG-ISOSORBIDE 10MG ORAL 1000s0000500000000789
00536394301RUG-ISOSORBIDE 10MG ORL 100s  0000500000000179
00536396701RUG-ISOSORBIDE 5MG OR 100s    0000500000000169
00536145080RUG-LIDOCAINE 1% PLAIN IN 50ML0000500000000250
00536133182RUG-LIDOCAINE HCL 2% VIS 100ML0000500000000230
00536398501RUG-MECLIZINE 12.5MG 100s     0000500000000248
00536399001RUG-MECLIZINE 25MG CHEW 100s  0000500000000268
00536393910RUG-MENADOL 200MG TB 1000s    0000500000002033
00536402501RUG-METHYCLOTHAIZ 5MG 100s    0000500000000380
00536403644RUG-METHYLPRED TB 4MG  21     0000500000000775
00536403601RUG-METHYLPRED TB 4MG 100s    0000500000002670
00536403201RUG-METRONID 250MG TB 100s    0000500000000270
00536403301RUG-METRONID 500MG TB 100s    0000500000000660
00536142895RUG-MICONAZOLE 2% CR 1oz      0000500000000234
00536247083RUG-MILK MAG LIQ. 12oz        0000500000000177
00536247085RUG-MILK OF MAG LIQ 16oz      0000500000000200
00536404610RUG-MULTIVIT TABS 1000s       0000500000001090
00536484301RUG-NAPROXEN 375MG 100s       0000500000001300
00536561305RUG-NAPROXEN 375MG 500s       0000500000005625
00536484401RUG-NAPROXEN 500MG 100s       0000500000001500
00536484405RUG-NAPROXEN 500MG 500s       0000500000007250
00536484801RUG-NAPROXEN SOD 550MG 100s   0000500000002980
00536480595RUG-NEOMYCINSUL 5MG OINT 1oz  0000500000000140
00536407610RUG-NIACIN 100MG TB 1000s     0000500000001083
00536407301RUG-NIACIN 125MG SR CP 100s   0000500000000361
00536407410RUG-NIACIN 250MG SR CP 1000s  0000500000003083
00536407401RUG-NIACIN 250MG SR CP 100s   0000500000000495
00536703001RUG-NIACIN 500MG TR TB 100s   0001000000000375
00536407010RUG-NIACIN 50MG TB 1000s      0000500000000877
00536483028RUG-NYSTATIN CREAM 30GM       0000500000000212
00536567205RUG-OXYBUTYNIN 5MG 500s       0000500000006500
00536410602RUG-OYSCO 500 TB  250s        0000500000000625
00536410608RUG-OYSCO 500 TB 60s          0001000000000230
00536781708RUG-OYSCO 500+D 60s           0000500000000250
00536410310RUG-OYSCO D CAL SUP 1000s     0000500000001178
00536410301RUG-OYSCO D CAL SUP 100s      0000500000000189
00536410302RUG-OYSCO D CAL SUPP 250s     0000500000000467
00536650601RUG-PAPAYA ENZYMES TB CHW 100s0000500000000155
00536847080RUG-POLY VIT W/FLUO .50MG 50ML0000500000000357
00536856080RUG-POLYVIT W/FLUOR .25MG 50ML0000500000000318
00536377707RUG-POT CHLOR 25MEQ ORG 30s   0000500000000500
00536377307RUG-POTASIUM CHL 20MEQ 30s    0000500000000334
00536481095RUG-POVIDINE OINT 1oz         0000500000000169
00536406301RUG-PRENAVITE PC TB 100's     0001500000000363
00536408501RUG-PRENAVITE SC 100s         0001000000000363
00536195083RUG-RULOX SUS BAL MINT 12oz   0000500000000170
00536196297RUG-SEBEX SHAMPOO 4oz         0000500000000240
00536199553RUG-SELENIUM SULF 1% SHAM 7oz 0000500000000260
00536590401RUG-SENEXON TABS 100s         0000500000000265
00536453301RUG-SIMETHICONE 80MG 100's    0001500000000359
00536594701RUG-SUPER HIGH VIT/MIN 100s   0000500000000639
00536466711RUG-THEREMS H TABS 90s        0000500000000375
00536446038RUG-THEREMS TABS 130s         0000500000000410
00536469410RUG-THYROID 30MG TB 1000s     0000500000000641
00536470210RUG-THYROID 60MG TABS 1000s   0000500000000847
00536513120RUG-TOLNAFTATE 1% CR 15GM     0000500000000150
00536491020RUG-TRI-STATIN II CR 15GM     0000500000000157
00536491028RUG-TRI-STATIN II CR 30GM     0000500000000225
00536220197RUG-TRI-TANNATE S PED SUS 4X4 0000500000002381
00536852080RUG-TRI-VIT W/FLOUR .25MG 50ML0000500000000302
00536848080RUG-TRI-VIT W/FLOUR .50MG 50ML0000500000000349
00536520020RUG-TRIAMIN ACET .5% CR 15GM  0000500000000252
00536517020RUG-TRIAMIN ACET .5% ONT 15GM 0000500000000249
00536522520RUG-TRIAMIN ACET 1% CR 15GM   0000500000000120
05036522527RUG-TRIAMIN ACET 1% CR 5LB    0000500000005141
00536518020RUG-TRIAMIN ACET 1% OINT 15GM 0000500000000120
00536518030RUG-TRIAMIN ACET 1% OINT 80GM 0000500000000310
00536110095RUG-TRIPLE ANTIBIO OINT 1oz   0000500000000215
00536110094RUG-TRIPLE ANTIBIOT NEO .5oz  0000500000000146
00536475011RUG-UNICOMPLEX M TB 90s       0000500000000250
00536204175RUG-VITA B-12 1000MCG INJ 30ML0000500000000250
00536440601RUG-VITA B-6 25MG PYRD 100s   0000500000000185
00536440801RUG-VITA B-6 50MG PYRD 100s   0000500000000209
00536355101RUG-VITAMIN B-12 500MCG 100s  0000500000000202
00536854006RUG-VITAMINS FOR HAIR 50s     0000500000000210
00536667101RUG-ZINC CHELATED 50MG TB 100s0000500000000172
58914004510SCA-ULTRASE MICRO CAP 100s    0000024000002958
58914001810SCA-ULTRASE MT18 100s         0000048000009559
58914000410SCA-ULTRASE MT20 100s         0000012000010564
00025190131SER-CALAN SR 120 MG 100S      0000048000008877
00025191131SER-CALAN SR 180MG 100S       0000108000011250
58160086016SKB-ENGERIX B 20mcg 1ml 25s   0000288000100500
58160086135SKB-ENGERIX B 23g 20mcg 1ml 5s0000480000020500
58160085936SKB-ENGERIX B 25g 10mcg .5ml  0000480000007100
58160086001SKB-ENGERIX B Adult 20mcg 1ml 0004800000003940
58160085901SKB-ENGERIX B Ped 10mcg .5ml  0004800000001295
58160085911SKB-ENGERIX B PED 10mcg/.5ml  0000480000013500
58160085905SKB-ENGERIX-B 23G 10mcg .5ml  0000480000007100
58160083505SKB-HAVRIX PFS 1440u/ml 5x1ml 0000288000022594
58160083705SKB-HAVRIX PFS 720u/.5ml 5s   0000288000011476
00029414901SKB-KYTRIL 1MG VL             0001440000015069
00091069520SWZ-CORTIFOAM 20gm            0000024000005257
00091419501SWZ-DEPONIT .2mg 30s          0000444000003643
00091074010SWZ-EPIFOAM 1% 10gm           0000048000001363
00091153605SWZ-LEVSIN AMP .5% 1ml 5s     0000192000004336
00091353201SWZ-LEVSIN SUBL .125mg 100s   0000168000003601
00091362001SWZ-MONOKET 20mg 100s         0000024000003250
00131433086SWZ-NIFEREX FORTE 150cap 100s 0000024000002516
00131422009SWZ-NIFEREX UD 150 cap 10x10  0000012000002516
00091370701SWZ-UNIVASC 7.5mg 100s        0000012000004817
00300334601TAP-LUPRON DEPOT 22.5mg Kit   0000417000115000
00300368301TAP-LUPRON DEPOT 30mg Kit     0000036000128000
00300364201TAP-LUPRON DEPOT 7.5mg Kit    0000366000046500
11098001001TAY-INAPSINE 1ml 2.5mg Amp 10s0000288000001915
11098001002TAY-INAPSINE 2ml 2.5mg Amp 10s0000288000002390
05047461201UCB-DURATUSS 600/100mg TAB 1000000012000005427
05047436423UCB-TRINSICON Cap UD 60S      0000012000003414
00009047301UJ-CYTOSAR U PDW 500MG VL     0000144000001750
00009329501UJ-CYTOSAR U PWD 1GM VL       0000144000003400
00009329601UJ-CYTOSAR U PWD 2GM VL       0000144000005600
00016031440UJ-HEALON 10MG .04ML          0000300000004900
00016031055UJ-HEALON 10MG .55ML          0000300000005800
00016031085UJ-HEALON 10MG .85ML          0000300000008000
00016031955UJ-HEALON GV 14mg/ml .55ml    0000300000006200
00172439018ZEN-ALBUTEROL INH COMP 17GM   0002400000000280
00172436060ZEN-CLOZAPINE 100mg 100s      0000144000021000
00310096130ZNC-ZOLADEX 10.8mg Syr        0000144000067500
00310096036ZNC-ZOLADEX 3.6mg Syr         0000144000024500
