631500000890301023MD-MINITRAN .1mg/hr 30s         000266301440                  
631500000890302023MD-MINITRAN .2mg/hr 30s         000288002880                  
631500000890303023MD-MINITRAN .4mg/hr 30s         000328102880                  
631500000890304023MD-MINITRAN .6mg/hr 30s         000337301440                  
63150000074626001AB-3-PENTOTHAL 2.5gm 25s         002917200144                  
63150000074641801AB-3-PENTOTHAL 250mg SYR Ea 25   000996300480                  
63150000074335201AB-3-PENTOTHAL 400mg SYR Ea 25   001399500480                  
63150000074650401AB-3-PENTOTHAL 5gm KIT TRNSF     004725000480                  
63150000074567202AB-A-HYDROCORT 250mg 2ml 10s     000181000600                  
63150000074563108AB-A-METHAPRED 1000mg 8ml 25s    002999900600                  
63150000074568502AB-A-METHAPRED 125mg 2ml 10s     000160000480                  
63150000074568401AB-A-METHAPRED 40mg 1ml 10s      000128800600                  
63150000074563004AB-A-METHAPRED 500mg 4ml 25s     001199800600                  
63150000074614302AB-ACETIC ACID .25% 250ml ea     000396500480                  
63150000074330703AB-ACETYLCYST 10% VL 3x30ml      000197100288                  
63150000074330803AB-ACETYLCYST 20% VL 3x30ml      000168800288                  
63150000074445201AB-ACYCLOVIR 1gm 20ml 10s        001320000312                  
63150000074539602AB-ADAPT PLUG sht male lk luer   000999900288                  
63150000074587801AB-ADAPTER PLUG male             001199900288                  
63150000074587701AB-ADAPTER PLUG male short       001199900288                  
63150000013113691AB-ADRIAMYCIN PFS 10mg 10s       000742300288                  
63150000013126683AB-ADRIAMYCIN PFS 200mg ea       001550000288                  
63150000013124694AB-ADRIAMYCIN PFS 20mg ea        000139200288                  
63150000013127687AB-ADRIAMYCIN PFS 75mg           000690000288                  
63150000013125679AB-ADRIAMYCIN PFS VL 50mg 25ml   000379400288                  
63150000074150005AB-ALCOHOL w/DEX 5/5% 100ml 5s   000537000360                  
63150000074806201AB-AMIDATE 20mg 10ml amp 5s      001000000480                  
63150000074806029AB-AMIDATE 2mg/ml Abj 20ml 10s   002344600288                  
63150000074806101AB-AMIDATE 40mg 20ml amp 5s      001000000480                  
63150000074195701AB-AMIKACIN 1gm/4ml 4ml 10s      001550200360                  
63150000074195601AB-AMIKACIN 250mg/ml 2ml 10s     000775100360                  
63150000074243403AB-AMIKACIN 500mg 8ml Adv 25s    004132500288                  
63150000074195801AB-AMIKACIN 500mg Syg 2ml 10s    001662500288                  
63150000074195501AB-AMIKACIN 50mg/ml 2ml 10s      000775100360                  
63150000074299105AB-AMINO 10% 1000ml 6s           001061600288                  
63150000074299103AB-AMINO 10% 500ml 12s           000937700360                  
63150000074436005AB-AMINO 10% pH6 1000ml 6s       001100000288                  
63150000074298905AB-AMINO 3.5% 1000ml 6s          000799900288                  
63150000074299005AB-AMINO 5% 1000ml 6s            000899900288                  
63150000074299003AB-AMINO 5% 500ml 12s            000829900288                  
63150000074407202AB-AMINO 5.2% 300ml 12s          001512100360                  
63150000074299203AB-AMINO 7% 500ml 12s            000945100480                  
63150000074434301AB-AMINO 7% T/EL 500ml 3s        000345900288                  
63150000074299601AB-AMINO 7% TPN kit 500ml        000331900288                  
63150000074585505AB-AMINO 8.5% 1000ml 6s          000872400360                  
63150000074585503AB-AMINO 8.5% IV SOL             000750800360                  
63150000074404101AB-AMINO 8.5% TPN kit 500ml      000310400288                  
63150000074585203AB-AMINO ELEC 7% 500ml 12s       001131400288                  
63150000074585605AB-AMINO ELEC 8.5% 1000ml 6s     001099900288                  
63150000074585603AB-AMINO ELEC 8.5% 500ml 12s     001099900288                  
63150000074148402AB-AMINO HBC 7% 1000ml           005599900288                  
63150000074148403AB-AMINO HBC 7% 500ml            005599900288                  
63150000074721703AB-AMINO HF 8% 500ml 12s         006500000288                  
63150000074109005AB-AMINO II 10% 1000ml 6s        001019900288                  
63150000074712107AB-AMINO II 10% 2000ml 6s        001618000288                  
63150000074109003AB-AMINO II 10% 500ml 12s        001019900360                  
63150000074712207AB-AMINO II 15% IV SOL           003161100360                  
63150000074770029AB-AMINO II 3.5/25% 1000ml 6s    001340000288                  
63150000074770129AB-AMINO II 3.5/5% 1000ml 6      001599900288                  
63150000074775129AB-AMINO II 4.25/10% 1000ml 6s   001299900288                  
63150000074775729AB-AMINO II 4.25/20% 1000ml 6s   001885400288                  
63150000074775229AB-AMINO II 4.25/20%U 1000ml 6   000990000024                  
63150000074770229AB-AMINO II 4.25/25% 1000ml 6s   001419400288                  
63150000074774429AB-AMINO II 5/25% 1000ml 6s      001399900288                  
63150000074108603AB-AMINO II 7% 500ml             000809900288                  
63150000074108805AB-AMINO II 8.5% 1000ml          000849900288                  
63150000074108803AB-AMINO II 8.5% 500ml 12s       000733400360                  
63150000074108903AB-AMINO II 8.5% w/electyl       000739900288                  
63150000074774029AB-AMINO II M 3.5% 1000ml 6s     001599900288                  
63150000074415405AB-AMINO M 3.5% 1000ml 6s        000699900288                  
63150000074161705AB-AMINO PF 10% 1000ml 6s        004417500288                  
63150000074161602AB-AMINO PF 7% 12x250ml sol      003912500288                  
63150000074418301AB-AMINO T/EL 8.5% 500ml 3s      000323200288                  
63150000074434673AB-AMINOCAP 250mg/ml 20ml 25s    000260600360                  
63150000074592101AB-AMINOPH 250mg 10ml 25s        000143500360                  
63150000074592201AB-AMINOPH 500mg 20ml 25s        000154000360                  
63150000007313505AB-ANCEF 10gm 100ml 10s          001785000360                  
63150000007313705AB-ANCEF 1gm 100ml 10s           000231000360                  
63150000007313016AB-ANCEF VIAL 1gm 25s            000520000144                  
63150000007313116AB-ANCEF VL 500mg 10ml 25s       000299200360                  
63150000074737601AB-ATRACURIUM 10mg/ml 5ml 10s    001400000012                  
63150000074491118AB-ATROPINE .1mg/ml ABJT         000240000480                  
63150000074491015AB-ATROPINE .5mg 5ml Abj 10s     000250900288                  
63150000074491134AB-ATROPINE SULF 10ml 10s        000274500480                  
63150000074491034AB-ATROPINE SULF ABJT 5ml 10s    000311700288                  
63150000074460258AB-BLOOD SECONDARY SET 26        002699900288                  
63150000074187368AB-BLOOD Y-type set 82in NV SL   002783000288                  
63150000074187168AB-BLOOD-Y type set 78in SL      002369900288                  
63150000074763962AB-BRETYLIUM 1000mg 250ml 24s    004452900288                  
63150000074763862AB-BRETYLIUM 500mg 250ml 24s     002393000288                  
63150000074141210AB-BUMETANIDE .25mg MDV 10ml     000490000288                  
63150000074141204AB-BUMETANIDE .25mg VL 4ml 10s   000152000288                  
63150000074141214AB-BUMETANIDE .25mg/ml 4ml 10s   000155000288                  
63150000074116502AB-BUPIVAC .75% Vial 30ml 25s    000840600288                  
63150000074427201AB-BUPIVAC AMP .25% 20ml 5s      000129500360                  
63150000074115802AB-BUPIVAC AMP .25% 50ml 25s     000799900288                  
63150000074427301AB-BUPIVAC AMP .5% 20ml 5s       000145600360                  
63150000074116101AB-BUPIVAC AMP .5% 30ml 5s       000114700288                  
63150000074427401AB-BUPIVAC AMP .75% 20ml 5s      000199900288                  
63150000074116401AB-BUPIVAC AMP .75% 30ml 5s      000147000360                  
63150000074115901AB-BUPIVAC HCL .25% 10ml 50s     000490000360                  
63150000074115801AB-BUPIVAC HCL .25% 30ML A 25    000105800360                  
63150000074116201AB-BUPIVAC HCL .5% 10ml 50s      000519300360                  
63150000074116202AB-BUPIVAC HCL .5% 30ml 50s      000480000480                  
63150000074116301AB-BUPIVAC HCL .5% 50ml 50s      000745400360                  
63150000074116501AB-BUPIVAC HCL .75% 10ml 25s     000530000360                  
63150000074115902AB-BUPIVAC VIAL .25% 30ml 25s    000469100360                  
63150000074116001AB-BUPIVAC VIAL .25% 50ml 25s    000670000360                  
63150000074361301AB-BUPIVAC/DEX .75% 2ml 10s      000203000360                  
63150000074904201AB-BUPIVAC/EPI .25% 10ml 10s     000242400360                  
63150000074904202AB-BUPIVAC/EPI .25% 30ml 10s     000242400360                  
63150000074904101AB-BUPIVAC/EPI .25% 50ml 25s     001686000288                  
63150000074904301AB-BUPIVAC/EPI .25% 50ml 25s     001453500288                  
63150000074904501AB-BUPIVAC/EPI .5% 10ml 10s      000208500360                  
63150000074904502AB-BUPIVAC/EPI .5% 30ml 10s      000232300288                  
63150000074904601AB-BUPIVAC/EPI .5% 50ml 25s      001533600288                  
63150000074163110AB-CAL CHLOR 10% Syg 10ml 10s    000399900600                  
63150000074118401AB-CAL GLUC 10% 10ml 25s         000202500480                  
63150000074255302AB-CALCIUM ACE 25MEQ 50ml 25s    000456000288                  
63150000074255303AB-CALCIUM ACE 50MEQ 100ml 25s   000899900288                  
63150000074492834AB-CALCIUM CHL 10ml ABJT 10s     000270000480                  
63150000074492818AB-CALCIUM CHLOR 10% ABJ         000234000480                  
63150000074103630AB-CARBOCAINE 1% Vial 30ml Ea    000079900288                  
63150000074473203AB-CEFAZOLIN 1gm ADV vial        000600000480                  
63150000074339732AB-CENOLATE 1gm Amp 2ml 50s      000241900288                  
63150000074311831AB-CENOLATE 500mg 1ml 50s        000320000480                  
63150000074416901AB-CHLOROP 2% 30ml Vial 25s      001046500288                  
63150000074417001AB-CHLOROP 3% 30ml Vial 25s      001499900288                  
63150000074409301AB-CHROMIUM 4mcg/ml 10ml 25s     000189900288                  
63150000074735102AB-CIMETIDINE 1200mg 250ml 12s   001089900288                  
63150000074744501AB-CIMETIDINE 150mg/ml 8ml 10s   000269900288                  
63150000074744716AB-CIMETIDINE 300mg 50ml 48s     001162800288                  
63150000074735002AB-CIMETIDINE 900mg 250ml 12s    000929900288                  
63150000039002325AB-CLAFORAN 1gm ADV 25s          002020600288                  
63150000039002350AB-CLAFORAN 1gm ADV 50s          004041200288                  
63150000039001811AB-CLAFORAN 1gm Btl 10s          000837700288                  
63150000039001850AB-CLAFORAN 1gm Vial 50s         003847100288                  
63150000039001810AB-CLAFORAN 1gm VL 10s           000769500288                  
63150000039001825AB-CLAFORAN 1gm VL 25s           001923600288                  
63150000039001910AB-CLAFORAN 2gm VL 10s           001538900288                  
63150000039001925AB-CLAFORAN 2gm VL 25s           003847100288                  
63150000039001950AB-CLAFORAN 2gm VL 50s           007694200288                  
63150000039002001AB-CLAFORAN bulk 10gm 100ml vl   000768300144                  
63150000039002425AB-CLAFORAN IMIV 2gm ADV 25s     003944200288                  
63150000039002450AB-CLAFORAN IMIV 2gm ADV 50s     007888300288                  
63150000039001911AB-CLAFORAN INF 2gM VL 10s       001627100288                  
63150000074405001AB-CLINDAMY 300mg/2ml 25s        000796500480                  
63150000074405303AB-CLINDAMY PHOS 150mg 2ml 25s   001127000480                  
63150000074409201AB-COPPER TRACE .4mg 10ml 25s    000135700288                  
63150000074794009AB-DEXT/SOD 2.5/.45% 1000ml 12   000699900288                  
63150000074794003AB-DEXT/SOD 2.5/.45% 500ml 24s   001199900288                  
63150000074794102AB-DEXT/SOD 5/.9% 250ml 24s      000999900288                  
63150000074794103AB-DEXT/SOD 5/.9% 500ml 24s      000999900288                  
63150000074808501AB-DEXTRAN HM 32% 100ml 5s       001024700288                  
63150000074150703AB-DEXTRAN-70 6% 500ml 12s       002850000288                  
63150000074793819AB-DEXTROSE 10% 1000/500ml 12s   000699900288                  
63150000074793002AB-DEXTROSE 10% 250ml 24s        000967200360                  
63150000074408902AB-DEXTROSE 10% Amp 5ml 25s      000266000360                  
63150000074793003AB-DEXTROSE 10% LC 500ml 12s     000358100288                  
63150000074150805AB-DEXTROSE 2.5% WATR 1000ml 6   000156300012                  
63150000074153503AB-DEXTROSE 20% WATER 500ml 12   000934500288                  
63150000074789801AB-DEXTROSE 25% 10ml 10s         000588500480                  
63150000074800415AB-DEXTROSE 30% 1000ml 12s       000712700288                  
63150000074793309AB-DEXTROSE 5% 1000ml 12s        000334000360                  
63150000074792337AB-DEXTROSE 5% 100ml 80s         001127500360                  
63150000074152301AB-DEXTROSE 5% 150ml fill 12s    000528000288                  
63150000074152311AB-DEXTROSE 5% 150ml fill 12s    000528000288                  
63150000074710002AB-DEXTROSE 5% 250ml 24s         000616000360                  
63150000074792336AB-DEXTROSE 5% 50ml 80s          001127500360                  
63150000074792320AB-DEXTROSE 5% LC 25ml fill 48   000799900288                  
63150000074792903AB-DEXTROSE 5% RNGR 5000ml 24s   000369900288                  
63150000074793303AB-DEXTROSE 5% RNGR 500ml 12s    000699900288                  
63150000074149501AB-DEXTROSE 5% Soln 50ml 25s     000659900480                  
63150000074152201AB-DEXTROSE 5% WATER 150ml 12s   000459900288                  
63150000074152202AB-DEXTROSE 5% WATER 250ml 12s   000459900288                  
63150000074152203AB-DEXTROSE 5% WATER 500ml 12s   000459900288                  
63150000074792503AB-DEXTROSE 5%/.33% 500ml 24s    000525100360                  
63150000074792602AB-DEXTROSE 5%/.45% 250ml 24s    000337200360                  
63150000074792603AB-DEXTROSE 5%/.45% 500ml 24s    000335000360                  
63150000074792402AB-DEXTROSE 5/.225% 250ml 24s    000335000360                  
63150000074792502AB-DEXTROSE 5/.225% 250ml 24s    000999900288                  
63150000074711907AB-DEXTROSE 50% 2000ml 6s        000619900288                  
63150000074153603AB-DEXTROSE 50% 500ml 12s        000629500360                  
63150000074664802AB-DEXTROSE 50% FLTP 10s         000160000360                  
63150000074664802AB-DEXTROSE 50% FTV 50ml 25s     000199900480                  
63150000074151805AB-DEXTROSE 50% sol 1000ml 6s    000459900288                  
63150000074751716AB-DEXTROSE 50% Syg 50ml 10s     000299900012                  
63150000074751715AB-DEXTROSE 50% Syg 50ml 10s     000299900480                  
63150000074490222AB-DEXTROSE 50%/WATER ABJ        000278700360                  
63150000074800515AB-DEXTROSE 60% 1000ml 12s       000789900288                  
63150000074564625AB-DEXTROSE 60% 1000ml 6s        000247700288                  
63150000074712007AB-DEXTROSE 70% 2000ml 6s        000629600288                  
63150000074564725AB-DEXTROSE 70% 500ml 6s         000247700288                  
63150000074153405AB-DEXTROSE SOD CHL 10% 1000ml   000338500288                  
63150000074486202AB-DEXTROSE SOD CHL 10% 250ml    000477500288                  
63150000074152105AB-DEXTROSE SOD CHL 2.5% 45ml    000306900288                  
63150000074167102AB-DIAL A FLO IV set 48x18in     002500000288                  
63150000074234402AB-DOBUTAM 250mg FTV 20ml 10s    000292100360                  
63150000074234401AB-DOBUTAM 250mg FTV 20ml Ea     000037500360                  
63150000074202520AB-DOBUTAMINE 250mg 20ml 10s     000387600480                  
63150000074202554AB-DOBUTAMINE 500mg 40ml 10s     000542700360                  
63150000074372432AB-DOBUTAMINE/D5W 1000mg 250ml   003796500288                  
63150000074234632AB-DOBUTAMINE/D5W 250mg 250ml    001898800288                  
63150000074234534AB-DOBUTAMINE/D5W 250mg 500ml    003690000288                  
63150000074234732AB-DOBUTAMINE/D5W 500mg 250ml    002847700288                  
63150000074234634AB-DOBUTAMINE/D5W 500mg 500ml    003199900288                  
63150000074780822AB-DOPAMINE 200mg 250ml 12s      001150000360                  
63150000074426601AB-DOPAMINE 800mg 10ml 25s       000385000480                  
63150000074426501AB-DOPAMINE 800mg/5% 10ml 25s    000306000360                  
63150000074910420AB-DOPAMINE FTV 400mg 10ml 25s   000188500360                  
63150000074780922AB-DOPAMINE HCL 400mg 250ml 12   001541000360                  
63150000074780824AB-DOPAMINE HCL 400mg 500ml 12   001600000480                  
63150000074781022AB-DOPAMINE HCL 800mg 250ml 12   003220000480                  
63150000074426618AB-DOPAMINE SYG 800mg 10ml 10s   000410500360                  
63150000074582010AB-DOPAMINE VL 200mg 5ml 25s     000113400360                  
63150000074414202AB-DOPAMINE/DEX 400mg 12x250ml   001511600288                  
63150000074415502AB-DOPAMINE/DEX 800mg 12x250ml   002199900288                  
63150000074414203AB-DOPAMINE/DEX 800mg 12x500ml   002165100288                  
63150000074118701AB-DROPERIDOL 2.5mg 2ml ampul    000120000144                  
63150000074161401AB-EMPTY EVAC 12x150ml btl       000250000012                  
63150000074161402AB-EMPTY EVAC 12x250ml           000264500288                  
63150000074161403AB-EMPTY EVAC 12x500ml btl       000540000288                  
63150000074161405AB-EMPTY EVAC 6x1000ml btl       000283500288                  
63150000074694003AB-ENDRATE 3000mg Amp 20ml 25s   003499900288                  
63150000074940601AB-ENFLURANE INH 125ml           000846200360                  
63150000074940602AB-ENFLURANE INH 250ml           001206100360                  
63150000074307331AB-EPHEDRIN 50mg/ml amp          000257500480                  
63150000074492118AB-EPINEPH .1mg/ml ABJ           000270000480                  
63150000074492134AB-EPINEPH .1mg/ml ABJ           000284500480                  
63150000074724101AB-EPINEPH 1mg/ml amp            000086201440                  
63150000074647844AB-ERY LAC 1gm ADV 10s           000623000720                  
63150000074634205AB-ERY LAC 1gm vial 10s          000561400720                  
63150000074648101AB-ERY LAC 1gm vial 10s          000580000720                  
63150000074324701AB-ERY LAC 500mg ADV FT 10s      001140000480                  
63150000074636502AB-ERY LAC 500mg vial 10s        000265000480                  
63150000074648201AB-ERY LAC 500mg vial 10s        000318000480                  
63150000074377204AB-ETHANOL 95% Amp 1ml 25s       002459900288                  
63150000074448148AB-EXTEN SET 30                  001199900288                  
63150000074322903AB-EXTEN SET 30 SL               001899900288                  
63150000074452258AB-EXTEN SET 30 twin-site        000631500288                  
63150000074411601AB-EXTEN SET INT SL              001300700288                  
63150000074267948AB-EXTEN SET IVEX-2 0.22 micrn   001461200288                  
63150000074452458AB-EXTEN SET IVEX-HP 0.22 micr   001494800288                  
63150000074406558AB-FAT EMULSION IV SET 48s       001773400720                  
63150000074647932AB-GENGRAF 100mg 30s             001175000288                  
63150000074646332AB-GENGRAF 25mg 30s              000313700480                  
63150000074788923AB-GENTAMICIN 100mg 100ml 24s    001134800288                  
63150000074340201AB-GENTAMICIN 100mg 10ml 50s     000366500480                  
63150000074340001AB-GENTAMICIN 10mg/ml 25s        000307300360                  
63150000074788423AB-GENTAMICIN 80mg 100ml 24s     001074400288                  
63150000074340101AB-GENTAMICIN 80mg 8ml 50s       000354000360                  
63150000074614206AB-GLYCINE 1.5% IRR 1500ml 8s    000349900288                  
63150000074614236AB-GLYCINE 1.5% IRR 1500ml 9s    000359900288                  
63150000074779362AB-HEP 25000U/D5W 250ml          000989700720                  
63150000074128101AB-HEP LF 100u 50x1ml            000250000720                  
63150000074128001AB-HEP LF 10u 50x1ml             000210000012                  
63150000074115170AB-HEP LF 10un 10ml 25s          000106000720                  
63150000074128131AB-HEP LF 10usp 1/2ml 50s        000410000480                  
63150000074128025AB-HEP LF 10usp 5/5ml 25s        000278000480                  
63150000074128021AB-HEP LF 10usp INTERIK 50s      000361300480                  
63150000074128031AB-HEP LF 10usp LL 50s           000417200720                  
63150000074128132AB-HEP LF CARP 100un 2ml 50s     000383700720                  
63150000074115278AB-HEP LOCK 100U/ml vial         000140700720                  
63150000074115270AB-HEP LOCK 100usp 10ml 50s      000115000720                  
63150000074115178AB-HEP LOCK 10usp 30ml 25s       000105000012                  
63150000074779323AB-HEP SOD 10000usp 100ml 24s    001199900288                  
63150000074782003AB-HEP SOD 1000usp 500ml 18s     000523200288                  
63150000074765162AB-HEP SOD 12500 .45% 250ml 24   001120900288                  
63150000074779462AB-HEP SOD 12500usp 250ml 24s    001199900288                  
63150000074776003AB-HEP SOD 20000usp 500ml 24s    001590000288                  
63150000074762059AB-HEP SOD 2000usp 1000ml 12s    000529900288                  
63150000074765062AB-HEP SOD 25000 .45% 250ml 24   001099900288                  
63150000074138901AB-HEP-PAK 5000U Kit 50ml Ea     000889900480                  
63150000074128202AB-HEP-PAK 500U Kit 50ml Ea      000889900480                  
63150000074128102AB-HEPARIN FL 100U/ml 2ml 50s    000390500480                  
63150000074128011AB-HEPLK FL 10u CJCT UNV 1ml50   000467400480                  
63150000074128012AB-HEPLK FL 10U CRPJT 2ml 50     000467400480                  
63150000074128013AB-HEPLK FL 10U CRPJT 3ml 25s    000282900480                  
63150000074128015AB-HEPLK FL 10U CRPJT 5ml 25s    000311200480                  
63150000074128022AB-HEPLK FL 10U INTRLNK 2ml 50   000464700480                  
63150000074131611AB-HEPSOD 10MU SYR CJCT 1ml 50   000692000480                  
63150000074131613AB-HEPSOD 10MU SYR CJCT.5ml10s   000081900480                  
63150000074258402AB-HEPSOD 2.5MU VL ADV 10ml25s   000957700480                  
63150000074140211AB-HEPSOD 5MU SRY CJCT 1ml 50s   000412000480                  
63150000074140201AB-HEPSOD 5MU SYR CJCT 1ml 10s   000081900480                  
63150000074724803AB-HETASTARCH 6% Sol             002750000480                  
63150000074128112AB-HPLK FL 100U CRPJCT 2ml 50s   000503200480                  
63150000074128115AB-HPLK FL 100U CRPJCT 5ml 25s   000310000012                  
63150000074128113AB-HPLK FL 100U/ml CRPJT 3ml25   000317600480                  
63150000074128002AB-HPLK FL 10U/ml CRPJT 2ml 50   000394100480                  
63150000074128122AB-HPLOK FL 100u/ml    2ml 50s   000467400480                  
63150000074128123AB-HPLOK FL 100U/ml  3ml  25s    000300900480                  
63150000074128133AB-HPLOK FL 100U/ml/L-LK 3ml25   000000000480                  
63150000074737109AB-IONOSOL B 5% 500ml 12s        000899900288                  
63150000074737103AB-IONOSOL B 5% 500ml 24s        000999900288                  
63150000074737203AB-IONOSOL MB 5% 500ml 24s       000448200288                  
63150000074737262AB-IONOSOL MB/DX 5% 250ml 24s    000490000360                  
63150000074737362AB-IONOSOL T 5% 250ml 24s        000539900288                  
63150000074737303AB-IONOSOL T/DEX 5% 500ml 24s    000622700360                  
63150000074329202AB-ISOFLURANE        250ml       000945000720                  
63150000074329201AB-ISOFLURANE inh 100ml          000210000480                  
63150000074497718AB-ISOPROT 1:5000 10ml 10s       000577000480                  
63150000074497815AB-ISOPROT 1:5000 5ml 10s        000490000480                  
63150000074141005AB-ISUPREL AMP .2mg/ml 5ml 10s   000775700600                  
63150000074151748AB-IVEX-RF filter set            001799900288                  
63150000074228831AB-KETORLC 15mg CJCT L/L 1ml10   000629100480                  
63150000074379301AB-KETORLC 15mg SDV FT 1ml 25s   000570500480                  
63150000074228702AB-KETORLC 30mg CJCT  2ml 10s    000618400480                  
63150000074228731AB-KETORLC 30mg CJCT L/L 1ml10   000351400480                  
63150000074228761AB-KETORLC 30mg CJCT L/L 2ml10   000698400480                  
63150000074228711AB-KETORLC 30mg CJCT UNV 1ml10   000657900480                  
63150000074379501AB-KETOROLAC FTV 30mg 1ml 25s    000585200600                  
63150000074379601AB-KETOROLAC FTV 60mg 2ml 25s    000605800600                  
63150000074228701AB-KETOROLAC Syg 30mg 1ml 10s    000459200600                  
63150000074228811AB-KETRLAC 15mg CJCT UNV 1ml10   000629100480                  
63150000074897518AB-L-CYSTEINE 50mg SYR 10ml 10   000692100480                  
63150000074226720AB-LABETALOL 5mg MDV 20ml        000047100480                  
63150000074226754AB-LABETALOL 5mg MDV 40ml        000093100480                  
63150000074454102AB-LEUCOVORIN CAL 10mg FT 10ml   000060000480                  
63150000074454104AB-LEUCOVORIN CAL 10mg FT 25ml   000140000480                  
63150000074791624AB-LIDO .2% LC 500ml 24s         001599900288                  
63150000074492401AB-LIDO 1% 5ml 25gm 10s          000270000480                  
63150000074427601AB-LIDO 1% HCL 20ml FT 50s       000104500480                  
63150000074427001AB-LIDO 1% HCL 30ml 25s          000907000480                  
63150000074427902AB-LIDO 1% HCL 30ml 50s          000114000480                  
63150000074471301AB-LIDO 1% USP 2ml amp 25s       000153500480                  
63150000074471302AB-LIDO 1% USP 5ml amp 25s       000135000600                  
63150000074317803AB-LIDO 1%/EPI 1:200000          000450000720                  
63150000074317802AB-LIDO 1%/EPI 30ml 25s          000309000720                  
63150000074625401AB-LIDO 10% HCL 10ml 50s         001130000480                  
63150000074492301AB-LIDO 2% 25G 10s               000290000480                  
63150000074427702AB-LIDO 2% HCL 50ml ft 25s       000137500720                  
63150000074428201AB-LIDO 2% USP 20ml amp 25s      000094100720                  
63150000074318202AB-LIDO 2%/EPI 30ml 25s          000481300720                  
63150000074624801AB-LIDO 20% HCL 50s              001768500480                  
63150000074427501AB-LIDO HCL .5% VIAL             000525800720                  
63150000074427602AB-LIDO HCL 1% VIAL              000148000720                  
63150000074427701AB-LIDO HCL 2% 20ml 25s          000114500480                  
63150000074490334AB-LIDO HCL 2% 5ml ABJ           000236500480                  
63150000074428301AB-LIDO HCL 4% AMP               000374100720                  
63150000074492415AB-LIDO SYG 1% 5ml 10s           000250000360                  
63150000074490434AB-LIDO SYG 1% LF 5ml 10s        000256700360                  
63150000074793132AB-LIDO/DEX .4/5% 250ml 12s      000671700360                  
63150000074793124AB-LIDO/DEX .4/5% 500ml 24s      001646700360                  
63150000074793932AB-LIDO/DEX .8/5% 250ml 12s      000999900288                  
63150000074317901AB-LIDOCAINE/EPI 1%  30ml   5s   000230100480                  
63150000074318101AB-LIDOCAINE/EPI 1.5% 30ml  5s   000256700480                  
63150000074120901AB-LIDOCAINE/EPI 1.5% 5ml  10s   000254700480                  
63150000074318301AB-LIDOCAINE/EPI 2%  20ml  5s    000402100480                  
63150000074978621AB-LIPOSYN II 10% 100ml 12s      000949900288                  
63150000074978601AB-LIPOSYN II 10% 200ml 12s      001264700360                  
63150000074978603AB-LIPOSYN II 10% 500ml 12s      000979000360                  
63150000074979301AB-LIPOSYN II 10% 500ml 12s      001612200360                  
63150000074979401AB-LIPOSYN II 10% 500ml 8s       000999900288                  
63150000074978901AB-LIPOSYN II 20% 200ml 12s      002103500480                  
63150000074979203AB-LIPOSYN II 20% 200ml 8s       001339900288                  
63150000074978903AB-LIPOSYN II 20% 500ml 12s      001753000360                  
63150000074979301AB-LIPOSYN II 20% 500ml 8s       001899900288                  
63150000074978702AB-LIPOSYN II 20% 50ml syg 12s   003199900288                  
63150000074979021AB-LIPOSYN III 10% 100/200ml     000949900288                  
63150000074979001AB-LIPOSYN III 10% 200ml 12s     001175000288                  
63150000074979003AB-LIPOSYN III 10% 500ml 12s     001343400360                  
63150000074979103AB-LIPOSYN III 20% 500ml 12s     001893600360                  
63150000074689203AB-LIPOSYN III 30% 500ml 12s     002499900288                  
63150000074741803AB-LMD 10% w/5% DEX 500ml 12s    002465100288                  
63150000074741903AB-LMD 10% w/SOD CHL 500ml 12s   002463900288                  
63150000074494301AB-MAG SULF 12.5% VL 8ml  25s    000511400480                  
63150000074672909AB-MAG SULF 40mg/ml 1000ml 12s   000709900288                  
63150000074672923AB-MAG SULF 40mg/ml 100ml 24s    000902000360                  
63150000074672903AB-MAG SULF 40mg/ml 500ml 24s    000909900288                  
63150000074216801AB-MAG SULF 50% 10ml 25s         000159900024                  
63150000074216802AB-MAG SULF 50% 20ml 25s         000337500360                  
63150000074216803AB-MAG SULF 50% 50ml 25s         000482100360                  
63150000074407532AB-MAG SULF 50% AMPUL 2ml 50s    000175100480                  
63150000074175410AB-MAG SULF 50% Syg 10ml 10s     000399900600                  
63150000074673013AB-MAG SULF 80mg/ml 50ml 24s     000873200360                  
63150000074672709AB-MAG SULF/DEX 10gm/1000ml 12   000379000288                  
63150000074672803AB-MAG SULF/DEX 10gm/500ml 24s   000729900288                  
63150000074672723AB-MAG SULF/DEX 1gm/100ml 24s    001099900288                  
63150000074672809AB-MAG SULF/DEX 20gm/1000ml 12   000449900288                  
63150000074409101AB-MANGANESE .1mg/ml 10ml 25s    000143100360                  
63150000074771309AB-MANNITOL 10% PVC 1000ml 12s   003199900288                  
63150000074771403AB-MANNITOL 15% IV 500ml 12s     004199900288                  
63150000074403101AB-MANNITOL 25% 50ml 25s         000238800360                  
63150000074771209AB-MANNITOL 5% PVC 1000ml 12s    002999900288                  
63150000074771502AB-MANNITOL VL 20% 250ml 24s     004128300360                  
63150000074155910AB-MARCAINE .25% 10ml            000210001440                  
63150000074158750AB-MARCAINE .25% 50ml MLTIDOSE   000031101440                  
63150000074174610AB-MARCAINE .25% W/EPI 10ml      000241201440                  
63150000074175250AB-MARCAINE .25% W/EPI 50ml      000060900480                  
63150000024122202AB-MARCAINE .25% W/EPI 50ml      000360000480                  
63150000074156030AB-MARCAINE .5% 30ml             000156501440                  
63150000074174929AB-MARCAINE .5% 30ml W/EPI       000526701440                  
63150000074161050AB-MARCAINE .5% 50ml             000038300480                  
63150000074174910AB-MARCAINE .5% W/EPI 10ml       000257501440                  
63150000074174903AB-MARCAINE .5% W/EPI 3ml        000190000480                  
63150000074175550AB-MARCAINE .5% W/EPI 50ml       000071601440                  
63150000074158210AB-MARCAINE .75% 10ml            000200001440                  
63150000074158229AB-MARCAINE .75% 30ml 10s        000332301440                  
63150000024158230AB-MARCAINE .75% 30ml AMP        000161001440                  
63150000024175030AB-MARCAINE .75% 30ml W/EPI      000119900012                  
63150000074176102AB-MARCAINE AMP 2ml 10s          000157701440                  
63150000074175250AB-MARCAINE/EPI .25% 50ml  EA    000000000480                  
63150000074303001AB-METHYLDOP 250mg 5ml 25s       000311500480                  
63150000074341401AB-METOCLOP 10mg/2ml 2ml 25s     000278509999                  
63150000074341301AB-METOCLOP 5mg/ml AMP           000303700480                  
63150000074781124AB-METRONID 500mg 100ml BAG 24   001162000480                  
63150000074781137AB-METRONID 500mg 80x100ml       002200000480                  
63150000074146301AB-NALBUPHIN HCL 10mg 1ml A 50   000073000960                  
63150000074146401AB-NALBUPHIN HCL 10mg FLTP 25s   001430000480                  
63150000074146501AB-NALBUPHIN HCL 20mg 1ml A      000137500480                  
63150000074121201AB-NALOXONE AMP .4mg 1ml 10s     000180000200                  
63150000024180001AB-NEO-SYNE AMP 1% 1ml 25s       001530000600                  
63150000013560693AB-NEOSAR 100mg 12s              000448600288                  
63150000013563670AB-NEOSAR 1gm 6s                 000567100288                  
63150000013561693AB-NEOSAR 200mg 12s              000539200288                  
63150000013564670AB-NEOSAR 2gm 6s                 001540000288                  
63150000013562693AB-NEOSAR 500mg 12s              000755200288                  
63150000074372201AB-NEOSTIGMINE 1/2000 10ml 10s   000323000480                  
63150000074372301AB-NEOSTIGMINE 1mg/ml 10ml 10s   000174800480                  
63150000074148402AB-NITRO/DEXT 400mcg/ml 12X250   000699900288                  
63150000074148403AB-NITRO/DEXT 400mcg/ml 12x500   000869900288                  
63150000074410401AB-NITROGLY 25mg 5ml 25s         000199900012                  
63150000074410701AB-NITROGLY 50mg 10ml 25s        000298200288                  
63150000074148302AB-NITROGLY/DEXT 100mcg/ml sol   000619900288                  
63150000074148202AB-NITROGLY/DEXT 200mcg/ml       000605800288                  
63150000074303444AB-NITROPRES 50MG ADVNT VL  EA   000030100480                  
63150000074325001AB-NITROPRES 50MG KIT EA  10     000729600480                  
63150000074302401AB-NITROPRESS 25mg 2ml vl        000025000480                  
63150000074704101AB-NOREPINEPHRINE 1mg/ml AMP     001100000480                  
63150000074767003AB-NORMOSOL R 7.4 500ml 24s      000890700288                  
63150000074439905AB-NORMOSOL-M 1000ml 6s          000295300288                  
63150000074157005AB-NORMOSOL-R 7.4 1000ml 12s     000897000288                  
63150000074180802AB-NOVOCAIN 1% AMPUL 2ml  25s    000611600480                  
63150000074180806AB-NOVOCAIN 1% AMPUL 6ml  50s    002460500480                  
63150000074464502AB-PANCURONIUM 2MG AMP 5ML 25    000684000480                  
63150000074564801AB-PEDIATRIC LTA KIT  EA  25     001746000480                  
63150000074454801AB-PENTAMIDINE 300mg VIAL        000529200360                  
63150000074131701AB-PHENYTOIN 50mg/ml 2ml         000337700480                  
63150000074131702AB-PHENYTOIN 50mg/ml 5ml         000350000480                  
63150000074614102AB-PHYSIOSOL IRR 250ml 12s       000599900288                  
63150000074614122AB-PHYSIOSOL IRR 250ml 24s       000645100288                  
63150000074614103AB-PHYSIOSOL IRR 500ml 12s       000645100288                  
63150000074701205AB-PHYSIOSOL IRR 7.4 1000ml 12   000522000288                  
63150000074187405AB-PONTOCA/DEX AMP SPNL 5ml 10   000562000480                  
63150000074186301AB-PONTOCAINE .5% 59ml           000210000480                  
63150000074187405AB-PONTOCAINE HCL .3% 5ml AMPS   000494101440                  
63150000074184906AB-PONTOCAINE HCL NIP 20ml AMP   008800000480                  
63150000074186602AB-PONTOCAINE HCL SOL 2% 118ml   000330000480                  
63150000074329406AB-POT ACET 2meq/ml 100ml 25s    000630700480                  
63150000074818301AB-POT ACET 2meq/ml 20ml 25s     000224000480                  
63150000074329451AB-POT ACET 2meq/ml 50ml 25s     000407000480                  
63150000074710509AB-POT CHL .3% 40meq 1000ml 12   000387400288                  
63150000074710709AB-POT CHL .9% 20meq 1000ml 12   000387400288                  
63150000074710709AB-POT CHL .9% 40meq 1000ml 12   000387400288                  
63150000074707426AB-POT CHL 10meq 100ml 24s       000599900288                  
63150000074707514AB-POT CHL 10meq 50ml 24s        000599900288                  
63150000074663501AB-POT CHL 10meq 5ml 25s         000097500480                  
63150000074790103AB-POT CHL 10meq 600ml 24s       000823200288                  
63150000074711509AB-POT CHL 20meq .9% 1000ml 12   000699900288                  
63150000074707526AB-POT CHL 20meq 100ml 24s       000599900288                  
63150000074665106AB-POT CHL 20meq 10ml 25s        000083000480                  
63150000074493201AB-POT CHL 20meq 10ml 25s        000368500480                  
63150000074711109AB-POT CHL 20meq 5% 1000ml 12s   000699900288                  
63150000074707714AB-POT CHL 20meq 50/100ml 24s    000599900288                  
63150000074390703AB-POT CHL 2meq AMP   10ml 25s   000242200480                  
63150000074665106AB-POT CHL 2meq VL  10ml  25s    000100000480                  
63150000074149901AB-POT CHL 2meq VL  20ml   25s   000882900480                  
63150000074665305AB-POT CHL 2Meq VL 20ml   25s    000130000480                  
63150000074493901AB-POT CHL 2Meq VL PNTP 20ml25   000398000480                  
63150000074493101AB-POT CHL 2Meq VL PNTP 5ml 25   000366700480                  
63150000074707626AB-POT CHL 30meq 100ml 24s       000599900288                  
63150000074663601AB-POT CHL 30meq 15ml 25s        000101100480                  
63150000074711609AB-POT CHL 40meq .9% 1000ml 12   000699900288                  
63150000074707726AB-POT CHL 40meq 100ml 24s       000599900288                  
63150000074665305AB-POT CHL 40meq 20ml 25s        000105000480                  
63150000074149901AB-POT CHL 40meq 25x20ml         000887500480                  
63150000074711309AB-POT CHL 40meq 5% 1000ml 12s   000699900288                  
63150000074799803AB-POT CHL DX/NA 10meq 500ml     000699900288                  
63150000074799809AB-POT CHL DX/NA 20meq 1000ml    000268600288                  
63150000074799709AB-POT CHL PREMX 10ME .2% sol    000282500288                  
63150000074799309AB-POT CHL PREMX 10ME .45% sol   000282500288                  
63150000074499419AB-POT CHL Syg 40meq 20ml 10s    000338500360                  
63150000074790209AB-POT CHL/DEX .15% 1000ml 12s   000348800288                  
63150000074799609AB-POT CHL/DEX .224/5% 1000ml    000285000288                  
63150000074420101AB-POT PHOS 150mm 50ml 25s       000656100360                  
63150000074729601AB-POT PHOS 15mm 5ml 25s         000122500360                  
63150000074729501AB-POT PHOS 45mm 15ml 5s         000145000360                  
63150000074469801AB-PRE ATTACHED LTA KIT EA 25    001116700480                  
63150000074190201AB-PROCAINAMIDE 100mg/ml vial    000267000480                  
63150000074190301AB-PROCAINAMIDE 500mg/ml vial    000224000360                  
63150000074192304AB-PROCAINE FTV 1% 30ml 25s      000260400360                  
63150000074195304AB-PROCAINE FTV 2% 30ml 25s      000260400360                  
63150000074188022AB-PROCHLOR SYG 5mg 2ml 10s      000214700360                  
63150000074188132AB-PROCHLORPERAZINE SYR 2ml 10   000184600480                  
63150000074662902AB-QUELICIN 20mg FTV 1ml 25s     000185200288                  
63150000074806515AB-QUELICIN 20mg SYR 5ml  10s    000699600480                  
63150000074614009AB-RINGERS sol 1000ml 12s        000389900288                  
63150000074798224AB-RINGERS sol 500ml 24s         000362700288                  
63150000074329906AB-SOD ACET 200meq 100ml 25s     000700000360                  
63150000074329905AB-SOD ACET 2meq 50ml ft 25      000392000360                  
63150000074729901AB-SOD ACET 40meq 20ml 25s       000112700360                  
63150000074553418AB-SOD BIC 4.2% 10ml 10s         000277000480                  
63150000074662502AB-SOD BIC 50meq 50ml 50s        000153300360                  
63150000074491622AB-SOD BIC 7.5% 50ml 10s         000321300360                  
63150000074490018AB-SOD BIC 8.4% 10meq 10ml 10s   000288500480                  
63150000074663722AB-SOD BIC 8.4% 10meq 50ml 10s   000246500480                  
63150000074663734AB-SOD BIC 8.4% 50ml 10s         000260000600                  
63150000074491634AB-SOD BIC 8.4% 50ml 10s         000325800360                  
63150000074490034AB-SOD BIC SYG 8.4% 10ml 10s     000314800360                  
63150000074553434AB-SOD BICARB4.2% SYR  10ML 10   000390600480                  
63150000074713207AB-SOD CHL .45% 100ml 50s        000804200288                  
63150000074614706AB-SOD CHL .45% 1500ml 8s        000259900288                  
63150000074614736AB-SOD CHL .45% 1500ml 9s        000259900288                  
63150000074713202AB-SOD CHL .45% 250ml 24s        000641000600                  
63150000074798502AB-SOD CHL .45% 250ml LC 24s     000283700600                  
63150000074773020AB-SOD CHL .45% 25ml 48s         001365600600                  
63150000074798503AB-SOD CHL .45% 500ml 24s        000319700288                  
63150000074773036AB-SOD CHL .45% 50ml fill 80s    001999900288                  
63150000074797205AB-SOD CHL .9% 1000ml 12s        000396500288                  
63150000074488899AB-SOD CHL .9% 100ml 25s         000252700600                  
63150000074798437AB-SOD CHL .9% 100ml 80s         001094100600                  
63150000074488810AB-SOD CHL .9% 10ml ea           000068000600                  
63150000074488812AB-SOD CHL .9% 10ml vl 25s       000109900600                  
63150000074713806AB-SOD CHL .9% 1500ml w/han 8s   000299900288                  
63150000074181202AB-SOD CHL .9% 2/2ml 50s         000382500480                  
63150000074181222AB-SOD CHL .9% 2/2ml 50s         000407500480                  
63150000074797207AB-SOD CHL .9% 2000ml 6s         000308100288                  
63150000074488820AB-SOD CHL .9% 20ml 25s          000091000600                  
63150000074613822AB-SOD CHL .9% 250ml 24s         000320200600                  
63150000074798420AB-SOD CHL .9% 250ml 48s         000939900288                  
63150000074181223AB-SOD CHL .9% 3/5ml 25s         000281400480                  
63150000074191833AB-SOD CHL .9% 3ml 25s           000265300600                  
63150000074181205AB-SOD CHL .9% 5/5ml 25s         000275000480                  
63150000074488850AB-SOD CHL .9% 50ml 100s         000187300480                  
63150000074158401AB-SOD CHL .9% 50ml 12s          000512200600                  
63150000074710102AB-SOD CHL .9% 50ml 24s          000616500480                  
63150000074798436AB-SOD CHL .9% 50ml 80s          001199900288                  
63150000074191835AB-SOD CHL .9% 5ml 25s           000275000480                  
63150000074536505AB-SOD CHL .9% FL SYR 5ml 50s    000432000480                  
63150000074613802AB-SOD CHL .9% IRRG 250ml 12s    000247500480                  
63150000074613803AB-SOD CHL .9% IRRG 500ml 12s    000279000480                  
63150000074158411AB-SOD CHL .9% PF sol 12x100ml   001067000288                  
63150000074158401AB-SOD CHL .9% PF sol 12x50ml    000620000288                  
63150000074798309AB-SOD CHL .9% sol 1000ml 12s    000187500480                  
63150000074158301AB-SOD CHL .9% sol 12x150ml      000383500288                  
63150000074158302AB-SOD CHL .9% sol 12x250ml      000383500288                  
63150000074181225AB-SOD CHL .9% syr 5ml 25s       000278500480                  
63150000074181105AB-SOD CHL .9% SYR CJCT 5ml 25   000184300480                  
63150000074196604AB-SOD CHL 10ml 100s             000085000480                  
63150000074665773AB-SOD CHL 2.5MEQ VL FT 20ml25   000175500480                  
63150000074113002AB-SOD CHL 4meq/ml 250ml 12s     000408800600                  
63150000074114102AB-SOD CHL 4MEQ23.4% 100ml 25s   000990000480                  
63150000074114101AB-SOD CHL 4MEQ23.4% 50ml  25s   000500000480                  
63150000074158603AB-SOD CHL 5% sol 12x500ml       000835500288                  
63150000074196607AB-SOD CHL BACT .9% 30ml 25s     000089000600                  
63150000074798303AB-SOD CHL INJ .9% 500ml 24s     000361500480                  
63150000074798502AB-SOD CHL SOL .45% 250ml 24     000284000600                  
63150000074188512AB-SOD CHL.9%SYR   2ml 50s       000618600480                  
63150000074188503AB-SOD CHL.9%SYR CJCT  3ml 25s   000167200480                  
63150000074181203AB-SOD CHL.9%SYR CJCT 3ml  25s   000290200480                  
63150000074329551AB-SOD PHOS 3mm/ml FPT 50ml 25   001296700480                  
63150000074739172AB-SOD PHOS 45mm 15ml 25s        000183300600                  
63150000074186468AB-SOLUSET 150x60 NV fltr&cair   001292500288                  
63150000074187668AB-SOLUSET 150x60 NV w/cair      001999900288                  
63150000074798108AB-SORBITOL MANNITOL 3000ml 4s   000379800288                  
63150000074614406AB-SORBITOL-MANNITOL 1500ml 8s   000359900288                  
63150000074614436AB-SORBITOL-MANNITOL 1500ml 9s   000399900288                  
63150000074581611AB-STERILE EMPTY 10ml vl 25s     000123100480                  
63150000074581631AB-STERILE EMPTY 30ml VL FT 25   000173300480                  
63150000074711807AB-STERILE WATER 2000ml 6s       000399900288                  
63150000074790707AB-STERILE WATER RES 2000ml 6s   000432500288                  
63150000074713906AB-STERILE WTR 1500ml w/han 8s   000199900288                  
63150000074183701AB-SYRINGE FILTER 1.0 MICRON     001190000288                  
63150000007509216AB-TAZICEF 1gm ADV 15ml 25s      002690000576                  
63150000007508311AB-TAZICEF 1gm PB 100ml 10s      001049900288                  
63150000007508216AB-TAZICEF 1gm Vial 20ml 25s     002690000288                  
63150000007509311AB-TAZICEF 2gm ADV 21ml 10s      002290000288                  
63150000007508511AB-TAZICEF 2gm PB 100ml 10s      001910600288                  
63150000007508411AB-TAZICEF 2gm Vial 60ml 10s     002290000288                  
63150000007508611AB-TAZICEF 6gm/100ml 100ml 10s   006490000288                  
63150000074766823AB-THEOPHYL 200mg 100ml 24s      001059900288                  
63150000074767713AB-THEOPHYL 200mg 50ml 24s       001059900288                  
63150000074767723AB-THEOPHYL 400mg 100ml 24s      001059900288                  
63150000074766662AB-THEOPHYL 400mg 250ml 24s      001059900288                  
63150000074766503AB-THEOPHYL 400mg 500ml 24s      000899900288                  
63150000074766603AB-THEOPHYL 800mg 1000ml 24s     000849900288                  
63150000074770502AB-THEOPHYL 800mg 250ml 24s      001169700288                  
63150000074766509AB-THEOPHYL 800mg 5% 500ml 12s   000666200288                  
63150000074357701AB-TOBRAMYC 20mg 2ml 25s         000648500720                  
63150000074359002AB-TOBRAMYC 40mg/ml 5ml          000571700720                  
63150000074357801AB-TOBRAMYC 80mg 2ml 25s         000717300720                  
63150000074346913AB-TOBRAMYC/NACL 60mg 24x50ml    001639900288                  
63150000074347023AB-TOBRAMYC/NACL 80mg 24x100ml   001732500288                  
63150000074325403AB-TOBRAMYCIN 10MG ADVN 6ml 25   002520000480                  
63150000074325503AB-TOBRAMYCIN 10MG ADVN 8ml 25   001310000480                  
63150000074588101AB-TPN ELECTRL P-FILL 20ml 25s   001586500480                  
63150000074588219AB-TPN ELECTROL SYR UNV 20ml10   000682100480                  
63150000074329606AB-TPN ELECTROLYTES 100ml 25s    001267000360                  
63150000074577901AB-TPN ELECTROLYTES 20ml 25s     000553000480                  
63150000074323601AB-TPN ELECTROLYTES II 20ml 50   000613500480                  
63150000074329706AB-TPN ELECTROLYTES II VIAL      001406900360                  
63150000074329806AB-TPN ELECTROLYTES III VIAL     001430700360                  
63150000074384401AB-TPN ELETROLYTES III 20ml 50   000526900360                  
63150000074400801AB-TRACE METAL ADD VL 50ML 25    001053600480                  
63150000074459250AB-TRACE METAL ADD VL 50ml 25s   002229100480                  
63150000074462315AB-TRACE METALS SYR 5ml  10s     000477800480                  
63150000074479702AB-TRANSFER NDL 19GA 400s        001324400288                  
63150000074397201AB-TRANSFER SET additive pharm   000324100288                  
63150000074171848AB-TRANSFER VENTED SET           002490000288                  
63150000074806615AB-TUBOCURARINE 3mg SYR 5ml 10   000702500480                  
63150000074338604AB-TUBOCURARINE 3mg VL 20ml 25   001785200480                  
63150000074653301AB-VANCOMYCIN 1gm 25ml fltp 10   000575000600                  
63150000074653501AB-VANCOMYCIN 1GM ADD-VAN        000917000480                  
63150000074433201AB-VANCOMYCIN 500mg 10ml ft 10   000271100480                  
63150000074653401AB-VANCOMYCIN 500mg a/v vl.      000443200600                  
63150000074650901AB-VANCOMYCIN 5gm vl             000269000600                  
63150000074185748AB-VENOSET 72 CAIR CLAMP         001690000288                  
63150000074185948AB-VENOSET 78 NV CAIR CLAMP      001680000288                  
63150000074429348AB-VENOSET 78 NV filt IVEX-2     001899900288                  
63150000074188158AB-VENOSET 78 SET w/conv pin     000558100288                  
63150000074574248AB-VENOSET ANEST CLMP NV SET     001377100288                  
63150000074181848AB-VENOSET PB NV CAIR CLAMP      001182100288                  
63150000074186048AB-VENOSET PB NV SET             001990000288                  
63150000074181848AB-VENOSET PB V CAIR CLAMP       002999900288                  
63150000074183258AB-VENOSET SEC PB VENT SET       000890000288                  
63150000074170248AB-VENOSET SEC VENT SET          000790000288                  
63150000074114402AB-VERAPAMIL 2.5mg VL 4ml  5s    000041400480                  
63150000074401101AB-VERAPAMIL 2.5mg/ml            000031001440                  
63150000074198202AB-VERAPAMIL 2.5mg/ml 2ml 10s    000121500480                  
63150000074114401AB-VERAPAMIL 5mg 2ml FLTP 25s    000035000480                  
63150000013746686AB-VINCASAR PFS 2mg 10s          001299900288                  
63150000074915701AB-VIT K INJ 10ml A 50s          000485000480                  
63150000074915801AB-VIT K INJ 1mg A 50s           000935000360                  
63150000074397703AB-WATER BACT 30ml 25s           000100000600                  
63150000074799009AB-WATER FOR INJ 1000ml 12s      000208900288                  
63150000074488799AB-WATER FOR INJ 100ml 25s       000260000360                  
63150000074488710AB-WATER FOR INJ 10ml 25s        000068700360                  
63150000074488720AB-WATER FOR INJ 20ml 25s        000100500360                  
63150000074159002AB-WATER FOR INJ 250ml 12s       000446500288                  
63150000074488750AB-WATER FOR INJ 50ml 25s        000170000360                  
63150000074797207AB-WATER STER irrg 2000ml 6s     000390000288                  
63150000074613902AB-WATER STER irrg 250ml 12s     000154900288                  
63150000074613922AB-WATER STER irrg 250ml 24s     000299900288                  
63150000074613903AB-WATER STER irrg 500ml 24s     000299900288                  
63150000074402903AB-WATER/INJ AMP 20ML   25       000242200480                  
63150000074409001AB-ZINC CHL 1mg VL  50ml  25s    000899900720                  
63150000074452605AB-ZINC CHLOR 1mg/ml 10ml 25s    000216000288                  
63150053265005010ABL-CLORAZEPATE 15mg 100s        000289000576                  
63150053265004810ABL-CLORAZEPATE 3.75mg 100s      000097500576                  
63150053265004850ABL-CLORAZEPATE 3.75mg 500s      000463000576                  
63150053265004910ABL-CLORAZEPATE 7.5mg 100s       000169500576                  
63150053265004950ABL-CLORAZEPATE 7.5mg 500s       000806500576                  
63150053265023711ABL-DIPHENOX 2.5/0.025mg 1000s   000480000576                  
63150053265023710ABL-DIPHENOX 2.5/0.025mg 100s    000055500576                  
63150053265024910ABL-NITROGLY SUB 0.3mg 100s      000033200576                  
63150053265025010ABL-NITROGLY SUB 0.4mg 100s      000031500576                  
63150053265025004ABL-NITROGLY SUB 0.4mg 4x25      000072000576                  
63150053265025110ABL-NITROGLY SUB 0.6mg 100s      000033200576                  
63150053265019611ABL-PEHNAZOPYRID 100mg 1000s     000419000576                  
63150053265019610ABL-PHENAZOPYRID 100mg 100s      000044600576                  
63150053265019711ABL-PHENAZOPYRID 200mg 1000s     000580500576                  
63150053265019710ABL-PHENAZOPYRID 200mg 100s      000061100576                  
63150053265013210ABL-SALSALATE 500mg 100s         000024500576                  
63150053265013250ABL-SALSALATE 500mg 500s         000114000576                  
63150053265013310ABL-SALSALATE 750mg 100s         000033000576                  
63150053265013350ABL-SALSALATE 750mg 500s         000155000576                  
63150007478089022AK-BIOLON 1% 10mg SYG 1ml        000705901440                  
63150000998039615ALC-CYCLOGYL Drop 1% 15ml        000159900720                  
63150000065039605ALC-CYCLOGYL Drop 1% 5ml         000119900720                  
63150000998031515ALC-ISOPTO HOMATROPINE 5% 15ML   000131700456                  
63150008065183905ALC-VISCOAT SYRINGE .5ml         000744402440                  
63150000023438510ALG-BETAGAN .5% 10ml             000471300012                  
63150000023438515ALG-BETAGAN .5% 15ml             000686800024                  
63150000023438505ALG-BETAGAN .5% 5ml              000226600012                  
63150000023791560ALG-ELIMITE Cream 60gm           000241800012                  
63150000023666365ALG-VITRAX Syg 30mg/ml .65ml     000639901440                  
63150000472141799ALP-ACETAMIN 1 100MG/ML 15ML     000011100048                  
63150000472003616ALP-CHLORHEX .12% LIQ 480ml      000029100048                  
63150000472136016ALP-ENULOSE 16OZ 10GM            000049400048                  
63150000472124492ALP-ERYTHROMY 2% SOL 2oz         000021400048                  
63150000472001204ALP-GUIATUSS AC Syr 4oz          000017400048                  
63150000472001116ALP-GUIATUSS DAC Syr 1 PINT      000061800048                  
63150000472103104ALP-GUIATUSS DM Syr 4oz          000012900048                  
63150000472042194ALP-GUIATUSS PE Syr 4oz          000013800048                  
63150000472162704ALP-PROMETH 10mg Syr 4oz         000027800048                  
63150000472128516ALP-SULFAMETH/TRI PED 1 Pint     000072500003                  
63150000472017956ALP-TRIPLE ANTIBIOTIC OINT 1oz   000012200048                  
63150065234005010AMA-PHRENILIN TB 100S            000293402400                  
63150000000000000AMG-EPOGEN S10 1ml 10s           010460300002                  
63150055513014810AMG-EPOGEN S4 10ml               004184100001                  
63150055513082310AMG-EPOGEN S40 1ml 10s           043961500061                  
63150000000000000AMG-NEUPOG 300mcg 1ml 10s        015329600001                  
63150052152017202AMI-3-GUAIFEN CODEINE 100s       000146800144                  
63150052152003902AMI-4-AMIDRINE CP 100s           000071800144                  
63150052152003903AMI-4-AMIDRINE CP 250s           000164300144                  
63150052152018602AMI-4-PEMOLINE 37.5mg 100s       000823400288                  
63150052152016102AMI-4-PEMOLINE 37.5mg TB 100s    000511800288                  
63150052152016202AMI-4-PEMOLINE 75mg TB 100s      000906200144                  
63150052152019702AMI-4-PEMOLINE 75mg TB 100s      000349300288                  
63150052152016005AMI-4-PHENTER 30mg YLW 1000s     005117200144                  
63150052152016002AMI-4-PHENTER 30mg YLW 100s      000547800288                  
63150052152016705AMI-4-PHENTER 37.5mg CP 1000s    005999000144                  
63150052152016702AMI-4-PHENTER 37.5mg CP 100s     000637500144                  
63150052152015902AMI-4-PHENTER 37.5mg WHT 100s    000747000144                  
63150052152015905AMI-4-PHENTER 37.5mg WT 1000s    006647000144                  
63150052152013002AMI-AMI-TEX 600/120 SA TB 100s   000050000288                  
63150052152013004AMI-AMI-TEX 600/120 SA TB 500s   000236800144                  
63150052152013904AMI-AMIBID 30mg DM 500s          000240600144                  
63150052152013902AMI-AMIBID DM TB 100s            000050000144                  
63150052152010602AMI-AMIBID LA TB 100s            000035600144                  
63150052152010604AMI-AMIBID LA TB 500s            000155600144                  
63150052152002002AMI-AMIGESIC CP 750mg 100s       000053100288                  
63150052152002004AMI-AMIGESIC CP 750mg 500s       000243100288                  
63150052152001902AMI-AMIGESIC TB 500mg 100s       000040600288                  
63150052152001904AMI-AMIGESIC TB 500mg 500s       000184300288                  
63150052152011502AMI-BELLAMINE S TB 100s          000090000144                  
63150052152017902AMI-BETAXOLOL 10mg TB 100s       000621800144                  
63150052152018002AMI-BETAXOLOL 20mg TB 100s       000926800144                  
63150052152013605AMI-CARISOP TB 350mg 1000s       000524300288                  
63150052152013602AMI-CARISOP TB 350mg 100s        000063700360                  
63150052152013604AMI-CARISOP TB 350mg 500s        000303700288                  
63150052152013702AMI-CARISOP/ASPIRIN TB 100s      000131200288                  
63150052152013704AMI-CARISOP/ASPIRIN TB 500s      000650000288                  
63150052152001805AMI-CHLORDIAZ/CDP CP 1000s       000233100288                  
63150052152001802AMI-CHLORDIAZ/CDP CP 100s        000031200360                  
63150052152001804AMI-CHLORDIAZ/CDP CP 500s        000123700288                  
63150052152005302AMI-CHLORZOX 250mg TB 100s       000045500144                  
63150052152008602AMI-CHOL Mag/Tri 1000mg 100s     000131200288                  
63150052152008402AMI-CHOLINE Mag/Tri 500mg 100s   000093700360                  
63150052152008502AMI-CHOLINE Mag/Tri 750mg 100s   000106200360                  
63150052152001402AMI-DEXCHLOR MAL 4mg TB 100s     000155700288                  
63150052152001502AMI-DEXCHLOR MAL 6mg TB 100s     000176800288                  
63150052152024702AMI-GUAIF/PSEUDO 1200mg 120g     000180400144                  
63150052152024502AMI-GUAIFEN ER TB 1200mg 100s    000090700144                  
63150052152011802AMI-GUANFACINE TB 1mg 100s       000094000288                  
63150052152011804AMI-GUANFACINE TB 1mg 500s       000461800288                  
63150052152011902AMI-GUANFACINE TB 2mg 100s       000129900288                  
63150052152011904AMI-GUANFACINE TB 2mg 500s       000623700240                  
63150052152014302AMI-HYOSCYA .125mg TB 100s       000023600144                  
63150052152016302AMI-HYOSCYA .375mg CP 100s       000074300144                  
63150052152015602AMI-HYOSCYA .375mg TB 100s       000051200144                  
63150052152015502AMI-HYOSCYA SUBL .125mg 100s     000023600144                  
63150052152011705AMI-MECLIZINE CHEW 25mg 1000s    000152600288                  
63150052152011702AMI-MECLIZINE CHEW 25mg 100s     000024900288                  
63150052152011102AMI-METHENAM MAND .5gm TB 100s   000129600144                  
63150052152011202AMI-METHENAM MAND 1gm TB 100s    000223900144                  
63150052152015005AMI-MUL VITA-BT FL .25mg 1000s   000172400288                  
63150052152015002AMI-MULTI VITA-BT .25mg 100s     000020300144                  
63150052152003105AMI-MULTI VITA-BT .5mg 1000s     000165500144                  
63150052152003102AMI-MULTI VITA-BT .5mg 100s      000019300144                  
63150052152000105AMI-MULTI VITA-BT FL 1mg 1000s   000163700144                  
63150052152000102AMI-MULTI VITA-BT FL 1mg 100s    000018900144                  
63150052152004814AMI-MULTI-RET TB 500s UD 60      000089500144                  
63150052152010502AMI-NALTREXONE 50mg TB 100s      002074300144                  
63150052152010530AMI-NALTREXONE 50mg TB 30s       000661800144                  
63150052152000305AMI-PHENAZOP 100mg TB 1000s      000437500144                  
63150052152000302AMI-PHENAZOP 100mg TB 100s       000046800288                  
63150052152000405AMI-PHENAZOP 200mg TB 1000s      000649900144                  
63150052152000402AMI-PHENAZOP 200mg TB 100s       000069900288                  
63150052152024802AMI-PRENATAL 3 TB 100s           000168700480                  
63150052152024804AMI-PRENATAL FORMULA 3 500s      000790000144                  
63150052152017802AMI-PRENATAL PLUS 27mg 100s      000050500288                  
63150052152017120AMI-PRENATAL Rx TB 200s          000070100288                  
63150052152017104AMI-PRENATAL Rx TB 500s          000174200288                  
63150052152017711AMI-PRENATAL Z FRM ADV UD        000087100288                  
63150052152012705AMI-SOD FLUOR .5mg TB 1000s      000150400144                  
63150052152012805AMI-SOD FLUOR CHW 1mg 1000s      000162800288                  
63150052152000202AMI-TRI-VITA 1mg FLUOR TB 100s   000035500144                  
63150052152016602AMI-TRIMETH 250mg CP 100s        000126900144                  
63150052152006002AMI-URSODIOL 300mg CP 100s       001262500144                  
63150052152007802AMI-VITACON FORTE CP 100s        000047000360                  
63150052152007804AMI-VITACON FORTE CP 500s        000241200288                  
63150052152007602AMI-VITAPLEX F/C TB 100s         000039500480                  
63150052152007604AMI-VITAPLEX F/C TB 500s         000179000180                  
63150052152007702AMI-VITAPLEX PLUS TB 100s        000048400360                  
63150052152007704AMI-VITAPLEX Plus TB 500s        000229500144                  
63150052152003205AMI-YOHIMBINE 5.4mg TB 1000s     000274900180                  
63150000517391025AMR-CALCIUM GLUC 10% 10ml 25s    000137500027                  
63150000517003225AMR-CYANO 1000mcg/ml 10ml 25s    000235000036                  
63150000517460125AMR-GLYCOP .2mg/ml 1ml 25s       000127500031                  
63150000517265025AMR-MAG SULF 50% 50ml 25s        000365000012                  
63150000517003410AMR-NEOSTIGMINE 1:2000 10ml 10   000080000033                  
63150000517480510AMR-NITROGLY 25mg/5ml 5ml 10s    000325000031                  
63150000517200025AMR-NUTRILYTE II 100ml 25s       000499900012                  
63150000517400205AMR-PAPAVERINE HCL 30mg/ml 2ml   000129900027                  
63150000517029925AMR-PHENYLEPH 1% 1ml 25s         000299900033                  
63150000517209625AMR-SOD ACET 2meq/ml 20ml 25s    000299900032                  
63150000517301025AMR-STERILE WATER 10ml 25s       000183300001                  
63150063323010365APP-CISPLATIN 100mg 100ml vl     001687700012                  
63150063323010364APP-CISPLATIN 200mg 200ml vl     002990000480                  
63150063323010351APP-CISPLATIN 50mg 50ml vl       000990000480                  
63150063323047101APP-HALOPERIDOL DEC 100mg 1ml    000179900072                  
63150052769027076ARC-PANGLOBULIN 6gm vl           003330000100                  
63150000310060060AST-NOLVADEX 10mg Tab 60s        000956900120                  
63150000310060430AST-NOLVADEX 20mg Tab 30s        000956900048                  
63150000310060490AST-NOLVADEX 20mg TB 90s         002871000012                  
63150000186103501AST-SENSORCAINE .5% MDV 50ml     000080800050                  
63150000186103701AST-SENSORCAINE .75% 30ml        000047300900                  
63150000186033001AST-XYLOCAINE 2% 30gm            000150100360                  
63150000186016001AST-XYLOCAINE/EPI 2% MDV 50ml    000052200800                  
63150049669162301ATC-VENOGLOBLN S 10gm VL 100ml   005900000200                  
63150049669162401ATC-VENOGLOBUL S 20gm VL 200ml   011800000030                  
63150000088120305AVE-ANZEMET 100mg 5s             003017800264                  
63150000088120329AVE-ANZEMET 100mg BP 5s          003014600012                  
63150000088120229AVE-ANZEMET 50mg BP 5s           002274400024                  
63150000088120243AVE-ANZEMET 50mg UD 10s          004549400024                  
63150000088120865AVE-ANZEMET Inj 12.5mg Amp 6s    000722200720                  
63150000075245153AVE-DDAVP 4mcg/ml 10ml Vial Ea   001649900096                  
63150000075245101AVE-DDAVP 4mcg/ml 1ml Amp 10s    001649900096                  
63150000075800120AVE-TAXOTERE 20mg .5ml SDV       002551700006                  
63150000075800180AVE-TAXOTERE 80mg 2ml SDV        010207000004                  
63150000555003305BAR-4-CHLORDIAZ 10mg 1000s       000375400360                  
63150000555003302BAR-4-CHLORDIAZ 10mg 100s        000055200360                  
63150000555015902BAR-4-CHLORDIAZ 25mg 100s        000063900360                  
63150000555015904BAR-4-CHLORDIAZ 25mg 500s        000262100360                  
63150000555015802BAR-4-CHLORDIAZ 5mg 100s         000071700360                  
63150000555015804BAR-4-CHLORDIAZ 5mg 500s         000321000360                  
63150000555016405BAR-4-DIAZEPAM 10mg 1000s        000343000360                  
63150000555016402BAR-4-DIAZEPAM 10mg 100s         000036100360                  
63150000555016305BAR-4-DIAZEPAM 2mg 1000s         000253400360                  
63150000555016302BAR-4-DIAZEPAM 2mg 100s          000026700360                  
63150000555036305BAR-4-DIAZEPAM 5mg 1000s         000263900360                  
63150000555036302BAR-4-DIAZEPAM 5mg 100s          000027800360                  
63150000555044302BAR-ACETOHEXAMIDE 500mg 100s     000847600360                  
63150000555058502BAR-CHLORZOXAZONE 500mg 100s     000047700360                  
63150000555058504BAR-CHLORZOXAZONE 500mg 500s     000220600360                  
63150000555063402BAR-DANAZOL 100mg 100s           001492800360                  
63150000555063502BAR-DANAZOL 200mg 100s           002487400360                  
63150000555063509BAR-DANAZOL 200mg 60s            001692700360                  
63150000555063302BAR-DANAZOL 50mg 100s            000994900360                  
63150000555005902BAR-DIPEHNHYDRAMINE 50MG         000044000360                  
63150000555025204BAR-DIPYRIDAMOLE 25mg 500s       000447100360                  
63150000555025205BAR-DIPYRIDAMOLE 25s 1000s       000867000360                  
63150000555028505BAR-DIPYRIDAMOLE 50mg 1000s      001055800360                  
63150000555028502BAR-DIPYRIDAMOLE 50mg 100s       000120900360                  
63150000555028504BAR-DIPYRIDAMOLE 50mg 500s       000544200360                  
63150000555028602BAR-DIPYRIDAMOLE 75gm 100s       000127000360                  
63150000555028604BAR-DIPYRIDAMOLE 75gm 500s       000571600360                  
63150000555028605BAR-DIPYRIDAMOLE 75mg 1000s      001108900360                  
63150000555021522BAR-E.E.S GRAN 200mg/5ml 100ml   000037300360                  
63150000555021523BAR-E.E.S GRAN 200mg/5ml 200ml   000073700360                  
63150000555087702BAR-FLUOXETINE 20mg 100s         000285000360                  
63150000555032402BAR-HYDROXYZINE 100mg 100s       000121900360                  
63150000555006605BAR-ISONIAZID 100mg 1000s        000335300360                  
63150000555006602BAR-ISONIAZID 100mg 100s         000033600360                  
63150000555007105BAR-ISONIAZID 300mg 1000s        000532000360                  
63150000555007102BAR-ISONIAZID 300MG TB 100S      000056000360                  
63150000555007101BAR-ISONIAZID 300MG TB 30S       000026000360                  
63150000555905058BAR-KARIVA .15mg 6x28            001088400360                  
63150000555901458BAR-LESSINA .1mg 6x28            001127700360                  
63150000555034502BAR-LITHIUM 300mg 100s           000233600360                  
63150000555057245BAR-METHOTREXATE 2.5mg 4x2       000109000360                  
63150000555057246BAR-METHOTREXATE 2.5mg 4x3       000162000360                  
63150000555057247BAR-METHOTREXATE 2.5mg 4x4       000212300360                  
63150000555057248BAR-METHOTREXATE 2.5mg 4x5       000268200360                  
63150000555057249BAR-METHOTREXATE 2.5mg 4x6       000324000360                  
63150051285030121BAR-METHYLPRED 4MG TB 21s        000037600960                  
63150000555001105BAR-TETRACYCLINE 250mg 1000s     000299900360                  
63150000555001005BAR-TETRACYCLINE 500mg 1000s     000587800360                  
63150000555001002BAR-TETRACYCLINE 500mg 100s      000061400360                  
63150000555073302BAR-TRAZODONE 500mg 100s         002414600360                  
63150000338107302BAX-DOBUT HCL/D5W 250ml 2B0791   002250000144                  
63150000338100702BAX-DOPAMINE 250ml 18s 2B0842    001400000144                  
63150000338049048BAX-INTRA 10% 100ml 10s 1A6019   000741000288                  
63150000338049002BAX-INTRA 10% 250ml 10s 1A6012   000849900288                  
63150000338049003BAX-INTRA 10% 500ml 10s 1A6013   000899900288                  
63150000338049148BAX-INTRA 20% 100ml 10s 1A6029   000989900288                  
63150000338049102BAX-INTRA 20% 250ml 10s 1A6022   000999900288                  
63150000338049103BAX-INTRA 20% 500ml 10s 1A6023   001389900288                  
63150000338049141BAX-INTRA 20% 50ml 10s 1A6028    001089900288                  
63150064193025050BAX-IVEEGAM VL 5gm               003600002000                  
63150000338104902BAX-NITR/D5W 50mg 250ml 1A0694   000599900144                  
63150000338070341BAX-POT CHL 20MEQ 24S 2B0822     000530000144                  
63150000338070348BAX-POT CHL 40MEQ 24S 2B0824     000530000144                  
63150000026063512BAY-BAYGAM IGIM SD 10ml vl       000921600096                  
63150000026063504BAY-BAYGAM IGIM SD 2ml vl        000240000144                  
63150000026063602BAY-BAYHEP B 1ml                 000959902000                  
63150000026063605BAY-BAYHEP B 5ml                 004999900649                  
63150000026061802BAY-BAYRAB 2ml Vial Ea           001199900144                  
63150000026063102BAY-BAYRHO-D 300U Syg Ea         000829901000                  
63150000192064871BAY-GAMIMUNE N 10% 10gm 100ml    006700000480                  
63150000192064824BAY-GAMIMUNE N 10% 20gm 200ml    013500000480                  
63150000026064812BAY-GAMIMUNE N 1gm VL 10ml       000726700100                  
63150000026064820BAY-GAMIMUNE N 5gm VL 50ml       003633700480                  
63150000270131525BDI-ISOVUE 300 61% VL 30ml 10s   003142200006                  
63150000270131637BDI-ISOVUE 370 BTL 10x150ml      008216500072                  
63150000270131702BDI-ISOVUE 51% BTL 10x100ml      005793800024                  
63150000270131535BDI-ISOVUE 61% BTL 10x100ml      006075400144                  
63150000270131530BDI-ISOVUE 61% VL 10x50ml        003524400288                  
63150000270131635BDI-ISOVUE 76% BTL 10x100ml      006742900288                  
63150000270131640BDI-ISOVUE 76% BTL 10x200ml      011160800060                  
63150000270131630BDI-ISOVUE 76% VL 10x50ml        003449600168                  
63150000270131641BDI-ISOVUE MP 370 76% B 200ml    010446200024                  
63150000270141111BDI-ISOVUE-M 41% VL 10x10ml      004099800048                  
63150000270141125BDI-ISOVUE-M 41% VL 10x20ml      004876300132                  
63150000270111102BDI-PROHANCE 3mg/ml VL 5x15ml    003005400096                  
63150055390047510BED-3-KETAMINE 500mg 10ml 10s    000900000288                  
63150055390018301BED-4-BUTORPHANOL 1mg 1ml 10s    000675000288                  
63150055390018510BED-4-BUTORPHANOL 20mg 10ml Ea   000650000288                  
63150055390018401BED-4-BUTORPHANOL 2mg 1ml 10s    000725000288                  
63150055390018402BED-4-BUTORPHANOL 4mg 2ml 10s    001275000288                  
63150055390012510BED-4-MIDAZOL 1mg/ml 10ml 10s    000282300288                  
63150055390013702BED-4-MIDAZOL 1mg/ml 2ml 10s     000070500288                  
63150055390013705BED-4-MIDAZOL 1mg/ml 5ml 10s     000141100288                  
63150055390012610BED-4-MIDAZOL 5mg/ml 10ml 10s    001294100288                  
63150055390013801BED-4-MIDAZOL 5mg/ml 1ml 10s     000141100288                  
63150055390013802BED-4-MIDAZOL 5mg/ml 2ml 10s     000282300288                  
63150055390012605BED-4-MIDAZOL 5mg/ml 5ml 10s     000647000288                  
63150055390046001BED-ACETAZOLAM 500mg 10ml Ea     000235300288                  
63150055390061320BED-ACYCLOVIR 1gm 20ml 10s       000999900288                  
63150055390061210BED-ACYCLOVIR 500mg 10ml 10s     000499900288                  
63150055390050605BED-ALPROST 500mcg 1ml Amp 5s    004845000144                  
63150055390050610BED-ALPROST 500mcg 1ml Vial Ea   001500000288                  
63150055390022604BED-AMIKACIN 1gm 4ml 10s         001254500288                  
63150055390022602BED-AMIKACIN 500mg 2ml 10s       000629900288                  
63150055390022502BED-AMIKACIN PED 100mg 2ml 10s   000629900288                  
63150055390010310BED-ATRACUR 100mg 10ml MDV 10s   001764700288                  
63150055390010205BED-ATRACUR 50mg 5ml SDV 10s     001125000288                  
63150055390060020BED-AZATHIOPRINE 100mg 20ml Ea   000656200288                  
63150055390050002BED-BUMETAN .5mg 2ml 10s         000125700288                  
63150055390050005BED-BUMETAN 1mg 4ml 10s          000129900288                  
63150055390050010BED-BUMETAN 2.5mg 10ml 10s       000471000288                  
63150055390078410BED-CAF/SOD BEN 500mg 2ml 10s    000399900012                  
63150055390028110BED-CERUBIDINE 20mg vl 10s       013315200048                  
63150055390040320BED-CHLOROP USP 2% 20ml Ea       000112900288                  
63150055390040420BED-CHLOROP USP 3% 20ml Ea       000121500288                  
63150055390011299BED-CISPLATIN 100mg 100ml Ea     001330000288                  
63150055390011250BED-CISPLATIN 50mg 50ml Ea       000665000288                  
63150055390012401BED-CLADRIBINE 10mg 10ml Ea      004360500144                  
63150055390060502BED-COLCHICINE 1mg 2ml 10s       000525000600                  
63150055390012210BED-CYCLOSPORINE 250mg 5ml 10s   002333300288                  
63150055390013110BED-CYTARABINE 100mg vl 10s      000290700600                  
63150055390013301BED-CYTARABINE 1gm vl ea         000188800600                  
63150055390013401BED-CYTARABINE 2gm vl ea         000388800600                  
63150055390013210BED-CYTARABINE 500mg vl 10s      000840600600                  
63150055390010810BED-DAUNORUBICIN 20mg 4ml 10s    013315200048                  
63150055390010801BED-DAUNORUBICIN 50mg 10ml Ea    003427800288                  
63150055390056530BED-DILTIAZEM 125mg 25ml 10s     001833500600                  
63150055390056505BED-DILTIAZEM 25mg 5ml 10s       000317600600                  
63150055390056510BED-DILTIAZEM 50mg 10ml          000635200600                  
63150055390055510BED-DIPYRIDAMOLE 10mg 2ml 10s    000450000600                  
63150055390055501BED-DIPYRIDAMOLE 50mg 10ml Ea    000225000600                  
63150055390056090BED-DOBUTAM 12.5mg/ml 20ml 10s   000311800288                  
63150055390023510BED-DOXORUBICIN 10mg 5ml 10s     000966100144                  
63150055390023110BED-DOXORUBICIN 10mg 6ml 10s     000966100144                  
63150055390023801BED-DOXORUBICIN 200mg 100ml Ea   001560000048                  
63150055390023610BED-DOXORUBICIN 20mg 10ml 10s    002125000600                  
63150055390023210BED-DOXORUBICIN 20mg 20ml 10s    001888800144                  
63150055390023701BED-DOXORUBICIN 50mg 25ml Ea     000444400288                  
63150055390023301BED-DOXORUBICIN 50mg 50ml Ea     000419700288                  
63150055390001010BED-ENALAPRILAT 1.25mg 1ml 10s   000289500900                  
63150055390001110BED-ENALAPRILAT 2.5mg 2ml 10s    000579000600                  
63150055390087501BED-EPHEDRINE 50mg 1ml 25s       000253100600                  
63150055390076210BED-ETOMIDATE 20mg 10ml 10s      001299900012                  
63150055390076320BED-ETOMIDATE 40mg 20ml 10s      002074700600                  
63150055390029101BED-ETOPOSIDE 100mg 5ml Ea       000106200288                  
63150055390029301BED-ETOPOSIDE 1gm 50ml Ea        000980000288                  
63150055390029201BED-ETOPOSIDE 500mg 25ml Ea      000561400288                  
63150055390002701BED-FAMOTIDINE 200mg 20ml Ea     000100001200                  
63150055390002910BED-FAMOTIDINE 20mg 2ml 10s      000112501600                  
63150055390002810BED-FAMOTIDINE 40mg 4ml 10s      000225000600                  
63150055390002601BED-FAMOTIDINE 500mg 50ml Ea     000281200600                  
63150055390013501BED-FLOXURIDINE 500mg 5ml Ea     001333300600                  
63150055390046505BED-FLUPHENAZINE 25mg 5ml Ea     000139900288                  
63150055390041010BED-FOLIC ACID 50mg 10ml Ea      000079500288                  
63150055390000410BED-GLUCAGEN 1mg 2ml 10s         005764500144                  
63150055390000401BED-GLUCAGEN Diag Kit 1mg Ea     000576400600                  
63150055390041301BED-HALIPERIDOL 100mg 1ml 10s    001875000600                  
63150055390041201BED-HALIPERIDOL 50mg 1ml 10s     000937500600                  
63150055390041205BED-HALOPERIDOL 250mg 5ml Ea     000468700600                  
63150055390041305BED-HALOPERIDOL 500mg 5ml Ea     000937500600                  
63150055390014701BED-HALOPERIDOL 50mg 10ml ea     000554800600                  
63150055390014710BED-HALOPERIDOL 5mg 1ml 10s      000578000600                  
63150055390004210BED-INAMRINONE 100mg 20ml Ea     000575000600                  
63150055390048001BED-KETOROLAC 15mg 1ml 10s       000289500600                  
63150055390048110BED-KETOROLAC 300mg 10ml 10s     001938000600                  
63150055390048101BED-KETOROLAC 30mg 1ml 10s       000309901200                  
63150055390048102BED-KETOROLAC 60mg 2ml 10s       000347400600                  
63150055390005210BED-LEUCOVORIN 100mg 15ml 10s    000341100288                  
63150055390005301BED-LEUCOVORIN 200mg 30ml Ea     000091100288                  
63150055390005401BED-LEUCOVORIN 350mg 50ml Ea     000175000288                  
63150055390000901BED-LEUCOVORIN 500mg 50ml Ea     000212500288                  
63150055390005110BED-LEUCOVORIN 50mg 10ml 10s     000258800288                  
63150055390013605BED-LEVOCARNITINE 1gm 5ml 10s    002812500288                  
63150055390088010BED-LEVOTHYROX 200mcg 10ml Ea    000032200288                  
63150055390088110BED-LEVOTHYROX 500mcg 10ml Ea    000032200288                  
63150055390003210BED-METHOTREX 100mg 4ml 10s      000356200288                  
63150055390003310BED-METHOTREX 200mg 8ml 10s      000475000288                  
63150055390003410BED-METHOTREX 250mg 10ml 10s     000559900288                  
63150055390003110BED-METHOTREX 50mg 2ml 10s       000312500288                  
63150055390025201BED-MITOMYCIN 20mg 50ml Ea       001375000600                  
63150055390025301BED-MITOMYCIN 40mg 100ml Ea      002422500288                  
63150055390025101BED-MITOMYCIN 5mg 15ml Ea        000470500600                  
63150055390012701BED-PAMIDRONATE 30mg VL 10ml     002215500240                  
63150055390012901BED-PAMIDRONATE 90mg VL 10ml     006646800144                  
63150055390010710BED-PAPAVERINE 300mg 10ml Ea     000049400288                  
63150055390011301BED-PHENTOLAM MESY 5mg 2ml Ea    000311100288                  
63150055390013901BED-POLYMIXIN B 500KU 10ml Ea    000077200288                  
63150055390012301BED-RIFAMPIN 600mg 30ml Ea       000600700288                  
63150055390003010BED-THIOTEPA 15mg 2ml vial       000950500288                  
63150055390009110BED-VINBLASTINE 10mg 10ml 10s    000823500288                  
63150062269021024BR-BENZTROP 2mg MESY 100s        000037500360                  
63150000015301020BR-BLENOXANE 15un vl       AMS   001600000288                  
63150000015306301BR-BLENOXANE 30un vl       AMS   003181800288                  
63150000015053941BR-CYTOXAN LYOPH 100mg 12s AMS   000405500360                  
63150000015054841BR-CYTOXAN LYOPH 1gm 6s    AMS   000700000360                  
63150000015054641BR-CYTOXAN LYOPH 200mg 12s AMS   000469900360                  
63150000015054941BR-CYTOXAN LYOPH 2gm 6s    AMS   001099900012                  
63150000015054741BR-CYTOXAN LYOPH 500mg 12s AMS   000888000360                  
63150059772002703BR-ESTRADIOL 2mg tab 100s        000160002880                  
63150000087607111BR-GLUCOPHAGE 1000mg TB 100s     001279900012                  
63150000003083050BR-HYDREA 500mg 100s             000543401440                  
63150000015059501BR-MEGACE 20mg 100s              000249900288                  
63150000015059641BR-MEGACE 40mg 100s              000431800600                  
63150000015050842BR-MEGACE ORAL 40mg 8oz          001291300004                  
63150000000000000BR-METHYLPHENIDATE 10mg 1000s    001853602880                  
63150000000000000BR-METHYLPHENIDATE 10mg 100s     000195102880                  
63150000000000000BR-METHYLPHENIDATE 20mg 1000s    002635402880                  
63150000000000000BR-METHYLPHENIDATE 20mg 100sER   000610802880                  
63150000000000000BR-METHYLPHENIDATE 20mg 100sIR   000277402880                  
63150000000000000BR-METHYLPHENIDATE 5mg 1000s     001294602880                  
63150000000000000BR-METHYLPHENIDATE 5mg 100s      000136202880                  
63150000000000000BR-METHYLPRED 4mg TB 100s        000119602880                  
63150000000000000BR-METHYLPRED 4mg TB 21s         000025602880                  
63150062269026324BR-METOCLOP 5MG TB 100'S EA      000053302880                  
63150062269026329BR-METOCLOP 5MG TB 500'S EA      000254002880                  
63150000015300220BR-MUTAMYCIN 20mg vl       AMS   001600000288                  
63150000015305920BR-MUTAMYCIN 40mg vl       AMS   003500000288                  
63150000015300120BR-MUTAMYCIN 5mg vl        AMS   000599900288                  
63150000015321430BR-PARAPLATIN 150mg vl           002801500024                  
63150000015335222BR-RUBEX 50mg AMS                000490000012                  
63150000015335322BR-RUBEX VL 100mg AMS            001120000288                  
63150000015347911BR-TAXOL 300mg MDV 50ml          014157100004                  
63150000015347530BR-TAXOL 30mg VL 5ml             001415700003                  
63150000015309520BR-VEPESID 100mg 5ml ea    AMS   000550000960                  
63150000015308420BR-VEPESID 150mg 7.5ml ea  AMS   000200000480                  
63150000015306220BR-VEPESID 1gm 50ml ea     AMS   001350000288                  
63150000015306120BR-VEPESID 500mg 25ml ea   AMS   000690000288                  
63150059772038670BR-WARFARIN SOD 7.5mg 100s       000569600720                  
63150051991000140BRK-MELATONIN 3mg TB 60s         000025000048                  
63150009649924030BRK-PRODIUM 30s                  000038000072                  
63150062794015102BRT-MENTAX 1% Cream 15gm         000269500036                  
63150061772060051CHR-AMVISC Plus 16mg/ml .5ml     000774400600                  
63150061772060081CHR-AMVISC Plus 16mg/ml .8ml     000990000600                  
63150061772059051CHR-AMVISC Syg 12mg/ml .5ml      000570600480                  
63150061772059081CHR-AMVISC Syg 12mg/ml .8ml      000830000105                  
63150005876813015CIB-HYPOTEARS 15ml drps          000067800576                  
63150005876861010CIB-LIVOSTIN o/s .05% 10ml       000519709999                  
63150005876861005CIB-LIVOSTIN o/s .05% 5ml        000335809999                  
63150058768077352CIB-MIOCHOL E Sol 2ml            000259000048                  
63150058768077353CIB-MIOCHOL E System Pack        000276109999                  
63150058768000102CIB-OCUPRESS 1% o/s 10ml         000412909999                  
63150000066009502DER-HYTONE CRM 2.5% 2 OZ         000107500240                  
63150065430010101DEX-DEXALONE 30mg GCP 30         000092100144                  
63150049502018130DEY-ACETYLCY sol 10% 30ml 3s     000207100600                  
63150049502018230DEY-ACETYLCY sol 20% 30ml 3s     000238300600                  
63150049502069703DEY-ALBUTEROL .083mg 3ml 25s     000040504800                  
63150049502069733DEY-ALBUTEROL .083mg 3ml 30s     000048802400                  
63150049502069760DEY-ALBUTEROL .083mg 3ml 60s     000097504800                  
63150049502010501DEY-ALBUTEROL .5mg 20ml          000033004800                  
63150049502068912DEY-CROMOLYN NEB 120s            000207100600                  
63150049502068902DEY-CROMOLYN NEB 60s             000103600600                  
63150049502068503DEY-IPRAT BROM 2.5ml 25s         000081004800                  
63150049502068533DEY-IPRAT BROM 2.5ml 30s         000108002400                  
63150049502068560DEY-IPRAT BROM 2.5ml 60s         000194104800                  
63150049502083003DEY-SOD CHL .9% 3ml 100s         000088902400                  
63150049502083005DEY-SOD CHL .9% 5ml 100s         000088902400                  
63150049502064115DEY-SOD CHL 10% 15ml 50s         000305800600                  
63150049502064015DEY-SOD CHL 3% 15ml 50s          000149900012                  
63150064455000901DJ-FENESIN 600mg 100s            000240300720                  
63150051285060105DM-3-APAP/COD. 300/30mg 1000s    000500000144                  
63150051285060102DM-3-APAP/COD. 300/30mg 100s     000060000144                  
63150051285060202DM-4-APAP/COD. 300/60mg 100s     000111000144                  
63150051285060204DM-4-APAP/COD. 300/60mg 500s     000519000144                  
63150051285036402DM-4-DURADRIN CAPS 100s          000189300720                  
63150051285057628DM-APRI tab 6x28                 000990000024                  
63150051285050202DM-ESTRADIOL 1mg 100s            000081900720                  
63150051285041702DM-GUAIFEN 600mg 100s            000102000720                  
63150051285042002DM-GUAIFEN DM 600/30mg 100s      000112000720                  
63150051285089802DM-GUAIFEN/PSEUDO 120/600mg      000180000144                  
63150051285030102DM-METHYLPRED 4mg 100s           000170400720                  
63150000056017475DUP-COUMADIN UD 10mg 100s        000271500010                  
63150000056016975DUP-COUMADIN UD 1mg 100s         000299900200                  
63150000056017075DUP-COUMADIN UD 2mg 100s         000299900200                  
63150000056018875DUP-COUMADIN UD 3mg 100s         000235600130                  
63150000056017275DUP-COUMADIN UD 5mg 100s         000399900350                  
63150000056018975DUP-COUMADIN UD 6mg 100s         000253000010                  
63150000056017375DUP-COUMADIN UD 7.5mg 100s       000261700010                  
63150051479003660DURA-CECLOR CD 375mg TB 60s      002053400240                  
63150051479003560DURA-CECLOR CD 500mg 60s         002053406444                  
63150051479003503DURA-CECLOR CDPAK 500mg tab      001494800996                  
63150051479043001DURA-CUTIVATE .05% CRM 30gm      000251400024                  
63150051479001401DURA-FENESIN DM TABS 100s        000199900720                  
63150058177022304ETX-3-CODEINE GUAIFEN 100's      000280100288                  
63150058177087707ETX-3-HISTINEX HC 16oz           000076000288                  
63150058177087712ETX-3-HISTINEX HC 32oz           000144400288                  
63150058177088307ETX-3-HISTINEX PV 16oz           000074700288                  
63150058177088107ETX-3-HYDRO BITARTE/GUAIFEN 16   000058900288                  
63150058177088112ETX-3-HYDRO BITRATE/GUAIFEN 32   000112100288                  
63150058177089007ETX-3-HYDRO-TUSSIN HD 16oz       000137300288                  
63150058177090907ETX-3-HYDROCOD BIT W/ACE 16oz    000152900288                  
63150058177035020ETX-ADV NATALCARE 9x10UD         000175600288                  
63150058177004211ETX-ANEMAGEN cap 100mg 10x10UD   000145500288                  
63150058177004311ETX-ANEMAGEN FA cap 10x10UD      000249700288                  
63150058177001904ETX-BROMFENEX cap 100's          000115400288                  
63150058177002004ETX-BROMFENEX PD cap 100's       000107800288                  
63150058177026504ETX-BUSPIRONE HYDRO 10mg 100s    000249600288                  
63150058177026508ETX-BUSPIRONE HYDRO 10mg 500s    001185800288                  
63150058177030904ETX-BUSPIRONE HYDRO 15mg 100s    000274600288                  
63150058177030908ETX-BUSPIRONE HYDRO 15mg 500s    001304500288                  
63150058177026404ETX-BUSPIRONE HYDRO 5mg 100s     000187700288                  
63150058177026408ETX-BUSPIRONE HYDRO 5mg 500s     000891600288                  
63150058177004423ETX-CONISON cap 6x10UD           000149900288                  
63150058177000204ETX-DISOPYRAMIDE PHOS 100's      000620800288                  
63150058177026604ETX-DOXAZOSIN MESYLATE 1mg 100   000143700288                  
63150058177026704ETX-DOXAZOSIN MESYLATE 2mg 100   000143700288                  
63150058177026804ETX-DOXAZOSIN MESYLATE 4mg 100   000150900288                  
63150058177026904ETX-DOXAZOSIN MESYLATE 8mg 100   000158500288                  
63150058177080402ETX-ETHEZYME Ointment 1oz        000291100288                  
63150058177002409ETX-FE-TINIC 150mg 1000's        001453500288                  
63150058177002411ETX-FE-TINIC 150mg 10x10UD       000145300288                  
63150058177002511ETX-FE-TINIC 150mg FORTE         000141300288                  
63150058177021304ETX-GUAIFENEX DM 600mg 100s      000065300288                  
63150058177030804ETX-GUAIFENEX G 1200mg 100s      000133700288                  
63150058177020504ETX-GUAIFENEX LA 600mg 100s      000049400288                  
63150058177020508ETX-GUAIFENEX LA 600mg 500s      000219700288                  
63150058177020804ETX-GUAIFENEX PSE 120 600mg      000075500288                  
63150058177021404ETX-GUAIFENEX PSE 60 600mg       000066200288                  
63150058177027617ETX-GUAIFENEX Rx 14-day tab      000139400288                  
63150058177027717ETX-GUAIFENEX Rx DM 14-day tab   000155300288                  
63150058177022704ETX-HISTA-VENT DA tabs 100s      000265900288                  
63150058177088007ETX-HISTINEX DM 16oz             000089400288                  
63150058177088012ETX-HISTINEX DM 32oz             000169900288                  
63150058177090607ETX-HYDRO-TUSSIN DM 16oz         000142300288                  
63150058177080302ETX-HYDROCORT/LODOQNOL 1% CRM    000196600288                  
63150058177080202ETX-HYDROQUIN 4% CRM W/SUNSCRN   000178500288                  
63150058177080102ETX-HYDROQUINONE 4% CREAM        000178500288                  
63150058177001704ETX-HYOSCYAMINE cap .375mg 100   000135300288                  
63150058177027404ETX-HYOSCYAMINE oral .125 100s   000065900288                  
63150058177025504ETX-HYOSCYAMINE sub .125 100s    000070700288                  
63150058177023704ETX-HYOSCYAMINE tab .375mg 100   000135400288                  
63150058177020104ETX-ISOSORB MN tabs 120mg 100s   000899000288                  
63150058177022204ETX-ISOSORB MN tabs 30mg 100s    000463600288                  
63150058177023804ETX-ISOSORB MN tabs 60mg 100s    000370500288                  
63150058177030104ETX-KETOROLAC tab 10mg 100s      000408400288                  
63150058177030204ETX-NAPROXEN EC 375mg 100's      000319700288                  
63150058177030304ETX-NAPROXEN EC 500mg 100's      000371900288                  
63150058177032220ETX-NATALCARE CFE 60mg UD 9x10   000118800480                  
63150058177025811ETX-NATALCARE FORTE UD 10x10     000137700288                  
63150058177025711ETX-NATALCARE PIC tab UD 10x10   000137700288                  
63150058177022504ETX-NATALCARE PLUS tab 100s      000052200288                  
63150058177031705ETX-NATALCARE RX tab 100s        000066000288                  
63150058177032904ETX-NATATAB CFE 100's            000113900288                  
63150058177032811ETX-NATATAB CFE 10x10UD          000160700288                  
63150058177000404ETX-NITROGLYC ER 2.5mg 100s      000036600288                  
63150058177000403ETX-NITROGLYC ER 2.5mg 60s       000026800288                  
63150058177000504ETX-NITROGLYC ER 6.5mg 100s      000048700288                  
63150058177000503ETX-NITROGLYC ER 6.5mg 60s       000030900288                  
63150058177000604ETX-NITROGLYC ER 9mg 100s        000049800288                  
63150058177000603ETX-NITROGLYC ER 9mg 60s         000037100288                  
63150058177032304ETX-NITROQUICK sub .3mg 100s     000043100720                  
63150058177032404ETX-NITROQUICK sub .4mg 100s     000043100720                  
63150058177032418ETX-NITROQUICK sub .4mg 4x25s    000097800720                  
63150058177032504ETX-NITROQUICK sub .6mg 100s     000043100288                  
63150058177035126ETX-NUTRINATE chew tab 90's      000194200288                  
63150058177002904ETX-PANGESTYME CN10 100s         000389800480                  
63150058177003004ETX-PANGESTYME CN20 100s         000577800480                  
63150058177003104ETX-PANGESTYME EC 100s           000161300480                  
63150058177003106ETX-PANGESTYME EC 250s           000376700480                  
63150058177002804ETX-PANGESTYME MT16 100s         000482300480                  
63150058177004804ETX-PANGESTYME UL12 100s         000346300480                  
63150058177004904ETX-PANGESTYME UL18 100s         000540000480                  
63150058177005004ETX-PANGESTYME UL20 100s         000601700480                  
63150058177000111ETX-POT CHLOR 10meq UD 10x10     000137000060                  
63150058177020209ETX-POT CHLOR 20meq 1000s        002420800360                  
63150058177020211ETX-POT CHLOR 20meq UD           000301500360                  
63150058177000109ETX-POT CHLOR ER 10meq 1000s     000967900720                  
63150058177000104ETX-POT CHLOR ER 10meq 100s      000107200720                  
63150058177000108ETX-POT CHLOR ER 10meq 500s      000509400720                  
63150058177020204ETX-POT CHLOR TB 20meq 100s      000248200360                  
63150058177020208ETX-POT CHLOR TB 20meq 500s      001231100360                  
63150058177021211ETX-PRENATAL MR 90 tab 10x10UD   000139800288                  
63150058177031604ETX-PRENATAL MTR 100s            000143700288                  
63150058177021611ETX-PRENATAL Rx tab 10x10UD      000108300288                  
63150058177027511ETX-PRENATAL Z AD tab 10x10UD    000141500288                  
63150058177033104ETX-PROPAFEN 150mg 100s          000717300288                  
63150058177033111ETX-PROPAFEN 150mg UD 100s       001017000288                  
63150058177033204ETX-PROPAFEN 225mg 100s          001013100288                  
63150058177033304ETX-PROPAFEN 300mg 100s          001829600288                  
63150058177004504ETX-PSEU-VENT IR cap 100s        000111600288                  
63150058177004604ETX-PSEU-VENT-PED IR cap 100s    000103100288                  
63150058177002204ETX-QUADRA-HIST D ER cap 100s    000250700288                  
63150058177002304ETX-QUADRA-HIST D PED ER cap     000179500288                  
63150058177003704ETX-TRIMETHOBENZ 250mg cap 100   000170500288                  
63150058177029211ETX-ULTRA NATALCARE 10x10UD      000151900480                  
63150061314030302FAL-ATROPINE 1% O/S 15ml         000020100360                  
63150061314030301FAL-ATROPINE SULF 1% O/S 5ml     000017200360                  
63150061314023810FAL-CARTEOLOL 1% 10ml            000209700360                  
63150061314023510FAL-DIPIVEFRIN .1% O/S 10ml      000032300360                  
63150061314023515FAL-DIPIVEFRIN .1% O/S 15ml      000053800360                  
63150061314023505FAL-DIPIVEFRIN .10% 5ML          000026300360                  
63150061314032810FAL-FLUOROMETHOL .1% 10ml        000073700360                  
63150061314063305FAL-GENTAMIC 5ML                 000014000360                  
63150061314022910FAL-LEVOBUNOLOL .5% O/S 10ml     000051600360                  
63150061314022915FAL-LEVOBUNOLOL .5% O/S 15ml     000061800360                  
63150061314022905FAL-LEVOBUNOLOL .5% O/S 5ml      000032300360                  
63150061314044705FAL-METIPRANOLOL .3% O/S 5ml     000083300360                  
63150061314063910FAL-NEO/POLY B/HC 10ML           000067200360                  
63150061314063810FAL-NEO/POLY B/HC 10ML           000067200360                  
63150061314063136FAL-NEO/POLY/DEX 3.5GM           000021000360                  
63150061314063006FAL-NEO/POLY/DEX 5ml             000019400360                  
63150061314020315FAL-PILOCARPINE 1% 15ml          000016100360                  
63150061314020415FAL-PILOCARPINE 20% 15ML         000024200360                  
63150061314020615FAL-PILOCARPINE 40% 15ML         000034900360                  
63150061314020815FAL-PILOCARPINE 6% 15ml          000062600360                  
63150061314063710FAL-PREDNISOL ACE 1% SUS 10ML    000083300360                  
63150061314063705FAL-PREDNISOL ACE 1% SUS 5ML     000050000360                  
63150061314063715FAL-PREDNISOL ACE 15ML           000119400360                  
63150061314001601FAL-PROPARACAINE .5% O/S 15ml    000045700360                  
63150061314022610FAL-TIMOLOL .25% 10ml            000032300360                  
63150061314022615FAL-TIMOLOL .25% 15ml            000042500360                  
63150061314022605FAL-TIMOLOL .250% 5ML            000021500360                  
63150061314022710FAL-TIMOLOL .50% 10ML            000036600360                  
63150061314022715FAL-TIMOLOL .50% 15ML            000045700360                  
63150061314022705FAL-TIMOLOL .50% 5ML             000028000360                  
63150061314064305FAL-TOBRAMYCIN .3% 5ML           000017200360                  
63150061314062810FAL-TRIMETHOPRIM 10ML            000026900360                  
63150061703032032FLD-4-MIDAZOLAM 1mg/ml 10ml 10   000460000720                  
63150061703032053FLD-4-MIDAZOLAM 1mg/ml 5ml 10s   000250600720                  
63150061703032132FLD-4-MIDAZOLAM 5mg/ml 10ml 10   002073300720                  
63150061703032107FLD-4-MIDAZOLAM 5mg/ml 2ml 10s   000383300720                  
63150061703032153FLD-4-MIDAZOLAM 5mg/ml 5ml 10s   001109300720                  
63150061703020331FLD-ACETYLCYST 10% 30ml 10s      000750000720                  
