RDST100089030202     10360003498000000013MD-MINITRAN .2mg/hr 30s  
RDST100089030302     10360003894000000013MD-MINITRAN .4mg/hr 30s  
RDST100089030402     10144004250000000013MD-MINITRAN .6mg/hr 30s  
RDST100074445201     1050001350000000001AB-ACYCLOVIR 1gm 20ml 10s 
RDST100074442701     1050000600000000001AB-ACYCLOVIR 500mg 10ml   
RDST100013113691     1028801500000000001AB-ADRIAMYCIN PFS 10mg 10s
RDST100013116683     1028801750000000001AB-ADRIAMYCIN PFS 200mg ea
RDST100013114694     1028800330000000001AB-ADRIAMYCIN PFS 20mg ea 
RDST100013115679     1028800570000000001AB-ADRIAMYCIN PFS 50mg ea 
RDST100013108691     1028800790000000001AB-ADRIAMYCIN RDF 10mg 10s
RDST100013111683     1028802000000000001AB-ADRIAMYCIN RDF 150mg ea
RDST100013109694     1028800330000000001AB-ADRIAMYCIN RDF 20mg ea 
RDST100013110679     1028800550000000001AB-ADRIAMYCIN RDF 50mg ea 
RDST100074150005     1036000581300000001AB-ALCOHOL w/DEX 5/5%     
RDST100074195701     1036002240000000001AB-AMIKACIN 1gm/4ml 4ml   
RDST100074195601     1014401200000000001AB-AMIKACIN 250mg/ml 2ml  
RDST100074195501     1036001000000000001AB-AMIKACIN 50mg/ml 2ml   
RDST100074434673     1036000308200000001AB-AMINOCAP 250mg/ml 20ml 
RDST100074592101     1014400152500000001AB-AMINOPH 250mg 10ml 25s 
RDST100074592201     1036000179400000001AB-AMINOPH 500mg 20ml 25s 
RDST100074299103     1014401006000000001AB-AMINOSYN 10% 500ml 12s 
RDST100074407202     1036001736500000001AB-AMINOSYN 5.2% 300ml 12s
RDST100074585505     1036000897500000001AB-AMINOSYN 8.5% 1000ml 6s
RDST100074108803     1014400750000000001AB-AMINOSYN 8.5% 500ml 12s
RDST100074585503     1014400790000000001AB-AMINOSYN 8.5% IV SOL   
RDST100074109003     1014400920000000001AB-AMINOSYN II 10% 500ml  
RDST100074712207     1014403801600000001AB-AMINOSYN II 15% IV SOL 
RDST100007313505     1036001785000000001AB-ANCEF 10gm 100ml 10s   
RDST100007313705     1036000283500000001AB-ANCEF 10gm 100ml 10s   
RDST100007313016     1014400520000000001AB-ANCEF VIAL 1gm 25s     
RDST100007313116     1036000299200000001AB-ANCEF VL 500mg 10ml 25s
RDST100074737601     1036001716500000001AB-ATRACURIUM 10mg/ml 5ml 
RDST100074737901     1036001965000000001AB-ATRACURIUM 10mg/ml 5ml 
RDST100074491134     1028800336000000001AB-ATROPINE SULF 10ml 10s 
RDST100074491034     1028800336000000001AB-ATROPINE SULF ABJT 5ml 
RDST100074427201     1014400146700000001AB-BUPIVAC AMP .25% 20ml  
RDST100074427301     1036000167200000001AB-BUPIVAC AMP .5% 20ml 5s
RDST100074116401     1014400146300000001AB-BUPIVAC AMP .75% 30ml  
RDST100074115901     1014400490000000001AB-BUPIVAC HCL .25% 10ml  
RDST100074115801     1014400115000000001AB-BUPIVAC HCL .25% 30ML A
RDST100074116201     1014400507000000001AB-BUPIVAC HCL .5% 10ml   
RDST100074116202     1014400480000000001AB-BUPIVAC HCL .5% 30ml   
RDST100074116301     1014400760200000001AB-BUPIVAC HCL .5% 50ml   
RDST100074116501     1014400560000000001AB-BUPIVAC HCL .75% 10ml  
RDST100074115902     1014400487500000001AB-BUPIVAC VIAL .25% 30ml 
RDST100074116001     1036000762700000001AB-BUPIVAC VIAL .25% 50ml 
RDST100074361301     1036000214700000001AB-BUPIVAC/DEX .75% 2ml   
RDST100074904201     1036000261200000001AB-BUPIVAC/EPI .25% 10ml  
RDST100074904202     1014400305100000001AB-BUPIVAC/EPI .25% 30ml  
RDST100074904501     1036000230900000001AB-BUPIVAC/EPI .5% 10ml   
RDST100074118401     1036000130000000001AB-CAL GLUC 10% 10ml 25s  
RDST100074473203     1014400859500000001AB-CEFAZOLIN 1GM ADD-VAN  
RDST100074311831     1036000746200000001AB-CENOLATE 500mg 1ml 50s 
RDST100074405101     1014401100000000001AB-CLINDAMYCIN 600MG/3ML  
RDST100074409201     1028800180000000001AB-COPPER TRACE .4MG 10ML 
RDST100074793002     1036001579200000001AB-DEXTROSE 10% 250ml 24s 
RDST100074408902     1014400306000000001AB-DEXTROSE 10ML 5ML AMP  
RDST100074792609     1014400631700000001AB-DEXTROSE 5% 1/3NS IV   
RDST100074793309     1036000800000000001AB-DEXTROSE 5% 1000ml 12s 
RDST100074149401     1036000741000000001AB-DEXTROSE 5% 100ml 25s  
RDST100074792337     1036001205000000001AB-DEXTROSE 5% 100ml 80s  
RDST100074710002     1036000915800000001AB-DEXTROSE 5% 250ml 24s  
RDST100074792336     1036001197500000001AB-DEXTROSE 5% 50ml 80s   
RDST100074792402     1036000910000000001AB-DEXTROSE 5%/.225% 250ml
RDST100074792503     1036000910000000001AB-DEXTROSE 5%/.33% 500ml 
RDST100074792602     1036000910000000001AB-DEXTROSE 5%/.45% 250ml 
RDST100074792603     1036000910000000001AB-DEXTROSE 5%/.45% 500ml 
RDST100074153603     1036000880000000001AB-DEXTROSE 50% 500ml 12s 
RDST100074664802     1024000160000000001AB-DEXTROSE 50% FLTP 10s  
RDST100074490222     1024000304500000001AB-DEXTROSE 50%/WATER ABJ 
RDST100074490234     1024000323000000001AB-DEXTROSE 50%/WATER ABJ 
RDST100074234401     1014400037500000001AB-DOBUTAMINE 250mg 20ml  
RDST100074234402     1014400518700000001AB-DOBUTAMINE 250mg 20ml  
RDST100074202554     1036000608000000001AB-DOBUTAMINE 500mg 40ml  
RDST100074780822     1036001317500000001AB-DOPAMINE 200mg 250ml   
RDST100074426501     1036000502000000001AB-DOPAMINE 800mg/5% 10ml 
RDST100074910420     1036000244000000001AB-DOPAMINE FTV 400mg 10ml
RDST100074780922     1014401664800000001AB-DOPAMINE HCL 400mg     
RDST100074910518     1036000425600000001AB-DOPAMINE SYG 400mg 10ml
RDST100074426618     1036000431500000001AB-DOPAMINE SYG 800mg 10ml
RDST100074582010     1036000134000000001AB-DOPAMINE VL 200mg 5ml  
RDST100074940601     1036000923000000001AB-ENFLURANE INH 125ml    
RDST100074940602     1036001490500000001AB-ENFLURANE INH 250ml    
RDST100074307331     1014400350000000001AB-EPHEDRINE 50MG/ML AMP  
RDST100074492134     1024000334000000001AB-EPINEPHRINE .1MG/ML ABJ
RDST100074724101     1014400099000000001AB-EPINEPHRINE 1MG/ML AMP 
RDST100074648101     1036000430000000001AB-ERY LAC (BENXFR) 1GM VL
RDST100074647844     1024000463600000001AB-ERY LAC 1GM ADDVANT    
RDST100074647644     1018000274100000001AB-ERY LAC 500MG ADDVANT  
RDST100074636502     1036000413000000001AB-ERY LAC 500MG VL 10'   
RDST100074634205     1012000477700000001AB-ERYTHROCIN LAC 1GM VL  
RDST100074648201     1012000242300000001AB-ERYTHROCIN LAC 500MG VL
RDST100074406558     1028802100000000001AB-FAT EMULSION IV SET 48s
RDST100074610211     1036000192000000001AB-FUROSEMIDE 100mg 10ml  
RDST100074610110     1028800299300000001AB-FUROSEMIDE 100mg 10ml  
RDST100074610102     1028800117000000001AB-FUROSEMIDE 20mg 2ml    
RDST100074610202     1028800118000000001AB-FUROSEMIDE 20mg 2ml 25s
RDST100074610204     1028800110000000001AB-FUROSEMIDE 40mg 4ml 25s
RDST100074610104     1028800162000000001AB-FUROSEMIDE 40mg 4ml 50s
RDST100074340001     1014400405900000001AB-GENTAMYCIN 10mg/ml 25s 
RDST100074340101     1014400415000000001AB-GENTAMYCIN 80mg 8ml 50s
RDST100074128101     1012000296800000001AB-HEP LF 100usp 1/2ml LL 
RDST100074128125     1012000354600000001AB-HEP LF 100usp 5/5ml 25s
RDST100074128023     1014400300000000001AB-HEP LF 10usp INTERIK   
RDST100074128021     1014400498600000001AB-HEP LF 10usp INTERIK   
RDST100074128031     1012000429600000001AB-HEP LF 10usp LL 50s    
RDST100074128132     1012000429600000001AB-HEP LF CARP 100un 2ml  
RDST100074115270     1028800115000000001AB-HEP LOCK 100usp 10ml   
RDST100074115178     1014400148500000001AB-HEP LOCK 10usp 30ml 25s
RDST100074779362     1014401070800000001AB-HEPARIN 25000U/D5W     
RDST100074128001     1014400281200000001AB-HEPARIN LF 100usp 1/2ml
RDST100074115170     1036000106000000001AB-HEPARIN LF 10un 10ml   
RDST100074115278     1028800165000000001AB-HEPARIN LOCK 100U/ML   
RDST100074724803     1048004518700000001AB-HETASTARCH 6% Sol      
RDST100074737262     1036000510700000001AB-IONOSOL MB/DX 5% 250ml 
RDST100074737303     1036000659000000001AB-IONOSOL T/DEX 5% 500ml 
RDST100074141005     1060001000000000001AB-ISUPREL AMP .2mg/ml 5ml
RDST100074144304     1014400770000000001AB-LEVOPHED 1MG/ML AMP 10s
RDST100074427601     1014400114000000001AB-LIDO 1% HCL 20ml FT 50s
RDST100074427902     1028800123500000001AB-LIDO 1% HCL 30ml 50s   
RDST100074428201     1028800100000000001AB-LIDO 2% USP 20ml amp   
RDST100074427702     1028800137500000001AB-LIDO hcl 2% 50ml ft 25s
RDST100074490434     1036000306000000001AB-LIDO SYG 1% LF 5ml 10s 
RDST100074793132     1036000797000000001AB-LIDO/DEX .4/5% 250ml   
RDST100074793124     1036001913500000001AB-LIDO/DEX .4/5% 500ml   
RDST100074317803     1014400552000000001AB-LIDOCAINE 1%/EPI       
RDST100074317802     1014400426000000001AB-LIDOCAINE 1%/EPI 30ml  
RDST100074318202     1014400622000000001AB-LIDOCAINE 2%/EPI 30ml  
RDST100074427501     1014400540400000001AB-LIDOCAINE HCL .5% VIAL 
RDST100074427602     1014400148000000001AB-LIDOCAINE HCL 1% VIAL  
RDST100074490334     1014400290000000001AB-LIDOCAINE HCL 2% ABJ   
RDST100074428301     1014400400000000001AB-LIDOCAINE HCL 4% AMP   
RDST100074492415     1036000296400000001AB-LIDOCAINE SYG 1% 5ml   
RDST100074978601     1028801293500000001AB-LIPOSYN II 10% 200ml   
RDST100074978603     1028800960000000001AB-LIPOSYN II 10% 500ml   
RDST100074979301     1036001911500000001AB-LIPOSYN II 10% 500ml   
RDST100074978903     1028801650000000001AB-LIPOSYN II 20% 500ml   
RDST100074979003     1036001920000000001AB-LIPOSYN III 10% 500ml  
RDST100074979103     1014402550000000001AB-LIPOSYN III 20% 500ml  
RDST100074100101     1036000776400000001AB-LTA II KIT (1601-01)   
RDST100074672923     1036001194200000001AB-MAG SULF 40mg/ml 100ml 
RDST100074216801     1036000234500000001AB-MAG SULF 50% 10ml 25s  
RDST100074216802     1036000337500000001AB-MAG SULF 50% 20ml 25s  
RDST100074216803     1036000700000000001AB-MAG SULF 50% 50ml 25s  
RDST100074673013     1036001200000000001AB-MAG SULF 80mg/ml 50ml  
RDST100074409101     1036000192000000001AB-MANGANESE .1mg/ml 10ml 
RDST100074403101     1018000250000000001AB-MANNITOL 25% 50ml 25s  
RDST100074771502     1036004550000000001AB-MANNITOL VL 20% 250ml  
RDST100074155910     1060000185000000001AB-MARCAINE .25% 10ml     
RDST100024155950     1060000200000000001AB-MARCAINE .25% 50ml     
RDST100074158750     1120000029000000001AB-MARCAINE .25% 50ml     
RDST100074174610     1060000210000000001AB-MARCAINE .25% W/EPI    
RDST100074174630     1060000330000000001AB-MARCAINE .25% W/EPI    
RDST100074175250     1060000055000000001AB-MARCAINE .25% W/EPI    
RDST100024122202     1060000337500000001AB-MARCAINE .25% W/EPI    
RDST100074156010     1060000185000000001AB-MARCAINE .5% 10ml      
RDST100074156030     1060000172500000001AB-MARCAINE .5% 30ml      
RDST100074156029     1060000149000000001AB-MARCAINE .5% 30ml 10s  
RDST100074174929     1060000280000000001AB-MARCAINE .5% 30ml W/EPI
RDST100074161050     1240000027500000001AB-MARCAINE .5% 50ml      
RDST100074174910     1060000210000000001AB-MARCAINE .5% W/EPI 10ml
RDST100024174930     1060000292100000001AB-MARCAINE .5% W/EPI 30ml
RDST100074175550     1060000062000000001AB-MARCAINE .5% W/EPI 50ml
RDST100074158210     1060000205000000001AB-MARCAINE .75% 10ml     
RDST100074158229     1060000350000000001AB-MARCAINE .75% 30ml 10s 
RDST100024158230     1060000276900000001AB-MARCAINE .75% 30ml AMP 
RDST100024175030     1060000200000000001AB-MARCAINE .75% 30ml     
RDST100074176102     1060000224700000001AB-MARCAINE AMP 2ml 10s   
RDST100074603004     1036001159000000001AB-MEPERID INJ 10mg/ml    
RDST100074341401     1036000556500000001AB-METOCLOP 10mg/2ml 2ml  
RDST100074341301     1014400420000000001AB-METOCLOP 5MG/ML AMP    
RDST100074781124     1028800811600000001AB-METRONID 500MG 100ML   
RDST100074781137     1014402200000000001AB-METRONID 500MG 80x100ML
RDST100074146301     1028800063500000001AB-NALBUPHIN HCL 10MG 1ML 
RDST100074121901     1036000573500000001AB-NALOXONE .4mg/ml 10ml  
RDST100074121201     1060000080000000001AB-NALOXONE AMP .4mg 1ml  
RDST100024180001     1036001535000000001AB-NEO-SYNE AMP 1% 1ml 25s
RDST100013560693     1028800530000000001AB-NEOSAR 100mg 12s       
RDST100013563670     1028802166500000001AB-NEOSAR 1gm 6s          
RDST100013561693     1028800900000000001AB-NEOSAR 200mg 12s       
RDST100013564670     1028804331900000001AB-NEOSAR 2gm 6s          
RDST100013562693     1028801900000000001AB-NEOSAR 500mg 12s       
RDST100074372301     1036000272000000001AB-NEOSIGMINE 1mg/ml 10ml 
RDST100074410701     1036000175500000001AB-NITROGLY 25mg 5ml 25s  
RDST100074410401     1036000324000000001AB-NITROGLY 50mg 10ml 25s 
RDST100074302401     1240000029000000001AB-NITROPRES 50mg 2ml ea  
RDST100074704101     1014400953600000001AB-NOREPINEPHRINE 1MG/ML  
RDST100074454801     1014400529200000001AB-PENTAMIDINE 300MG VIAL 
RDST100074131701     1014400337700000001AB-PHENYTOIN 50MG/ML 2ML  
RDST100074131702     1014400385000000001AB-PHENYTOIN 50MG/ML 5ML  
RDST100074186301     1060000215000000001AB-PONTOCAINE .5% 59ml    
RDST100074187202     1030000407500000001AB-PONTOCAINE HCL .2% 2ML 
RDST100074187405     1030000525000000001AB-PONTOCAINE HCL .3% 5ML 
RDST100074184602     1030001050000000001AB-PONTOCAINE HCL 2ML AMPS
RDST100074186602     1030000405000000001AB-PONTOCAINE HCL SOL 2%  
RDST100074329406     1036000972500000001AB-POT ACET 2meq/ml 100ml 
RDST100074818301     1028800224000000001AB-POT ACET 2meq/ml 20ml  
RDST100074329451     1036000514000000001AB-POT ACET 2meq/ml 50ml  
RDST100074663501     1014400106900000001AB-POT CHL 10meq 5ml 25s  
RDST100074665106     1014400090000000001AB-POT CHL 20meq 10ml 25s 
RDST100074493201     1036000482500000001AB-POT CHL 20meq 10ml 25s 
RDST100074663601     1028800107500000001AB-POT CHL 30meq 15ml 25s 
RDST100074665305     1024000105000000001AB-POT CHL 40meq 20ml 25s 
RDST100074499419     1036000360000000001AB-POT CHL Syg 40meq 20ml 
RDST100074420101     1036001235000000001AB-POT PHOS 150mm 50ml 25s
RDST100074729601     1036000159500000001AB-POT PHOS 15mm 5ml 25s  
RDST100074729501     1028800145000000001AB-POT PHOS 45mm 15ml 5s  
RDST100074149901     1014400909500000001AB-POTASSIUM CL 2MEQ/ML   
RDST100074182602     1036000370000000001AB-PROCAINAMIDE 1000mg 2ml
RDST100074190201     1014400216200000001AB-PROCAINAMIDE 100mg/ml  
RDST100074190301     1014400224000000001AB-PROCAINAMIDE 500mg/ml  
RDST100074192304     1036000279500000001AB-PROCAINE FTV 1% 30ml   
RDST100074195304     1036000279500000001AB-PROCAINE FTV 2% 30ml   
RDST100024188022     1036000232500000001AB-PROCHLOR SYG 5mg 2ml   
RDST100074329906     1036000700000000001AB-SOD ACET 200meq 100ml  
RDST100074329905     1028800550000000001AB-SOD ACET 2MEQ 50ML FT  
RDST100074729901     1028800127500000001AB-SOD ACET 40MEQ 20ML    
RDST100074662502     1028800157500000001AB-SOD BIC 50MEQ 50ML 50'S
RDST100074491622     1030000321300000001AB-SOD BIC 7.5%  50ML 10S 
RDST100074490018     1024000400000000001AB-SOD BIC 8.4% 10meq 10ml
RDST100074663734     1030000347400000001AB-SOD BIC 8.4% 50ml 10s  
RDST100074491634     1030000357300000001AB-SOD BIC 8.4% 50ml 10s  
RDST100074490034     1036000462500000001AB-SOD BIC SYG 8.4% 10ml  
RDST100074488899     1014400244000000001AB-SOD CHL .9% 100ml 25s  
RDST100074488810     1060000068000000001AB-SOD CHL .9% 10ml ea    
RDST100074181202     1019600467500000001AB-SOD CHL .9% 2/2ml 50s  
RDST100074181222     1028800357000000001AB-SOD CHL .9% 2/2ml 50s  
RDST100074488820     1036000091000000001AB-SOD CHL .9% 20ml 25s   
RDST100074181223     1014400281400000001AB-SOD CHL .9% 3/5ml 25s  
RDST100074488850     1014400185000000001AB-SOD CHL .9% 50ml 100s  
RDST100074181225     1014400281400000001AB-SOD CHL .9% SYR 5ml 25s
RDST100074713202     1036000750000000001AB-SOD CHLOR .45% 250ml   
RDST100074773020     1036001500000000001AB-SOD CHLOR .45% 25ml 48s
RDST100074798437     1014401192300000001AB-SOD CHLOR .9% 100ml 80s
RDST100074191833     1036000265300000001AB-SOD CHLOR .9% 3ml 25s  
RDST100074158401     1014400600000000001AB-SOD CHLOR .9% 50ml 12s 
RDST100074710102     1014400839000000001AB-SOD CHLOR .9% 50ml 24s 
RDST100074710113     1014401150000000001AB-SOD CHLOR .9% 50ml 48s 
RDST100074191835     1036000265300000001AB-SOD CHLOR .9% 5ml 25s  
RDST100074113002     1014400550000000001AB-SOD CHLOR 4meq/ml 250ml
RDST100074196607     1060000089000000001AB-SOD CHLOR BACT .9% 30ml
RDST100074798502     1036000700000000001AB-SOD CHLOR SOL .45%     
RDST100074739172     1014400242300000001AB-SOD PHOS 45mm 15ml 25s 
RDST100074357701     1014400660000000001AB-TOBRAMYCIN 20mg 2ml 25s
RDST100074359002     1014400932800000001AB-TOBRAMYCIN 40mg/ml 5ml 
RDST100074357801     1014401060400000001AB-TOBRAMYCIN 80mg 2ml 25s
RDST100074329606     1014401642000000001AB-TPN ELECTROLYTES 100ml 
RDST100074577901     1028800740000000001AB-TPN ELECTROLYTES 20ml  
RDST100074329706     1014401650000000001AB-TPN ELECTROLYTES II    
RDST100074329806     1014401580000000001AB-TPN ELECTROLYTES III   
RDST100074384401     1028800680000000001AB-TPN ELETROLYTES III    
RDST100074653301     1018000575000000001AB-VANCOMYCIN 1GM 25ML    
RDST100074653501     1014400950000000001AB-VANCOMYCIN 1GM ADD-VAN 
RDST100074433201     1007200262500000001AB-VANCOMYCIN 500MG 10ML  
RDST100074653401     1014400528300000001AB-VANCOMYCIN 500MG A/V   
RDST100074650901     1060000269000000001AB-VANCOMYCIN 5GM VAIL    
RDST100074401101     1014400032000000001AB-VERAPAMIL 2.5MG/ML     
RDST100074198202     1014400212000000001AB-VERAPAMIL 2.5mg/ml 2ML 
RDST100074114401     1028800031000000001AB-VERAPAMIL 5MG 2ML FLTP 
RDST100013745686     1028801763600000001AB-VINCASAR PFS 1MG 10s   
RDST100013746686     1028803527700000001AB-VINCASAR PFS 2MG 10s   
RDST100074915701     1002400530000000001AB-VIT K INJ 10ML A 50    
RDST100074915801     1002400997500000001AB-VIT K INJ 1MG A 50     
RDST100074488799     1014400260000000001AB-WATER FOR INJ 100ml 25s
RDST100074488710     1036000072500000001AB-WATER FOR INJ 10ml 25s 
RDST100074488720     1024000144000000001AB-WATER FOR INJ 20ml 25s 
RDST100074488750     1014400164500000001AB-WATER FOR INJ 50ml 25s 
RDST117478021612     1014400036300000001AK-AK-CON 15ml .1% Drops  
RDST117478020012     1014400040800000001AK-AK-DILATE 2.5% 15ml    
RDST117478024035     1014400030300000001AK-AK-TROL 3.5gm Oint     
RDST117478023910     1014400039900000001AK-AK-TROL 5ml Drops      
RDST117478006012     1014400018800000001AK-AKWA TEARS 15ml Drops  
RDST117478006235     1014400024400000001AK-AKWA TEARS 3.5gm Oint  
RDST117478028310     1014400014300000001AK-GENTAK 3mg 5ml Drops   
RDST117478006112     1014400033800000001AK-TEARS RENEWED 15ml     
RDST117478006335     1014400029000000001AK-TEARS RENEWED 3.5gm    
RDST100065039605     1001200131000000001ALC-CYCLOGEL Drops 2% 5ml 
RDST100998020615     1240000138000000001ALC-ISOPTO CARPINE 4% 15ml
RDST108065183905     1050000945000000001ALC-VISCOAT SYRINGE .5ml  
RDST100023081799     1017600128900000001ALG-EXSEL 2.5% LOTION 4oz 
RDST101198021115     1072000419600000001ALG-FML .1% 15ml          
RDST101198011705     1003600045000000001ALG-GENOPTIC .3MG 5ML     
RDST100517040125     1003600088000000001AMR-ATROPINE SULF .4MG SDV
RDST100517101025     1003600088000000001AMR-ATROPINE SULF 1MG SDV 
RDST100517881001     1003600135000000001AMR-BRETYLIUM TOS 500MG   
RDST100517150225     1003600263500000001AMR-CIMET HCL 150MG/ML 2ML
RDST100517013001     1003600020500000001AMR-CYANCOB 1000MCG VL    
RDST100517857510     1003601341900000001AMR-DEHYDRATED ALCOHOL 5ML
RDST100517490525     1003600123500000001AMR-DEXAMETH 4MG 5ML 25'S 
RDST100517493025     1003600410700000001AMR-DEXAMETH SOD PHOS MDV 
RDST100517490125     1003600082400000001AMR-DEXAMETH SOD PHOS SDV 
RDST100517190525     1003600143800000001AMR-DOPAMIN HCL 400MG SDV 
RDST100517180525     1003600094100000001AMR-DOPAMINE 200MG 5ML    
RDST100517130525     1003600244100000001AMR-DOPAMINE HCL 800MG SDV
RDST100517107125     1003600427900000001AMR-EPINEPHRINE 1:1000 PF 
RDST100517571025     1003600186300000001AMR-FUROSEMIDE 10MG 10ML  
RDST100517570225     1003600093500000001AMR-FUROSEMIDE 10MG SDV   
RDST100517570425     1003600102900000001AMR-FUROSEMIDE 10MG SDV   
RDST100517560225     1003600082400000001AMR-HYDROX HCL 50mg/ml 2ml
RDST100517420125     1003600082500000001AMR-HYDROXYZINE HCL 25MG  
RDST100517560125     1003600082400000001AMR-HYDROXYZINE HCL 50MG  
RDST100517206405     1003600164200000001AMR-L CYSTEINE USP 50MG/ML
RDST100517260225     1003600082400000001AMR-MAG SULF 50% 2ML SDV  
RDST100517890501     1003600070600000001AMR-METHLDOPATE HCL 250MG 
RDST100517031010     1003600486100000001AMR-METHYL BL 1% 10ML SDV 
RDST100517030110     1003600340900000001AMR-METHYL BL 1% 1ML SDV  
RDST100517306501     1003600677600000001AMR-MORRHUATE SOD 50MG    
RDST100517620225     1003600328600000001AMR-MULTI TRACE 4 2ML 25S 
RDST100517820125     1003600236200000001AMR-MULTITRACE -5 1ML 25S 
RDST100517003310     1003600058800000001AMR-NEOSTIGMINE 1:1000 10S
RDST100517003410     1003600058800000001AMR-NEOSTIGMINE 1:2000 10S
RDST100517480510     1003600073500000001AMR-NITROGLYC 25MG 5ML SDV
RDST100517481010     1003600450000000001AMR-NITROGLYC 50MG 10ML   
RDST100517401001     1003600055900000001AMR-PAPAVER 30MG/ML 10ML  
RDST100517230525     1003600120600000001AMR-POT PHOS 15MM 5ML SDV 
RDST100517280225     1003600082400000001AMR-SOD CHLOR .9% 2ML 25S 
RDST100517340525     1003600129400000001AMR-SOD PHOS 15MM 5ML SDV 
RDST100517300525     1003600075400000001AMR-STERILE WATER 5ML SDV 
RDST100517051025     1003600424500000001AMR-VASOPRESSIN 10U/.5ML  
RDST100517102025     1003600393800000001AMR-VASOPRESSIN 20U/1ML   
RDST100517540205     1003600035300000001AMR-VERAPAMIL 5MG 2ML 5'S 
RDST100517540405     1003600047000000001AMR-VERPAMIL 10MG 4ML 5'S 
RDST106332324601     1004800110000000001APP-ATROPINE SULF SDV 1mg 
RDST106332323401     1002400110000000001APP-ATROPINE SULF SDV 1ml 
RDST100469031150     1004800420000000001APP-CAL GLUC 10% 50ml 25s 
RDST100469031110     1004800180000000001APP-CALCIUM GLUC SDV 10%  
RDST106332323861     1001202200000000001APP-CEFAZOLIN VL 10gm 10s 
RDST106332316505     1004800200000000001APP-DEXAMETH MDV 4mg 5ml  
RDST106332316530     1004800067500000001APP-DEXAMETH PHOS 4mg/ml  
RDST106332316501     1004800125000000001APP-DEXAMETH SDV 4mg 1ml  
RDST100469100161     1004801650000000001APP-DOXORUBICIN 2mg 100ml 
RDST106332388330     1004800435000000001APP-DOXORUBICIN VL 50mg   
RDST106332313010     1004800320000000001APP-DOXY 100mg 20ml 5s    
RDST106332300130     1004800170000000001APP-EMPTY STERILE vial    
RDST106332300105     1004800124500000001APP-EMPTY STERILE vial 5ml
RDST106332327205     1004800175000000001APP-FLUPHENAZ DEC 25mg/ml 
RDST100469184030     1004800089400000001APP-FOLIC ACID 5mg 10ml   
RDST106332303810     1004800470000000001APP-HEPARIN BEEF LUNG 10ml
RDST106332354501     1004800085000000001APP-HEPARIN LF 100un 1ml  
RDST100469170030     1004800400000000001APP-HEPARIN LF 10un 10ml  
RDST100469504201     1004800175000000001APP-HEPARIN SOD 10MU 1ML  
RDST106332305102     1001200127500000001APP-HYDROX SDV 100MG      
RDST106332324710     1004800090000000001APP-LEVOTHYROXINE 200mcg  
RDST106332324810     1004800090000000001APP-LEVOTHYROXINE 500mcg  
RDST106332320805     1004800240800000001APP-LIDOCAINE 2% 5ml 25s  
RDST100469090040     1001200750000000001APP-LYPHOLITE 20ML        
RDST106332314640     1004800730000000001APP-LYPHOLITE II 20mg 25s 
RDST100469146060     1004801200000000001APP-LYPHOLITE II 40ml 25s 
RDST106332306402     1004800100000000001APP-MAG SULF 2ML 25S      
RDST100469810031     1004800200000000001APP-MTE 4 3ML VL UD       
RDST100469980030     1004800800000000001APP-MTE 4 CONC MDV 10ML 25
RDST100469940000     1004800230000000001APP-MTE 4 CONC SDV 1ML    
RDST106332308110     1004800600000000001APP-MTE 4 SDV 10ML 25     
RDST100469180030     1004800420000000001APP-MTE 5 10ML VL         
RDST106332302801     1004800315000000001APP-MTE 5 1ML 25S         
RDST100469200030     1004802000000000001APP-MTE 6 REG 10ML        
RDST106332304205     1004800611700000001APP-MULTI VIT CONC 5ML    
RDST106332342525     1014400420000000001APP-MULTILYTE-20 CONC SDV 
RDST100469011310     1004802250000000001APP-PENTAM 300MG 15ML 10S 
RDST100469096505     1004800115000000001APP-POT CHL 10MEQ         
RDST100469096510     1004800101500000001APP-POT CHL 20MEQ 25X15ML 
RDST106332322905     1004800350000000001APP-PROTAMINE 10MG 5ML    
RDST106332318602     1004800100000000001APP-SOD CHL .09% 2ML      
RDST100469118725     1072000185000000001APP-SOD CHLOR 23.4% 30ml  
RDST106332322110     1004801050000000001APP-VANCOMYCIN 500MG 10ML 
RDST106332329561     1004800420000000001APP-VANCOMYCIN INJ 5gm    
RDST106332327810     1004800180000000001APP-VINBLASTINE SILF 1MG  
RDST100469018515     1033600120000000001APP-WATER SDV 10ML 25S    
RDST100338107302     1000804300000000001BAX-DOBUT HCL/D5W 250ml   
RDST100338049102     1048001100000000001BAX-INTRA 20% 250ml 10s   
RDST100338049103     1048001990000000001BAX-INTRA 20% 500ml 10s   
RDST100026063601     1048001254500000001BAY-BAYHEP B 1ml          
RDST100026063605     1004805761000000001BAY-BAYHEP B 5ml          
RDST100026063101     1060000850000000001BAY-BAYRO-D-SOL PFS       
RDST100026063401     1240000800000000001BAY-BAYTET 250U SYR       
RDST130193280221     1001200083300000001BAY-DIASTIX 100S          
RDST130193288250     1001200080000000001BAY-KETO-DIASTIX 50s      
RDST100193288050     1002400067200000001BAY-KETOSTIX REAG Strip   
RDST100193216121     1009600451800000001BAY-MULTISTIX 10 SG 100s  
RDST155390005301     1028800110000000001BED-LEUC CAL 200mg Vial   
RDST155390005110     1028800287500000001BED-LEUC CAL 50mg Vial    
RDST155390088010     1028800070000000001BED-LEVOTHYROX 200mcg Vial
RDST155390010710     1028800054000000001BED-PAPAV 30mg/ml 10ml    
RDST100015564820     1028800490000000001BR-4-STADOL INJ 2MG/ML    
RDST100015564520     1028801650000000001BR-4-STADOL INJ. 1MG 1ML  
RDST100015564620     1028801800000000001BR-4-STADOL INJ. 2MG 1ML  
RDST100015564420     1028803080000000001BR-4-STADOL INJ. 2MG 2ML  
RDST159772617502     1096000032200000001BR-ALBUTEROL 17GM KIT     
RDST105977261751     1096000032200000001BR-ALBUTEROL 17GM REF.    
RDST106226921124     1036000095500000001BR-AMANT HCL 100mg 100s   
RDST106226921129     1036000450000000001BR-AMANT HCL 100mg 500s   
RDST100015301520     1024001088200000001BR-AMIKIN VL 100MG 10X2ML 
RDST100015302320     1024001250000000001BR-AMIKIN VL 1GM 10X4ML   
RDST100015302020     1024000645000000001BR-AMIKIN VL 500MG 10X2ML 
RDST100015710028     1120000600000000001BR-AMPICILLIN 10GM BULK VL
RDST100015740436     1120000127500000001BR-AMPICILLIN 1GM PB 100ML
RDST100015740420     1180000060000000001BR-AMPICILLIN 1GM VL 10s  
RDST100015740220     1120000045500000001BR-AMPICILLIN 250MG VL 10s
RDST100015740518     1120000153500000001BR-AMPICILLIN 2GM ADDV 10s
RDST100015740528     1120000180000000001BR-AMPICILLIN 2GM PB 100ML
RDST100015740520     1120000099000000001BR-AMPICILLIN 2GM VL 10s  
RDST100015740331     1120000115000000001BR-AMPICILLIN 500MG PB    
RDST100015740320     1240000044000000001BR-AMPICILLIN 500MG VL 10s
RDST100015740418     1120000120000000001BR-AMPICILLIN INJ ADDV 10s
RDST100015740120     1120000051000000001BR-AMPICILLIN N 125MG VL  
RDST162269020824     1036000027500000001BR-BENZTROP .5mg MESY     
RDST106226920924     1036000030000000001BR-BENZTROP 1mg MESY 100's
RDST162269020930     1036000210000000001BR-BENZTROP 1mg TB 1000's 
RDST162269021030     1036000245000000001BR-BENZTROP 2mg MESY 1000s
RDST162269021024     1036000037500000001BR-BENZTROP 2mg MESY 100s 
RDST100015301020     1014401880000000001BR-BLENOXANE 15un vl      
RDST100015306301     1007203860000000001BR-BLENOXANE 30un vl      
RDST105977270451     1036000019500000001BR-CAPTO 12.5mg 100s      
RDST105977270471     1036000025500000001BR-CAPTO 50mg 100s        
RDST105977274904     1024000175000000001BR-CEFACLOR 125MG/5 1X150 
RDST105977274902     1024000067500000001BR-CEFACLOR 125MG/5 1X75M 
RDST105977274973     1024000127500000001BR-CEFACLOR 187MG/5 1X100 
RDST105977274971     1024000062500000001BR-CEFACLOR 187MG/5 1X50  
RDST105977274914     1014400420000000001BR-CEFACLOR 250MG CP10    
RDST105977274924     1024000200000000001BR-CEFACLOR 250MG/5 1X150 
RDST105977274922     1024000100000000001BR-CEFACLOR 250MG/5 1X75M 
RDST105977274933     1024000240000000001BR-CEFACLOR 375MG/5 1X100 
RDST105977274931     1024000120000000001BR-CEFACLOR 375MG/5 1X50  
RDST105977274944     1014400900000000001BR-CEFACLOR 500MG CP10    
RDST100015734639     1072001200000000001BR-CEFAZOLIN 10GM HO 1X10 
RDST100015733912     1030000152500000001BR-CEFAZOLIN 1GM VL 10s   
RDST100015733812     1021600086000000001BR-CEFAZOLIN 500MG VL 10s 
RDST100003074950     1036000064000000001BR-CEPHALEXIN 250mg Caps  
RDST100003074960     1036000270000000001BR-CEPHALEXIN 250mg Caps  
RDST100003087450     1036000107000000001BR-CEPHALEXIN 500mg Caps  
RDST100003087460     1036000490000000001BR-CEPHALEXIN 500mg Caps  
RDST105977202293     1036000091200000001BR-CIMETID 300mg 100s     
RDST105977202295     1036000310000000001BR-CIMETID 300mg 500s     
RDST105977202303     1036000100000000001BR-CIMETID 400mg 100s     
RDST159772023007     1036000380000000001BR-CIMETID 400mg 500s     
RDST100015053941     1036000405500000001BR-CYTOXAN LYOPH 100MG    
RDST100015054841     1018000750000000001BR-CYTOXAN LYOPH 1GR 6'S  
RDST100015054641     1021600466500000001BR-CYTOXAN LYOPH 200MG    
RDST100015054941     1014401728000000001BR-CYTOXAN LYOPH 2GR 6'S  
RDST100015054741     1018000888000000001BR-CYTOXAN LYOPH 500MG    
RDST100087079641     1002404080200000001BR-DESYREL 300mg 100s     
RDST100015604811     1036000112000000001BR-DICLOXACILLIN 250MG    
RDST100003585002     1012000145000000001BR-DILTIAZEM 120MG TB 100s
RDST100003525004     1018000320000000001BR-DILTIAZEM 30MG 1000s   
RDST100003525002     1024000041000000001BR-DILTIAZEM 30MG 100s    
RDST100003525003     1012000175000000001BR-DILTIAZEM 30MG 500s    
RDST100003555004     1012000570000000001BR-DILTIAZEM 60MG 1000s   
RDST100003555002     1014400062500000001BR-DILTIAZEM 60MG 100s    
RDST100003555003     1024000310000000001BR-DILTIAZEM 60MG 500s    
RDST100003577002     1018000090000000001BR-DILTIAZEM 90MG 100s    
RDST100003577003     1012000425000000001BR-DILTIAZEM 90MG 500s    
RDST100087075601     1240000571400000001BR-ESTRACE 2mg 100s       
RDST105977200253     1009600082000000001BR-ESTRADIOL .5mg tab 100s
RDST105977200263     1036000104000000001BR-ESTRADIOL 1mg tab 100s 
RDST159772002604     1009600415000000001BR-ESTRADIOL 1mg tab 500s 
RDST105977200273     1009600180000000001BR-ESTRADIOL 2mg tab 100s 
RDST105977200274     1009600975000000001BR-ESTRADIOL 2mg tab 500s 
RDST100003043730     1240000049900000001BR-FUNGIZONE IV VL 50MG   
RDST162269032029     1014400440000000001BR-GEMFIBROZIL 600MG TB   
RDST162269032060     1014400060000000001BR-GEMFIBROZIL 600MG TB   
RDST162269029224     1036000068500000001BR-GLIPIZIDE 10MG TB 100'S
RDST162269029229     1036000260000000001BR-GLIPIZIDE 10MG TB 500'S
RDST100003083050     1240000610000000001BR-HYDREA 500MG 100s      
RDST100015025024     1028800456600000001BR-HYDROXYCHLOR. 200MG    
RDST100015025029     1028802065000000001BR-HYDROXYCHLOR. 200MG    
RDST106226924624     1009600046500000001BR-INDAPAMIDE 1.25MG 100'S
RDST106226924630     1009600450000000001BR-INDAPAMIDE 1.25MG      
RDST106226924724     1009600057000000001BR-INDAPAMIDE 2.5MG 100'S 
RDST106226924730     1009600580000000001BR-INDAPAMIDE 2.5MG 1000'S
RDST100087076101     1057600300300000001BR-K-LYTE 25MEQ OR. 30S   
RDST100015350320     1003600210000000001BR-KANTREX 1GR VL 3ML 10'S
RDST100015350220     1027800157500000001BR-KANTREX 500MG VL 2ML   
RDST100003092328     1240000355000000001BR-KENALOG vl 40mg/ml 10ml
RDST100003029305     1720000046700000001BR-KENALOG vl 40mg/ml 1ml 
RDST100003029320     1240000235000000001BR-KENALOG vl 40mg/ml 5ml 
RDST100015059501     1006000240000000001BR-MEGACE 20MG 100'S      
RDST100015059641     1060000450000000001BR-MEGACE 40MG. 100S      
RDST100015059646     1004801300000000001BR-MEGACE 40MG. 250S      
RDST100015059645     1004802500000000001BR-MEGACE 40MG. 500S      
RDST100015026324     1036000080000000001BR-METOCLOP 5MG TB 100'S  
RDST100015026329     1028800405000000001BR-METOCLOP 5MG TB 500'S  
RDST105977236935     1036000460000000001BR-METOPRO 100mg 1000s    
RDST106226936932     1036000052500000001BR-METOPRO 100mg 100s     
RDST159772369202     1036000042500000001BR-METOPRO 50mg 100s      
RDST159772369205     1036000310000000001BR-METOPROLOL 50MG 1000S  
RDST100087057201     1036000088500000001BR-MUCOMYST 10% 10ML 3'S  
RDST100087057202     1036000205000000001BR-MUCOMYST 10% 30ML 3'S  
RDST100087057203     1036000237500000001BR-MUCOMYST 10% 4ML 12'S  
RDST100087057003     1036000092500000001BR-MUCOMYST 20% 10ML 3'S  
RDST100087057009     1036000260000000001BR-MUCOMYST 20% 30ML 3'S  
RDST100087057007     1036000260000000001BR-MUCOMYST 20% 4ML 12'S  
RDST100015300220     1001001800000000001BR-MUTAMYCIN 20mg vl      
RDST100015305920     1028804823500000001BR-MUTAMYCIN 40mg vl      
RDST100015300120     1028800750000000001BR-MUTAMYCIN 5mg vl       
RDST105977224643     1014406390000000001BR-NADOLOL 120mg 1000s    
RDST105977224641     1009600650000000001BR-NADOLOL 120MG TB 100'S 
RDST105977224651     1009600750000000001BR-NADOLOL 160MG TB 100'S 
RDST105977224611     1018000100000000001BR-NADOLOL 20MG 100S      
RDST105977224623     1004802450000000001BR-NADOLOL 40MG 1000S     
RDST105977224621     1018000150000000001BR-NADOLOL 40MG 100S      
RDST105977224633     1002403000000000001BR-NADOLOL 80MG 1000S     
RDST105977224631     1018000200000000001BR-NADOLOL 80MG 100S      
RDST100015710128     1120000950000000001BR-NAFCIL 10GM BULK VL 10s
RDST100015722518     1120000157500000001BR-NAFCIL 1GM ADDVANT 10'S
RDST100015719528     1120000160000000001BR-NAFCIL 1GM PB 100ML 10s
RDST100015722520     1120000110000000001BR-NAFCIL 1GR 10'S        
RDST100015722618     1120000350000000001BR-NAFCIL 2GM ADDVANT 10'S
RDST100015719628     1120000350000000001BR-NAFCIL 2GM PB 100ML 10s
RDST100015722620     1120000169500000001BR-NAFCIL 2GR 10'S        
RDST100015722420     1120000087500000001BR-NAFCIL 500MG VL 10s    
RDST100015710328     1028801400000000001BR-OXACILLIN 10GM BULK VL 
RDST100015798189     1060000160000000001BR-OXACILLIN 1GM ADD A VL 
RDST100015798128     1060000160000000001BR-OXACILLIN 1GM PB 100ML 
RDST100015798199     1060000160000000001BR-OXACILLIN 1GM VL 10s   
RDST100015797028     1014400250000000001BR-OXACILLIN 2gm 100ml 10s
RDST100015797018     1060000300000000001BR-OXACILLIN 2GM ADD 10s  
RDST100015797020     1060000230000000001BR-OXACILLIN 2GM VL 10s   
RDST100015797920     1060000095000000001BR-OXACILLIN 500MG VL 10s 
RDST100003096961     1036000015900000001BR-PRINCI 125mg SUSP 200ml
RDST100003097252     1036000014000000001BR-PRINCI 250mg SUSP 100ml
RDST100003097261     1036000023600000001BR-PRINCI 250mg SUSP 200ml
RDST162269027624     1036000385000000001BR-PROCHLOR 10mg 100s     
RDST106226927524     1036000127500000001BR-PROCHLOR 5mg 100s      
RDST100003056915     1048000750000000001BR-PROLIXIN 25mg/ml 5ml   
RDST100015335222     1014400612500000001BR-RUBEX 50MG             
RDST100015335322     1014401120000000001BR-RUBEX VL 100MG         
RDST100003272530     1020000330000000001BR-TOBRAMYCIN 40MG/ML 30ML
RDST100003272510     1050000580000000001BR-TOBRAMYCIN 80 25X2CC   
RDST162269028124     1028800240000000001BR-TRIFLUOPER HCL 1X100   
RDST100003173740     1036000010900000001BR-TRIMOX 125mg/5ml 100ml 
RDST100003173745     1036000013200000001BR-TRIMOX 125mg/5ml 150ml 
RDST100003173840     1072000015000000001BR-TRIMOX 250mg/5ml 100ml 
RDST100003173845     1072000017900000001BR-TRIMOX 250mg/5ml 150ml 
RDST100003173830     1072000014400000001BR-TRIMOX 250mg/5ml 80ml  
RDST100003010150     1072000080000000001BR-TRIMOX CAP 250MG 100S  
RDST100003010160     1072000180000000001BR-TRIMOX CAP 250MG 500s  
RDST100015010955     1072000075000000001BR-TRIMOX CAP 500MG 100S  
RDST100003010960     1072000270000000001BR-TRIMOX CAP 500MG 500s  
RDST100003095015     1004800470000000001BR-TUBOCURANINE 3MG 10ML  
RDST100003011550     1036000022200000001BR-VEETIDS 250MG TB 100's 
RDST100003011575     1036000172800000001BR-VEETIDS 250MG TB 1000's
RDST100003011650     1036000039700000001BR-VEETIDS 500MG TB 100's 
RDST100003011675     1036000310000000001BR-VEETIDS 500MG TB 1000's
RDST100015309520     1028800147500000001BR-VEPESID 100MG.         
RDST100015308420     1028800200000000001BR-VEPESID 150MG          
RDST100015306220     1028801350000000001BR-VEPESID 1GM.           
RDST100015306120     1028800690000000001BR-VEPESID 500MG.         
RDST105977203877     1014400571100000001BR-WARFARIN SOD 10mg 100s 
RDST105977203527     1014400344000000001BR-WARFARIN SOD 1mg 100s  
RDST105977203647     1014400370200000001BR-WARFARIN SOD 2.5mg 100s
RDST105977203637     1014400359000000001BR-WARFARIN SOD 2mg 100s  
RDST105977203697     1014400372800000001BR-WARFARIN SOD 4mg 100s  
RDST105977203777     1014400375400000001BR-WARFARIN SOD 5mg 100s  
RDST105977203867     1014400550700000001BR-WARFARIN SOD 7.5mg 100s
RDST109649924030     1028800038000000001BRK-PRODIUM 30S           
RDST106177260081     1015001150000000001CHR-AMVISC 16MG/ML        
RDST161772059051     1015000620000000001CHR-AMVISC Syg 12mg/ml    
RDST106177259081     1015000960000000001CHR-AMVISC Syg 12mg/ml    
RDST105876861010     1001200387400000001CIB-LIVOSTIN 10ml         
RDST100086006210     1002400486400000001CRN-SKELEXIN 400MG TB 100s
RDST100066006960     1015600719400000001DER-PSORCON CRM 60gm      
RDST100066007131     1020400415400000001DER-PSORCON OINT 30gm     
RDST100066002825     1018000299600000001DER-SULFACET R LOT 25GM   
RDST149502018200     1060000420000000001DEY-ACETYLCYST 20% VIAL   
RDST149502069703     1240000065100000001DEY-ALBUTEROL .83mg 3ml   
RDST149502069733     1240000086700000001DEY-ALBUTEROL .83mg 3ml   
RDST149502069760     1240000156200000001DEY-ALBUTEROL .83mg 3ml   
RDST104950230317     1480000028700000001DEY-ALBUTEROL 90mcg Inh   
RDST149502030327     1060000029000000001DEY-ALBUTEROL 90mcg inh   
RDST149502068912     1060000341700000001DEY-CROMOLYN NEB 120s     
RDST149502068902     1060000170700000001DEY-CROMOLYN NEB 60s      
RDST149502068503     1240000149200000001DEY-IPRAT BROM 2.5ml 25s  
RDST149502068560     1240000366000000001DEY-IPRAT BROM 2.5ml 60s  
RDST149502067803     1240000070700000001DEY-METAPROTER .4% 2.5ml  
RDST149502067603     1240000070700000001DEY-METAPROTER .6% 2.5ml  
RDST149502082003     1060000113400000001DEY-SOD CHL .45% 3ml 100s 
RDST149502082005     1060000113400000001DEY-SOD CHL .45% 5ml 100s 
RDST149502083003     1240000080400000001DEY-SOD CHL .9% 3ml 100s  
RDST149502083005     1240000080400000001DEY-SOD CHL .9% 5ml 100s  
RDST149502064115     1060000352400000001DEY-SOD CHL 10% 15ml 50s  
RDST149502064015     1060000352400000001DEY-SOD CHL 3% 15ml 50s   
RDST149502083015     1060000061600000001DEY-SOD CHLOR .9% UD 24s  
RDST149502043101     1060000031900000001DEY-THEOPHYLLINE 100MG    
RDST149502043201     1060000050000000001DEY-THEOPHYLLINE 200MG    
RDST149502043205     1060000222900000001DEY-THEOPHYLLINE 200MG    
RDST149502043310     1060000490400000001DEY-THEOPHYLLINE 300MG    
RDST149502043301     1060000066300000001DEY-THEOPHYLLINE 300MG    
RDST149502043305     1060000271100000001DEY-THEOPHYLLINE 300MG    
RDST149502081005     1060000114500000001DEY-WATER FOR INH VL UD   
RDST105128560105     1014400500000000001DM-3-APAP/COD. 300/30mg   
RDST105128560102     1014400060000000001DM-3-APAP/COD. 300/30mg   
RDST105128560202     1014400111000000001DM-4-APAP/COD. 300/60mg   
RDST105128560204     1014400519000000001DM-4-APAP/COD. 300/60mg   
RDST105128536402     1060000195100000001DM-DURADRIN CAPS 100s     
RDST105128529302     1060000210000000001DM-DURATEX CAPS 100s      
RDST105128550102     1072000052000000001DM-ESTRADIOL .5mg 100s    
RDST105128550202     1072000082500000001DM-ESTRADIOL 1mg 100s     
RDST105128550402     1072000102000000001DM-ESTRADIOL 2mg 100s     
RDST105128587502     1042000150000000001DM-ESTROPIPATE .75mg 100s 
RDST105128587502     1042000180000000001DM-ESTROPIPATE 1.5mg 100s 
RDST105128541702     1072000102000000001DM-GUAIFEN 600mg 100s     
RDST105128542002     1072000112000000001DM-GUAIFEN DM 600/30mg    
RDST105128530102     1072000158000000001DM-METHYLPRED 4mg 100s    
RDST105128530121     1096000035000000001DM-METHYLPRED 4MG TB 21s  
RDST105128558502     1060000050000000001DM-METOCLOP 5MG TB 100s   
RDST105128540102     1014400180000000001DM-PSEU-HCI/GUAIFEN       
RDST105128571757     1014400090000000001DM-TRIOTANN liquid 16oz   
RDST105128582502     1072000071000000001DM-TRIOTANN TAB 100s      
RDST100056017475     1157600689200000001DUP-COUMADIN 10MG UD 100's
RDST100056018875     1071000476600000001DUP-COUMADIN 3MG UD 100S  
RDST100056016875     1127600477900000001DUP-COUMADIN 4MG UD 100S  
RDST100056018975     1060000642100000001DUP-COUMADIN 6MG UD 100's 
RDST100056017375     1100000664400000001DUP-COUMADIN 7.5MG UD 100S
RDST100590043310     1007000162000000001ENDO-NUBAIN 20MG/ML 1ML   
RDST161703021701     1028800400000000001FLD-5-EPHEDRINE 50mg 1ml  
RDST161703020331     1028800900000000001FLD-ACETYLCYST 10% 30ml   
RDST161703020304     1028800120000000001FLD-ACETYLCYST 10% 4ml 10s
RDST161703020431     1028800850000000001FLD-ACETYLCYST 20% 30ml   
RDST161703020404     1028800150000000001FLD-ACETYLCYST 20% 4ml 10s
RDST161703031121     1028803000000000001FLD-ACYCLOVIR 25mg/ml 20ml
RDST161703031143     1028806000000000001FLD-ACYCLOVIR 25mg/ml 40ml
RDST161703040123     1028800600000000001FLD-ALCOHOL DEHYD 1ml 10s 
RDST161703040151     1028803000000000001FLD-ALCOHOL DEHYD 5ml 10s 
RDST161703020207     1028804000000000001FLD-AMIKACIN 250mg/ml 2ml 
RDST161703020208     1028805000000000001FLD-AMIKACIN 250mg/ml 3ml 
RDST161703020204     1028808000000000001FLD-AMIKACIN 250mg/ml 4ml 
RDST161703020107     1028802500000000001FLD-AMIKACIN 50mg/ml 2ml  
RDST161703031332     1028802000000000001FLD-ATRACUR 10mg/ml 10ml  
RDST161703031253     1028801400000000001FLD-ATRACUR 10mg/ml 5ml   
RDST161703030425     1028800450000000001FLD-CYTARABINE 20mg/ml    
RDST161703030350     1028800900000000001FLD-CYTARABINE 20mg/ml    
RDST161703030509     1028800450000000001FLD-CYTARABINE 20mg/ml 5ml
RDST161703040232     1028800850000000001FLD-METHYLENE BLUE 1% 10ml
RDST161703040242     1028800350000000001FLD-METHYLENE BLUE 1% 1ml 
RDST161703021011     1028800600000000001FLD-METOCLOP 5mg/ml 10ml  
RDST161703021021     1028800400000000001FLD-METOCLOP 5mg/ml 20ml  
RDST161703021007     1028800178100000001FLD-METOCLOP 5mg/ml 2ml   
RDST161703021031     1028800600000000001FLD-METOCLOP 5mg/ml 30ml  
RDST161703030650     1028803000000000001FLD-MITOMYCIN 20mg 50ml ea
RDST161703040628     1028800300000000001FLD-PHYSOSTIG 1mg/ml 2ml  
RDST161703031018     1028800300000000001FLD-VINBLASTINE 1mg/ml    
RDST161703030906     1028800265000000001FLD-VINCRISTINE 1mg/ml 1ml
RDST161703030916     1028800285000000001FLD-VINCRISTINE 1mg/ml 2ml
RDST105556615011     1300000186700000001FRR-NOVAREL 10000IU 10ML  
RDST100703352401     1060000024000000001GEN-DEXAMETH 10mg/ml 10ml 
RDST100703504303     1014401300000000001GEN-DOXORUBICIN 10mg wial 
RDST100703504001     1014402380000000001GEN-DOXORUBICIN 200mg vial
RDST100703504601     1014400678000000001GEN-DOXORUBICIN 50mg vial 
RDST100703564601     1014401520000000001GEN-ETOPOSIDE 20mg/ml 25ml
RDST100703564301     1028800315000000001GEN-ETOPOSIDE 20mg/ml 5ml 
RDST100703532403     1028800420000000001GEN-L-CYCSTINE 50mg 10ml  
RDST100703514001     1028800044500000001GEN-LEUCOVORIN CAL 100mg  
RDST100703540801     1028800048000000001GEN-LEVOTHYROX SOD 200mg  
RDST100703537504     1028800250000000001GEN-MAGNESIUM SULF 50%    
RDST100703450204     1048000120000000001GEN-METOCLOPRAMINE 5mg/ml 
RDST100703271103     1028800130000000001GEN-NEOSTIGMINE .5mg 1ml  
RDST100703271403     1028800134000000001GEN-NEOSTIGMINE 10ml 10s  
RDST100703270403     1024000135000000001GEN-NEOSTIGMINE 1mg 10ml  
RDST100703180201     1140000024000000001GEN-NITROPRUSSIDE 25mg 2ml
RDST100703280403     1028800380000000001GEN-PANCURONIUM 1mg 10ml  
RDST100703281204     1028800320000000001GEN-PANCURONIUM 2mg 2ml   
RDST100703533803     1028800225000000001GEN-SODIUM CHLOR 4meq/ml  
RDST100703940204     1014400880000000001GEN-TOBRAMYCIN 40mg/ml 2ml
RDST100703941601     1024000500000000001GEN-TOBRAMYCIN 40mg/ml    
RDST159762371904     1009600173500000001GR-4-ALPRAZOLAM .25mg     
RDST159762371901     1028800019300000001GR-4-ALPRAZOLAM .25mg 100s
RDST159762371903     1014400091500000001GR-4-ALPRAZOLAM .25mg 500s
RDST159762372004     1009600216500000001GR-4-ALPRAZOLAM .5mg 1000s
RDST159762372003     1014400114200000001GR-4-ALPRAZOLAM .5mg 500s 
RDST159762372104     1009600231400000001GR-4-ALPRAZOLAM 1mg 1000s 
RDST159762372101     1028800030000000001GR-4-ALPRAZOLAM 1mg 100s  
RDST159762372103     1014400142500000001GR-4-ALPRAZOLAM 1mg 500s  
RDST159762372201     1028800070000000001GR-4-ALPRAZOLAM 2mg 100s  
RDST159762332801     1120000300000000001GR-CLINDAMYC 150mg 100s   
RDST159762372501     1028800035100000001GR-GLYBURIDE 1.25mg 100s  
RDST159762372603     1028800056900000001GR-GLYBURIDE 2.5mg 100s   
RDST159762332702     1028800196200000001GR-METHYLPRED 4mg 100s    
RDST159762332701     1086400039800000001GR-METHYLPRED 4mg 21s     
RDST159762378101     1028800097100000001GR-MICRO GLYBURIDE 1.5mg  
RDST159762378203     1014401729400000001GR-MICRO GLYBURIDE 3mg    
RDST159762378201     1028800121800000001GR-MICRO GLYBURIDE 3mg    
RDST159762378303     1009603844700000001GR-MICRO GLYBURIDE 6mg    
RDST159762378301     1028800438200000001GR-MICRO GLYBURIDE 6mg    
RDST100713011812     1014400026400000001GW-ACEPHEN 120mg Supp 12s 
RDST100713016412     1014400027700000001GW-ACEPHEN 325mg Supp 12s 
RDST100713016512     1014400027800000001GW-ACEPHEN 650mg Supp 12s 
RDST100713010912     1028800013200000001GW-BISAC-EVAC 10mg Supp   
RDST100713010102     1014400027700000001GW-SANI-SUPP Adult Supp   
RDST100713010113     1028800008700000001GW-SANI-SUPP Ped Supp 12s 
RDST100713010709     1028800033700000001GW-TEBAMIDE 100mg Supp 10s
RDST100713010809     1028800036000000001GW-TEBAMIDE 200mg 10s     
RDST100088120632     1096000870000000001HOE-ANZEMET 100mg VL      
RDST100014000701     1250001230500000001ICN-LIBRAX CAP 100s       
RDST105840662307     1048000170000000001IMM-LEUCOVORIN CAL 350MG  
RDST105840667105     1120000249000000001IMM-METHOTREXATE 1GRM.    
RDST105840668117     1450000072000000001IMM-METHOTREXATE 25MG/ML  
RDST105840668315     1240000031500000001IMM-METHOTREXATE LPF 50MG 
RDST105840668114     1480000032000000001IMM-METHOTREXATE LPP 50MG 
RDST105840668316     1120000073000000001IMM-METHOTRXATE 250MG LPF 
RDST105840668312     1120000070000000001IMM-METHOTRXATE LPF 200MG 
RDST100689113001     1001200098600000001JMI-LEVOXYL 112MCG 100'S  
RDST100904057160     1011000067500000001MAJ-3-ACET /COD. #2 TAB   
RDST100904391660     1011000168500000001MAJ-3-ACET /COD. #4 TAB   
RDST100904391640     1011000760000000001MAJ-3-ACET /COD. #4 TAB   
RDST100904528860     1011000155500000001MAJ-3-HYDROCO 10/650MG TAB
RDST100904344040     1011000212000000001MAJ-3-HYDROCO 5/500MG TB  
RDST100904763160     1011000259000000001MAJ-3-HYDROCO 7.5/500MG   
RDST100904763260     1011000278500000001MAJ-3-HYDROCO-ES 7.5/750MG
RDST100904763240     1011001232000000001MAJ-3-HYDROCO-ES 7.5/750MG
RDST100904763140     1011001056500000001MAJ-3-HYDROCOD 7.5/500MG  
RDST100904120116     1011000093000000001MAJ-3-ROLATUSS LIQ. PT    
RDST100904130016     1011000077500000001MAJ-4-CHLOR HYDR. SYRUP PT
RDST100904009160     1011000040000000001MAJ-4-CHLORDIAZ 10MG CAP  
RDST100904009060     1011000036500000001MAJ-4-CHLORDIAZ 5MG CAP   
RDST100904390260     1011000027000000001MAJ-4-DIAZEPAM 10MG TAB   
RDST100904390240     1011000075500000001MAJ-4-DIAZEPAM 10MG TAB   
RDST100904390180     1011000123000000001MAJ-4-DIAZEPAM 5MG TAB    
RDST100904189160     1011000457000000001MAJ-4-OXAZEPAM 15MG CAP   
RDST100904189260     1011000694500000001MAJ-4-OXAZEPAM 30MG CAP   
RDST100904381680     1011000077500000001MAJ-4-PHENOBARB 1/2GR TB  
RDST100904101516     1011000039000000001MAJ-4-PHENOBARB ELIXER PT 
RDST100904061460     1011000080500000001MAJ-4-PHETER 30MG CAP     
RDST100904770160     1011000129500000001MAJ-4-PROPOX CMPD CAP     
RDST100904281060     1011000346500000001MAJ-4-TEMAZEPAM 15MG CAP  
RDST100904281140     1011001810000000001MAJ-4-TEMAZEPAM 30MG CAP  
RDST100904777516     1011000068500000001MAJ-5-ACET /COD. SOLN. PT 
RDST100904506516     1011000060000000001MAJ-5-ROBAFEN AC SYR. PT  
RDST100904772714     1030000028600000001MAJ-ACID-GONE TAB 100s    
RDST100904421360     1030000026300000001MAJ-ACIDOPHILUS CP 100s   
RDST100904227360     1030000029000000001MAJ-AMINOPHYL 100MG TB    
RDST100901020161     1030000106200000001MAJ-AMITRIPTYL 25MG UD    
RDST100904399660     1030000729500000001MAJ-AMOXAPINE 100MG TB    
RDST100904399746     1030000350000000001MAJ-AMOXAPINE 150MG TB 30s
RDST100904399460     1030000300000000001MAJ-AMOXAPINE 25MG TB 100s
RDST100904399461     1030000375100000001MAJ-AMOXAPINE 25MG TB UD  
RDST100904399560     1030000400000000001MAJ-AMOXAPINE 50MG TB 100s
RDST100904399561     1030000594600000001MAJ-AMOXAPINE 50MG TB UD  
RDST100904261904     1030000018000000001MAJ-AMOXICILL 125MG/5ML   
RDST100904261907     1030000022600000001MAJ-AMOXICILL 125MG/5ML   
RDST100904771360     1030000195100000001MAJ-AMOXICILL 250MG CHW   
RDST100904771340     1030000840600000001MAJ-AMOXICILL 250MG CHW   
RDST100904261760     1030000097400000001MAJ-AMOXICILL 250MG CP    
RDST100904261740     1030000373900000001MAJ-AMOXICILL 250MG CP    
RDST100904262004     1030000029300000001MAJ-AMOXICILL 250MG/5ML   
RDST100904262007     1030000035700000001MAJ-AMOXICILL 250MG/5ML   
RDST100904261840     1030000735000000001MAJ-AMOXICILL 500MG CP    
RDST100904261851     1030000103400000001MAJ-AMOXICILL 500MG CP 50s
RDST100904201760     1030000071700000001MAJ-AMPICILLIN 250MG CP   
RDST100904201740     1030000283200000001MAJ-AMPICILLIN 250MG CP   
RDST100904207360     1030000121700000001MAJ-AMPICILLIN 500MG CP   
RDST100904207340     1030000525000000001MAJ-AMPICILLIN 500MG CP   
RDST100904016060     1030000315000000001MAJ-ANU-MED HC SUPP 100s  
RDST100904768822     1030000016200000001MAJ-ANU-MED NEW FORM SUPP 
RDST100904016012     1030000031900000001MAJ-ANU-MED SUPP 12s      
RDST100904025059     1030000024900000001MAJ-APRODINE 60/2.5mg 100s
RDST100904200960     1120000007300000001MAJ-ASPIRIN 325mg 100s    
RDST100904201360     1120000013800000001MAJ-ASPIRIN 5gr 100s      
RDST100904058260     1120000078500000001MAJ-ASPIRIN 975mg TB 100s 
RDST100904404073     1120000008700000001MAJ-ASPIRIN CHILD 81mg TB 
RDST100904770470     1120000043500000001MAJ-ASPIRIN LOW 81mg EC   
RDST100904122800     1030000009800000001MAJ-BANOPHEN ELIX 4oz     
RDST100904203559     1030000027900000001MAJ-BANOPHEN TAB 100s     
RDST100904254860     1030000228600000001MAJ-BELLAMINE TABS 100s   
RDST100904105561     1030000070000000001MAJ-BENZTROPINE .5MG UD   
RDST100904076636     1030000036700000001MAJ-BETAMETH CR .05% 15GM 
RDST100904076645     1030000068800000001MAJ-BETAMETH CR .05% 45GM 
RDST100904076803     1030000075200000001MAJ-BETAMETH LOT .05% 60ML
RDST100904076736     1030000036700000001MAJ-BETAMETH OINT .05%    
RDST100904076745     1030000068000000001MAJ-BETAMETH OINT .05%    
RDST100904040616     1030000055000000001MAJ-BETHAPRIM PED SUS PINT
RDST100904040516     1030000069500000001MAJ-BETHAPRIM SUSP PINT   
RDST100904020961     1120000030000000001MAJ-BISACODYL 5MG TB UD   
RDST100904792760     1120000018500000001MAJ-BISACODYL EC 5MG 100'S
RDST100904131309     1120000016000000001MAJ-BISMATROL LIQ 8oz     
RDST100904131546     1120000018500000001MAJ-BISMATROL TB 30'S     
RDST100904352403     1030000075400000001MAJ-BOROFAIR OTIC SOL 2oz 
RDST100904071716     1030000062400000001MAJ-BROMANATE DX COUGH    
RDST100904123020     1030000011200000001MAJ-BYDRAMINE 12.5MG SYR  
RDST100904123016     1030000040000000001MAJ-BYDRAMINE COUGH SYR   
RDST100904175089     1030000427700000001MAJ-CAFATINE PB TB 90s    
RDST100904125892     1030000022000000001MAJ-CAL ANTACID ASTDTAB   
RDST100904253300     1030000011200000001MAJ-CALAMINE LOTION 4oz   
RDST100904323261     1030000050000000001MAJ-CALCIUM CARB 600MG UD 
RDST100904776021     1030000016000000001MAJ-CALLERGY CLEAR LOT    
RDST100904211574     1030000546300000001MAJ-CALULOSE SYR 64oz     
RDST100904211516     1030000158100000001MAJ-CALULOSE SYR PINT     
RDST100904211769     1030000283500000001MAJ-CATULAC SYR 32oz      
RDST100904211709     1030000077500000001MAJ-CATULAC SYR 8oz       
RDST100904264013     1120000037500000001MAJ-CERTA VITE TB 130'S   
RDST100904018460     1030000079800000001MAJ-CHLOROTHIAZ 500MG TB  
RDST100904354560     1030000177500000001MAJ-CHLORTOX LA CAP 100s  
RDST100904773303     1030000120000000001MAJ-CLINDAMYC PHOS 1% SOL 
RDST100904782231     1030000046500000001MAJ-CLOTRIMAZOLE 30gm 1%  
RDST100904204360     1030000292700000001MAJ-CORTISONE 25MG TB 100s
RDST100904315110     1030000051000000001MAJ-CORTOMYC OT SOL 10ML  
RDST100904780980     1030002500000000001MAJ-CYCLOBENZAPRI 10MG    
RDST100904780960     1030000483800000001MAJ-CYCLOBENZAPRI 10MG    
RDST100904222161     1030000562000000001MAJ-CYCLOBENZAPRI 10MG UD 
RDST100904114616     1030000049000000001MAJ-CYPROHEPTADIN 2MG/5ML 
RDST100904386575     1120000011700000001MAJ-DEEP SEA .65% NOSE    
RDST100904024360     1030000033000000001MAJ-DEXAMETH .5MG TB 100s 
RDST100904024460     1030000044200000001MAJ-DEXAMETH .75MG TB 100s
RDST100904024412     1030000026500000001MAJ-DEXAMETH .75MG UNIPAK 
RDST100904066815     1030000024500000001MAJ-DEXAPHEN 120/6 TB 10s 
RDST100904066760     1030000088300000001MAJ-DEXAPHEN TAB 100s     
RDST100904264760     1030000242600000001MAJ-DICLOXACIL 250MG CP   
RDST100904264860     1030000335000000001MAJ-DICLOXACIL 500MG CP   
RDST100904789680     1030001450000000001MAJ-DICYCLOMINE 10MG CP   
RDST100904776461     1030000877900000001MAJ-DIFLUNISAL 500MG UD   
RDST100904771760     1030000605900000001MAJ-DILTIAZEM 120MG TB    
RDST100904771460     1030000210000000001MAJ-DILTIAZEM 30MG TB 100s
RDST100904771461     1030000250000000001MAJ-DILTIAZEM 30MG TB UD  
RDST100904771560     1030000332700000001MAJ-DILTIAZEM 60MG TB 100s
RDST100904771661     1030000526800000001MAJ-DILTIAZEM 90MG TB UD  
RDST100904205661     1030000036000000001MAJ-DIPHENHYD 50MG CP UD  
RDST100904092416     1030000033500000001MAJ-DOK SYRUP PINT        
RDST100904098128     1030000414600000001MAJ-DONNAPINE ELIXER GAL  
RDST100904098116     1030000063300000001MAJ-DONNAPINE ELIXER PINT 
RDST100904326340     1030000223500000001MAJ-ENOMINE CAP 500s      
RDST100904326216     1030000107100000001MAJ-ENOMINE LIQUID PINT   
RDST100904033640     1030000532500000001MAJ-ERGOLOID MES 1MG ORAL 
RDST100904265308     1030000112700000001MAJ-ERYTH/SUCC 200MG/5ML  
RDST100904774360     1030000164400000001MAJ-ERYTHRO DEL REL 250CP 
RDST100904774340     1030000736000000001MAJ-ERYTHRO DEL REL 250CP 
RDST100904284503     1030000037700000001MAJ-ERYTHRO SOL 2% 60ML   
RDST100904247016     1030000140000000001MAJ-ERYTHROMY 125MG/5ML   
RDST100904246216     1030000145000000001MAJ-ERYTHROMY 200MG PINT  
RDST100904247116     1030000232500000001MAJ-ERYTHROMY 250MG/5ML   
RDST100904246316     1030000179500000001MAJ-ERYTHROMY 400MG PINT  
RDST100904166420     1120000015500000001MAJ-EYE WASH DROPS 120ML  
RDST100904067761     1120000045700000001MAJ-FERROUS 250MG TR UD   
RDST100904759161     1120000030000000001MAJ-FERROUS 5GR GRN UD    
RDST100904213780     1120000089400000001MAJ-FERROUS GLUC 325MG    
RDST100904146516     1120000040000000001MAJ-FERROUS SULF 220MG    
RDST100904098950     1120000028500000001MAJ-FERROUS SULF 50ML     
RDST100904404360     1120000046300000001MAJ-FISH OIL 1000mg 100s  
RDST100904077036     1030000026900000001MAJ-FLUOCINON .05% CR 15GM
RDST100904266336     1030000020200000001MAJ-GENTAMICIN CR 15GM    
RDST100904266436     1030000020200000001MAJ-GENTAMICIN OINT 15GM  
RDST100904190705     1030000036400000001MAJ-GENTAMICIN OPTH SOL   
RDST100904257960     1030000048800000001MAJ-GLUTAMIC ACID 340MG   
RDST100904775960     1030000070000000001MAJ-GUAIFENESIN 600MG LA  
RDST100904183040     1030000080000000001MAJ-HALOPERIDOL .5MG WHT  
RDST100904173460     1030000282700000001MAJ-HALOPERIDOL 10MG AQUA 
RDST100904234160     1030000044900000001MAJ-HYDRALAZINE 100MG TB  
RDST100904208980     1030000107400000001MAJ-HYDROCHLORTHAL 50MG   
RDST100904267460     1030000074300000001MAJ-HYDROCORT 20MG TB 100s
RDST100904075631     1030000045000000001MAJ-HYDROCORT CR 2.5% 30GM
RDST100904762331     1030000012500000001MAJ-HYDROCORT CRM 1% 1oz  
RDST100904035861     1030000231400000001MAJ-HYDROXYZINE 25MG UD   
RDST100904037916     1030000084600000001MAJ-HYDROXYZINE SYR PINT  
RDST100904209560     1030000037300000001MAJ-ISONIAZID 100MG TB    
RDST100904209680     1030000483500000001MAJ-ISONIAZID 300MG TB    
RDST100904063680     1030000297500000001MAJ-ISOXSUPRINE 20MG TB   
RDST100904063661     1030000049500000001MAJ-ISOXSUPRINE 20MG UD   
RDST100904268760     1030000020500000001MAJ-L-LYSINE 500MG TB 100s
RDST100904291280     1030000393600000001MAJ-LITHIUM CARB 300MG CP 
RDST100904291260     1030000044000000001MAJ-LITHIUM CARB 300MG CP 
RDST100904291416     1030000113500000001MAJ-LITHIUM CIT SYR PINT  
RDST100904761760     1120000240000000001MAJ-LOPERAMIDE 2mg 100s   
RDST100904772512     1120000021800000001MAJ-LOPERAMIDE 2mg 12s    
RDST100904761740     1120000830000000001MAJ-LOPERAMIDE 2mg 500s   
RDST100904003620     1120000024200000001MAJ-LOPERAMIDE OR MG/5ML  
RDST100904202060     1030000015800000001MAJ-MAJORCIN TB 100s      
RDST100904198359     1030000018100000001MAJ-MAPAP ACETAM 100mg    
RDST100904198259     1030000013000000001MAJ-MAPAP ACETAM 325mg    
RDST100904238460     1030000022900000001MAJ-MECLIZINE 12.5mg 100s 
RDST100904357160     1030000490000000001MAJ-MEGASTROL 40MG TB 100s
RDST100904357140     1030002050000000001MAJ-MEGASTROL 40MG TB 500s
RDST100904287860     1030000095800000001MAJ-METAPROTER 10MG TB    
RDST100904287960     1030000119600000001MAJ-METAPROTER 20MG TB    
RDST100904781360     1030000139500000001MAJ-METHYLDOP 250/15 TB   
RDST100904781460     1030000150800000001MAJ-METHYLDOP 250/25 TB   
RDST100904145360     1030000053400000001MAJ-METRONID 250MG TB 100s
RDST100904145340     1030000156500000001MAJ-METRONID 250MG TB 500s
RDST100904506860     1030000023900000001MAJ-MI-ACID 80mg chew 100s
RDST100904000514     1030000019200000001MAJ-MI-ACID II LIQ 12oz   
RDST100904029652     1030000024500000001MAJ-MI-ACID II TB 60s     
RDST100904000414     1030000013400000001MAJ-MI-ACID LIQ 12oz      
RDST100904773445     1120000078000000001MAJ-MICONAZOLE Cream 2%   
RDST100904762260     1120000082500000001MAJ-MIGRATANE CAP 100s    
RDST100904047860     1030000024600000001MAJ-MINTOX PLUS 100s      
RDST100904000314     1030000021800000001MAJ-MINTOX PLUS SUS 12oz  
RDST100904000214     1030000013400000001MAJ-MINTOX SUSP 12oz      
RDST100904101130     1030000063500000001MAJ-NALGEST PED DRP 30ML  
RDST100904101016     1030000045200000001MAJ-NALGEST PED SYRUP PINT
RDST100904100416     1030000042300000001MAJ-NALGEST SYRUP PINT    
RDST100904780260     1030000405000000001MAJ-NAPROXEN 275MG TB 100s
RDST100904188572     1120000055500000001MAJ-OYS/SHL 500MG 300'S   
RDST100904188261     1120000030000000001MAJ-OYS/SHL D 250MG UD    
RDST100904766069     1030000250000000001MAJ-PEDIATRIC ELECTRO 32oz
RDST100904268360     1030000028500000001MAJ-POLY TAB CHEW .5MG    
RDST100904100716     1030000017000000001MAJ-POT CHLOR RED 10% 16oz
RDST100904531360     1120000031000000001MAJ-PRENATAL OTC TB 100s  
RDST100904056060     1030000232800000001MAJ-PRIMIDONE 250MG TB    
RDST100904234440     1030000583000000001MAJ-PROPANTHELINE 15MG TB 
RDST100904041180     1030000065000000001MAJ-PROPRANOL 10MG TB     
RDST100904041160     1030000027500000001MAJ-PROPRANOL 10MG TB 100s
RDST100904041161     1030000100400000001MAJ-PROPRANOL 10MG TB UD  
RDST100904041261     1030000146400000001MAJ-PROPRANOL 20MG TB UD  
RDST100904041460     1030000052500000001MAJ-PROPRANOL 40MG TB 100s
RDST100904041461     1030000187500000001MAJ-PROPRANOL 40MG TB UD  
RDST100904042160     1030000458200000001MAJ-PROPRANOL LA 60MG CP  
RDST100904041660     1030000037500000001MAJ-PROPRANOLOL 60MG TB   
RDST100904424616     1030000046000000001MAJ-PROTIEN PWDR VANILLA 1
RDST100904132377     1030000024400000001MAJ-PSEU-ALL NITE CHRY    
RDST100904132321     1030000016700000001MAJ-PSEU-ALL NITE CHRY 6oz
RDST100904132277     1030000024400000001MAJ-PSEU-ALL NITE FORM    
RDST100904765220     1030000014700000001MAJ-PSEU-DIMAPHEN DM ELX  
RDST100904071300     1030000010000000001MAJ-PSEU-DIMAPHEN ELIX 4oz
RDST100904071328     1030000192000000001MAJ-PSEU-DIMAPHEN ELIXER  
RDST100904021412     1030000021100000001MAJ-PSEU-DIMAPHEN TAB 12s 
RDST100904021624     1030000013000000001MAJ-PSEU-DIMAPHEN TB 24'S 
RDST100904768960     1030000261000000001MAJ-PSEU-G/PSI CPLTS 100s 
RDST100904768970     1030000692200000001MAJ-PSEU-G/PSI CPLTS 250s 
RDST100904788420     1030000012700000001MAJ-PSEU-THERA HISTAL SYR 
RDST100904033020     1030000011700000001MAJ-PSEU-THERA-HIST EXPECT
RDST100904166616     1030000229500000001MAJ-RENTAMINE PED SUS PINT
RDST100904765016     1030000119500000001MAJ-RHINATATE PED PINT    
RDST100904166960     1030000076500000001MAJ-RHINATATE TAB 100s    
RDST100904166970     1030000207600000001MAJ-RHINATATE TAB 250s    
RDST100904119840     1030000324500000001MAJ-ROLATUSS SR TB 500s   
RDST100904772614     1030000020400000001MAJ-RON ACID SUS 12oz     
RDST100904323514     1030000017500000001MAJ-RON-AID SUS 12oz      
RDST100904070300     1030000019500000001MAJ-RONDAMINE DM SYR 120ML
RDST100904112730     1030000024300000001MAJ-S0D FLUOR .125MG DRP  
RDST100904125360     1030000079100000001MAJ-SALSALATE 500MG BLU   
RDST100904125340     1030000270000000001MAJ-SALSALATE 500MG BLU   
RDST100904125040     1030000270000000001MAJ-SALSALATE 500MG YLW   
RDST100904125460     1030000077500000001MAJ-SALSALATE 750MG BLU   
RDST100904125440     1030000366100000001MAJ-SALSALATE 750MG BLU   
RDST100904125160     1030000077500000001MAJ-SALSALATE 750MG YLW   
RDST100904125140     1030000366100000001MAJ-SALSALATE 750MG YLW   
RDST100904125061     1030000140000000001MAJ-SALSALATE YLW UD 100s 
RDST100904272454     1030000029900000001MAJ-SEL-PEN BLUE 1% SHP   
RDST100904516559     1120000025000000001MAJ-SENNA LAX 187mg 100s  
RDST100904272660     1030000084500000001MAJ-SMZ 400/80 SS 100s    
RDST100904272561     1030000246600000001MAJ-SMZ 800/160 DS UD 100s
RDST100904177021     1030000014000000001MAJ-SORE THROAT SPYMENTH  
RDST100904034380     1030000306100000001MAJ-SPIRONOLACT 25MG TB   
RDST100904512559     1030000026900000001MAJ-SUDOGEST 60mg 100s    
RDST100904118660     1030000070200000001MAJ-SULFINPYRAZ 100MG TB  
RDST100904118760     1030000143500000001MAJ-SULFINPYRAZ 200MG CP  
RDST100904337860     1030000472500000001MAJ-SULINDAC 150MG TB 100s
RDST100904337840     1030001500000000001MAJ-SULINDAC 150MG TB 500s
RDST100904337960     1030000500000000001MAJ-SULINDAC 200MG TB 100s
RDST100904337940     1030002000000000001MAJ-SULINDAC 200MG TB 500s
RDST100904053060     1030000018100000001MAJ-TAB-A-VITE TB 100s    
RDST100904144416     1030000026300000001MAJ-THEOPHYLLIN ELIXER    
RDST100904077460     1030000076900000001MAJ-THEOTAL TAB 100s      
RDST100904053820     1030000039900000001MAJ-THERA LIQUID 4oz      
RDST100904054013     1030000037000000001MAJ-THERA M MULTIVITE 130s
RDST100904430309     1030000019500000001MAJ-THERA-DERM BATH OIL   
RDST100904429909     1030000017200000001MAJ-THERA-DERM MOIST LOT  
RDST100904404451     1030000022900000001MAJ-THERMAOMETER PROBE COV
RDST100904399160     1030000220000000001MAJ-TRAZODONE 100MG TB    
RDST100904399140     1030000550000000001MAJ-TRAZODONE 100MG TB    
RDST100904399161     1030000450000000001MAJ-TRAZODONE 100MG TB UD 
RDST100904399060     1030000150000000001MAJ-TRAZODONE 50MG TB 100s
RDST100904399040     1030000386200000001MAJ-TRAZODONE 50MG TB 500s
RDST100904088444     1030000068000000001MAJ-TRIAMCINOL 4MG UNIPAK 
RDST100904032240     1030000446800000001MAJ-TUSSOGEST CAP SA 500s 
RDST100904032260     1030000169400000001MAJ-TUSSOGEST CP SA 100s  
RDST100904521730     1030000011300000001MAJ-TWICE-A-DAY .05% SPY  
RDST100904328680     1030000395000000001MAJ-URAPINE TB 1000s      
RDST100904328660     1030000051500000001MAJ-URAPINE TB 100s       
RDST100904210316     1030000287600000001MAJ-VALPROIC ACID 250MG   
RDST100904031535     1030000019400000001MAJ-VASOLATE EAR 2% SOL   
RDST100904292460     1030000067000000001MAJ-VERAPAMIL 120MG TB    
RDST100904292440     1030000300000000001MAJ-VERAPAMIL 120MG TB    
RDST100904292461     1030000285000000001MAJ-VERAPAMIL 120MG UD    
RDST100904292080     1030000795000000001MAJ-VERAPAMIL 80MG TB     
RDST100904292060     1030000064000000001MAJ-VERAPAMIL 80MG TB 100s
RDST100904292040     1030000248500000001MAJ-VERAPAMIL 80MG TB 500s
RDST100904292061     1030000217500000001MAJ-VERAPAMIL 80MG TB UD  
RDST100904260822     1060000014700000001MAJ-VIT A&D OINT 120ML    
RDST100904418160     1060000025700000001MAJ-VIT B COMP W/B-12 100s
RDST100904054480     1060000124500000001MAJ-VIT B-1 100MG TB 1000s
RDST100904051860     1060000021200000001MAJ-VIT B-6 100MG TB 100s 
RDST100904052660     1060000028600000001MAJ-VIT C 500MG 100'S     
RDST100904052360     1060000028600000001MAJ-VIT C 500MG 100'S     
RDST100904052361     1060000049300000001MAJ-VIT C 500MG TB UD 100s
RDST100904030361     1060000049700000001MAJ-VIT C CAP-D 100s      
RDST100904424960     1060000024800000001MAJ-VIT C W/RH 500MG TB   
RDST100904029160     1060000046500000001MAJ-VIT D 50,000 UNITS    
RDST100904027460     1060000036500000001MAJ-VIT E 400IU 100s      
RDST100904275260     1060000051200000001MAJ-VIT E CAP NAT 100s    
RDST100904184322     1060000018900000001MAJ-VIT E CREAM 120ML     
RDST100904430535     1030000012500000001MAJ-WART-AWAY LIQUID 5oz  
RDST100904325580     1060000550000000001MAJ-YOHIMBINE 5MG TB 1000s
RDST100904325560     1060000050000000001MAJ-YOHIMBINE 5MG TB 100s 
RDST100904275802     1060000011500000001MAJ-ZINC OXIDE OINT 2oz   
RDST100904428160     1060000029000000001MAJ-ZINC/C 23MG 100'S     
RDST160574310101     1017504081300000001MDI-CYTOGAM 2.5GM VL      
RDST105301437751     1014400135000000001MED-AMERICAINE 20% SOL    
RDST105301401710     1009600493000000001MED-DECONSAL II 100s      
RDST105301431114     1032400289000000001MED-SYN RX DM TAB 56s     
RDST100006477500     1240000397300000001MER-RECOMBIVAX 10MCG/ML   
RDST100006477300     1048001420000000001MER-RECOMBIVAX HB 10MG/ML 
RDST100006479900     1240000128500000001MER-RECOMBIVAX SDV 2.5MG  
RDST106157058210     1001201740000000001MON-3-KETALAR 50mg/ml 10ml
RDST106157001716     1009600531800000001MON-3-NUCOFED 20mg/60mg   
RDST106157001860     1009600394900000001MON-3-NUCOFED 20mg/60mg   
RDST106157001616     1009600553900000001MON-3-NUCOFED EXPECT SOL  
RDST106157000416     1009600456500000001MON-3-TUSSEND 2.5/30/2mg  
RDST106157001101     1009600573600000001MON-3-TUSSEND 5/60/4mg    
RDST106157000516     1009600487600000001MON-3-TUSSEND EXPECT      
RDST106157001516     1009600380100000001MON-5-NUCOFED PED         
RDST106157030031     1009600088400000001MON-ADRENALIN 1mg/ml 30ml 
RDST106157017261     1027600260400000001MON-ANUSOL HC 25mg supp   
RDST106157017262     1061200437600000001MON-ANUSOL HC 25mg supp   
RDST106157031311     1036000235000000001MON-ANUSOL HC Cream 2.5oz 
RDST100068009904     1081600290500000001MON-AVC CREAM W/APPL 4oz  
RDST106157008416     1001200315500000001MON-AVC W/INSERT SUPP 16s 
RDST106157041451     1321400325200000001MON-COLY MYCIN M 150mg 2ml
RDST106157003150     1165100305000000001MON-CORTISPORIN Oint 15gm 
RDST106157003535     1129200246500000001MON-CORTISPORIN Oint 3.5gm
RDST106157003675     1131600276300000001MON-CORTISPORIN Opth sus  
RDST106157003410     1164500295800000001MON-CORTISPORIN Otic sol  
RDST106157003310     1199800295800000001MON-CORTISPORIN Otic sus  
RDST106157009010     1024600300600000001MON-CORTISPORIN-TC susp   
RDST106157005901     1077500475300000001MON-KEMADRIN 5mg 100s     
RDST106157007201     1002400126900000001MON-MENEST .3mg 100s      
RDST106157004510     1029600214500000001MON-NEOSPORIN Opth 10ml   
RDST106157003875     1231900260500000001MON-PEDIOTIC susp 7.5ml   
RDST106157004935     1010800223400000001MON-POLYSPORIN Opth Oint  
RDST106157002801     1044100287600000001MON-PROCTOCORT Cream 1%   
RDST106157002512     1197300300900000001MON-PROCTOCORT supp 30gm  
RDST106157001901     1014400447600000001MON-QUIBRON T/SR 300mg    
RDST100173085496     1014400454200000001MON-SEPTRA susp grape     
RDST100088105072     1100800260500000001MON-SILVADENE Cream 1%    
RDST100088105050     1038600062100000001MON-SILVADENE Cream 1%    
RDST106157002401     1002400600400000001MON-THALITONE 15mg 100s   
RDST106157036771     1095900205500000001MON-VIRA-A OINT 3.5gm     
RDST193815097174     1120000575000000001MSS-EXACTECH 100s         
RDST157599710304     1120000300000000001MSS-EXACTECH 60s          
RDST100451150016     1002400835000000001MURO-PRELONE 16oz Syrup   
RDST100378202001     1002400040000000001MYL-PIROXICAM 20mg 100s   
RDST100378325291     1009600068100000001MYL-RANITIDINE 150mg 60s  
RDST100378325493     1026400070500000001MYL-RANITIDINE 300mg 30s  
RDST105595309434     1028800230000000001NOV-ACYCLOVIR 400mg 100s  
RDST105595372401     1028800083500000001NOV-AMOXICILLIN 250mg UD  
RDST105595371670     1028800282400000001NOV-AMOXICILLIN 500mg 500s
RDST105595371601     1028800115000000001NOV-AMOXICILLIN 500mg UD  
RDST105595371640     1028800073500000001NOV-AMOXICILLIN CAP 500mg 
RDST105595303980     1028800152900000001NOV-ATENOLOL 50mg 1000s   
RDST105595313240     1060000020700000001NOV-CAPTOPRIL 12.5mg 100s 
RDST105595313340     1060000027600000001NOV-CAPTOPRIL 25mg 100s   
RDST105595313440     1060000045200000001NOV-CAPTOPRIL 50mg 100s   
RDST105595310640     1060000013800000001NOV-CEPHALEXIN 125mg/ml   
RDST105595384001     1060000090500000001NOV-CEPHALEXIN 250MG 100  
RDST105595311401     1060000141800000001NOV-CEPHALEXIN 500MG 100  
RDST105595311440     1060000105900000001NOV-CEPHALEXIN 500mg 100s 
RDST105595311470     1060000470600000001NOV-CEPHALEXIN 500mg 500s 
RDST105595309240     1060000019100000001NOV-CEPHALEXIN SUS 250mg  
RDST105595334240     1060000055500000001NOV-GLYBURIDE 1.25mg 100s 
RDST105595334440     1060000105400000001NOV-GLYBURIDE 5mg 100s    
RDST105595343940     1060000047100000001NOV-INDOMETHACIN 50mg 100s
RDST105595373440     1060000046400000001NOV-METOPROLOL 100mg 100s 
RDST105595372740     1060000034600000001NOV-METOPROLOL 50mg 100s  
RDST105595317140     1060000028100000001NOV-NIFEDIPINE 10mg 100s  
RDST105595017141     1060000049200000001NOV-NIFIDIPINE 10mg YLW UD
RDST155953054440     1060000078200000001NOV-RANITIDINE 150mg 100s 
RDST155953054435     1060000047600000001NOV-RANITIDINE 150mg 60s  
RDST155953054740     1060000170600000001NOV-RANITIDINE 300mg 100s 
RDST100083007430     1001200673300000001NOVT-LOTENSIN 20/12.5 100s
RDST100083007530     1004800670500000001NOVT-LOTENSIN 20/25 100s  
RDST100083005730     1048000600000000001NOVT-LOTENSIN 5/6.25mg    
RDST105726790226     1002400359400000001NOVT-TRANSDERM NIT .1MG/HR
RDST157267090526     1020400367900000001NOVT-TRANSDERM NIT .2MG/HR
RDST157267091026     1003600420400000001NOVT-TRANSDERM NIT .4MG/HR
RDST157267091526     1018000514900000001NOVT-TRANSDERM NIT .6MG/HR
RDST100052030022     1030002223000000001ORG-HUMEGON VL 75IU 5S    
RDST100071052524     1002400695400000001PD-CELONTIN 300MG 100S    
RDST100054418425     1001000110000000001ROX-DEXAMETH*4MG 100'S    
RDST100054380563     1060000227000000001ROX-SODIUM POLY SULF 500ML
RDST105409209701     1001202462500000001RPC-NOROXIN 400MG TAB 100S
RDST105409205601     1004801095000000001RPC-SALUTENSIN 50MG TB    
RDST100075245153     1027601850000000001RPR-DDAVP INJ.            
RDST105891404510     1002400295800000001SCA-ULTRASE MICRO CAP 100s
RDST105891401810     1004800955900000001SCA-ULTRASE MT18 100s     
RDST105891400410     1001201056400000001SCA-ULTRASE MT20 100s     
RDST100025190131     1004800887700000001SER-CALAN SR 120 MG 100S  
RDST100025191131     1010801125000000001SER-CALAN SR 180MG 100S   
RDST105816086016     1028810050000000001SKB-ENGERIX B 20mcg 1ml   
RDST105816086135     1048002050000000001SKB-ENGERIX B 23g 20mcg   
RDST105816085936     1048000710000000001SKB-ENGERIX B 25g 10mcg   
RDST105816086001     1480000394000000001SKB-ENGERIX B Adult 20mcg 
RDST105816085901     1480000129500000001SKB-ENGERIX B Ped 10mcg   
RDST105816085911     1048001350000000001SKB-ENGERIX B PED         
RDST105816085905     1048000710000000001SKB-ENGERIX-B 23G 10mcg   
RDST105816083505     1028802259400000001SKB-HAVRIX PFS 1440u/ml   
RDST105816083705     1028801147600000001SKB-HAVRIX PFS 720u/.5ml  
RDST100029414901     1144001506900000001SKB-KYTRIL 1MG VL         
RDST100091069520     1002400525700000001SWZ-CORTIFOAM 20gm        
RDST100091419501     1044400364300000001SWZ-DEPONIT .2mg 30s      
RDST100091074010     1004800136300000001SWZ-EPIFOAM 1% 10gm       
RDST100091153605     1019200433600000001SWZ-LEVSIN AMP .5% 1ml 5s 
RDST100091353201     1016800360100000001SWZ-LEVSIN SUBL .125mg    
RDST100091362001     1002400325000000001SWZ-MONOKET 20mg 100s     
RDST100131433086     1002400251600000001SWZ-NIFEREX FORTE 150cap  
RDST100131422009     1001200251600000001SWZ-NIFEREX UD 150 cap    
RDST100091370701     1001200481700000001SWZ-UNIVASC 7.5mg 100s    
RDST100300334601     1041711500000000001TAP-LUPRON DEPOT 22.5mg   
RDST100300368301     1003612800000000001TAP-LUPRON DEPOT 30mg Kit 
RDST100300364201     1036604650000000001TAP-LUPRON DEPOT 7.5mg Kit
RDST111098001001     1028800191500000001TAY-INAPSINE 1ml 2.5mg Amp
RDST111098001002     1028800239000000001TAY-INAPSINE 2ml 2.5mg Amp
RDST105047461201     1001200542700000001UCB-DURATUSS 600/100mg TAB
RDST105047436423     1001200341400000001UCB-TRINSICON Cap UD 60S  
RDST100009047301     1014400175000000001UJ-CYTOSAR U PDW 500MG VL 
RDST100009329501     1014400340000000001UJ-CYTOSAR U PWD 1GM VL   
RDST100009329601     1014400560000000001UJ-CYTOSAR U PWD 2GM VL   
RDST100001631440     1030000490000000001UJ-HEALON 10MG .04ML      
RDST100001631055     1030000580000000001UJ-HEALON 10MG .55ML      
RDST100001631085     1030000800000000001UJ-HEALON 10MG .85ML      
RDST100001631955     1030000620000000001UJ-HEALON GV 14mg/ml .55ml
RDST100172439018     1240000028000000001ZEN-ALBUTEROL INH COMP    
RDST100172436060     1014402100000000001ZEN-CLOZAPINE 100mg 100s  
RDST100310096130     1014406750000000001ZNC-ZOLADEX 10.8mg Syr    
RDST100310096036     1014402450000000001ZNC-ZOLADEX 3.6mg Syr     
