000000074567408        AB-A-HYDROCORT 1000M 8ML UV EA00240 012.00              
000000074567202        AB-A-HYDROCORT 250MG 2ML UV 1000240 017.00              
000000074567304        AB-A-HYDROCORT 500MG 4ML 25'S 00240 090.00              
000000074563108        AB-A-METHAPRED 1000M 8ML UV EA00240 008.00              
000000074560344        AB-A-METHAPRED 1000MG ADVT 10 00240 089.00              
000000074568502        AB-A-METHAPRED 125MG 2ML UV 1000240 019.00              
000000074568401        AB-A-METHAPRED 40MG 1ML UV 10 00240 012.50              
000000074563004        AB-A-METHAPRED 500MG 4ML UV EA00240 004.20              
000000074614302        AB-ACETIC ACID .25% 250ML EA  00240 006.00              
000000074614309        AB-ACETIC ACID 1000ML 12'S    00240 035.00              
000000074806201        AB-AMIDATE 20MG 10ML A 5      00240 100.00              
000000074806101        AB-AMIDATE 40MG 20ML A 5      00240 110.00              
000000074806001        AB-AMIDATE 40MG 20ML ABJT 10  00072 210.00              
000000074490903        AB-AMINOPH 250MG 10ML 10'S    00240 022.50              
000000074738501        AB-AMINOPH USP 250MG 10ML A 5000240 012.00              
000000074162503        AB-AMINOPHILL 500MG 20ML 10S  00240 031.00              
000000074592101        AB-AMINOPHYLLIN INJ 250MG 10ML00240 014.00              
000000074299103        AB-AMINOSYN 10% 500ML 12'S    00240 080.00              
000000074108803        AB-AMINOSYN 500ML 8.5% 12'S   00240 077.50              
000000074299203        AB-AMINOSYN 7% 500ML 12'S     00240 083.00              
000000074109003        AB-AMINOSYN II 10% 500ML 12'S 00240 085.00              
000000074491101        AB-ATROPINE SULF 10ML ABJET 1000240 014.50              
000000074491001        AB-ATROPINE SULF 5ML ABBJET 1000240 015.50              
000000074397703        AB-BACTERIOSTATIC 30ML 25'S   00240 010.00              
000000074926701        AB-BRETYLIUM 50MG 10'S        00240 023.00              
000000074926301        AB-BRETYLIUM 50MG 10ML 25'S   00240 008.00              
000000074115901        AB-BUPIVAC HCL .25% 10ML TT 5000240 060.00              
000000074115801        AB-BUPIVAC HCL .25% 30ML A 25 00240 016.00              
000000074116201        AB-BUPIVAC HCL .5% 10ML TT 50 00240 062.00              
000000074116202        AB-BUPIVAC HCL .5% 30ML TT 50 00240 060.00              
000000074116301        AB-BUPIVAC HCL .5% 50ML FT 50 00240 080.00              
000000074116501        AB-BUPIVAC HCL .75% 10ML TT 2500240 052.00              
000000074116401        AB-BUPIVAC HCL .75% 30ML A 50 00240 020.00              
000000074115902        AB-BUPIVAC HCL 30ML TT 50     00240 058.00              
000000074490801        AB-CALCIUM CHL 10% 18G 10'S   00240 020.00              
000000074492801        AB-CALCIUM CHL 10ML ABBJET 10 00240 014.50              
000000074405303        AB-CLINDAMY PHOS 150MG 2ML 25 00240 055.00              
000000074405001        AB-CLINDAMYCIN 300MG/2ML 25'S 00240 048.00              
000000074405101        AB-CLINDAMYCIN 600MG/3ML 25'S 00240 075.00              
000000074419701        AB-CLINDAMYCIN 9GRM/60ML EA   00240 036.00              
000000074409201        AB-COPPER TRACE .4MG 10ML 25'S00240 016.00              
000000074408902        AB-DEXTROSE 10ML 5ML AMP 50   00240 025.00              
000000074789801        AB-DEXTROSE 25% 10ML 10'S     00240 042.25              
000000074490201        AB-DEXTROSE 50% 50ML 10'S     00240 018.50              
000000074664802        AB-DEXTROSE 50% FLTP 10'S     00240 024.00              
000000074910501        AB-DOPAMIN 400MG 10ML 25'S    00240 020.00              
000000074581901        AB-DOPAMINE 200MG 5ML 25'S    00240 012.00              
000000074426601        AB-DOPAMINE 800MG 10ML 25 ADDV00240 096.00              
000000074780902        AB-DOPAMINE HCL 400MG 250ML 1200240 105.00              
000000074780803        AB-DOPAMINE HCL 400MG 500ML 1200240 140.00              
000000074781002        AB-DOPAMINE HCL 800MG 250ML 1200240 230.00              
000000074307303        AB-EPHEDRIN 50MG 1ML A 100'S  00240 010.00              
000000074490101        AB-EPINEPH 18G 10ML 10'S      00240 020.00              
000000074492101        AB-EPINEPH 21G 10ML 10'S      00240 016.95              
000000074648101        AB-ERY LAC (BENXFR) 1GM VL 10 00240 033.00              
000000074647844        AB-ERY LAC 1GM ADDVANT 10'S   00240 038.00              
000000074647644        AB-ERY LAC 500MG ADDVANT 10'S 00036 022.37              
000000074636502        AB-ERY LAC 500MG VL 10'       00240 016.00              
000000074324710        AB-ERY LAC ADVT FT 500MG 10   00240 051.00              
000000074324601        AB-ERYLAC ADVT FT 1G 10'S     00240 067.00              
000000074631613        AB-ERYTHROC STEAR 500MG 100s  00024 013.50              
000000074634205        AB-ERYTHROCIN LAC 1GM VL 10'S 00240 028.00              
000000074648201        AB-ERYTHROCIN LAC 500MG VL 10 00240 017.00              
000000074636813        AB-ERYTHROCIN PIGBACK 500MG 5 00240 012.50              
000000074406558        AB-FAT EMOLSION IV SET 48'S   00240 130.00              
000000074610110        AB-FUROSEMIDE 100MG 10ML A 50S00240 050.00              
000000074605610        AB-FUROSEMIDE 10ML ABJT SYR 1000240 030.00              
000000074610102        AB-FUROSEMIDE 20MG 2ML A 100'S00240 015.00              
000000074610202        AB-FUROSEMIDE 20MG 2ML FT 25s 00240 012.35              
000000074610104        AB-FUROSEMIDE 40MG 4ML A 50'S 00240 016.50              
000000074610204        AB-FUROSEMIDE 40MG FLTP 50'S  00240 018.00              
000000074605504        AB-FUROSEMIDE 4ML ABJT SYR 10 00240 018.00              
000000074340201        AB-GENTAMYCIN 100MG 10ML 50'S 00240 040.00              
000000074340001        AB-GENTAMYCIN 60MG 6ML 50'S   00240 035.00              
000000074340101        AB-GENTAMYCIN 80MG 8ML 50'S   00240 035.00              
000000074258302        AB-HEP SOD 20,000 10ML ADVT 5000240 080.00              
000000074115271        AB-HEP-LOCK 100USP 10ML FT 50 00240 012.50              
000000074115171        AB-HEP-LOCK SOL 10% 10ML FT 5000240 018.00              
000000074329201        AB-ISOFLURANE INH 100ML       00048 092.00              
000000074497701        AB-ISOPROT 1:5000 10ML 10'S   00240 042.00              
000000074497801        AB-ISOPROT 1:5000 5ML 10'S    00240 035.00              
000000074427601        AB-LIDO 1% HCL 20ML FT 50     00240 013.50              
000000074427001        AB-LIDO 1% HCL 30ML 25        00240 085.00              
000000074471301        AB-LIDO 1% USP 2ML A 100      00240 010.00              
000000074471302        AB-LIDO 1% USP 5ML AMP 100    00240 020.00              
000000074625401        AB-LIDO 10% HCL 10ML PINTOP 5000240 095.00              
000000074427702        AB-LIDO 2% HCL 50ML FT 50     00240 015.00              
000000074428201        AB-LIDO 2% USP 20ML A 100     00240 015.00              
000000074624801        AB-LIDO 20% HCL PINTOP 50     00240 110.00              
000000074492401        AB-LIDOCAIN 1% 5ML 25G 10'S   00240 018.75              
000000074490301        AB-LIDOCAIN 2% 5ML 21G 10'S   00240 015.25              
000000074490401        AB-LIDOCAINE 1% 5ML 21G 10'S  00240 015.75              
000000074492301        AB-LIDOCAINE 2% 25G 10'S      00240 018.00              
000000074428202        AB-LIDOCAINE 2% HCL 10ML      00240 018.00              
000000074978601        AB-LIPOSYN II 10% 200ML 12    00240 110.00              
000000074978603        AB-LIPOSYN II 10% 500ML 12    00240 100.00              
000000074978901        AB-LIPOSYN II 20% 200ML 12    00240 138.00              
000000074978903        AB-LIPOSYN II 20% 500ML 12    00240 158.00              
000000074491401        AB-MAG. SULF 50% 10ML 20G 10'S00240 022.00              
000000074403101        AB-MANNITOL 25% 50ML 25'S     00240 025.00              
000000074303001        AB-METHYLDOPA 250MG 5ML 25'S  00240 028.00              
000000074781124        AB-METRONI 500MG 100ML BAGG 2400240 078.00              
000000074146301        AB-NALBUPHIN HCL 10MG 1ML A 5000040 008.00              
000000074146401        AB-NALBUPHIN HCL 10MG FLTP 25 00240 055.00              
000000074146501        AB-NALBUPHIN HCL 20MG 1ML A 5000240 010.00              
000000074146701        AB-NALBUPHINE HCL 20MG FLTP 2500240 100.00              
000000074121301        AB-NALOXONE .4MG 1ML HYPAK 50 00240 059.00              
000000074121101        AB-NALOXONE .4MG 2ML A 50'S   00240 012.00              
000000074121601        AB-NALOXONE .4MG 2ML FLTP 50'S00240 015.00              
000000074301902        AB-NITROPRES 50MG 2ML EA      01200 002.54              
000000074626001        AB-PENTOTHAL 2.5GM 25         00240 390.00              
000000074625901        AB-PENTOTHAL 2.5GM/2% 25      00240 420.00              
000000074332901        AB-PENTOTHAL 500MG & H20 25   00240 140.00              
000000074818301        AB-POT ACET 40MEQ 50'S        00240 018.00              
000000074663501        AB-POT CHL 10MEQ 5ML 100'S    00240 015.00              
000000074499101        AB-POT CHL 10MEQ 5ML SYR 25   00240 060.00              
000000074665106        AB-POT CHL 20MEQ 10ML 25'S    00240 009.00              
000000074499201        AB-POT CHL 20MEQ 10ML SYR 25  00240 070.00              
000000074663601        AB-POT CHL 30MEQ 15ML 100'S   00240 015.00              
000000074665305        AB-POT CHL 40MEQ 20ML 25'S    00240 010.00              
000000074499401        AB-POT CHL 40MEQ 20ML SYR 25AB00240 090.00              
000000074729501        AB-POT PHOS 45MM 15ML 5       00240 015.00              
000000074662902        AB-QUELICIN 20MG 25X 10ML     00040 026.00              
000000074329905        AB-SOD ACET 2MEQ 50ML FT 25   00240 035.00              
000000074729901        AB-SOD ACET 40MEQ 20ML 25'S   00240 015.00              
000000074553401        AB-SOD BIC 4.2% 10ML 10'S     00240 018.00              
000000074662502        AB-SOD BIC 50MEQ 50ML 50'S    00240 025.00              
000000074491601        AB-SOD BIC 7.5% 50ML A 10'S   00240 018.50              
000000074410303        AB-SOD BIC 7.5% 50ML A 25'S   00240 045.00              
000000074490001        AB-SOD BIC 8.4% 10MEQ 10ML 10 00240 022.00              
000000074663701        AB-SOD BIC 8.4% 10MEQ 50ML 10 00024 016.00              
000000074660902        AB-SOD BIC NEUT 4% 5ML 25S    00240 056.32              
000000074488899        AB-SOD CHL .9% 100ML FLTP 25' 00240 022.00              
000000074488810        AB-SOD CHL .9% 10ML FLTP 100'S00240 007.00              
000000074488820        AB-SOD CHL .9% 20ML FLTP 25'S 00240 009.95              
000000074488850        AB-SOD CHL .9% 50ML FLTP 100'S00088 018.00              
000000074713809        AB-SOD CHL .9% IRRG 1000ML 12 00240 016.00              
000000074613802        AB-SOD CHL .9% IRRG 250ML 12'S00240 014.00              
000000074613803        AB-SOD CHL .9% IRRG 500ML 12'S00240 014.00              
000000074196605        AB-SOD CHL 20ML FLTP 25s      00240 012.50              
000000074196604        AB-SOD CHLOR 10 ML 100S       00240 012.50              
000000074798303        AB-SOD CHLOR INJ .9% 24X500ML 00240 030.00              
000000074739101        AB-SOD PHOS 45MM 15ML FLTP 25 00240 021.00              
000000074410303        AB-SOD. BIC 7.5% INJ 50ML     00240 045.00              
000000074490001        AB-SOD. BIC 8.4% 10ML 10      00240 022.00              
000000074159304        AB-THAM SOL 500ML 6'S         00240 328.00              
000000074577901        AB-TPN ELECTROLYTE II 20ML 50 00240 060.00              
000000074323601        AB-TPN ELECTROLYTE II 20ML 50 00240 060.00              
000000074338604        AB-TUBOCURAMIN CHL 20ML FT 50 00240 190.00              
000000074716809        AB-UROLOGIC G IRRG 100ML 12'S 00240 045.00              
000000074653301        AB-VANCOMYCIN 1GM 25ML FLTP 1000240 080.00              
000000074433201        AB-VANCOMYCIN 500MG 10ML FT 1000240 040.00              
000000074114401        AB-VERAPAMIL 5MG 2ML FLTP 25  00240 020.00              
000000071915801        AB-VIT K INJ 10ML A 50        00240 030.00              
000000074915701        AB-VIT K INJ 1MG A 50         00240 055.00              
000000074488799        AB-WATER FOR INJ 100ML FLTP 2500240 027.80              
000000074488710        AB-WATER FOR INJ 10ML FLTP 25 00240 007.00              
000000074488720        AB-WATER FOR INJ 20ML FLTP 25 00240 008.50              
000000074488750        AB-WATER FOR INJ 50ML FLTP 10000240 063.00              
000000074149101        AB-WATER FOR INJ PRESPIN 25   00240 052.00              
000005301402410        ADM-ATROHIST PLUS TB COM 100s 00288 058.70              
000005301401210        ADM-HUMIBID LA TABS 100s      00082 033.05              
000001747823235        AK-AK SPORE HC 1/8OZ          00360 003.00              
000001747022112        AK-AK-SULF(0221-12)           00360 002.05              
000000998052635        ALC-CETAMIDE OINT 3.5GM       01860 009.50              
000000998053001        ALC-EYE-STR(0530-01)          00144 005.00              
000000998053004        ALC-EYE-STR4(0530-04)         00144 007.60              
000000998052215        ALC-ISOPTO CETAMIDE 15ML      00670 010.00              
000000998040815        ALC-ISOPTO TEARS 15ML         00012 006.85              
000000998007915        ALC-NAPHCON FORTE .1% 15ML    00200 010.34              
000000023218105        ALG-ACULAR .5% SOL 5ML        00024 021.53              
000001198025220        ALG-BETAGAN C .5% BID 10ML    00012 026.32              
000001198025260        ALG-BETAGEN C .5% QD 10ML     00012 026.32              
000001198031104        ALG-BLEPH 10 OINT             01018 008.00              
000001198001105        ALG-BLEPH-10(0011-05)         00030 009.30              
000000023054004        ALG-ERYMAX SOL. 120ML         02541 019.50              
000000023087860        ALG-FLUONID .01% 60ML         00405 017.25              
000000023031207        ALG-LAC(0312-07)              00073 011.00              
000001198026020        ALG-PROPINE C CAP .1% 10ML    00060 021.53              
000001198026025        ALG-PROPINE C CAP 1% 5ML      00072 011.73              
000000173031288        ALH-BECLOVENT INH 16.8GM      00011 003.00              
000000023081799        ALL-EXSEL 2.5% LOTION 4oz     00100 009.89              
000000517912005        AMR-AMINOCARP ACID 250MG 5'S  00120 006.90              
000000517381025        AMR-AMINOPH 250MG 10ML 25'S   00120 012.50              
000000517382025        AMR-AMINOPH 500MG 20ML 25'S   00120 013.80              
000000517350125        AMR-ATROPINE SULF .4MG SDV 25 00120 008.50              
000000517360125        AMR-ATROPINE SULF 1MG SDV 25  00120 008.25              
000000517881001        AMR-BRETYLIUM TOS 500MG SDV EA00240 008.50              
000000517271025        AMR-CAL CHLOR 10% 10ML 25S    00120 013.80              
000000517390025        AMR-CAL GLUC PBP 10% 25X100ML 00120 065.00              
000000517391025        AMR-CALCIUM GLUC 10% 10ML     00120 015.00              
000000517395025        AMR-CALICIUM GLUC 50ML        00120 044.00              
000000517631025        AMR-CHROM CHL SDV 4MG/ML 25s  00120 025.50              
000000517003225        AMR-CYANOCOB 1000MCG MDV 25   00120 020.15              
000000517490525        AMR-DEXAMETH 4MG 5ML 25'S     00120 024.50              
000000517493025        AMR-DEXAMETH SOD PHOS MDV 25  00120 080.00              
000000517490125        AMR-DEXAMETH SOD PHOS SDV 25  00120 011.50              
000000517190525        AMR-DOPAMIN HCL 400MG SDV 25  00120 041.80              
000000517180525        AMR-DOPAMINE 200MG 5ML 25'S   00120 022.45              
000000517130525        AMR-DOPAMINE HCL 800MG SDV 25 00120 083.65              
000000517970210        AMR-DROPERIDOL 2.5MG 2ML 10   00120 016.50              
000000517970510        AMR-DROPERIDOL 2.5MG 5ML 10   00120 025.50              
000000517106125        AMR-EPINEPHRINE 1:1000 1ML A  00120 008.15              
000000517107125        AMR-EPINEPHRINE 1:1000 PF 1ML 00120 061.20              
000000517571025        AMR-FUROSEMIDE 10MG 10ML 25   00120 020.40              
000000517570225        AMR-FUROSEMIDE 10MG SDV 2ML 2500240 009.70              
000000517570425        AMR-FUROSEMIDE 10MG SDV 4ML 2500004 010.00              
000000517462025        AMR-GLYCOPROL .2MG 20ML MDV 2500120 064.25              
000000517460225        AMR-GLYCOPROL .2MG 2ML SDV 25 00120 018.35              
000000517460525        AMR-GLYCOPROL .2MG 5ML MDV 25 00120 032.65              
000000517460125        AMR-GLYCOPYRROLATE .2MG/ML 1ML00120 014.50              
000000517560225        AMR-HYDROX HCL 25S            00120 015.00              
000000517561025        AMR-HYDROXY HCL 50MG/ML 10ML  00120 035.70              
000000517420125        AMR-HYDROXYZINE HCL 25MG  25  00120 009.75              
000000517560125        AMR-HYDROXYZINE HCL 50MG 25   00120 011.25              
000000517206405        AMR-L CYSTEINE USP 50MG/ML 10L00120 034.40              
000000517062525        AMR-LIDOCAINE HCL 1% MDV 25   00120 019.65              
000000517641025        AMR-MAG SULF .1MG/ML 10ML     00120 029.60              
000000517261025        AMR-MAG SULF 50% 10ML SDV 25  00120 014.30              
000000517029172        AMR-MAG SULF 50% 2ML A 100    00120 049.35              
000000517260225        AMR-MAG SULF 50% 2ML SDV 25   00120 009.70              
000000517265025        AMR-MAG SULF 50% 50ML SDV 25  00120 041.00              
000000517405025        AMR-MANNITOL 25% 50ML 25'S    00120 031.65              
000000517890501        AMR-METHLDOPATE HCL 250MG 5ML 00120 003.15              
000000517028025        AMR-MULTI TRACE 4 2ML 25S     00120 051.00              
000000517900125        AMR-MULTI TRACE ELEM-5 CONC 1M00120 050.00              
000000517901025        AMR-MULTI TRACE ELEM-5 REG 10M00120 055.10              
000000517701025        AMR-MULTI TRACE-4 CONC SDV 25 00120 076.50              
000000517801025        AMR-MULTI TRACE-4 PED SDV 25  00120 055.10              
000000517601025        AMR-MULTI TRC ELEM-4 REG 10ML 00120 055.10              
000000517820125        AMR-MULTITRACE -5 1ML 25S     00120 081.60              
000000517741025        AMR-MULTITRACE-4 10ML 25S     00120 066.30              
000000517721025        AMR-MULTITRACE-4 CONC 10ML 25S00120 153.00              
000000517851025        AMR-MULTITRACE-5 10ML 25S     00120 066.30              
000000517821025        AMR-MULTITRACE-5 CONC 10ML 25S00120 096.90              
000000517660464        AMR-NEOSTIGMINE 1:1000 10S    00120 030.60              
000000517003410        AMR-NEOSTIGMINE 1:2000 10S    00120 030.60              
000000517480510        AMR-NITROGLYC 25MG 5ML SDV 10 00120 036.00              
000000517481010        AMR-NITROGLYC 50MG 10ML SDV 1000120 058.15              
000000517310025        AMR-NUTRILITE 100ML 25S       00120 306.00              
000000517200025        AMR-NUTRILITE 11 100ML 25S    00120 224.50              
000000517312025        AMR-NUTRILYTE 20ML SDV 25     00120 051.00              
000000517202025        AMR-NUTRILYTE II 20ML SDV 25  00120 044.00              
000000517502425        AMR-POT ACET 200MEQ SDV 25    00120 074.00              
000000517205325        AMR-POT ACET 40MEQ 20ML SDV 2500120 024.50              
000000517211025        AMR-POT CHL 20MEQ 10ML MDV 25 00120 009.95              
000000517212025        AMR-POT CHL 40MEQ 10ML SDV 25 00120 011.25              
000000517222025        AMR-POT CHL 40MEQ 20ML SDV 25 00120 013.80              
000000517213025        AMR-POT CHL 60MEQ 30ML MDV 25 00120 019.00              
000000517235025        AMR-POT PHOS 150MM 50ML SDV 2500120 051.00              
000000517230525        AMR-POT PHOS 15MM 5ML SDV 25  00120 015.30              
000000517231525        AMR-POT PHOS 45MM 15ML SDV 25 00120 015.30              
000000517651025        AMR-SELENIUM 400MCG SDV 25    00120 032.65              
000000517502325        AMR-SOD ACET 200MEQ SDV 25    00120 076.50              
000000517209625        AMR-SOD ACET 40MEQ SDV 25     00120 020.40              
000000517063925        AMR-SOD BIC 7.5% 50ML SDV 25  00120 028.40              
000000517155025        AMR-SOD BIC.8.4% 50ML TR 25S  00300 032.65              
000000517290025        AMR-SOD CHL CONC 23.4% VIAL 2500120 059.00              
000000517281025        AMR-SOD CHLOR .9% 10ML 25S    00480 010.70              
000000517280225        AMR-SOD CHLOR .9% 2ML 25S     00120 014.30              
000000517064825        AMR-SOD CHLOR .9% 30ML 25s    00120 018.40              
000000517293025        AMR-SOD CHLOR CONC 23.4% 30ML 00120 018.00              
000000517345025        AMR-SOD PHOS 150MM 50ML SDV 2500120 063.25              
000000517340525        AMR-SOD PHOS 15MM 5ML SDV 25  00120 016.20              
000000517341525        AMR-SOD PHOS 45MM 25ML SDV 25 00120 022.50              
000000517301025        AMR-STERILE WATER 10ML SDV    00120 012.85              
000000517302025        AMR-STERILE WATER 20ML SDV    00120 012.40              
000000517305025        AMR-STERILE WATER 50 ML SDV   00120 020.00              
000000517300525        AMR-STERILE WATER 5ML SDV     00120 009.50              
000000517051025        AMR-VASOPRESSIN 10U/.5ML 25S  00120 053.10              
000000517102025        AMR-VASOPRESSIN 20U/1ML 25S   00120 081.60              
000000517540205        AMR-VERAPAMIL 5MG 2ML 5'S     00120 004.75              
000000517050172        AMR-VERAPAMIL HCL 2ML A 5     00120 006.65              
000000517540405        AMR-VERPAMIL 10MG 4ML 5'S     00120 004.35              
000000517611025        AMR-ZINC SULFATE 1MH 10ML 25'S00120 020.40              
000000053749005        ARM- GAMMAR IV 5GM            00424 190.00              
000000053749010        ARM-GAMMAR IV 10GM            00102 390.00              
000000053759002        ARM-GAMULIN RH SYR 6S         00600 210.00              
000000053759006        ARM-GAMULIN VIAL 300MCG 10S   00600 300.00              
000000053759003        ARM-GAMULIN VIAL 300MCG 25S   00600 600.00              
000000186149001        AST-ALBUTEROL .083% 20ML      06018 007.75              
000000186032001        AST-XYLOCAINE TOP SOL 4% 50ML 01073 010.56              
000000186036001        AST-XYLOCAINE VIS 100ML       00432 010.90              
000000192064971        BAY-GAMIMUNE N 10% 100ML      00240 320.00              
000000192064920        BAY-GAMIMUNE N 10% 50ML       00240 161.25              
000000193230021        BAY-MULTISTIX 10 STP 100s     00234 042.53              
000001650002415        BAY-MYCELEX 1% 15GM           00400 005.10              
000001650135105        BAY-NEO SYNEPH DRP REG 15ML   00082 002.61              
000008290005176        BD-NEEDLE 20X1 1/2G           00100 005.55              
000008290005165        BD-NEEDLE 21X1                00100 005.55              
000008290005156        BD-NEEDLE 22X1 1/2            00100 005.55              
000008290005145        BD-NEEDLE 23X1                00002 004.50              
000008290005127        BD-NEEDLE 25X1 1/2            00100 005.55              
000008290005122        BD-NEEDLE 25X5 1/8G           00100 005.55              
000008290005110        BD-NEEDLE 26X3/8              00100 005.55              
000008290005175        BD-NEEDLE(5175)               00100 005.55              
000008290005196        BD-NEEDLE(5196)               00100 005.55              
000008290009575        BD-SYR(9575)8X100             00240 009.50              
000008290009661        BD-SYR(9661)4X40              00240 011.50              
000008290009662        BD-SYR(9662)4X30              00240 012.50              
000008290009663        BD-SYR(9663)4X30              00240 017.75              
000008290009604        BD-SYRINGE #9604              00240 014.55              
000008290009664        BD-SYRINGE #9664              00240 017.75              
000008290009602        BD-SYRINGE 1ML                00240 009.50              
000008290009626        BD-SYRINGE 1ML 25X5 5/8       00240 013.00              
000008290009570        BD-SYRINGE 25X5 8/10          00240 009.50              
000008290009585        BD-SYRINGE 3ML                00240 007.30              
000008290009578        BD-SYRINGE 3ML 20X1           00240 010.20              
000008290009577        BD-SYRINGE 3ML 21X1 1/2       00480 009.50              
000008290009572        BD-SYRINGE 3ML 22X1           00480 009.50              
000008290009571        BD-SYRINGE 3ML 25X1           00480 009.50              
000008290009574        BD-SYRINGE 3ML 25X1 1/2       00480 009.50              
000008290009603        BD-SYRINGE 5ML 100            00480 011.00              
000008290009633        BD-SYRINGE 5ML 21X1 1/2       00480 017.75              
000008290009579        BD-SYRINGE 9579               00480 008.85              
000008290009623        BD-SYRINGE 9623               00480 012.00              
000008290009625        BD-SYRINGE 9625               00480 012.00              
000000332220509        BIO-AMILORIDE HCL 5/50 100'S  00100 006.00              
000000322220515        BIO-AMILORIDE HCL 5/50 1000'S 00100 050.00              
000000332226809        BIO-AMOXICIL CHEW 250MG 100s  00100 016.95              
000000332415032        BIO-AMOXICILLI 125MG SUS 100ML00100 000.92              
000000332415034        BIO-AMOXICILLI 125MG SUS 150ML00100 001.16              
000000332415030        BIO-AMOXICILLI 125MG SUS 80ML 00100 000.85              
000000332415532        BIO-AMOXICILLI 250MG SUS 100ML00100 001.55              
000000332415534        BIO-AMOXICILLI 250MG SUS 150ML00100 001.75              
000000332310709        BIO-AMOXICILLIN CP 250MG 100s 00100 005.05              
000000332310713        BIO-AMOXICILLIN CP 250MG 500s 00100 020.00              
000000332310907        BIO-AMOXICILLIN CP 500MG 50s  00100 005.05              
000000322311109        BIO-AMPICILLIN 250MG 100'S    00100 004.20              
000000332311309        BIO-AMPICILLIN CP 500MG 100s  00100 008.75              
000000332223409        BIO-BACLOFEN TB 10MG 100s     00100 009.25              
000000332223609        BIO-BACLOFEN TB 20MG 100s     00100 016.50              
000000332417532        BIO-CEPHALEXIN 125MG SUS 100ML00100 001.85              
000000332314509        BIO-CEPHALEXIN 250MG CP 100s  00100 007.20              
000000332314513        BIO-CEPHALEXIN 250MG CP 500s  00100 029.00              
000000332417732        BIO-CEPHALEXIN 250MG SUS 100ML00100 002.45              
000000332417736        BIO-CEPHALEXIN 250MG SUS 200ML00100 004.10              
000000332314713        BIO-CEPHALEXIN 500MG CP 500s  00100 062.00              
000000332416532        BIO-CEPHRADRINE 125MG SUS 100s00100 003.75              
000000332315509        BIO-CEPHRADRINE CP 500MG 100s 00100 038.50              
000000332317109        BIO-CLINDAMYCIN 150MG CP 100s 00100 042.00              
000000332311909        BIO-CLOXACIL SOD CP 250MG 100s00100 012.00              
000000332312109        BIO-CLOXACIL SOD CP 500MG 100s00100 023.20              
000000332312309        BIO-DICLOXACIL SOD 250MG 100s 00100 013.75              
000000332312509        BIO-DICLOXACIL SOD 500MG 100s 00100 027.00              
000000332211109        BIO-IMIPRAMINE HCL TB 10MG 10000100 001.30              
000000332211309        BIO-IMIPRAMINE HCL TB 25MG 10000100 001.55              
000000332211709        BIO-IMIPRAMINE HCL TB 50MG 10000100 002.15              
000000332319109        BIO-KETOPROFEN 25MG CP 100s   00100 030.00              
000000332319309        BIO-KETOPROFEN 50MG CP 100s   00100 031.00              
000000332319509        BIO-KETOPROFEN 75MG CP 100s   00100 028.00              
000000332319513        BIO-KETOPROFEN 75MG CP 500s   00100 145.00              
000000332220409        BIO-METOCLOP 5MG TB 100s      00100 011.80              
000000332220315        BIO-METOCLOP HCL TB 10MG 1000s00100 009.00              
000000332220309        BIO-METOCLOP HCL TB 10MG 100s 00100 001.75              
000000332220313        BIO-METOCLOP HCL TB 10MG 500s 00100 005.80              
000000332610538        BIO-METOCLOP HL 1MG/ML SY 480 00100 006.55              
000000332316707        BIO-MINOCYCLINE 100MG 50'S    00100 035.00              
000000332117709        BIO-NEOMYCIN SUL TB 500MG 100s00100 009.60              
000000332610938        BIO-NYSTATIN OR 100MU SU 480ML00100 014.25              
000000332311509        BIO-OXACILL SOD CP 250MG 100s 00100 013.75              
000000332311709        BIO-OXACILL SOD CP 500MG 100s 00100 026.00              
000000332117215        BIO-PENACIL VK OVL 250MG 1000s00100 024.00              
000000332117209        BIO-PENACIL VK OVL 250MG 100s 00100 002.60              
000000332117415        BIO-PENACIL VK OVL 500MG 1000s00100 045.00              
000000332117409        BIO-PENACIL VK OVL 500MG 100s 00100 005.10              
000000332117115        BIO-PENACIL VK RND 250MG 1000s00100 024.25              
000000332117109        BIO-PENACIL VK RND 250MG 100s 00100 003.00              
000000332117315        BIO-PENACIL VK RND 500MG 1000s00100 046.00              
000000332412532        BIO-PENACILL VK 125MG SU 100ML00100 000.95              
000000332412536        BIO-PENACILL VK 125MG SU 200ML00100 001.45              
000000332412732        BIO-PENACILL VK 250MG SU 100ML00100 001.20              
000000332412736        BIO-PENACILL VK 250MG SU 200ML00100 002.05              
000000332610038        BIO-SULFAMETH TMP SUS 480ML   00100 004.25              
000000032213213        BIO-SULFAMETH/TMP DS TB 500s  00100 026.00              
000000332215909        BIO-TRIMETHOPRI TB 200MG 100s 00100 019.50              
000000332215809        BIO-TRIMETHOPRIN TB 100MG 100s00000 009.70              
000005073290101        BKN-VERAPAMIL 240MG TAB 100S  05000 042.00              
000005073091501        BKN-VERAPAMIL SR 180MG 100s   00432 048.00              
000000303002013        BL-DUOLUBE LIQ 3.5GM          00144 005.30              
000002420827715        BL-MURO 128 5% 15ML           00096 007.85              
000000303827730        BL-MURO 128 SOL 5% 30ML       00084 009.50              
000001915302320        BR-AMIKIN VL 1GM 10X4ML       03600 033.00              
000000015302020        BR-AMIKIN VL 500MG 10X2ML     03600 018.50              
000000015710028        BR-AMPICILLIN 10GM BULK VL 10s01440 102.35              
000000015740436        BR-AMPICILLIN 1GM PB 100ML 10s01440 014.55              
000000015740420        BR-AMPICILLIN 1GM VL 10s      01440 009.05              
000000015740220        BR-AMPICILLIN 250MG VL 10s    01440 006.00              
000000015740518        BR-AMPICILLIN 2GM ADDV 10s    01440 023.44              
000000015740528        BR-AMPICILLIN 2GM PB 100ML 10s01440 023.85              
000000015740520        BR-AMPICILLIN 2GM VL 10s      01440 018.26              
000000015740331        BR-AMPICILLIN 500MG PB 100ML  01440 014.00              
000000015740320        BR-AMPICILLIN 500MG VL 10s    01440 006.20              
000000015740118        BR-AMPICILLIN INJ 125MG 10s   01440 009.70              
000000015740418        BR-AMPICILLIN INJ ADDV 10s    01440 015.00              
000000015050041        BR-CYTOXAN 100MG 12'S         00100 037.00              
000000015050541        BR-CYTOXAN 1GM 6'S            00100 150.00              
000000015050141        BR-CYTOXAN 200MG 12'S         00100 065.00              
000000015050641        BR-CYTOXAN 2GM 6'S            00100 275.00              
000000015050241        BR-CYTOXAN 500MG 12'S         00100 165.00              
000000015053941        BR-CYTOXAN LYOPH 100MG 12'S   00500 042.50              
000000015054841        BR-CYTOXAN LYOPH 1GR 6'S      00500 165.00              
000000015054641        BR-CYTOXAN LYOPH 200MG 12'S   00500 080.00              
000000015054941        BR-CYTOXAN LYOPH 2GR 6'S      00500 330.00              
000000015054741        BR-CYTOXAN LYOPH 500MG 12'S   00500 180.00              
000000015605811        BR-DICLOXACILLIN 500MG 100s   00300 023.00              
000000003585002        BR-DILTIAZEM 120MG TB 100s    00300 019.00              
000000003525004        BR-DILTIAZEM 30MG 1000s       00300 050.00              
000000003525003        BR-DILTIAZEM 30MG 500s        00300 028.50              
000000003525002        BR-DILTIAZEM 30MG TB 100s     00300 006.00              
000000003555004        BR-DILTIAZEM 60MG 1000s       00300 085.00              
000000003555002        BR-DILTIAZEM 60MG TB 100s     00300 009.30              
000000003555003        BR-DILTIAZEM 60MG TB 500s     00300 045.00              
000000003577002        BR-DILTIAZEM 90MG TB 100s     00300 014.00              
000000003577003        BR-DILTIAZEM 90MG TB 500s     00300 060.00              
000000003043730        BR-FUNGIZONE IV VL 50MG       04800 012.50              
000000087076043        BR-K-LYTE 25MEQ LIME 100S     00600 055.00              
000000087076001        BR-K-LYTE 25MEQ LIME 30S      00600 017.50              
000000087076143        BR-K-LYTE 25MEQ OR. 100S      00600 055.00              
000000087076101        BR-K-LYTE 25MEQ OR. 30S       00600 017.50              
000000087076643        BR-K-LYTE CL CITRUS 100S      00600 055.00              
000000087076641        BR-K-LYTE CL CITRUS 30'S      00600 017.50              
000000087076743        BR-K-LYTE CL FRUIT 100S       00600 055.00              
000000087076741        BR-K-LYTE CL FRUIT 30'S       00600 017.50              
000000087077242        BR-K-LYTE DS LIME 100S        00600 090.00              
000000087077241        BR-K-LYTE DS LIME 30S         00600 032.50              
000000087077142        BR-K-LYTE DS OR. 100S         00600 090.00              
000000087077141        BR-K-LYTE DS OR. 30S          00600 032.50              
000000087077041        BR-KLOTRIX 10MEQ 100'S        00108 015.99              
000000087077042        BR-KLOTRIX TAB 10MEQ 1000s    00130 165.00              
000000015059501        BR-MEGASE 20MG. 100S          00600 051.50              
000000015059641        BR-MEGASE 40MG. 100S          00600 096.00              
000000015059646        BR-MEGASE 40MG. 250S          00600 240.00              
000000015059645        BR-MEGASE 40MG. 500S          00600 459.00              
000000087057201        BR-MUCOMYST 10% 10ML 3'S      00500 030.00              
000000087057202        BR-MUCOMYST 10% 30ML 3'S      00500 079.00              
000000087057206        BR-MUCOMYST 10% 4ML 12'S      00500 050.00              
000000087057002        BR-MUCOMYST 20% 10ML 3'S      00500 036.00              
000000087057026        BR-MUCOMYST 20% 30ML 3'S      00500 095.00              
000000087057008        BR-MUCOMYST 20% 4ML 12'S      00500 059.00              
000000003246203        BR-NADOLOL 40MG 1000S         00300 500.00              
000000003246201        BR-NADOLOL 40MG 100S          00300 051.00              
000000003246303        BR-NADOLOL 80MG 1000S         00072 725.00              
000000003246301        BR-NADOLOL 80MG 100S          00300 077.00              
000000003246101        BR-NADOLOL TABS 20MG 100s     00300 047.00              
000000015710128        BR-NAFCIL 10GM BULK VL 10s    01440 200.00              
000000015722589        BR-NAFCIL 1GM ADDVANT 10'S    01440 023.45              
000000015719528        BR-NAFCIL 1GM PB 100ML 10s    01440 023.62              
000000015722599        BR-NAFCIL 1GR 10'S            01440 020.25              
000000015722687        BR-NAFCIL 2GM ADDVANT 10'S    01440 034.84              
000000015719628        BR-NAFCIL 2GM PB 100ML 10s    01440 035.00              
000000015722699        BR-NAFCIL 2GR 10'S            01440 035.00              
000000015722420        BR-NAFCIL 500MG VL 10s        01440 011.35              
000000015560060        BR-NALDECON TAB 100s          00240 077.00              
000000015710328        BR-OXACILLIN 10GM BULK VL 10s 00300 180.00              
000000015798118        BR-OXACILLIN 1GM ADD A VL 10s 00300 016.00              
000000015797020        BR-OXACILLIN 2GM VL 10s       00300 030.00              
000000015797920        BR-OXACILLIN 500MG VL 10s     00300 013.95              
000000015073531        BR-PENICILLIN G POT 20mm 10s  00300 056.35              
000000003080110        BR-PROLIXIN 5MG/ML SUS 4oz    00024 072.35              
000000015272530        BR-TOBRAMYCIN 40MG/ML 30ML    01440 042.00              
000000015272510        BR-TOBRAMYCIN 80 25X2CC       00300 100.00              
000000015309520        BR-VEPESID 100MG.             00500 098.00              
000000015308420        BR-VEPESID 150MG              00500 152.00              
000000015306220        BR-VEPESID 1GM.               00100 950.00              
000000015306120        BR-VEPESID 500MG.             00300 488.00              
000000555048527        BRR-LEUCOV CAL TB 25MG 25s    00360 237.04              
000000555048402        BRR-LEUCOVORIN CAL 5MG 100s   00360 127.25              
000000555057202        BRR-METHOTREX TB 2.5MG 100s   00360 115.00              
000000555057235        BRR-METHOTREX TB 2.5MG 36s    00360 058.00              
000000555057247        BRR-METHOTREXATE 10MG (4X4)   00360 030.71              
000000555057248        BRR-METHOTREXATE 12.5MG (4X5) 00360 040.86              
000000555057249        BRR-METHOTREXATE 15MG (4X6)   00360 048.70              
000000555057245        BRR-METHOTREXATE 5MG (4X2)    00360 016.44              
000000555057246        BRR-METHOTREXATE 7.5MG (4X3)  00360 024.25              
000000524040510        BTS-ALLOPURINOL 100MG TB 1000s00288 019.00              
000000524040501        BTS-ALLOPURINOL 100MG TB 100s 00288 002.50              
000000524041010        BTS-ALLOPURINOL 300MG TB 1000s00288 046.50              
000000524041001        BTS-ALLOPURINOL 300MG TB 100s 00288 005.50              
000000524041005        BTS-ALLOPURINOL 300MG TB 500s 00288 024.50              
000000524020705        BTS-E-MYCIN 250MG 500         00072 038.00              
000000524020801        BTS-E-MYCIN 333MG 100'S       00141 023.25              
000000524020805        BTS-E-MYCIN 333MG 500'S       00197 096.00              
000000524016501        BTS-IBUPROFEN 400MG TB 100s   00288 002.40              
000000524016505        BTS-IBUPROFEN 400MG TB 500s   00288 010.00              
000000524016205        BTS-IBUPROFEN 600MG 500s      00288 014.00              
000000524016201        BTS-IBUPROFEN 600MG TB 100s   00288 003.00              
000000524000406        BTS-IBUPROFEN 800MG 500s      00864 020.75              
000000524017301        BTS-IBUPROFEN 800MG TB 100s   00288 004.80              
000000048009001        BTS-RU-TUSS DE TABS 100s      00007 048.25              
000000048050071        BTS-SSD RP CREAM 50GM         00018 001.00              
000000081063225        BW-WELLCOVORIN 25MG 25'S      00050 300.00              
000000081063155        BW-WELLCOVORIN 5MG 100'S      00300 190.00              
000000081063893        BW-WELLCOVORIN VL. 100MG.     00100 006.00              
000000102232011        CETY-CETACAINE SP 56GM.       02400 021.98              
000005390521203        CHR-ACETYLCTSTEIN 10% 3X30ML  00240 070.62              
000005390521103        CHR-ACETYLCYSTEIN 10% 3X10ML  00240 025.66              
000005390521303        CHR-ACETYLCYSTEIN 20% 3X10ML  00240 031.07              
000005390521403        CHR-ACETYLCYSTEIN 20% 3X30ML  00240 083.07              
000005390513110        CHR-CYTARABINE 100MG VL 10s   00200 046.00              
000005390513210        CHR-CYTARABINE 500MG LYOPH    00288 110.00              
000005390513301        CHR-CYTARABINE LYOPH 1GM      01200 071.40              
000005390513401        CHR-CYTARABINE LYOPH 2GM      01200 136.00              
000005390523110        CHR-DOXORUB LYOP 10MG 10'S    00240 165.00              
000005390523301        CHR-DOXORUB LYOP 50MG         00240 090.00              
000005390523510        CHR-DOXORUB SOL 10MG 5ML 10'S 00240 190.00              
000005390523801        CHR-DOXORUB SOL 200MG 100ML   00072 643.00              
000005390523610        CHR-DOXORUB SOL 20MG 10ML 6'S 00240 250.00              
000005390523701        CHR-DOXORUB SOL 50MG 25ML EA  00240 085.00              
000005390523606        CHR-DOXORUBICIN 20MG 6S       00240 260.00              
000005390029101        CHR-ETOPOSIDE 100MG           00240 045.00              
000005390505210        CHR-LEUCOVORIN 100MG 10       00240 046.00              
000005390505110        CHR-LEUCOVORIN 50MG 10'S      00240 025.00              
000005390503410        CHR-METHOTREX 25MG/ML 10X10ML 00240 060.00              
000005390503110        CHR-METHOTREX 25MG/ML 10X2ML  00240 030.00              
000005390503210        CHR-METHOTREX 25MG/ML 10X4ML  00240 045.00              
000005390503310        CHR-METHOTREX 25MG/ML 10X8ML  00240 050.00              
000005390525201        CHR-MITOMYCIN 20MG VL         00240 270.40              
000005390521303        CHR-MITOMYCIN 5MG VL          00240 081.70              
000005390509110        CHR-VINBLASTINE 10MG 10'S     00240 095.00              
000000083003930        CIB-APRESOLINE 25 MG 100      00048 023.30              
000000083007330        CIB-APRESOLINE 50MG 100       00024 034.35              
000000058288415        CIB-VASOCON REG 15ML          00455 011.00              
000000338049002        CLI-INTRALIPID 10% 250ML 10'S 00500 099.00              
000000338049003        CLI-INTRALIPIDS 10% 500ML 10  00500 115.00              
000000338049102        CLI-INTRALIPIDS 20% 250ML 10'S00500 113.00              
000000338049103        CLI-INTRALIPIDS 20% 500ML 10'S00500 190.00              
000001179752201        CNN-TUBERSOL 5TU 10 TST VL 1ML00394 007.00              
000001179752202        CNN-TUBERSOL 5TU TST VL 5ML   01200 015.50              
000000066043130        DER-BENZAGEL 10 GEL 10% 90gm  00072 014.00              
000000066043115        DER-BENZAGEL 10% GEL 1.5 OZ   00012 011.60              
000000066043015        DER-BENZAGEL 5 42.5GM         00012 011.00              
000000066043030        DER-BENZAGEL 5% GEL 3 OZ      00028 014.50              
000000066009802        DER-HYTONE 2.5% LOT 2oz       00012 019.32              
000000066008301        DER-HYTONE CRM 1% 1 OZ        00240 006.45              
000000066009501        DER-HYTONE CRM 2.5% 1 OZ      00300 013.00              
000000066009502        DER-HYTONE CRM 2.5% 2 OZ      00360 020.87              
000000066009004        DER-HYTONE LOTION 1% 4 OZ     00090 017.00              
000000066008701        DER-HYTONE OINT 1% 1 OZ       00132 007.75              
000000066008501        DER-HYTONE OINT 2.5% 1 OZ     00072 014.25              
000004950069703        DEY-ALBUTEROL .083% 30X3ML    00288 016.50              
000004950069703        DEY-ALBUTEROL .83MG 3ML 25s   02400 012.00              
000004950069760        DEY-ALBUTEROL .83MG 3ML 60s   00360 024.00              
000004950068912        DEY-CROMOLYN INH 20MG 2MML/12000720 058.00              
000004950266103        DEY-ISOETHARINE .08% 100X3ML  00240 026.00              
000004950266003        DEY-ISOETHARINE .17% 100X3ML  00240 025.50              
000004950065902        DEY-ISOETHARINE .25% 100X2ML  00240 025.50              
000004950267603        DEY-MET SUL(676-03)           00564 009.75              
000004950218104        DEY-MUCOSIL(0181-04)          00240 024.00              
000004950218110        DEY-MUCOSIL(0181-10)          00240 014.25              
000004950218130        DEY-MUCOSIL(0181-30)          00240 028.00              
000004950218204        DEY-MUCOSIL(0182-04)          00240 024.00              
000001950218210        DEY-MUCOSIL(0182-10)          00240 015.00              
000004950218230        DEY-MUCOSIL(0182-30)          00240 027.00              
000004950082003        DEY-SOD CHLOR .45% 3ml 100s   00600 011.00              
000004950082005        DEY-SOD CHLOR .45% 5ML 100s   00600 011.00              
000004950064015        DEY-SOD CHLOR 3% VL 15ML 50s  00600 038.00              
000004950264115        DEY-SODIUM CHL .10% 15ML 50   00600 038.00              
000004950203010        DEY-SODIUM CHL .9% 10ML 125   00600 033.00              
000004950083003        DEY-SODIUM CHL .9% 3ML 100    06000 010.90              
000004950203003        DEY-SODIUM CHL .9% 3ML 250    00600 033.00              
000004950083005        DEY-SODIUM CHL .9% 5ML 100    06000 011.00              
000004950203005        DEY-SODIUM CHL .9% 5ML 250    00600 033.00              
000004950081003        DEY-WATER INH AMP 3ML 100s    00600 011.50              
000000514000102        DOW-GRANULEX SP. 4OZ.         00108 013.00              
000000056016970        DUP-COUMADIN 1MG 100S         00000 042.25              
000000056017670        DUP-COUMADIN 2.5MG 100S       00000 045.45              
000000056016870        DUP-COUMADIN 4MG 100S         00000 045.80              
000000056071270        DUP-COUMADIN 5MG 100S         00000 046.15              
000000056036505        DUP-NARCAN .4MG 10ML EA       00235 028.00              
000000590035810        DUP-NARCAN .4MG 1ML 10'S      00017 024.75              
000000590039810        DUP-NUBAIN 20MG/ML 10'S       00020 022.75              
000000590039901        DUP-NUBAIN 20MG/ML 10ML EA    00201 026.50              
000000590039510        DUP-NUBAIN AMP 20MG 10'S      00010 015.00              
000000590038601        DUP-NUBAIN VIAL 10MG          00048 017.35              
000000056065068        DUP-SINEMET 25/100MG 100S     00240 052.25              
000005128536402        DUR-DURADRIN CAPS 100s        00120 009.60              
000005128530102        DUR-METHYLPRED 4MG TB 100s    00288 029.35              
000005147901103        DURA-TORNALATE 2% 30ML        01572 010.95              
000005147901201        DURA-TORNALATE COM.INH 15ML   00360 026.75              
000006095163270        END-CIMETIDINE TAB 400MG 100s 00600 046.00              
000006095163170        END-CIMETIDINE TB 300MG 100s  00600 030.00              
000000456074513        FOR-AEROCHAMBER MIS W/MASK    00228 025.75              
000000456103712        FOR-ANTILIRIUM 2ML 12s        00100 070.00              
000000456070701        FOR-CEBO CAP BL.              00012 017.00              
000000456070801        FOR-CEBO CAP GR.              00039 017.00              
000000456070901        FOR-CEBO CAP OR.              00179 018.75              
000000456064416        FOR-ELIXOPHYLLIN ELIX 16OZ    01000 021.00              
000000456001201        FOR-ESGIC CAP 100'S           00019 038.00              
000000456066271        FOR-KAY CIEL PWD PKT 100'S    00009 050.00              
000000456032401        FOR-LEVOTHROID .125MG 100     00265 017.00              
000000456032501        FOR-LEVOTHROID .15MG 100      00150 016.00              
000000456032601        FOR-LEVOTHROID .175MG 100     00906 020.00              
000000456032101        FOR-LEVOTHROID .5MG 100'S     00192 012.15              
000000456032201        FOR-LEVOTHROID .75MG 100      01073 013.75              
000000456046201        FOR-THYROID 180MG 100         01890 020.00              
000000168003631        FOU-ANALGES OIN 30GM          00240 000.65              
000000168017215        FOU-ATROPINE 1% EYE DR 15ML   00240 001.53              
000000168006538        FOU-ATROPINE SULF             00288 001.35              
000000168001135        FOU-BACITRAC 500U/GM OIN 15GM 00240 000.62              
000000168001131        FOU-BACITRAC 500U/GM OIN 30GM 00240 000.88              
000000168002135        FOU-BACITRAC/POLY OIN 15GM    00240 001.08              
000000168002638        FOU-BACITRACIN 3.5GM          00288 001.35              
000000168001209        FOU-BACITRACIN NEO 144X1      00288 007.02              
000000168001109        FOU-BACITRACIN OINT 144X1/32oz00288 006.00              
000000168002131        FOU-BACITRACIN ZINC POLY SULF 00288 001.65              
000000168005515        FOU-BETAMETH DIP CRM .05% 15  00288 002.40              
000000168005546        FOU-BETAMETH DIP CRM .05% 45  00576 004.00              
000000168005760        FOU-BETAMETH DIP LOT .05% 60  00288 005.10              
000000168005615        FOU-BETAMETH DIP OINT .05% 15 00288 002.40              
000000168005646        FOU-BETAMETH DIP OINT .05% 45 00288 004.10              
000000168004015        FOU-BETAMETH VAL CRM .1% 15   00288 001.20              
000000168004046        FOU-BETAMETH VAL CRM .1% 45   00288 002.50              
000000168004160        FOU-BETAMETH VAL LOT 60GM     00288 003.75              
000000168003315        FOU-BETAMETH VAL OINT .1% 15  00288 001.20              
000000168003346        FOU-BETAMETH VAL OINT .1% 45  00282 002.37              
000000168004516        FOU-COLD CREAM 454GM          00240 007.75              
000000168004631        FOU-DIBUCAINE 1% OINT 30GM    00240 001.08              
000000168009031        FOU-EFODINE 10% OINT 30GM     00240 000.90              
000000168009016        FOU-EFODINE 10% OINT 454GM    00240 007.25              
000000168009009        FOU-EFODINE OINT FOIL 144X1/3200288 007.00              
000000168007038        FOU-ERTHYOMYCIN OPT OINT 48   00864 002.60              
000000168005815        FOU-FLUOCIN .01% CR 15GM      00240 001.10              
000000168005860        FOU-FLUOCIN .01% CR 60GM      00240 002.25              
000000168006460        FOU-FLUOCIN ACET .025%        00288 002.80              
000000168006015        FOU-FLUOCIN ACET 15GM .025%   00288 001.30              
000000168006415        FOU-FLUOCIN ACET OINT .025%   00144 001.20              
000000168005960        FOU-FLUOCIN ACET SOL .01%60ML 00288 003.30              
000000168006060        FOU-FLUOCINOLONE ACET CRM 60  00288 002.80              
000000168007115        FOU-GENTAMICIN CRM .1% 15     00288 001.55              
000000168007815        FOU-GENTAMICIN OINT .1% 15    00576 001.43              
000000168001431        FOU-HYDROCORT .5% CR 30GM     00240 000.85              
000000168015431        FOU-HYDROCORT 1% CR 30GM      00240 001.15              
000000168008031        FOU-HYDROCORT CR 2.5% 30GM    00432 002.60              
000000168001531        FOU-HYDROCORT CRM 1% 1OZ      00288 001.12              
000000168002031        FOU-HYDROCORT OINT 1%         00288 001.12              
000000168001631        FOU-HYDROCORT. OINT .5% 1OZ   00288 000.85              
000000168014231        FOU-MICONAZOLE 2% CR 30GM     00240 001.40              
000000168022138        FOU-NEO/POLY/DEX OIN 3.5GM    00240 002.42              
000000168003830        FOU-NITROGLY 2% OINT 30GM     00288 002.50              
000000168003860        FOU-NITROGLYCERINE OINT 60GM  00288 004.25              
000000168005415        FOU-NYSTATIN CR 15GM          00432 000.92              
000000168005430        FOU-NYSTATIN CRM 30GM         00282 001.50              
000000168000715        FOU-NYSTATIN OINT 15GM        00288 000.95              
000000168003760        FOU-NYSTATIN ORAL 60ML        00288 002.70              
000000168008115        FOU-NYSTATIN TRIAM ACET CRM 1500282 000.96              
000000168008130        FOU-NYSTATIN TRIAM ACET CRM 3000288 001.85              
000000168008160        FOU-NYSTATIN TRIAM ACET CRM 6000144 003.54              
000000168008915        FOU-NYSTATIN TRIAM ACET ONT 1500288 001.15              
000000168008930        FOU-NYSTATIN TRIAM ACET ONT 3000288 002.15              
000000168008960        FOU-NYSTATIN/TRI OIN 60GM     00240 004.00              
000000168005345        FOU-PETROLATUM WHT 144X5GM    00288 006.50              
000000168017315        FOU-PILO HYDRO 1% 15ML        00288 002.30              
000000168017415        FOU-PILO HYDRO 2% 15ML        00288 003.10              
000000168017515        FOU-PILO HYDRO 4% 15ML        00288 003.85              
000000168015038        FOU-PURALUBE EYE OIN 3.5GM    00240 001.60              
000000168007938        FOU-SULFACET 10% EYE OIN 3.5GM00240 001.35              
000000168007938        FOU-SULFSCETMIDE SOP 10% 3.5GM00288 001.35              
000000168020543        FOU-SURGILUBE FOIL PK 3GM R   00288 005.25              
000000168000815        FOU-TOLNAFTE 1% CR 15GM       00240 000.97              
000000168000315        FOU-TRIAMCIN .025% CR 15GM    00240 000.66              
000000168000580        FOU-TRIAMCIN .025% OIN 80GM   00240 001.66              
000000168000380        FOU-TRIAMCIN ACET CRM 80GM    00282 001.61              
000000168000680        FOU-TRIAMCIN ACET OINT .1 80GM00288 002.40              
000000168000580        FOU-TRIAMCIN ACET OINT .25 80 00288 001.68              
000000168000415        FOU-TRIAMCIN CRM .1% 15GM     00432 000.80              
000000168000215        FOU-TRIAMCIN CRM .5% 5GM      00432 002.10              
000000168000615        FOU-TRIAMCIN OINT .1% 15GM    00288 000.80              
000000168000416        FOU-TRIAMCINOLONE CRM .1% 16OZ00288 011.36              
000000168000480        FOU-TRIAMIN(0004-80)          00282 002.32              
000000168002738        FOU-TRIPLE ANT EYE OIN 3.5GM  00240 001.45              
000000168001209        FOU-TRIPLE ANT OIN .9GM 144s  00240 007.00              
000000168001235        FOU-TRIPLE ANT OIN 15GM       00240 000.74              
000000168001231        FOU-TRIPLE ANT OIN 30GM       00240 001.03              
000000168003516        FOU-VIT A&D OIN 1lb JAR       00240 003.60              
000000168003504        FOU-VIT A&D OIN 4oz           00240 001.28              
000000093233090        FUJ-AMPHOTER B 50MG           00000 023.75              
000000469510815        FUJ-ARISTOCORT R .1% CR 15GM  00120 006.25              
000000469709215        FUJ-ARISTOCORT REG CRM .1% 15 00288 004.25              
000000469023425        FUJ-ATROPINE .4MG 20ML        00008 024.50              
000000469024625        FUJ-ATROPINE SULF 1MG/SDV 25  00045 014.20              
000000469231125        FUJ-CALCIUM CLUC SDV 10% 50ML 00004 067.00              
000000469705460        FUJ-CYCL CRM. 60GM.           00288 026.00              
000000469740460        FUJ-CYCL LOT 60ML             00012 026.35              
000000469711530        FUJ-CYCL OINT. 30GM.          00036 020.26              
000000469711560        FUJ-CYCL OINT. 60GM.          00030 026.00              
000000469130130        FUJ-DOXY 100MG 5S (1300-30)   00072 048.00              
000000469164040        FUJ-DOXYCYCLINE 200 20CC      00600 019.12              
000000469081330        FUJ-HEPARIN BEEF LUNG 10ML 25 00012 048.45              
000000469215215        FUJ-HEPARIN SOD 10MU 1ML 25   00016 027.30              
000000469146040        FUJ-LYPHOLITE 2 20MG 25S      00036 085.00              
000000469002425        FUJ-MANNITOL SDV 25% 50ML A 2500023 040.50              
000005731721006        FUJ-NEBUPENT(0210-06)         00120 074.00              
000000469383030        FUJ-NEOSTIGMINE 10S           00048 042.00              
000000469382030        FUJ-NEOSTIGMINE 1:2000        00030 040.00              
000005731721103        FUJ-PENTAM(0211-03)           00017 720.00              
000000469018515        FUJ-WATER SDV 10ML 25S        00024 015.00              
000005784491501        GAT-MOBAN 10MG 100S           00360 061.00              
000005784491601        GAT-MOBAN 25MG 100S           00360 090.50              
000005784491701        GAT-MOBAN 50MG 100S           00360 122.00              
000005784491401        GAT-MOBAN 5MG 100S            00360 042.50              
000005784492012        GAT-MOBAN DROP 20MG/ML 4oz    00060 091.30              
000005784418701        GAT-ORAP 2MG TABS 100s        00360 054.75              
000000703903203        GEN-AMIKACIN 250MG 2ML 10S    00120 350.00              
000000703904003        GEN-AMIKACIN 250MG 4ML 10S    00120 725.00              
000000703902203        GEN-AMIKACIN SULF 50MG 2ML 10S00120 250.00              
000000703352401        GEN-DEXAMETH 10MG/ML 10ML EA  00480 003.00              
000000703181503        GEN-DOBUTAMINE SDV 12.5MG 20MS00120 220.00              
000000703564601        GEN-ETOPOSIDE 20MG/ML 25ML    00120 400.00              
000000703564301        GEN-ETOPOSIDE 20MG/ML 5ML     00360 089.00              
000000703532403        GEN-L-CYCSTINE 50MG 10ML 10'S 00120 055.00              
000000703532803        GEN-L-CYSTEINE HCL 50MG 10s   00120 220.00              
000000703540801        GEN-LEVOTHYR SOD 200MG 6ML    00120 007.00              
000000703450204        GEN-METOCLOPRAMINE 5MG/ML     00120 017.00              
000000703271103        GEN-NEOSTIGMINE .5MG 1ML 10'S 00120 012.00              
000000703271403        GEN-NEOSTIGMINE 10ML 10'S     00120 018.00              
000000703270403        GEN-NEOSTIGMINE 1MG 10ML 10'S 00120 018.50              
000000703280403        GEN-PANCURONIUM 1MG 10ML 10'S 00120 028.00              
000000703281204        GEN-PANCURONIUM 2MG 2ML 25'S  00120 035.00              
000000703282304        GEN-PANCURONIUM 2MG 5ML 25'S  00120 055.00              
000000703533803        GEN-SOD CHL 23.4 100ML 10S    00120 029.00              
000000703180201        GEN-SOD NITROP 50MG 2ML       00120 001.90              
000000781145310        GG-GLIPIZIDE 10MG 100S        00288 099.00              
000000781145210        GG-GLIPIZIDE 5MG 1000S        00288 189.00              
000000028003301        GGY-LIORESAL DS TAB 20MG 100S 00006 070.00              
000000028003201        GGY-TOFRANIL 10MG 100         00226 020.60              
000000028013601        GGY-TOFRANIL 50MG 100         00066 058.00              
000000182170110        GL-BENXZTROPINE MESY 2MG 1000S00600 021.50              
000000182129901        GL-BENZTROPINE MESY .5MG 100'S00600 002.00              
000000182170101        GL-BENZTROPINE MESY 2MG 100'S 00600 003.00              
000000182182101        GL-CARISOPR COMPND TB 100s    00600 045.00              
000000182182105        GL-CARISOPR COMPND TB 500s    00600 205.00              
000000182107901        GL-CARISOPRODOL 350MG TB 100s 00600 005.50              
000000182107910        GL-CARISOPRODOL TB 350MG 1000s00600 042.50              
000000182127801        GL-CEPHALEXIN 250MG 100'S     00600 010.00              
000000182127901        GL-CEPHALEXIN 500MG 100'S     00600 018.00              
000000182198389        GL-CIMETIDINE 200MG UD 100s   01200 031.50              
000000182198489        GL-CIMETIDINE 300MG UD 100s   01200 032.56              
000000182198501        GL-CIMETIDINE 400MG 100s      01200 053.00              
000000182198505        GL-CIMETIDINE 400MG 500s      01200 261.27              
000000182198589        GL-CIMETIDINE 400MG UD 100s   01200 053.20              
000000182198689        GL-CIMETIDINE 800MG UD 100s   01200 093.30              
000000182616444        GL-CIMETIDINE ORAL 8oz        00600 055.00              
000000182371109        GL-DAIRYEASE                  00600 002.90              
000000182133201        GL-DESIPRAMINE 25MG 100'S     00600 008.00              
000000182133301        GL-DESIPRAMINE 50MG 100'S     00600 012.00              
000000182051910        GL-DICYCLOMINE 10MG CP 1000s  01200 133.00              
000000182051901        GL-DICYCLOMINE 10MG CP 100s   01200 015.00              
000000182174401        GL-DISOPYRAMIDE CAP 150MG 100 00600 009.00              
000000182836389        GL-DOCUSATE SOD CAP 100MG U/D 00600 003.00              
000000182836489        GL-DOCUSATE SOD CAP 250MG U/D 00600 004.00              
000000182038189        GL-FERROUS SULF SC 5GR UD 100 00600 002.50              
000000182114952        GL-FLUOCINOLONE ACET CRM 60GM 00600 002.25              
000000182173156        GL-FLUOCINONIDE CRM .5% 30GM  00600 004.00              
000000182173601        GL-FUROSEMIDE 80MG 100'S      00600 004.50              
000000182199501        GL-GLIPIZIDE 10MG 100s        00600 033.95              
000000182199505        GL-GLIPIZIDE 10MG 500s        00600 160.00              
000000182199401        GL-GLIPIZIDE 5MG 100s         00600 018.95              
000000182199405        GL-GLIPIZIDE 5MG 500s         00600 088.00              
000000182121919        GL-GLYBURIDE 1.25MG TB 50s    00600 005.45              
000000182122001        GL-GLYBURIDE 2.5MG TB 100s    00600 016.50              
000000182122005        GL-GLYBURIDE 2.5MG TB 500s    00600 079.00              
000000182122110        GL-GLYBURIDE 5MG TB 1000s     00600 218.72              
000000182124201        GL-HALOPERIDOL .5MG 100'S     00600 003.00              
000000182126305        GL-HALOPERIDOL 1MG 500'S      00600 010.00              
000000182126401        GL-HALOPERIDOL 2MG 100'S      00600 004.00              
000000182124401        GL-HALOPERIDOL ORG. 2MG 100   00600 014.34              
000000182055501        GL-HYDRALAZINE 50MG TB 100s   00600 001.99              
000000182095134        GL-HYDROCORT .5% CR 1oz       00600 001.14              
000000182149289        GL-HYDROXYZINE 10MG U/D 100   00600 004.00              
000000182149389        GL-HYDROXYZINE 25MG U/D 100   00600 005.00              
000000182177005        GL-IBUPROFEN 300MG 500'S      00600 020.30              
000000182180901        GL-IBUPROFEN 400MG 100        00600 003.50              
000000182181001        GL-IBUPROFEN 500MG 100        00600 007.20              
000000182181005        GL-IBUPROFEN 600MG 500'S      00600 015.00              
000000182129701        GL-IBUPROFEN 800MG 100'S      00600 007.00              
000000182129705        GL-IBUPROFEN 800MG 500'S      00600 018.50              
000000182168101        GL-INDOMETHACIN 25MG 100'S    00600 003.50              
000000182168110        GL-INDOMETHACIN 25MG 1000'S   00600 017.00              
000000182168105        GL-INDOMETHACIN 25MG 500'S    00600 009.00              
000000182168189        GL-INDOMETHACIN 25MG UD 100   00600 006.00              
000000182168201        GL-INDOMETHACIN 50MG 100'S    00600 005.50              
000000182168205        GL-INDOMETHACIN 50MG 500'S    00600 016.00              
000000182087110        GL-MECLIZINE 12.5MG TB 1000s  00600 014.50              
000000182119619        GL-MEDROXYPROGEST 10MG 50'S   00600 004.75              
000000182173201        GL-METHYLDOPA 250MG 100       00600 006.50              
000000182173210        GL-METHYLDOPA 250MG 1000'S    00600 045.00              
000000182173305        GL-METHYLDOPA 500HG 500'S     00600 045.00              
000000182183001        GL-METHYLDOPA W/HCTZ 250MG 10000600 009.00              
000000182178989        GL-METOCLOPRAMIDE 10MG UD 100 00600 006.00              
000000182133089        GL-METRONIDAZOLE 250MG UD 100 00600 007.00              
000000182151789        GL-METRONIDAZOLE 500MG UD 100 00600 010.00              
000000182133005        GL-METRONODAZOLE 250MG 500'S  00600 014.00              
000000182197101        GL-NAPROXEN 250MG TB 100s     00600 007.19              
000000182197105        GL-NAPROXEN 250MG TB 500s     00600 034.94              
000000182197201        GL-NAPROXEN 375MG TB 100s     00600 009.10              
000000182197205        GL-NAPROXEN 375MG TB 500s     00600 044.52              
000000182197301        GL-NAPROXEN 500MG 100s        00600 011.29              
000000182197305        GL-NAPROXEN 500MG TB 500s     00600 055.49              
000000182197401        GL-NAPROXEN SOD 275MG 100s    00600 010.45              
000000182197405        GL-NAPROXEN SOD 275MG 500s    00600 050.02              
000000182197501        GL-NAPROXEN SOD 550MG 100s    00600 016.52              
000000182197505        GL-NAPROXEN SOD 550MG 500s    00600 081.33              
000000182070289        GL-NITROGLYCERINE 2.5MG UD 10000600 005.00              
000000182070389        GL-NITROGLYCERINE 6.5MG UD 10000600 005.50              
000000182167089        GL-NITROGLYCERINE 9MG U/D 100 00600 007.00              
000000182123501        GL-PERPHEN/AMITRIP 2/10 100   00600 007.00              
000000182123601        GL-PERPHEN/AMITRIP 2/25 100   00600 008.00              
000000182123701        GL-PERPHEN/AMITRIP 4/10 100   00600 007.75              
000000182123801        GL-PERPHEN/AMITRIP 4/25/100   00600 009.00              
000000182125501        GL-PRAZOSIN 1MG 250'S         00600 010.00              
000000182125602        GL-PRAZOSIN 2MG 250'S         00600 014.00              
000000182125701        GL-PRAZOSIN 5MG 100           00600 012.00              
000000182446001        GL-PRENATAL S TAB 100s        00600 002.99              
000000182170701        GL-PROCAINAMIDE SR 250MG 100  00600 008.45              
000000182170801        GL-PROCAINAMIDE SR 500MG 100  00600 012.90              
000000182170805        GL-PROCAINAMIDE SR 500MG 500  00600 056.66              
000000182170901        GL-PROCAINAMIDE SR 750MG 100  00600 015.00              
000000182176001        GL-PROPRANOLOL 40MG 100       00600 002.20              
000000182175901        GL-PRORANOLOL 20MG 100        00600 001.50              
000000182884489        GL-SULFAMETH TRI 160MG UD 100 00600 009.00              
000000182170501        GL-SULINDAC 150MG 100s        00600 019.50              
000000182170601        GL-SULINDAC 200mg 100s        00600 040.54              
000000182170605        GL-SULINDAC 200MG 500s        00600 190.17              
000000182131301        GL-THEOPHYLLINE 200MG CP 100s 00600 021.11              
000000182183701        GL-THIOTHIXENE 5MG 100        00600 021.59              
000000182183801        GL-THIOTIXENE 10MG 100        00600 030.05              
000000182108489        GL-TOLBUTAMIDE 500MG UD 100   00600 004.60              
000000182126001        GL-TRAZODONE 100MG 100'S      00600 011.00              
000000182126005        GL-TRAZODONE 100MG 500'S      00600 046.00              
000000182125910        GL-TRAZODONE 50MG 1000'S      00600 052.00              
000000182125905        GL-TRAZODONE 50MG 500'S       00600 028.00              
000000182125901        GL-TRAZOSONE 50MG 100'S       00600 007.00              
000000182187201        GL-TRIAMTERENE W/HCTZ 100     00600 008.45              
000000182062710        GL-TRIHEXYPHEN 2MG TB 1000s   00600 077.00              
000000182062701        GL-TRIHEXYPHEN 2MG TB 100s    00600 010.52              
000000182023234        GL-TRIPLE ANTIBIOT ONT 1oz    00600 001.40              
000000182023233        GL-TRIPLE ANTIBIOTIC ONT 1/2oz00600 001.15              
000000182130101        GL-VERAPAMIL 120MG 100'S      00600 005.25              
000000182196905        GL-VERAPAMIL 180MG ER 500s    00600 158.00              
000000182197005        GL-VERAPAMIL 240MG ER 500s    00600 165.00              
000000182130001        GL-VERAPAMIL 80MG 100s        00600 006.00              
000000182196901        GL-VERAPAMIL ER 180MG 100S    00184 030.00              
000000182197001        GL-VERAPAMIL ER 240MG 100S    00600 036.00              
000000173033602        GLX-BECONASE INH. 16.8GM.     00024 025.35              
000000173037572        GLX-TEMOVATE CR. .05% 30GM    00300 022.50              
000000173037502        GLX-TEMOVATE CR. .05% 60GM    00120 040.90              
000000173037673        GLX-TEMOVATE OINT. .05% 15GM  00180 016.30              
000000173037672        GLX-TEMOVATE OINT. .05% 30GM  00180 022.50              
000000173037601        GLX-TEMOVATE OINT. .05% 45GM  00120 032.90              
000000173037602        GLX-TEMOVATE OINT. .05% 60GM  00120 040.90              
000000173034843        GLX-TRANDATE 300MG 100S       00012 067.00              
000000173034743        GLX-TRANDATE TB 200MG 100s    00060 050.75              
000000173032188        GLX-VENTOLIN INH 17GM         00060 019.25              
000000173032198        GLX-VENTOLIN INH REFILL 17GM  00024 017.75              
000000173046100        GLX-ZOFRAN 50ML 6S            00100 930.21              
000000173044200        GLX-ZOFRAN MDV 2MG/ML 20ML    00500 182.80              
000059762332801        GR-CLINDAMYC 150MG CP 100s    00240 039.65              
000059762372801        GR-CLINDAMYC SOL 1% 30ML      00240 003.89              
000059762372802        GR-CLINDAMYC SOL 1% 60ML      00240 005.75              
000059762372501        GR-GLYBURIDE 1.25MG TB 100s   00240 008.20              
000059762372603        GR-GLYBURIDE 2.5MG TB 100s    00240 012.50              
000059762372707        GR-GLYBURIDE 5MG TB 1000s     00240 168.00              
000059762372704        GR-GLYBURIDE 5MG TB 100s      00240 018.90              
000059762372706        GR-GLYBURIDE 5MG TB 500s      00240 093.00              
000059762332702        GR-METHYLPRED 4MG TB 100s     00240 032.18              
000059762332701        GR-METHYLPRED PAK 4MG 21s     00240 005.85              
000059762166508        GR-PENTRAX TAR SHAMPOO 8oz    03000 008.82              
000059762139504        GR-PRAMEGEL 1% 4oz            07210 005.05              
000000781108013        GVA-ALLOPURINOL 100MG UD 100s 00240 004.48              
000000781108213        GVA-ALLOPURINOL 300MG UD 100s 00240 008.35              
000000781148613        GVA-AMITRIPTYL 10MG UD 100s   00240 002.30              
000000781148713        GVA-AMITRIPTYL 25MG UD 100s   00240 002.57              
000000781148813        GVA-AMITRIPTYL 50MG UD 100s   00240 003.23              
000000781148913        GVA-AMITRIPTYL 75MG UD 100s   00240 004.22              
000000781171813        GVA-CHLORPRO HCL 100MG UD 100s00240 006.35              
000000781171513        GVA-CHLORPROM HCL 10MG UD 100s00240 003.50              
000000781171613        GVA-CHLORPROM HCL 25MG UD 100s00240 003.90              
000000781161313        GVA-CHLORPROPAMI 100MG UD 100s00240 002.94              
000000781162313        GVA-CHLORPROPAMI 250MG UD 100s00240 003.60              
000000781197313        GVA-DESIPRAMINE 50MG UD 100s  00240 020.78              
000000781248913        GVA-DIPHENHYD 50MG UD 100s    00240 003.25              
000000781189013        GVA-DIPYRIDAM 25MG UD 100s    00240 002.47              
000000781280413        GVA-DOXEPIN HCL 100MG UD 100s 00240 016.83              
000000781280013        GVA-DOXEPIN HCL 10MG UD 100s  00240 007.00              
000000781280113        GVA-DOXEPIN HCL 25MG UD 100s  00240 007.65              
000000781280213        GVA-DOXEPIN HCL 50MG UD 100s  00240 010.12              
000000781280313        GVA-DOXEPIN HCL 75MG UD 100s  00240 015.99              
000000781116113        GVA-FERROUS SULF 5GR RED 100s 00240 002.98              
000000781143913        GVA-FLUPHEN HCL 10MG UD 100s  00240 046.63              
000000781143813        GVA-FLUPHEN HCL 5MG UD 100s   00240 036.95              
000000781181813        GVA-FUROSEMIDE 20MG UD 100s   00240 002.40              
000000781196613        GVA-FUROSEMIDE 40MG UD 100s   00240 002.49              
000000781144613        GVA-FUROSEMIDE 80MG UD 100s   00240 004.63              
000000781139713        GVA-HALOPERIDOL 10MG UD 100s  00240 005.70              
000000781139613        GVA-HALOPERIDOL 5MG UD 100s   00240 004.55              
000000781148113        GVA-HYDROCHLOROTHAZ 50MG 100s 00240 002.56              
000000781133413        GVA-HYDROXYZ HCL 25MG UD 100s 00240 004.13              
000000781176413        GVA-IMIPRAMINE 25MG UD 100s   00240 002.96              
000000781232513        GVA-INDOMETH 25MG UD 100s     00240 003.70              
000000781126213        GVA-LON0X TABS UD 100s        00240 002.22              
000000781175013        GVA-METHOCARB 750MG UD 100s   00240 010.21              
000000781132013        GVA-METHYLDOP 250MG UD 100s   00240 009.21              
000000781174213        GVA-METRONID 250MG UD 100s    00240 004.22              
000000781174713        GVA-METRONID 500MG UD 100s    00240 011.00              
000000781271813        GVA-NITROGLYC SR 2.5MG 100s   00240 004.50              
000000781278613        GVA-NITROGLYC SR 6.5MG 100s   00240 004.99              
000000781172013        GVA-PROPOX NAP/APAP 100MG 100s00240 008.31              
000000781135413        GVA-PROPRANOLOL 20MG UD 100s  00240 002.93              
000000781180413        GVA-QUINIDINE GLUC 324MG 100s 00240 015.60              
000000781160413        GVA-THIORIDAZINE 10MG UD 100s 00240 003.30              
000000781162413        GVA-THIORIDAZINE 25MG UD 100s 00240 004.45              
000000781163413        GVA-THIORIDAZINE 50MG UD 100s 00240 006.16              
000000781193213        GVA-TOLAZAMIDE 250MG UD 100s  00240 013.67              
000000713011801        GW-ACEPHEN 120MG SUPP 100s    00420 013.84              
000000713011812        GW-ACEPHEN 120MG SUPP 12s     00360 002.61              
000000713011850        GW-ACEPHEN 120MG SUPP 50s     00420 006.92              
000000713016401        GW-ACEPHEN 325MG SUPP 100s    00360 020.82              
000000713016412        GW-ACEPHEN 325MG SUPP 12s     00360 002.66              
000000713016450        GW-ACEPHEN 325MG SUPP 50s     00360 006.88              
000000713016501        GW-ACEPHEN 650MG SUPP 100s    00360 023.09              
000000713016512        GW-ACEPHEN 650MG SUPP 12s     00360 002.72              
000000713016505        GW-ACEPHEN 650MG SUPP 500s    00360 072.18              
000000713016550        GW-ACEPHEN 650MG SUPP 50s     00360 012.03              
000000713050301        GW-ANUCORT HC 25MG SUPP 100s  00360 035.00              
000000713050312        GW-ANUCORT HC 25MG SUPP 12s   00360 004.45              
000000713050324        GW-ANUCORT HC 25MG SUPP 24s   00360 007.92              
000000713024931        GW-ANUSERT OINT 30s           00360 001.65              
000000713024932        GW-ANUSERT OINT 60s           00360 002.10              
000000713051012        GW-ANUSERT SUPP 12s           00360 001.55              
000000713051024        GW-ANUSERT SUPP 24s           00360 002.50              
000000713010401        GW-ASPIRIN 125MG SUPP 100s    00420 012.30              
000000713010412        GW-ASPIRIN 125MG SUPP 12s     00360 001.70              
000000713010450        GW-ASPIRIN 125MG SUPP 50s     00420 006.45              
000000713010550        GW-ASPIRIN 300MG SUPP 100s    00420 012.60              
000000713010512        GW-ASPIRIN 300MG SUPP 12s     00360 001.74              
000000713010550        GW-ASPIRIN 300MG SUPP 50s     00420 006.70              
000000713010601        GW-ASPIRIN 600MG SUPP 1000s   00360 011.90              
000000713010612        GW-ASPIRIN 600MG SUPP 12s     00360 001.80              
000000713010650        GW-ASPIRIN 600MG SUPP 50s     00360 006.10              
000000713010910        GW-BISACODYL 10MG 1000s       00360 048.82              
000000713010901        GW-BISACODYL 10MG 100s        00360 007.55              
000000713010912        GW-BISACODYL 10MG 12s         00360 001.10              
000000713010905        GW-BISACODYL 10MG 500s        00360 034.64              
000000713010950        GW-BISACODYL 10MG 50s         00360 004.31              
000000713012201        GW-CHLORAL HYD 500MG SUPP 100s00420 099.00              
000000713025804        GW-DIAPER RASH OINT 120ML     00420 001.76              
000000713040030        GW-FEMILAX TAB 30s            00360 001.10              
000000713040060        GW-FEMILAX TAB 60s            00360 001.80              
000000713040090        GW-FEMILAX TAB 90s            00360 002.70              
000000713040789        GW-FIBERNORM TAB 90s          00420 008.07              
000000713024837        GW-HEM PREP OINT 45GM         00360 002.55              
000000713050512        GW-HEM PREP SUPP 12s          00360 002.40              
000000713050524        GW-HEM PREP SUPP 24s          00360 003.37              
000000713017630        GW-INDOMETHACIN 50MG SUPP 30s 00360 029.76              
000000713040130        GW-LAX PILLS 30s              00420 001.14              
000000713016612        GW-MIGERGOT SUPP 12s          00420 022.50              
000000713013512        GW-PROCHLORPER 25MG SUPP 12s  00360 022.13              
000000713013212        GW-PROMETHEGAN 50MG SUPP 12s  00360 024.22              
000000713010102        GW-SANI SUPP ADULT SUPP 100s  00420 002.48              
000000713010109        GW-SANI SUPP ADULT SUPP 10s   00420 001.01              
000000713010113        GW-SANI SUPP ADULT SUPP 12s   00420 000.90              
000000713010126        GW-SANI SUPP ADULT SUPP 25s   00420 001.01              
000000713010151        GW-SANI SUPP ADULT SUPP 50s   00420 001.55              
000000713010209        GW-SANI SUPP PED SUPP 10s     00420 001.01              
000000713010213        GW-SANI SUPP PED SUPP 12s     00420 001.01              
000000713010226        GW-SANI SUPP PED SUPP 25s     00420 001.01              
000000713010125        GW-SANI-SUPP ADULT SUPP 25s UD00420 001.22              
000000713010150        GW-SANI-SUPP ADULT SUPP 50s UD00420 002.00              
000000713010225        GW-SANI-SUPP PED SUPP 25s UD  00420 001.22              
000000713010709        GW-TEBAMIDE 100MG SUPP 10s    00360 002.86              
000000713010809        GW-TEBAMIDE 200MG SUPP 10s    00360 003.16              
000000713010850        GW-TEBAMIDE 200MG SUPP 50s    00360 015.11              
000000713010309        GW-TRUPHYLLIN 500MG SUPP 10s  00420 009.15              
000000713010325        GW-TRUPHYLLIN 500MG SUPP 25s  00420 016.74              
000000713010350        GW-TRUPHYLLIN 500MG SUPP 50s  00420 031.50              
000000713012509        GW-TRUPHYLLINE 250MG SUPP 10s 00360 007.65              
000000713012525        GW-TRUPHYLLINE 250MG SUPP 25s 00360 012.61              
000000039005305        HOE-DIABETA 1.25MG 50s        00096 006.65              
000000039005110        HOE-DIABETA 2.5MG 100S        00024 020.00              
000000039005150        HOE-DIABETA 2.5MG 500S        00060 094.00              
000000039005270        HOE-DIABETA 5MG 1000S         00144 328.00              
000000039005210        HOE-DIABETA 5MG 100S          00240 033.00              
000000039005250        HOE-DIABETA 5MG 500S          00048 172.00              
000000039002560        HOE-TOPICORT OINT .25% 60GM   00000 030.16              
000005840662333        IMM-LEUCOVIN 350MG 10CC VL    01000 028.50              
000005840662668        IMM-LEUCOVORIN 15MG 12S       00002 060.00              
000005840662137        IMM-LEUCOVORIN 50MG EA        01000 004.10              
000005840662235        IMM-LEUCOVORIN CAL 100ML VL   01000 007.85              
000000205533834        IMM-METHOREXATE 25MG.ML VL 10C01000 009.50              
000000205450723        IMM-METHOTREXATE 2.5MG 100S   01000 275.00              
000000205532526        IMM-METHOTREXATE LIQ PF 50MG  01000 003.30              
000000205455626        IMM-METHOTREXATE LIQ PP 50MG  01000 003.30              
000000205533734        IMM-METHOTRXATE 250MG LPF 10CC01000 008.75              
000000205532618        IMM-METHOTRXATE FPF 100MG 4CC 01000 005.50              
000000205532730        IMM-METHOTRXATE LPF 200MG 8CC 01000 006.95              
000000548653800        IMS-CAL GLUC 10% 200ML VL 12s 00016 096.00              
000000548200100        IMS-DEXTROSE INJ w/st GA 50%  00001 140.00              
000000548613500        IMS-DOPAMIN INJ 40MG/ML 20ML  00600 015.04              
000000548119000        IMS-LIDOCAINE 2% 5ML 25s      00015 077.50              
000000548630000        IMS-LIDOCAINE TOP SOL 4%      00080 130.00              
000000548654000        IMS-POTAS.ACET.100ML VL 12s   00006 060.00              
000000548105200        IMS-SOD BIC 8.4% 50ML 25s     00004 137.50              
000000548205200        IMS-SOD BIC 8.4% 50ML w/st 25s00034 112.50              
000000548305200        IMS-SOD BICARB INJ 8.4% 25s   00006 135.00              
000000548652000        IMS-SODIUM CHLOR.200ML VL 12s 00004 078.00              
000000058072730        IOL-DAC1(0727-30)             00156 002.50              
000000058225005        IOL-DEXACIDIN SUSP            02476 006.54              
000000058235805        IOL-FLUOR OP SOL 5ML          00188 007.43              
000000058235815        IOL-FLUOROP 1% 15ML           01485 015.40              
000000058013015        IOL-HYPOTEARS DRP 15ML        00007 006.00              
000000058287715        IOL-INFLAM(2877-15)           00002 023.98              
000000058287505        IOL-INFLAM. MLD. .125% 5ML    00277 009.40              
000000058287510        IOL-INFLAMASE 1/8% 10CC       00419 014.50              
000000058251415        IOL-PILO(2514-15)             00567 008.35              
000000058251515        IOL-PILOCAR 1% 15CC           00048 007.80              
000000058251615        IOL-PILOCAR 2% 15ML           01051 008.25              
000000058251715        IOL-PILOCAR 3% 15ML           01464 008.25              
000000058251915        IOL-PILOCAR 6% 15CC           03076 009.50              
000000058073215        IOL-SULF 10 15ML              02844 007.10              
000000058072515        IOL-TEARISOL 15CC             00365 005.60              
000005492010510        IPR-ATENOLOL 50MG 100         00072 011.25              
000005045840050        JAN-IMODIUM 2MG 500S          00379 263.90              
000005045801001        JAN-INAPSINE AMP              01500 028.32              
000000044182302        KNL-ISOPTIN 120MG 100'S       00623 043.00              
000000044182603        KNL-ISOPTIN SR 240MG 500S     00006 619.00              
000000091415060        KS-CALCIFEROL DROPS 2OZ       01474 018.50              
000000091020210        KS-CHARDONNA 2 100'S          00495 012.00              
000000021440123        KS-COLYTE 4000ML              00036 011.50              
000000021440305        KS-COLYTE FLAV                00012 011.95              
000000091419501        KS-DEPONIT .2MG 30s           00549 030.00              
000000091419601        KS-DEPONIT .4MG 30s           01263 034.00              
000000021092001        KS-DILATRATE 40MG 100S        00048 039.00              
000000091105301        KS-FEDAHIST GYROCAP 100'S     00924 033.00              
000000091005501        KS-FEDAHIST TIMECAP 100       00266 029.00              
000000091347501        KS-KUTRASE 100'S              01152 035.00              
000000091350501        KS-LACTRASE CAP 250MG 100     01344 021.50              
000000091353201        KS-LEVSIN SUBL 0.125MG 100S   00012 022.25              
000000021462010        KS-PROCTOCREAM 30GM           00048 015.50              
000000021069010        KS-PROCTOFOAM 10GM            00074 017.50              
000000021475020        KS-PROCTOFOAM AERO 15GM       00109 010.80              
000000005466837        LED-AMICAR 250MG 20ML         01200 010.50              
000000005539238        LED-ASENDIN TAB 150MG 30s     00371 056.00              
000000005539123        LED-ASENDIN TABS 100MG 100s   00147 155.00              
000000005538923        LED-ASENDIN TABS 25MG 100'S   00779 046.85              
000000005539023        LED-ASENDIN TABS 50MG 100'S   00939 078.00              
000000005341632        LED-CIMETIDINE 300MG 100s     00288 027.00              
000000005341732        LED-CIMETIDINE 400MG 60S      00288 023.50              
000000005341838        LED-CIMETIDINE 800MG 30S      00288 023.50              
000000005376296        LED-DIAMOX PAR 500MG VL       00020 028.00              
000000005526723        LED-FERROUS SEQUEL 100'S      00036 015.25              
000000005536023        LED-LOXITANE 10MG 100S        00270 077.00              
000000005536123        LED-LOXITANE 25MG 100         00360 090.00              
000000005536223        LED-LOXITANE 50MG 100         00583 132.00              
000000005535923        LED-LOXITANE 5MG 100'S        00355 058.00              
000000005446043        LED-MAXZ(4460-43)             00018 062.25              
000000005446460        LED-MAXZIDE 37.5/25MG UD 100s 01122 029.00              
000000005446060        LED-MAXZIDE 50/75MG UD 100s   00614 049.00              
000000005446031        LED-MAXZIDE 50MG 500S         00116 235.00              
000000205315415        LED-VANCOLED 1GM 10'S         00500 084.80              
000000205315488        LED-VANCOLED 50OMG 10'S       00500 042.35              
000000205315405        LED-VANCOLED 5GM VL EA        00500 042.35              
000000005248923        LED-VERELAN 180MG 100S        00052 086.00              
000000005249023        LED-VERELAN SR 120MG 100S     00006 082.70              
000000093070970        LEM-CEFAZOLIN BULK 10GM       00240 018.00              
000000093070568        LEM-CEFAZOLIN*1GM 10ML        00240 001.95              
000000093054305        LEM-CEPHALEXIN 500MG 500      00240 095.00              
000000093053874        LEM-CEPHALEXIN SUS 125MG 200  00240 004.10              
000000093054101        LEM-CEPHALEXIN*250MG          00240 010.00              
000000093054301        LEM-CEPHALEXIN*500MG 100      00240 020.00              
000000053054073        LEM-CEPHALEXIN*SUSP 250MG 100 00240 004.00              
000000093054073        LEM-CEPHALEXIN*SUSP 250MG 200 00240 006.75              
000000093018901        LEM-CORTRIM*DS 100            00120 006.75              
000000093018805        LEM-COTRIM 400MG 500          00240 018.00              
000000093188801        LEM-COTRIM*400MG 100          00240 004.30              
000000093018993        LEM-COTRIM*DS 100 UD          00240 012.50              
000000093018905        LEM-COTRIM*DS 500             00240 030.00              
000000093009001        LEM-EPITOL* 200MG 100         00240 010.00              
000000093026215        LEM-FLUOCINONIDE .5% CRM 15   00240 003.25              
000000093026292        LEM-FLUOCINONIDE .5% CRM 60   00240 006.00              
000000093026639        LEM-FLUOCINONIDE TOP SOL 60ML 00240 010.70              
000000093085101        LEM-METRONID*250MG 100        00000 002.80              
000000093085152        LEM-METRONID*250MG 250        00000 007.12              
000000093023230        LEM-MYCO*TRIACET CR 30        00240 002.70              
000000093070115        LEM-MYCO*TRIACET II OINT 15   00240 001.15              
000000093070130        LEM-MYCO*TRIACET OINT 30      00240 002.70              
000000093023215        LEM-MYCOTRIACT*II CR 15GM     00240 001.15              
000000093023292        LEM-MYCOTRIACT*II CR 60GM     00240 003.25              
000000093063801        LEM-TRAZIDONE 100MG 100       00240 009.00              
000000093063701        LEM-TRAZIDONE 50MG 100        00240 005.30              
000000093063710        LEM-TRAZIDONE HCL 50MG 1000   00240 050.00              
000000904772714        MAJ-ACID-GONE TAB 100s        00360 002.95              
000000904421360        MAJ-ACIDOPHILUS CP 100s       00360 002.10              
000000904132377        MAJ-ALL-NITE COLD CHERRY 10oz 00360 002.44              
000000904132321        MAJ-ALL-NITE COLD CHERRY 6oz  00360 001.54              
000000904132277        MAJ-ALL-NITE COLD FORM 10oz   00360 002.44              
000000904227360        MAJ-AMINOPHYL 100MG TB 100s   00360 002.90              
000000901020161        MAJ-AMITRIPTYL 25MG UD 100s   00360 010.62              
000000904399660        MAJ-AMOXAPINE 100MG TB 100s   00360 099.00              
000000904399746        MAJ-AMOXAPINE 150MG TB 30s    00360 046.12              
000000904399460        MAJ-AMOXAPINE 25MG TB 100s    00360 034.48              
000000904399461        MAJ-AMOXAPINE 25MG TB UD 100s 00360 037.51              
000000904399560        MAJ-AMOXAPINE 50MG TB 100s    00360 052.82              
000000904399561        MAJ-AMOXAPINE 50MG TB UD 100s 00360 059.46              
000000904261904        MAJ-AMOXICILL 125MG/5ML 100ML 00360 001.80              
000000904261907        MAJ-AMOXICILL 125MG/5ML 150ML 00360 002.26              
000000904771360        MAJ-AMOXICILL 250MG CHW 100s  00360 019.51              
000000904771340        MAJ-AMOXICILL 250MG CHW 500s  00360 084.06              
000000904261760        MAJ-AMOXICILL 250MG CP 100s   00360 009.74              
000000904261740        MAJ-AMOXICILL 250MG CP 500s   00360 037.39              
000000904262004        MAJ-AMOXICILL 250MG/5ML 100ML 00360 002.93              
000000904262007        MAJ-AMOXICILL 250MG/5ML 150ML 00360 003.57              
000000904261840        MAJ-AMOXICILL 500MG CP 500s   00360 073.50              
000000904261851        MAJ-AMOXICILL 500MG CP 50s    00360 010.34              
000000904201760        MAJ-AMPICILLIN 250MG CP 100s  00360 007.17              
000000904201740        MAJ-AMPICILLIN 250MG CP 500s  00360 028.32              
000000904207360        MAJ-AMPICILLIN 500MG CP 100s  00360 012.17              
000000904207340        MAJ-AMPICILLIN 500MG CP 500s  00360 052.50              
000000904016060        MAJ-ANU-MED HC SUPP 100s      00360 031.50              
000000904016012        MAJ-ANU-MED SUPP 12s          00360 004.76              
000000904058260        MAJ-ASPIRIN 975MG TB 100s     00360 007.85              
000000904404073        MAJ-ASPIRIN CHILD 81MG TB 36s 00360 000.87              
000000904770470        MAJ-ASPIRIN LOW 81MG EC 250s  00360 004.35              
000000904079335        MAJ-AURODEX EAR DRP 15ML      00360 001.15              
000000904122716        MAJ-BANOPHEN ELIXER PINT      00360 004.00              
000000904254860        MAJ-BELLAMINE TABS 100s       00360 022.86              
000000904105561        MAJ-BENZTROPINE .5MG UD 100s  00360 007.00              
000000904422260        MAJ-BETA-CAROTENE 10,000 100s 00360 001.71              
000000904076636        MAJ-BETAMETH CR .05% 15GM     00360 003.67              
000000904076645        MAJ-BETAMETH CR .05% 45GM     00360 006.88              
000000904076803        MAJ-BETAMETH LOT .05% 60ML    00360 007.52              
000000904076736        MAJ-BETAMETH OINT .05% 15GM   00360 003.67              
000000904076745        MAJ-BETAMETH OINT .05% 45GM   00360 006.80              
000000904040616        MAJ-BETHAPRIM PED SUS PINT    00360 006.60              
000000904040516        MAJ-BETHAPRIM SUSP PINT       00360 006.95              
000000904020961        MAJ-BISACODYL 5MG TB UD 100s  00360 003.00              
000000904352403        MAJ-BOROFAIR OTIC SOL 2oz     00360 007.54              
000000904071716        MAJ-BROMANATE DX COUGH PINT   00360 006.24              
000000904123020        MAJ-BYDRAMINE 12.5MG SYR 120ML00360 001.12              
000000904123016        MAJ-BYDRAMINE COUGH SYR PINT  00360 004.00              
000000904175089        MAJ-CAFATINE PB TB 90s        00360 039.00              
000000904323261        MAJ-CALCIUM CARB 600MG UD 100s00360 005.00              
000000904776021        MAJ-CALLAGERY CLEAR LOT 180ML 00360 001.23              
000000904211574        MAJ-CALULOSE SYR 64oz         00360 054.63              
000000904211516        MAJ-CALULOSE SYR PINT         00360 015.81              
000000904322035        MAJ-CARBAMIDE PER 6.5% DR 15ML00360 001.16              
000000904211769        MAJ-CATULAC SYR 32oz          00360 028.35              
000000904211709        MAJ-CATULAC SYR 8oz           00360 007.75              
000000904018460        MAJ-CHLOROTHIAZ 500MG TB 100s 00360 007.98              
000000904354560        MAJ-CHLORTOX LA CAP 100s      00360 017.75              
000000904431451        MAJ-CHROMIUM 200MG TB 50s     00360 002.07              
000000904383860        MAJ-CLINDAMYC 150MG CP 100s   00360 063.75              
000000904773330        MAJ-CLINDAMYC PHOS 1% SOL 30ML00360 006.45              
000000904773303        MAJ-CLINDAMYC PHOS 1% SOL 60ML00360 012.00              
000000904204360        MAJ-CORTISONE 25MG TB 100s    00360 029.27              
000000904315110        MAJ-CORTOMYC OT SOL 10ML      00360 005.78              
000000904780980        MAJ-CYCLOBENZAPRI 10MG 1000s  00360 250.00              
000000904780960        MAJ-CYCLOBENZAPRI 10MG 100s   00360 048.38              
000000904222161        MAJ-CYCLOBENZAPRI 10MG UD 100s00360 056.20              
000000904114616        MAJ-CYPROHEPTADIN 2MG/5ML PINT00360 004.90              
000000904386575        MAJ-DEEP SEA .65% NOSE 45ML   00360 001.39              
000000904024360        MAJ-DEXAMETH .5MG TB 100s     00360 003.75              
000000904024460        MAJ-DEXAMETH .75MG TB 100s    00360 004.42              
000000904024412        MAJ-DEXAMETH .75MG UNIPAK 12s 00360 002.65              
000000904024660        MAJ-DEXAMETH 4MG TB 100s      00360 013.75              
000000904066815        MAJ-DEXAPHEN 120/6 TB 10s     00360 002.45              
000000904066760        MAJ-DEXAPHEN TAB 100s         00360 007.00              
000000904264631        MAJ-DIBUCAINE 1% OINT 1oz     00360 001.16              
000000904264760        MAJ-DICLOXACIL 250MG CP 100s  00360 024.26              
000000904264860        MAJ-DICLOXACIL 500MG CP 100s  00360 040.86              
000000904789680        MAJ-DICYCLOMINE 10MG CP 1000s 00360 165.60              
000000904776461        MAJ-DIFLUNISAL 500MG UD 100s  00360 087.79              
000000904771760        MAJ-DILTIAZEM 120MG TB 100s   00360 060.59              
000000904771460        MAJ-DILTIAZEM 30MG TB 100s    00360 021.00              
000000904771440        MAJ-DILTIAZEM 30MG TB 500s    00360 106.19              
000000904771461        MAJ-DILTIAZEM 30MG TB UD 100s 00360 025.00              
000000904771560        MAJ-DILTIAZEM 60MG TB 100s    00360 033.27              
000000904771540        MAJ-DILTIAZEM 60MG TB 500s    00360 150.00              
000000904771660        MAJ-DILTIAZEM 90MG TB 100s    00360 046.64              
000000904771661        MAJ-DILTIAZEM 90MG TB UD 100s 00360 052.68              
000000904071328        MAJ-DIMAPHEN ELIXER GAL       00360 019.20              
000000904021412        MAJ-DIMAPHEN TAB 12s          00360 002.11              
000000904021424        MAJ-DIMAPHEN TR TB BOX 24s    00360 003.55              
000000904205661        MAJ-DIPHENHYD 50MG CP UD 100s 00360 017.64              
000000904092416        MAJ-DOK SYRUP PINT            00360 003.35              
000000904098128        MAJ-DONNAPINE ELIXER GAL      00360 041.46              
000000904098116        MAJ-DONNAPINE ELIXER PINT     00360 006.33              
000000904326340        MAJ-ENOMINE CAP 500s          00360 022.35              
000000904326360        MAJ-ENOMINE CAPS 100s         00360 007.61              
000000904326216        MAJ-ENOMINE LIQUID PINT       00360 010.71              
000000904033660        MAJ-ERGOLOID MES 1MG ORAL 100s00360 012.79              
000000904033640        MAJ-ERGOLOID MES 1MG ORAL 500s00360 053.25              
000000904265308        MAJ-ERYTH/SUCC 200MG/5ML 200ML00360 011.27              
000000904774360        MAJ-ERYTHRO DEL REL 250CP 100s00360 016.44              
000000904774340        MAJ-ERYTHRO DEL REL 250CP 500s00360 073.60              
000000904284503        MAJ-ERYTHRO SOL 2% 60ML       00360 003.77              
000000904247016        MAJ-ERYTHROMY 125MG/5ML PINT  00360 014.00              
000000904246216        MAJ-ERYTHROMY 200MG PINT      00360 012.78              
000000904246860        MAJ-ERYTHROMY 250MG CP 100s   00360 020.00              
000000904247116        MAJ-ERYTHROMY 250MG/5ML PINT  00360 023.25              
000000904246316        MAJ-ERYTHROMY 400MG PINT      00360 024.26              
000000904166420        MAJ-EYE WASH DROPS 120ML      00360 001.55              
000000904067761        MAJ-FERROUS 250MG TR UD 100s  00360 004.57              
000000904759161        MAJ-FERROUS 5GR GRN UD 100s   00360 003.00              
000000904213780        MAJ-FERROUS GLUC 325MG 1000s  00360 008.94              
000000904098950        MAJ-FERROUS SUL 75MG/.6ML 50ML00360 002.85              
000000904146516        MAJ-FERROUS SULF 220MG PINT   00360 004.00              
000000904077036        MAJ-FLUOCINON .05% CR 15GM    00360 002.69              
000000904007860        MAJ-GELATIN 10GR CAP 100s     00360 002.40              
000000904266336        MAJ-GENTAMICIN CR 15GM        00360 002.02              
000000904266436        MAJ-GENTAMICIN OINT 15GM      00360 002.02              
000000904190705        MAJ-GENTAMICIN OPTH SOL 5ML   00360 003.64              
000000904257960        MAJ-GLUTAMIC ACID 340MG 100s  00360 004.88              
000000904775960        MAJ-GUAIFENESIN 600MG LA 100s 00360 011.70              
000000904183040        MAJ-HALOPERIDOL .5MG WHT 500s 00360 029.85              
000000904173460        MAJ-HALOPERIDOL 10MG AQUA 100s00360 028.27              
000000904234160        MAJ-HYDRALAZINE 100MG TB 100s 00360 004.49              
000000904208380        MAJ-HYDROCHLORTHAL 25MG 1000s 00360 006.83              
000000904208980        MAJ-HYDROCHLORTHAL 50MG 1000s 00360 010.74              
000000904267460        MAJ-HYDROCORT 20MG TB 100s    00360 005.47              
000000904075631        MAJ-HYDROCORT CR 2.5% 30GM    00360 004.50              
000000904035861        MAJ-HYDROXYZINE 25MG UD 100s  00360 023.14              
000000904037916        MAJ-HYDROXYZINE SYR PINT      00360 008.46              
000000904209560        MAJ-ISONIAZID 100MG TB 100s   00360 004.17              
000000904209680        MAJ-ISONIAZID 300MG TB 1000s  00360 048.35              
000000904063680        MAJ-ISOXSUPRINE 20MG TB 1000s 00360 029.75              
000000904063661        MAJ-ISOXSUPRINE 20MG UD 100s  00360 004.95              
000000904272060        MAJ-K-VESCENT 25MEQ 100s      00360 010.75              
000000904272046        MAJ-K-VESCENT 25MEQ 30s       00360 004.39              
000000904268760        MAJ-L-LYSINE 500MG TB 100s    00360 002.12              
000000904291280        MAJ-LITHIUM CARB 300MG CP 100000360 039.36              
000000904291260        MAJ-LITHIUM CARB 300MG CP 100s00360 004.40              
000000904291416        MAJ-LITHIUM CIT SYR PINT      00360 011.35              
000000904761760        MAJ-LOPERAMIDE 2MG CP 100s    00360 033.63              
000000904761740        MAJ-LOPERAMIDE 2MG CP 500s    00360 151.00              
000000904202060        MAJ-MAJORCIN TB 100s          00360 001.58              
000000904198360        MAJ-MAPAP 325MG TB 100s       00360 001.89              
000000904238460        MAJ-MECLIZINE 12.5MG TB 100s  00360 002.29              
000000904357160        MAJ-MEGASTROL 40MG TB 100s    00360 053.85              
000000904357140        MAJ-MEGASTROL 40MG TB 500s    00360 225.00              
000000904357161        MAJ-MEGASTROL 40MG UD 100s    00360 054.00              
000000904287860        MAJ-METAPROTER 10MG TB 100s   00360 009.58              
000000904287960        MAJ-METAPROTER 20MG TB 100s   00360 011.96              
000000904781360        MAJ-METHYLDOP 250/15 TB 100s  00360 013.95              
000000904781460        MAJ-METHYLDOP 250/25 TB 100s  00360 015.08              
000000904240140        MAJ-METHYLDOPA 500MG TB 500s  00360 067.50              
000000904145360        MAJ-METRONID 250MG TB 100s    00360 005.34              
000000904145340        MAJ-METRONID 250MG TB 500s    00360 015.65              
000000904145361        MAJ-METRONID 250MG TB UD 100s 00360 017.65              
000000904269460        MAJ-METRONID 500MG TB 100s    00360 018.78              
