00074567408AB-A-HYDROCORT 1000M 8ML UV EA0000240000000900
00074567202AB-A-HYDROCORT 250MG 2ML UV 100000240000001700
00074567304AB-A-HYDROCORT 500MG 4ML 25'S 0000240000009000
00074563108AB-A-METHAPRED 1000M 8ML UV EA0000240000000800
00074560344AB-A-METHAPRED 1000MG ADVT 10 0000240000008900
00074568502AB-A-METHAPRED 125MG 2ML UV 100000240000001900
00074568401AB-A-METHAPRED 40MG 1ML UV 10 0000240000001250
00074563004AB-A-METHAPRED 500MG 4ML UV EA0000240000000420
00074614302AB-ACETIC ACID .25% 250ML EA  0000240000000600
00000000123AB-ACETIC ACID 1000ML 12'S    0000240000003500
00074806201AB-AMIDATE 20MG 10ML A 5      0000240000010000
00074806101AB-AMIDATE 40MG 20ML A 5      0000240000011000
00074806001AB-AMIDATE 40MG 20ML ABJT 10  0000072000021000
00074490903AB-AMINOPH 250MG 10ML 10'S    0000240000002250
00000558205AB-AMINOPH USP 250MG 10ML A 500000240000001200
00074738601AB-AMINOPH USP 50MG 20ML A 50 0000240000001295
00074162503AB-AMINOPHILL 500MG 20ML 10S  0000240000003100
00074592101AB-AMINOPHYLLIN INJ 250MG 10ML0000240000001400
00074299103AB-AMINOSYN 10% 500ML 12'S    0000240000008000
00074108803AB-AMINOSYN 500ML 8.5% 12'S   0000240000007750
00074299203AB-AMINOSYN 7% 500ML 12'S     0000240000008300
00074109003AB-AMINOSYN II 10% 500ML 12'S 0000240000008500
00074491101AB-ATROPINE SULF 10ML ABJET 100000240000001450
00074491001AB-ATROPINE SULF 5ML ABBJET 100000240000001550
00074397703AB-BACTERIOSTATIC 30ML 25'S   0000240000001000
00074926701AB-BRETYLIUM 50MG 10'S        0000240000002300
00074926301AB-BRETYLIUM 50MG 10ML 25'S   0000240000000800
00074115901AB-BUPIVAC HCL .25% 10ML TT 500000240000006000
00074115801AB-BUPIVAC HCL .25% 30ML A 25 0000240000001600
00074116201AB-BUPIVAC HCL .5% 10ML TT 50 0000240000006200
00074116202AB-BUPIVAC HCL .5% 30ML TT 50 0000240000006000
00074116301AB-BUPIVAC HCL .5% 50ML FT 50 0000240000008000
00074116501AB-BUPIVAC HCL .75% 10ML TT 250000240000005200
00074116401AB-BUPIVAC HCL .75% 30ML A 50 0000240000002000
00074115902AB-BUPIVAC HCL 30ML TT 50     0000240000005800
00074490801AB-CALCIUM CHL 10% 18G 10'S   0000240000002000
00074492801AB-CALCIUM CHL 10ML ABBJET 10 0000240000001450
00074405303AB-CLINDAMY PHOS 150MG 2ML 25 0000240000005500
00074405001AB-CLINDAMYCIN 300MG/2ML 25'S 0000240000004800
00074405101AB-CLINDAMYCIN 600MG/3ML 25'S 0000240000007500
00000518597AB-CLINDAMYCIN 9GRM/60ML EA   0000240000003600
00074409201AB-COPPER TRACE .4MG 10ML 25'S0000240000001600
00074408902AB-DEXTROSE 10ML 5ML AMP 50   0000240000002500
00074789801AB-DEXTROSE 25% 10ML 10'S     0000240000004225
00074490201AB-DEXTROSE 50% 50ML 10'S     0000240000001850
00000518605AB-DEXTROSE 50% FLTP 10'S     0000240000002400
00074910501AB-DOPAMIN 400MG 10ML 25'S    0000240000002000
00074581901AB-DOPAMINE 200MG 5ML 25'S    0000240000001200
00074426601AB-DOPAMINE 800MG 10ML 25 ADDV0000240000009600
00074780902AB-DOPAMINE HCL 400MG 250ML 120000240000010500
00074780803AB-DOPAMINE HCL 400MG 500ML 120000240000014000
00074781002AB-DOPAMINE HCL 800MG 250ML 120000240000023000
00000518613AB-EPHEDRIN 50MG 1ML A 100'S  0000240000001000
00074490101AB-EPINEPH 18G 10ML 10'S      0000240000002000
00074492101AB-EPINEPH 21G 10ML 10'S      0000240000001695
00074648101AB-ERY LAC (BENXFR) 1GM VL 10 0000240000003300
00074647844AB-ERY LAC 1GM ADDVANT 10'S   0000240000003800
00074647644AB-ERY LAC 500MG ADDVANT 10'S 0000036000002237
00000559807AB-ERY LAC 500MG VL 10'       0000240000001600
00074324710AB-ERY LAC ADVT FT 500MG 10   0000240000005100
00074324601AB-ERYLAC ADVT FT 1G 10'S     0000240000006700
00000145961AB-ERYTHROC STEAR 500MG 100s  0000024000001350
00074634205AB-ERYTHROCIN LAC 1GM VL 10'S 0000240000002800
00074648201AB-ERYTHROCIN LAC 500MG VL 10 0000240000001700
00074636813AB-ERYTHROCIN PIGBACK 500MG 5 0000240000001250
00074406558AB-FAT EMOLSION IV SET 48'S   0000240000013000
00074610110AB-FUROSEMIDE 100MG 10ML A 50S0000240000005000
00074605610AB-FUROSEMIDE 10ML ABJT SYR 100000240000003000
00074610102AB-FUROSEMIDE 20MG 2ML A 100'S0000240000001500
00074610202AB-FUROSEMIDE 20MG 2ML FT 25s 0000240000001235
00074610104AB-FUROSEMIDE 40MG 4ML A 50'S 0000240000001650
00074610204AB-FUROSEMIDE 40MG FLTP 50'S  0000240000001800
00074605504AB-FUROSEMIDE 4ML ABJT SYR 10 0000240000001800
00074340201AB-GENTAMYCIN 100MG 10ML 50'S 0000240000004000
00074340001AB-GENTAMYCIN 60MG 6ML 50'S   0000240000003500
00074340101AB-GENTAMYCIN 80MG 8ML 50'S   0000240000003500
00074258302AB-HEP SOD 20,000 10ML ADVT 500000240000008000
00074115271AB-HEP-LOCK 100USP 10ML FT 50 0000240000001250
00074115171AB-HEP-LOCK SOL 10% 10ML FT 500000240000001800
00074329201AB-ISOFLURANE INH 100ML       0000048000009200
00074497701AB-ISOPROT 1:5000 10ML 10'S   0000240000004200
00074497801AB-ISOPROT 1:5000 5ML 10'S    0000240000003500
00074427601AB-LIDO 1% HCL 20ML FT 50     0000240000001350
00074427001AB-LIDO 1% HCL 30ML 25        0000240000008500
00074471301AB-LIDO 1% USP 2ML A 100      0000240000001000
00074471302AB-LIDO 1% USP 5ML AMP 100    0000240000002000
00074625401AB-LIDO 10% HCL 10ML PINTOP 500000240000009500
00074427702AB-LIDO 2% HCL 50ML FT 50     0000240000001500
00074428201AB-LIDO 2% USP 20ML A 100     0000240000001500
00074624801AB-LIDO 20% HCL PINTOP 50     0000240000011000
00074492401AB-LIDOCAIN 1% 5ML 25G 10'S   0000240000001875
00000518654AB-LIDOCAIN 2% 5ML 21G 10'S   0000240000001525
00074490401AB-LIDOCAINE 1% 5ML 21G 10'S  0000240000001575
00074492301AB-LIDOCAINE 2% 25G 10'S      0000240000001800
00074428202AB-LIDOCAINE 2% HCL 10ML      0000240000001800
00074978601AB-LIPOSYN II 10% 200ML 12    0000240000011000
00074978603AB-LIPOSYN II 10% 500ML 12    0000240000010000
00074978901AB-LIPOSYN II 20% 200ML 12    0000240000013800
00074978903AB-LIPOSYN II 20% 500ML 12    0000240000015800
00074491401AB-MAG. SULF 50% 10ML 20G 10'S0000240000002200
00074403101AB-MANNITOL 25% 50ML 25'S     0000240000002500
00074303001AB-METHYLDOPA 250MG 5ML 25'S  0000240000002800
00074781124AB-METRONI 500MG 100ML BAGG 240000240000007800
00074146301AB-NALBUPHIN HCL 10MG 1ML A 500000040000000800
00074146401AB-NALBUPHIN HCL 10MG FLTP 25 0000240000005500
00074146501AB-NALBUPHIN HCL 20MG 1ML A 500000240000001000
00074146701AB-NALBUPHINE HCL 20MG FLTP 250000240000010000
00074121301AB-NALOXONE .4MG 1ML HYPAK 50 0000240000005900
00074121101AB-NALOXONE .4MG 2ML A 50'S   0000240000001200
00074121601AB-NALOXONE .4MG 2ML FLTP 50'S0000240000001500
00074301902AB-NITROPRES 50MG 2ML EA      0001200000000254
00074626001AB-PENTOTHAL 2.5GM 25         0000240000039000
00074625901AB-PENTOTHAL 2.5GM/2% 25      0000240000042000
00074332901AB-PENTOTHAL 500MG & H20 25   0000240000014000
00074818301AB-POT ACET 40MEQ 50'S        0000240000001800
00074663501AB-POT CHL 10MEQ 5ML 100'S    0000240000001500
00074499101AB-POT CHL 10MEQ 5ML SYR 25   0000240000006000
00000518688AB-POT CHL 20MEQ 10ML 25'S    0000240000000900
00074499201AB-POT CHL 20MEQ 10ML SYR 25  0000240000007000
00074663601AB-POT CHL 30MEQ 15ML 100'S   0000240000001500
00074665305AB-POT CHL 40MEQ 20ML 25'S    0000240000001000
00074499401AB-POT CHL 40MEQ 20ML SYR 25AB0000240000009000
00074729501AB-POT PHOS 45MM 15ML 5       0000240000001500
00000518696AB-QUELICIN 20MG 25X 10ML     0000040000002600
00074329905AB-SOD ACET 2MEQ 50ML FT 25   0000240000003500
00074729901AB-SOD ACET 40MEQ 20ML 25'S   0000240000001500
00000518985AB-SOD BIC 4.2% 10ML 10'S     0000240000001800
00074662502AB-SOD BIC 50MEQ 50ML 50'S    0000240000002500
00074491601AB-SOD BIC 7.5% 50ML A 10'S   0000240000001850
00074410303AB-SOD BIC 7.5% 50ML A 25'S   0000240000004500
00074490001AB-SOD BIC 8.4% 10MEQ 10ML 10 0000240000002200
00074663701AB-SOD BIC 8.4% 10MEQ 50ML 10 0000024000001600
00074660902AB-SOD BIC NEUT 4% 5ML 25S    0000240000005632
00074488899AB-SOD CHL .9% 100ML FLTP 25' 0000240000002200
00000519009AB-SOD CHL .9% 10ML FLTP 100'S0000240000000700
00074488820AB-SOD CHL .9% 20ML FLTP 25'S 0000240000000995
00074488850AB-SOD CHL .9% 50ML FLTP 100'S0000088000001800
00074713809AB-SOD CHL .9% IRRG 1000ML 12 0000240000001600
00074613802AB-SOD CHL .9% IRRG 250ML 12'S0000240000001400
00074613803AB-SOD CHL .9% IRRG 500ML 12'S0000240000001400
00074196605AB-SOD CHL 20ML FLTP 25s      0000240000001250
00074196604AB-SOD CHLOR 10 ML 100S       0000240000001250
00074798303AB-SOD CHLOR INJ .9% 24X500ML 0000240000003000
00074739101AB-SOD PHOS 45MM 15ML FLTP 25 0000240000002100
00074410303AB-SOD. BIC 7.5% INJ 50ML     0000240000004500
00074490001AB-SOD. BIC 8.4% 10ML 10      0000240000002200
00074159304AB-THAM SOL 500ML 6'S         0000240000032800
00074577901AB-TPN ELECTROLYTE II 20ML 50 0000240000006000
00074323601AB-TPN ELECTROLYTE II 20ML 50 0000240000006000
00074384401AB-TPN ELETROLYTE III 20ML 50 0000240000006000
00074338604AB-TUBOCURAMIN CHL 20ML FT 50 0000240000019000
00074716809AB-UROLOGIC G IRRG 100ML 12'S 0000240000004500
00074653301AB-VANCOMYCIN 1GM 25ML FLTP 100000240000008000
00074433201AB-VANCOMYCIN 500MG 10ML FT 100000240000004000
00074114401AB-VERAPAMIL 5MG 2ML FLTP 25  0000240000002000
00071915801AB-VIT K INJ 10ML A 50        0000240000003000
00074915701AB-VIT K INJ 1MG A 50         0000240000005500
00074488799AB-WATER FOR INJ 100ML FLTP 250000240000002780
00074488710AB-WATER FOR INJ 10ML FLTP 25 0000240000000700
00074488720AB-WATER FOR INJ 20ML FLTP 25 0000240000000850
00000536136AB-WATER FOR INJ 50ML FLTP 1000000240000006300
00074149101AB-WATER FOR INJ PRESPIN 25   0000240000005200
05301402410ADM-ATROHIST PLUS TB COM 100s 0000288000005870
05301401210ADM-HUMIBID LA TABS 100s      0000082000003305
01747823235AK-AK SPORE HC 1/8OZ          0000360000000300
01747022112AK-AK-SULF(0221-12)           0000360000000205
00998052635ALC-CETAMIDE OINT 3.5GM       0001860000000950
00998053001ALC-EYE-STR(0530-01)          0000144000000500
00998053004ALC-EYE-STR4(0530-04)         0000144000000760
00000140343ALC-ISOPTO CETAMIDE 15ML      0000670000001000
00998040815ALC-ISOPTO TEARS 15ML         0000012000000685
00000139568ALC-NAPHCON FORTE .1% 15ML    0000200000001034
00000535740ALG-ACULAR .5% SOL 5ML        0000024000002153
01198025220ALG-BETAGAN C .5% BID 10ML    0000012000002632
01198025260ALG-BETAGEN C .5% QD 10ML     0000012000002632
01198031104ALG-BLEPH 10 OINT             0001018000000800
01198001105ALG-BLEPH-10(0011-05)         0000030000000930
00000348052ALG-ERYMAX SOL. 120ML         0002541000001950
00023087860ALG-FLUONID .01% 60ML         0000405000001725
00000104612ALG-LAC(0312-07)              0000073000001100
01198026020ALG-PROPINE C CAP .1% 10ML    0000060000002153
01198026025ALG-PROPINE C CAP 1% 5ML      0000072000001173
00000158287ALH-BECLOVENT INH 16.8GM      0000011000000300
00000121301ALL-EXSEL 2.5% LOTION 4oz     0000100000000989
00517912005AMR-AMINOCARP ACID 250MG 5'S  0000120000000690
00517381025AMR-AMINOPH 250MG 10ML 25'S   0000120000001250
00517382025AMR-AMINOPH 500MG 20ML 25'S   0000120000001380
00517350125AMR-ATROPINE SULF .4MG SDV 25 0000120000000850
00517360125AMR-ATROPINE SULF 1MG SDV 25  0000120000000825
00517881001AMR-BRETYLIUM TOS 500MG SDV EA0000240000000850
00517271025AMR-CAL CHLOR 10% 10ML 25S    0000120000001380
00000613877AMR-CAL GLUC PBP 10% 25X100ML 0000120000006500
00000613885AMR-CALCIUM GLUC 10% 10ML     0000120000001500
00000613893AMR-CALICIUM GLUC 50ML        0000120000004400
00517631025AMR-CHROM CHL SDV 4MG/ML 25s  0000120000002550
00517003225AMR-CYANOCOB 1000MCG MDV 25   0000120000002015
00517490525AMR-DEXAMETH 4MG 5ML 25'S     0000120000002450
00000611194AMR-DEXAMETH SOD PHOS MDV 25  0000120000008000
00517490125AMR-DEXAMETH SOD PHOS SDV 25  0000120000001150
00517190525AMR-DOPAMIN HCL 400MG SDV 25  0000120000004180
00517180525AMR-DOPAMINE 200MG 5ML 25'S   0000120000002245
00517130525AMR-DOPAMINE HCL 800MG SDV 25 0000120000008365
00517970210AMR-DROPERIDOL 2.5MG 2ML 10   0000120000001650
00517970510AMR-DROPERIDOL 2.5MG 5ML 10   0000120000002550
00517106125AMR-EPINEPHRINE 1:1000 1ML A  0000120000000815
00517107125AMR-EPINEPHRINE 1:1000 PF 1ML 0000120000006120
00517571025AMR-FUROSEMIDE 10MG 10ML 25   0000120000002040
00517570225AMR-FUROSEMIDE 10MG SDV 2ML 250000240000000970
00517570425AMR-FUROSEMIDE 10MG SDV 4ML 250000004000001000
00517462025AMR-GLYCOPROL .2MG 20ML MDV 250000120000006425
00517460225AMR-GLYCOPROL .2MG 2ML SDV 25 0000120000001835
00517460525AMR-GLYCOPROL .2MG 5ML MDV 25 0000120000003265
00517460125AMR-GLYCOPYRROLATE .2MG/ML 1ML0000120000001450
00517560225AMR-HYDROX HCL 25S            0000120000001500
00517561025AMR-HYDROXY HCL 50MG/ML 10ML  0000120000003570
00517420125AMR-HYDROXYZINE HCL 25MG  25  0000120000000975
00517560125AMR-HYDROXYZINE HCL 50MG 25   0000120000001125
00517206405AMR-L CYSTEINE USP 50MG/ML 10L0000120000003440
00517062525AMR-LIDOCAINE HCL 1% MDV 25   0000120000001965
00517641025AMR-MAG SULF .1MG/ML 10ML     0000120000002960
00000613968AMR-MAG SULF 50% 10ML SDV 25  0000120000001430
00517029172AMR-MAG SULF 50% 2ML A 100    0000120000004935
00000613976AMR-MAG SULF 50% 2ML SDV 25   0000120000000970
00517265025AMR-MAG SULF 50% 50ML SDV 25  0000120000004100
00517405025AMR-MANNITOL 25% 50ML 25'S    0000120000003165
00517890501AMR-METHLDOPATE HCL 250MG 5ML 0000120000000315
00517028025AMR-MULTI TRACE 4 2ML 25S     0000120000005100
00517900125AMR-MULTI TRACE ELEM-5 CONC 1M0000120000005000
00517901025AMR-MULTI TRACE ELEM-5 REG 10M0000120000005510
00517701025AMR-MULTI TRACE-4 CONC SDV 25 0000120000007650
00517801025AMR-MULTI TRACE-4 PED SDV 25  0000120000005510
00517601025AMR-MULTI TRC ELEM-4 REG 10ML 0000120000005510
00517820125AMR-MULTITRACE -5 1ML 25S     0000120000008160
00517741025AMR-MULTITRACE-4 10ML 25S     0000120000006630
00517721025AMR-MULTITRACE-4 CONC 10ML 25S0000120000015300
00517851025AMR-MULTITRACE-5 10ML 25S     0000120000006630
00517821025AMR-MULTITRACE-5 CONC 10ML 25S0000120000009690
00517660464AMR-NEOSTIGMINE 1:1000 10S    0000120000003060
00517003410AMR-NEOSTIGMINE 1:2000 10S    0000120000003060
00517480510AMR-NITROGLYC 25MG 5ML SDV 10 0000120000003600
00517481010AMR-NITROGLYC 50MG 10ML SDV 100000120000005815
00517310025AMR-NUTRILITE 100ML 25S       0000120000030600
00517200025AMR-NUTRILITE 11 100ML 25S    0000120000022450
00517312025AMR-NUTRILYTE 20ML SDV 25     0000120000005100
00517202025AMR-NUTRILYTE II 20ML SDV 25  0000120000004400
00000613901AMR-POT ACET 200MEQ SDV 25    0000120000007400
00517205325AMR-POT ACET 40MEQ 20ML SDV 250000120000002450
00517211025AMR-POT CHL 20MEQ 10ML MDV 25 0000120000000995
00517212025AMR-POT CHL 40MEQ 10ML SDV 25 0000120000001125
00517222025AMR-POT CHL 40MEQ 20ML SDV 25 0000120000001380
00000613919AMR-POT CHL 60MEQ 30ML MDV 25 0000120000001900
00517235025AMR-POT PHOS 150MM 50ML SDV 250000120000005100
00000613927AMR-POT PHOS 15MM 5ML SDV 25  0000120000001530
00517231525AMR-POT PHOS 45MM 15ML SDV 25 0000120000001530
00517651025AMR-SELENIUM 400MCG SDV 25    0000120000003265
00000613935AMR-SOD ACET 200MEQ SDV 25    0000120000007650
00517209625AMR-SOD ACET 40MEQ SDV 25     0000120000002040
00517063925AMR-SOD BIC 7.5% 50ML SDV 25  0000120000002840
00517155025AMR-SOD BIC.8.4% 50ML TR 25S  0000300000003265
00517290025AMR-SOD CHL CONC 23.4% VIAL 250000120000005900
00517281025AMR-SOD CHLOR .9% 10ML 25S    0000480000001070
00517280225AMR-SOD CHLOR .9% 2ML 25S     0000120000001430
00517064825AMR-SOD CHLOR .9% 30ML 25s    0000120000001840
00517293025AMR-SOD CHLOR CONC 23.4% 30ML 0000120000001800
00000613950AMR-SOD PHOS 150MM 50ML SDV 250000120000006325
00517340525AMR-SOD PHOS 15MM 5ML SDV 25  0000120000001620
00000613943AMR-SOD PHOS 45MM 25ML SDV 25 0000120000002250
00517301025AMR-STERILE WATER 10ML SDV    0000120000001285
00517302025AMR-STERILE WATER 20ML SDV    0000120000001240
00517305025AMR-STERILE WATER 50 ML SDV   0000120000002000
00517300525AMR-STERILE WATER 5ML SDV     0000120000000950
00517051025AMR-VASOPRESSIN 10U/.5ML 25S  0000120000005310
00517102025AMR-VASOPRESSIN 20U/1ML 25S   0000120000008160
00517540205AMR-VERAPAMIL 5MG 2ML 5'S     0000120000000475
00517050172AMR-VERAPAMIL HCL 2ML A 5     0000120000000665
00517540405AMR-VERPAMIL 10MG 4ML 5'S     0000120000000435
00517611025AMR-ZINC SULFATE 1MH 10ML 25'S0000120000002040
00000534446ARM- GAMMAR IV 5GM            0000424000019000
00053749010ARM-GAMMAR IV 10GM            0000102000039000
00053759002ARM-GAMULIN RH SYR 6S         0000600000021000
00053759006ARM-GAMULIN VIAL 300MCG 10S   0000600000030000
00053759003ARM-GAMULIN VIAL 300MCG 25S   0000600000060000
00186149001AST-ALBUTEROL .083% 20ML      0006018000000775
00000158774AST-XYLOCAINE TOP SOL 4% 50ML 0001073000001056
00000158808AST-XYLOCAINE VIS 100ML       0000432000001090
00000611392BAY-GAMIMUNE N 10% 100ML      0000240000032000
00000611384BAY-GAMIMUNE N 10% 50ML       0000240000016125
00000416420BAY-MULTISTIX 10 STP 100s     0000234000004253
01650002415BAY-MYCELEX 1% 15GM           0000400000000510
01650135105BAY-NEO SYNEPH DRP REG 15ML   0000082000000261
08290005176BD-NEEDLE 20X1 1/2G           0000100000000555
08290005165BD-NEEDLE 21X1                0000100000000555
08290005156BD-NEEDLE 22X1 1/2            0000100000000555
08290005145BD-NEEDLE 23X1                0000002000000450
08290005127BD-NEEDLE 25X1 1/2            0000100000000555
08290005122BD-NEEDLE 25X5 1/8G           0000100000000555
08290005110BD-NEEDLE 26X3/8              0000100000000555
08290005175BD-NEEDLE(5175)               0000100000000555
08290005196BD-NEEDLE(5196)               0000100000000555
08290009575BD-SYR(9575)8X100             0000240000000950
08290009661BD-SYR(9661)4X40              0000240000001150
08290009662BD-SYR(9662)4X30              0000240000001250
08290009663BD-SYR(9663)4X30              0000240000001775
08290009604BD-SYRINGE #9604              0000240000001455
08290009664BD-SYRINGE #9664              0000240000001775
08290009602BD-SYRINGE 1ML                0000240000000950
08290009626BD-SYRINGE 1ML 25X5 5/8       0000240000001300
08290009570BD-SYRINGE 25X5 8/10          0000240000000950
08290009585BD-SYRINGE 3ML                0000240000000730
08290009578BD-SYRINGE 3ML 20X1           0000240000001020
08290009577BD-SYRINGE 3ML 21X1 1/2       0000480000000950
08290009572BD-SYRINGE 3ML 22X1           0000480000000950
08290009571BD-SYRINGE 3ML 25X1           0000480000000950
08290009574BD-SYRINGE 3ML 25X1 1/2       0000480000000950
08290009603BD-SYRINGE 5ML 100            0000480000001100
08290009633BD-SYRINGE 5ML 21X1 1/2       0000480000001775
08290009579BD-SYRINGE 9579               0000480000000885
08290009623BD-SYRINGE 9623               0000480000001200
08290009625BD-SYRINGE 9625               0000480000001200
00332220509BIO-AMILORIDE HCL 5/50 100'S  0000100000000600
00322220515BIO-AMILORIDE HCL 5/50 1000'S 0000100000005000
00000534529BIO-AMOXICIL CHEW 250MG 100s  0000100000001695
00332415032BIO-AMOXICILLI 125MG SUS 100ML0000100000000092
00000537829BIO-AMOXICILLI 125MG SUS 150ML0000100000000116
00332415030BIO-AMOXICILLI 125MG SUS 80ML 0000100000000085
00332415532BIO-AMOXICILLI 250MG SUS 100ML0000100000000155
00000550269BIO-AMOXICILLI 250MG SUS 150ML0000100000000175
00332310709BIO-AMOXICILLIN CP 250MG 100s 0000100000000505
00000531947BIO-AMOXICILLIN CP 250MG 500s 0000100000002000
00332310907BIO-AMOXICILLIN CP 500MG 50s  0000100000000505
00322311109BIO-AMPICILLIN 250MG 100'S    0000100000000420
00332311309BIO-AMPICILLIN CP 500MG 100s  0000100000000875
00332223409BIO-BACLOFEN TB 10MG 100s     0000100000000925
00332223609BIO-BACLOFEN TB 20MG 100s     0000100000001650
00000550251BIO-CEPHALEXIN 125MG SUS 100ML0000100000000185
00332314509BIO-CEPHALEXIN 250MG CP 100s  0000100000000720
00332314513BIO-CEPHALEXIN 250MG CP 500s  0000100000002900
00000550244BIO-CEPHALEXIN 250MG SUS 100ML0000100000000245
00000551101BIO-CEPHALEXIN 250MG SUS 200ML0000100000000410
00332314713BIO-CEPHALEXIN 500MG CP 500s  0000100000006200
00332416532BIO-CEPHRADRINE 125MG SUS 100s0000100000000375
00000396275BIO-CEPHRADRINE CP 500MG 100s 0000100000003850
00000428912BIO-CLINDAMYCIN 150MG CP 100s 0000100000004200
00000545350BIO-CLOXACIL SOD CP 250MG 100s0000100000001200
00000537480BIO-CLOXACIL SOD CP 500MG 100s0000100000002320
00000538819BIO-DICLOXACIL SOD 250MG 100s 0000100000001375
00000538827BIO-DICLOXACIL SOD 500MG 100s 0000100000002700
00332211109BIO-IMIPRAMINE HCL TB 10MG 1000000100000000130
00332211309BIO-IMIPRAMINE HCL TB 25MG 1000000100000000155
00332211709BIO-IMIPRAMINE HCL TB 50MG 1000000100000000215
00332319109BIO-KETOPROFEN 25MG CP 100s   0000100000003000
00000534537BIO-KETOPROFEN 50MG CP 100s   0000100000003100
00000534545BIO-KETOPROFEN 75MG CP 100s   0000100000002800
00000534552BIO-KETOPROFEN 75MG CP 500s   0000100000014500
00332220409BIO-METOCLOP 5MG TB 100s      0000100000001180
00332220315BIO-METOCLOP HCL TB 10MG 1000s0000100000000900
00332220309BIO-METOCLOP HCL TB 10MG 100s 0000100000000175
00332220313BIO-METOCLOP HCL TB 10MG 500s 0000100000000580
00332610538BIO-METOCLOP HL 1MG/ML SY 480 0000100000000655
00332316707BIO-MINOCYCLINE 100MG 50'S    0000100000003500
00000340497BIO-NEOMYCIN SUL TB 500MG 100s0000100000000960
00000539486BIO-NYSTATIN OR 100MU SU 480ML0000100000001425
00000249672BIO-OXACILL SOD CP 250MG 100s 0000100000001375
00000249680BIO-OXACILL SOD CP 500MG 100s 0000100000002600
00332117215BIO-PENACIL VK OVL 250MG 1000s0000100000002400
00332117209BIO-PENACIL VK OVL 250MG 100s 0000100000000260
00332117415BIO-PENACIL VK OVL 500MG 1000s0000100000004500
00332117409BIO-PENACIL VK OVL 500MG 100s 0000100000000510
00332117115BIO-PENACIL VK RND 250MG 1000s0000100000002425
00332117109BIO-PENACIL VK RND 250MG 100s 0000100000000300
00332117315BIO-PENACIL VK RND 500MG 1000s0000100000004600
00000614651BIO-PENACILL VK 125MG SU 100ML0000100000000095
00000615997BIO-PENACILL VK 125MG SU 200ML0000100000000145
00000615971BIO-PENACILL VK 250MG SU 100ML0000100000000120
00000615989BIO-PENACILL VK 250MG SU 200ML0000100000000205
00000493106BIO-SULFAMETH TMP SUS 480ML   0000100000000425
00032213213BIO-SULFAMETH/TMP DS TB 500s  0000100000002600
00000501494BIO-TRIMETHOPRI TB 200MG 100s 0000100000001950
05073290101BKN-VERAPAMIL 240MG TAB 100S  0005000000004200
05073091501BKN-VERAPAMIL SR 180MG 100s   0000432000004800
00303002013BL-DUOLUBE LIQ 3.5GM          0000144000000530
02420827715BL-MURO 128 5% 15ML           0000096000000785
00303827730BL-MURO 128 SOL 5% 30ML       0000084000000950
01915302320BR-AMIKIN VL 1GM 10X4ML       0003600000003300
00015302020BR-AMIKIN VL 500MG 10X2ML     0003600000001850
00015710028BR-AMPICILLIN 10GM BULK VL 10s0001440000010235
00015740436BR-AMPICILLIN 1GM PB 100ML 10s0001440000001455
00000475426BR-AMPICILLIN 1GM VL 10s      0001440000000905
00015740220BR-AMPICILLIN 250MG VL 10s    0001440000000600
00015740518BR-AMPICILLIN 2GM ADDV 10s    0001440000002344
00015740528BR-AMPICILLIN 2GM PB 100ML 10s0001440000002385
00015740520BR-AMPICILLIN 2GM VL 10s      0001440000001826
00015740331BR-AMPICILLIN 500MG PB 100ML  0001440000001400
00015740320BR-AMPICILLIN 500MG VL 10s    0001440000000620
00015740118BR-AMPICILLIN INJ 125MG 10s   0001440000000970
00015740418BR-AMPICILLIN INJ ADDV 10s    0001440000001500
00000153338BR-CYTOXAN 100MG 12'S         0000100000003700
00015050541BR-CYTOXAN 1GM 6'S            0000100000015000
00015050141BR-CYTOXAN 200MG 12'S         0000100000006500
00015050641BR-CYTOXAN 2GM 6'S            0000100000027500
00015050241BR-CYTOXAN 500MG 12'S         0000100000016500
00015053941BR-CYTOXAN LYOPH 100MG 12'S   0000500000004250
00015054841BR-CYTOXAN LYOPH 1GR 6'S      0000500000016500
00015054641BR-CYTOXAN LYOPH 200MG 12'S   0000500000008000
00015054941BR-CYTOXAN LYOPH 2GR 6'S      0000500000033000
00000351544BR-CYTOXAN LYOPH 500MG 12'S   0000500000018000
00015605811BR-DICLOXACILLIN 500MG 100s   0000300000002300
00003585002BR-DILTIAZEM 120MG TB 100s    0000300000001900
00003525004BR-DILTIAZEM 30MG 1000s       0000300000005000
00003525003BR-DILTIAZEM 30MG 500s        0000300000002850
00003525002BR-DILTIAZEM 30MG TB 100s     0000300000000600
00003555004BR-DILTIAZEM 60MG 1000s       0000300000008500
00003555002BR-DILTIAZEM 60MG TB 100s     0000300000000930
00000551903BR-DILTIAZEM 60MG TB 500s     0000300000004500
00003577002BR-DILTIAZEM 90MG TB 100s     0000300000001400
00003577003BR-DILTIAZEM 90MG TB 500s     0000300000006000
00000626945BR-FUNGIZONE IV VL 50MG       0004800000001250
00087076043BR-K-LYTE 25MEQ LIME 100S     0000600000005500
00000154062BR-K-LYTE 25MEQ LIME 30S      0000600000001750
00000253914BR-K-LYTE 25MEQ OR. 100S      0000600000005500
00000154088BR-K-LYTE 25MEQ OR. 30S       0000600000001750
00000253930BR-K-LYTE CL CITRUS 100S      0000600000005500
00000154104BR-K-LYTE CL CITRUS 30'S      0000600000001750
00000253948BR-K-LYTE CL FRUIT 100S       0000600000005500
00000154120BR-K-LYTE CL FRUIT 30'S       0000600000001750
00087077242BR-K-LYTE DS LIME 100S        0000600000009000
00087077241BR-K-LYTE DS LIME 30S         0000600000003250
00000154153BR-K-LYTE DS OR. 100S         0000600000009000
00000154146BR-K-LYTE DS OR. 30S          0000600000003250
00000249474BR-KLOTRIX 10MEQ 100'S        0000108000001599
00000251082BR-KLOTRIX TAB 10MEQ 1000s    0000130000016500
00000153718BR-MEGASE 20MG. 100S          0000600000005150
00000153726BR-MEGASE 40MG. 100S          0000600000009600
00000366898BR-MEGASE 40MG. 250S          0000600000024000
00015059645BR-MEGASE 40MG. 500S          0000600000045900
00000153585BR-MUCOMYST 10% 10ML 3'S      0000500000003000
00000153593BR-MUCOMYST 10% 30ML 3'S      0000500000007900
00087057206BR-MUCOMYST 10% 4ML 12'S      0000500000005000
00087057002BR-MUCOMYST 20% 10ML 3'S      0000500000003600
00087057026BR-MUCOMYST 20% 30ML 3'S      0000500000009500
00087057008BR-MUCOMYST 20% 4ML 12'S      0000500000005900
00003246203BR-NADOLOL 40MG 1000S         0000300000050000
00003246201BR-NADOLOL 40MG 100S          0000300000005100
00003246303BR-NADOLOL 80MG 1000S         0000072000072500
00003246301BR-NADOLOL 80MG 100S          0000300000007700
00003246101BR-NADOLOL TABS 20MG 100s     0000300000004700
00015710128BR-NAFCIL 10GM BULK VL 10s    0001440000020000
00015722589BR-NAFCIL 1GM ADDVANT 10'S    0001440000002345
00015719528BR-NAFCIL 1GM PB 100ML 10s    0001440000002362
00015722599BR-NAFCIL 1GR 10'S            0001440000002025
00015722687BR-NAFCIL 2GM ADDVANT 10'S    0001440000003484
00015719628BR-NAFCIL 2GM PB 100ML 10s    0001440000003500
00015722699BR-NAFCIL 2GR 10'S            0001440000003500
00015722420BR-NAFCIL 500MG VL 10s        0001440000001135
00000118893BR-NALDECON TAB 100s          0000240000007700
00015710328BR-OXACILLIN 10GM BULK VL 10s 0000300000018000
00015798118BR-OXACILLIN 1GM ADD A VL 10s 0000300000001600
00015797020BR-OXACILLIN 2GM VL 10s       0000300000003000
00015797920BR-OXACILLIN 500MG VL 10s     0000300000001395
00015073531BR-PENICILLIN G POT 20mm 10s  0000300000005635
00003080110BR-PROLIXIN 5MG/ML SUS 4oz    0000024000007235
00015272530BR-TOBRAMYCIN 40MG/ML 30ML    0001440000004736
00015272510BR-TOBRAMYCIN 80 25X2CC       0000300000010000
00000370783BR-VEPESID 100MG.             0000500000009800
00015308420BR-VEPESID 150MG              0000500000015200
00015306220BR-VEPESID 1GM.               0000100000095000
00015306120BR-VEPESID 500MG.             0000300000048800
00000438457BRR-LEUCOV CAL TB 25MG 25s    0000360000023704
00000443788BRR-LEUCOVORIN CAL 5MG 100s   0000360000012725
00000468843BRR-METHOTREX TB 2.5MG 100s   0000360000011500
00000470856BRR-METHOTREX TB 2.5MG 36s    0000360000005800
00555057247BRR-METHOTREXATE 10MG (4X4)   0000360000003071
00555057248BRR-METHOTREXATE 12.5MG (4X5) 0000360000004086
00555047249BRR-METHOTREXATE 15MG (4X6)   0000360000004870
00555057245BRR-METHOTREXATE 5MG (4X2)    0000360000001644
00555057246BRR-METHOTREXATE 7.5MG (4X3)  0000360000002425
00524040510BTS-ALLOPURINOL 100MG TB 1000s0000288000001900
00524040501BTS-ALLOPURINOL 100MG TB 100s 0000288000000250
00524041010BTS-ALLOPURINOL 300MG TB 1000s0000288000004650
00524041001BTS-ALLOPURINOL 300MG TB 100s 0000288000000550
00524041005BTS-ALLOPURINOL 300MG TB 500s 0000288000002450
00000434688BTS-E-MYCIN 250MG 500         0000072000003800
00000433185BTS-E-MYCIN 333MG 100'S       0000141000002325
00000434696BTS-E-MYCIN 333MG 500'S       0000197000009600
00524016501BTS-IBUPROFEN 400MG TB 100s   0000288000000240
00000570895BTS-IBUPROFEN 400MG TB 500s   0000288000001000
00000570903BTS-IBUPROFEN 600MG 500s      0000288000001400
00524016201BTS-IBUPROFEN 600MG TB 100s   0000288000000300
00524000406BTS-IBUPROFEN 800MG 500s      0000864000002075
00524017301BTS-IBUPROFEN 800MG TB 100s   0000288000000480
00000466391BTS-RU-TUSS DE TABS 100s      0000007000004825
00048050071BTS-SSD RP CREAM 50GM         0000018000000100
00000357319BW-WELLCOVORIN 25MG 25'S      0000050000030000
00000357301BW-WELLCOVORIN 5MG 100'S      0000300000019000
00081063893BW-WELLCOVORIN VL. 100MG.     0000100000000600
00102232011CETY-CETACAINE SP 56GM.       0002400000002198
05390521203CHR-ACETYLCTSTEIN 10% 3X30ML  0000240000007062
05390521103CHR-ACETYLCYSTEIN 10% 3X10ML  0000240000002566
05390521303CHR-ACETYLCYSTEIN 20% 3X10ML  0000240000003107
05390521403CHR-ACETYLCYSTEIN 20% 3X30ML  0000240000008307
05390513110CHR-CYTARABINE 100MG VL 10s   0000200000004600
05390513210CHR-CYTARABINE 500MG LYOPH    0000288000011000
05390513301CHR-CYTARABINE LYOPH 1GM      0001200000007140
05390513401CHR-CYTARABINE LYOPH 2GM      0001200000013600
05390523110CHR-DOXORUB LYOP 10MG 10'S    0000240000016500
05390523301CHR-DOXORUB LYOP 50MG         0000240000009000
05390523510CHR-DOXORUB SOL 10MG 5ML 10'S 0000240000019000
05390523801CHR-DOXORUB SOL 200MG 100ML   0000072000064300
05390523610CHR-DOXORUB SOL 20MG 10ML 6'S 0000240000025000
05390523701CHR-DOXORUB SOL 50MG 25ML EA  0000240000008500
05390523606CHR-DOXORUBICIN 20MG 6S       0000240000026000
05390029101CHR-ETOPOSIDE 100MG           0000240000004500
05390505210CHR-LEUCOVORIN 100MG 10       0000240000004600
05390505110CHR-LEUCOVORIN 50MG 10'S      0000240000002500
05390503410CHR-METHOTREX 25MG/ML 10X10ML 0000240000006000
05390503110CHR-METHOTREX 25MG/ML 10X2ML  0000240000003000
05390503210CHR-METHOTREX 25MG/ML 10X4ML  0000240000004500
05390503310CHR-METHOTREX 25MG/ML 10X8ML  0000240000005000
05390525201CHR-MITOMYCIN 20MG VL         0000240000027040
05390521303CHR-MITOMYCIN 5MG VL          0000240000008170
05390509110CHR-VINBLASTINE 10MG 10'S     0000240000009500
00000150029CIB-APRESOLINE 25 MG 100      0000048000002330
00000150201CIB-APRESOLINE 50MG 100       0000024000003435
00000137968CIB-VASOCON REG 15ML          0000455000001100
00338049002CLI-INTRALIPID 10% 250ML 10'S 0000500000010650
00338049003CLI-INTRALIPIDS 10% 500ML 10  0000500000011000
00338049102CLI-INTRALIPIDS 20% 250ML 10'S0000500000011700
00338049103CLI-INTRALIPIDS 20% 500ML 10'S0000500000020500
01179752201CNN-TUBERSOL 5TU 10 TST VL 1ML0006000000000725
01179752202CNN-TUBERSOL 5TU TST VL 5ML   0006000000001550
00000140947DER-BENZAGEL 10 GEL 10% 90gm  0000072000001400
00000140939DER-BENZAGEL 10% GEL 1.5 OZ   0000012000001160
00000140913DER-BENZAGEL 5 42.5GM         0000012000001100
00000140921DER-BENZAGEL 5% GEL 3 OZ      0000028000001450
00000101634DER-HYTONE 2.5% LOT 2oz       0000012000001932
00000140814DER-HYTONE CRM 1% 1 OZ        0000240000000645
00000140863DER-HYTONE CRM 2.5% 1 OZ      0000300000001300
00000241943DER-HYTONE CRM 2.5% 2 OZ      0000360000002087
00000101501DER-HYTONE LOTION 1% 4 OZ     0000090000001700
00000140848DER-HYTONE OINT 1% 1 OZ       0000132000000775
00000272534DER-HYTONE OINT 2.5% 1 OZ     0000072000001425
04950069703DEY-ALBUTEROL .083% 30X3ML    0000288000001650
04950069703DEY-ALBUTEROL .83MG 3ML 25s   0002400000001200
04950069760DEY-ALBUTEROL .83MG 3ML 60s   0000360000002400
04950068912DEY-CROMOLYN INH 20MG 2MML/1200000720000005800
04950266103DEY-ISOETHARINE .08% 100X3ML  0000240000002600
04950266003DEY-ISOETHARINE .17% 100X3ML  0000240000002550
04950065902DEY-ISOETHARINE .25% 100X2ML  0000240000002550
04950267603DEY-MET SUL(676-03)           0000564000000975
04950218104DEY-MUCOSIL(0181-04)          0000240000002400
04950218110DEY-MUCOSIL(0181-10)          0000240000001425
04950218130DEY-MUCOSIL(0181-30)          0000240000002800
04950218204DEY-MUCOSIL(0182-04)          0000240000002400
01950218210DEY-MUCOSIL(0182-10)          0000240000001500
04950218230DEY-MUCOSIL(0182-30)          0000240000002700
04950082003DEY-SOD CHLOR .45% 3ml 100s   0000600000001100
04950082005DEY-SOD CHLOR .45% 5ML 100s   0000600000001100
04950064015DEY-SOD CHLOR 3% VL 15ML 50s  0000600000003800
04950264115DEY-SODIUM CHL .10% 15ML 50   0000600000003800
04950203010DEY-SODIUM CHL .9% 10ML 125   0000600000003300
04950083003DEY-SODIUM CHL .9% 3ML 100    0006000000001090
04950203003DEY-SODIUM CHL .9% 3ML 250    0000600000003300
04950083005DEY-SODIUM CHL .9% 5ML 100    0006000000001100
04950203005DEY-SODIUM CHL .9% 5ML 250    0000600000003300
04950081003DEY-WATER INH AMP 3ML 100s    0000600000001150
00000165274DOW-GRANULEX SP. 4OZ.         0000108000001300
00056036505DUP-NARCAN .4MG 10ML EA       0000235000002800
00000136929DUP-NARCAN .4MG 1ML 10'S      0000017000002475
00590039810DUP-NUBAIN 20MG/ML 10'S       0000020000002275
00000604546DUP-NUBAIN 20MG/ML 10ML EA    0000201000002650
00000136960DUP-NUBAIN AMP 20MG 10'S      0000010000001500
00000136978DUP-NUBAIN VIAL 10MG          0000048000001735
00000244061DUP-SINEMET 25/100MG 100S     0000240000005225
05128536402DUR-DURADRIN CAPS 100s        0000120000000960
05128530102DUR-METHYLPRED 4MG TB 100s    0000288000002935
05147901103DURA-TORNALATE 2% 30ML        0001572000001095
00000370031DURA-TORNALATE COM.INH 15ML   0000360000002675
06095163270END-CIMETIDINE TAB 400MG 100s 0000600000004600
06095163170END-CIMETIDINE TB 300MG 100s  0000600000003000
00000431882FOR-AEROCHAMBER MIS W/MASK    0000228000002575
00000265702FOR-ANTILIRIUM 2ML 12s        0000100000007000
00456070701FOR-CEBO CAP BL.              0000012000001700
00456070801FOR-CEBO CAP GR.              0000039000001700
00456070901FOR-CEBO CAP OR.              0000179000001875
00000130203FOR-ELIXOPHYLLIN ELIX 16OZ    0001000000002100
00456001201FOR-ESGIC CAP 100'S           0000019000003800
00000627406FOR-KAY CIEL PWD PKT 100'S    0000009000005000
00000257691FOR-LEVOTHROID .125MG 100     0000265000001700
00456032501FOR-LEVOTHROID .15MG 100      0000150000001600
00000135905FOR-LEVOTHROID .175MG 100     0000906000002000
00000135871FOR-LEVOTHROID .5MG 100'S     0000192000001215
00456032201FOR-LEVOTHROID .75MG 100      0001073000001375
00456046201FOR-THYROID 180MG 100         0001890000002000
00000164103FOU-ANALGES OIN 30GM          0000240000000065
00168017215FOU-ATROPINE 1% EYE DR 15ML   0000240000000153
00000164277FOU-ATROPINE SULF             0000288000000135
00168001135FOU-BACITRAC 500U/GM OIN 15GM 0000240000000062
00000499384FOU-BACITRAC 500U/GM OIN 30GM 0000240000000088
00168002135FOU-BACITRAC/POLY OIN 15GM    0000240000000108
00000164087FOU-BACITRACIN 3.5GM          0000288000000135
00000356006FOU-BACITRACIN NEO 144X1      0000288000000702
00000355990FOU-BACITRACIN OINT 144X1/32oz0000288000000600
00168002131FOU-BACITRACIN ZINC POLY SULF 0000288000000165
00000360974FOU-BETAMETH DIP CRM .05% 15  0000288000000240
00000499913FOU-BETAMETH DIP CRM .05% 45  0000576000000400
00000377184FOU-BETAMETH DIP LOT .05% 60  0000288000000510
00000399774FOU-BETAMETH DIP OINT .05% 15 0000288000000240
00000499905FOU-BETAMETH DIP OINT .05% 45 0000288000000410
00000506584FOU-BETAMETH VAL CRM .1% 15   0000288000000120
00000506592FOU-BETAMETH VAL CRM .1% 45   0000288000000250
00000350561FOU-BETAMETH VAL LOT 60GM     0000288000000375
00000506568FOU-BETAMETH VAL OINT .1% 15  0000288000000120
00000506576FOU-BETAMETH VAL OINT .1% 45  0000282000000237
00168004516FOU-COLD CREAM 454GM          0000240000000775
00168004631FOU-DIBUCAINE 1% OINT 30GM    0000240000000108
00000259572FOU-EFODINE 10% OINT 30GM     0000240000000090
00168009016FOU-EFODINE 10% OINT 454GM    0000240000000725
00000356014FOU-EFODINE OINT FOIL 144X1/320000288000000700
00000353177FOU-ERTHYOMYCIN OPT OINT 48   0000864000000260
00168005815FOU-FLUOCIN .01% CR 15GM      0000240000000110
00000242594FOU-FLUOCIN .01% CR 60GM      0000240000000225
00000365767FOU-FLUOCIN ACET .025%        0000288000000280
00000242859FOU-FLUOCIN ACET 15GM .025%   0000288000000130
00000365759FOU-FLUOCIN ACET OINT .025%   0000144000000120
00000372979FOU-FLUOCIN ACET SOL .01%60ML 0000288000000330
00000242867FOU-FLUOCINOLONE ACET CRM 60  0000288000000280
00000499400FOU-GENTAMICIN CRM .1% 15     0000288000000155
00000501650FOU-GENTAMICIN OINT .1% 15    0000576000000143
00000499921FOU-HYDROCORT .5% CR 30GM     0000240000000085
00000502492FOU-HYDROCORT 1% CR 30GM      0000240000000115
00000476473FOU-HYDROCORT CR 2.5% 30GM    0000432000000260
00000499939FOU-HYDROCORT CRM 1% 1OZ      0000288000000112
00000499392FOU-HYDROCORT OINT 1%         0000288000000112
00000369397FOU-HYDROCORT. OINT .5% 1OZ   0000288000000085
00000502518FOU-MICONAZOLE 2% CR 30GM     0000240000000140
00000357525FOU-NEO/POLY/DEX OIN 3.5GM    0000240000000242
00000259606FOU-NITROGLY 2% OINT 30GM     0000288000000250
00000259614FOU-NITROGLYCERINE OINT 60GM  0000288000000425
00168005415FOU-NYSTATIN CR 15GM          0000432000000092
00000341693FOU-NYSTATIN CRM 30GM         0000282000000150
00000351254FOU-NYSTATIN OINT 15GM        0000288000000095
00168003760FOU-NYSTATIN ORAL 60ML        0000288000000270
00000222737FOU-NYSTATIN TRIAM ACET CRM 150000282000000096
00000259945FOU-NYSTATIN TRIAM ACET CRM 300000288000000185
00000506121FOU-NYSTATIN TRIAM ACET CRM 600000144000000354
00000249888FOU-NYSTATIN TRIAM ACET ONT 150000288000000115
00000256222FOU-NYSTATIN TRIAM ACET ONT 300000288000000215
00000249870FOU-NYSTATIN/TRI OIN 60GM     0000240000000400
00000403261FOU-PETROLATUM WHT 144X5GM    0000288000000650
00168017315FOU-PILO HYDRO 1% 15ML        0000288000000230
00168017415FOU-PILO HYDRO 2% 15ML        0000288000000310
00168017515FOU-PILO HYDRO 4% 15ML        0000288000000385
00000496356FOU-PURALUBE EYE OIN 3.5GM    0000240000000160
00000257048FOU-SULFACET 10% EYE OIN 3.5GM0000240000000135
00000257048FOU-SULFSCETMIDE SOP 10% 3.5GM0000288000000135
00000356022FOU-SURGILUBE FOIL PK 3GM R   0000288000000525
00000537605FOU-TOLNAFTE 1% CR 15GM       0000240000000097
00000222687FOU-TRIAMCIN .025% CR 15GM    0000240000000066
00168000580FOU-TRIAMCIN .025% OIN 80GM   0000240000000166
00000222695FOU-TRIAMCIN ACET CRM 80GM    0000282000000161
00000256263FOU-TRIAMCIN ACET OINT .1 80GM0000288000000240
00168000580FOU-TRIAMCIN ACET OINT .25 80 0000288000000168
00000222703FOU-TRIAMCIN CRM .1% 15GM     0000432000000080
00000222729FOU-TRIAMCIN CRM .5% 5GM      0000432000000210
00000256255FOU-TRIAMCIN OINT .1% 15GM    0000288000000080
00168000416FOU-TRIAMCINOLONE CRM .1% 16OZ0000288000001136
00000222711FOU-TRIAMIN(0004-80)          0000282000000232
00000357517FOU-TRIPLE ANT EYE OIN 3.5GM  0000240000000145
00000356006FOU-TRIPLE ANT OIN .9GM 144s  0000240000000700
00168001235FOU-TRIPLE ANT OIN 15GM       0000240000000074
00168001231FOU-TRIPLE ANT OIN 30GM       0000240000000103
00000164095FOU-VIT A&D OIN 1lb JAR       0000240000000360
00168003504FOU-VIT A&D OIN 4oz           0000240000000128
00093233090FUJ-AMPHOTER B 50MG           0000000000002375
00000618652FUJ-ARISTOCORT R .1% CR 15GM  0000120000000625
00469709215FUJ-ARISTOCORT REG CRM .1% 15 0000288000000425
00469023425FUJ-ATROPINE .4MG 20ML        0000008000002450
00469024625FUJ-ATROPINE SULF 1MG/SDV 25  0000045000001420
00469231125FUJ-CALCIUM CLUC SDV 10% 50ML 0000004000006700
00469705460FUJ-CYCL CRM. 60GM.           0000288000002600
00469740460FUJ-CYCL LOT 60ML             0000012000002635
00469711530FUJ-CYCL OINT. 30GM.          0000036000002026
00469711560FUJ-CYCL OINT. 60GM.          0000030000002600
00469130130FUJ-DOXY 100MG 5S (1300-30)   0000072000004800
00469164040FUJ-DOXYCYCLINE 200 20CC      0000600000001912
00000517284FUJ-HEPARIN BEEF LUNG 10ML 25 0000012000004845
00000612259FUJ-HEPARIN SOD 10MU 1ML 25   0000016000002730
00469146040FUJ-LYPHOLITE 2 20MG 25S      0000036000008500
00000621474FUJ-MANNITOL SDV 25% 50ML A 250000023000004050
05731721006FUJ-NEBUPENT(0210-06)         0000120000007400
00469383030FUJ-NEOSTIGMINE 10S           0000048000004200
00469382030FUJ-NEOSTIGMINE 1:2000        0000030000004000
05731721103FUJ-PENTAM(0211-03)           0000017000072000
00000511907FUJ-WATER SDV 10ML 25S        0000024000001500
05784491501GAT-MOBAN 10MG 100S           0000360000006100
05784491601GAT-MOBAN 25MG 100S           0000360000009050
05784491701GAT-MOBAN 50MG 100S           0000360000012200
05784491401GAT-MOBAN 5MG 100S            0000360000004250
05784492012GAT-MOBAN DROP 20MG/ML 4oz    0000060000009130
05784418701GAT-ORAP 2MG TABS 100s        0000360000005475
00703903203GEN-AMIKACIN 250MG 2ML 10S    0000120000035000
00703904003GEN-AMIKACIN 250MG 4ML 10S    0000120000072500
00703902203GEN-AMIKACIN SULF 50MG 2ML 10S0000120000025000
00703352401GEN-DEXAMETH 10MG/ML 10ML EA  0000480000000300
00703181503GEN-DOBUTAMINE SDV 12.5MG 20MS0000120000022000
00703564601GEN-ETOPOSIDE 20MG/ML 25ML    0000120000040000
00703564301GEN-ETOPOSIDE 20MG/ML 5ML     0000360000008900
00703532403GEN-L-CYCSTINE 50MG 10ML 10'S 0000120000005500
00703532803GEN-L-CYSTEINE HCL 50MG 10s   0000120000022000
00703540801GEN-LEVOTHYR SOD 200MG 6ML    0000120000000700
00703450204GEN-METOCLOPRAMINE 5MG/ML     0000120000001700
00703271103GEN-NEOSTIGMINE .5MG 1ML 10'S 0000120000001200
00703271403GEN-NEOSTIGMINE 10ML 10'S     0000120000001800
00703270403GEN-NEOSTIGMINE 1MG 10ML 10'S 0000120000001850
00703280403GEN-PANCURONIUM 1MG 10ML 10'S 0000120000002800
00703281204GEN-PANCURONIUM 2MG 2ML 25'S  0000120000003500
00703282304GEN-PANCURONIUM 2MG 5ML 25'S  0000120000005500
00703533803GEN-SOD CHL 23.4 100ML 10S    0000120000002900
00703180201GEN-SOD NITROP 50MG 2ML       0000120000000190
00000625285GG-GLIPIZIDE 10MG 100S        0000288000009900
00000625277GG-GLIPIZIDE 5MG 1000S        0000288000018900
00000256172GGY-LIORESAL DS TAB 20MG 100S 0000006000007000
00000124487GGY-TOFRANIL 10MG 100         0000226000002060
00000124743GGY-TOFRANIL 50MG 100         0000066000005800
00182170110GL-BENXZTROPINE MESY 2MG 1000S0000600000002150
00182129901GL-BENZTROPINE MESY .5MG 100'S0000600000000200
00182170101GL-BENZTROPINE MESY 2MG 100'S 0000600000000300
00182182101GL-CARISOPR COMPND TB 100s    0000600000004500
00182182105GL-CARISOPR COMPND TB 500s    0000600000020500
00182107901GL-CARISOPRODOL 350MG TB 100s 0000600000000550
00182107910GL-CARISOPRODOL TB 350MG 1000s0000600000004250
00182127801GL-CEPHALEXIN 250MG 100'S     0000600000001000
00182127901GL-CEPHALEXIN 500MG 100'S     0000600000001800
00182198389GL-CIMETIDINE 200MG UD 100s   0001200000003150
00182198489GL-CIMETIDINE 300MG UD 100s   0001200000003256
00182198501GL-CIMETIDINE 400MG 100s      0001200000005300
00182198505GL-CIMETIDINE 400MG 500s      0001200000026127
00182198589GL-CIMETIDINE 400MG UD 100s   0001200000005320
00182198689GL-CIMETIDINE 800MG UD 100s   0001200000009330
00182616444GL-CIMETIDINE ORAL 8oz        0000600000005500
00182371109GL-DAIRYEASE                  0000600000000290
00182133201GL-DESIPRAMINE 25MG 100'S     0000600000000800
00182133301GL-DESIPRAMINE 50MG 100'S     0000600000001200
00182051910GL-DICYCLOMINE 10MG CP 1000s  0001200000013300
00182051901GL-DICYCLOMINE 10MG CP 100s   0001200000001500
00182174401GL-DISOPYRAMIDE CAP 150MG 100 0000600000000900
00182836389GL-DOCUSATE SOD CAP 100MG U/D 0000600000000300
00182836489GL-DOCUSATE SOD CAP 250MG U/D 0000600000000400
00182038189GL-FERROUS SULF SC 5GR UD 100 0000600000000250
00182114952GL-FLUOCINOLONE ACET CRM 60GM 0000600000000225
00182173156GL-FLUOCINONIDE CRM .5% 30GM  0000600000000400
00182173601GL-FUROSEMIDE 80MG 100'S      0000600000000450
00182199501GL-GLIPIZIDE 10MG 100s        0000600000003395
00182199505GL-GLIPIZIDE 10MG 500s        0000600000016000
00182199401GL-GLIPIZIDE 5MG 100s         0000600000001895
00182199405GL-GLIPIZIDE 5MG 500s         0000600000008800
00182121919GL-GLYBURIDE 1.25MG TB 50s    0000600000000545
00182122001GL-GLYBURIDE 2.5MG TB 100s    0000600000001650
00182122005GL-GLYBURIDE 2.5MG TB 500s    0000600000007900
00182122110GL-GLYBURIDE 5MG TB 1000s     0000600000021872
00182124201GL-HALOPERIDOL .5MG 100'S     0000600000000300
00182126305GL-HALOPERIDOL 1MG 500'S      0000600000001000
00182126401GL-HALOPERIDOL 2MG 100'S      0000600000000400
00182124401GL-HALOPERIDOL ORG. 2MG 100   0000600000001434
00182055501GL-HYDRALAZINE 50MG TB 100s   0000600000000199
00182095134GL-HYDROCORT .5% CR 1oz       0000600000000114
00182149289GL-HYDROXYZINE 10MG U/D 100   0000600000000400
00182149389GL-HYDROXYZINE 25MG U/D 100   0000600000000500
00182177005GL-IBUPROFEN 300MG 500'S      0000600000002030
00182180901GL-IBUPROFEN 400MG 100        0000600000000350
00182181001GL-IBUPROFEN 500MG 100        0000600000000720
00182181005GL-IBUPROFEN 600MG 500'S      0000600000001500
00182129701GL-IBUPROFEN 800MG 100'S      0000600000000700
00182129705GL-IBUPROFEN 800MG 500'S      0000600000001850
00182168101GL-INDOMETHACIN 25MG 100'S    0000600000000350
00182168110GL-INDOMETHACIN 25MG 1000'S   0000600000001700
00182168105GL-INDOMETHACIN 25MG 500'S    0000600000000900
00182168189GL-INDOMETHACIN 25MG UD 100   0000600000000600
00182168201GL-INDOMETHACIN 50MG 100'S    0000600000000550
00182168205GL-INDOMETHACIN 50MG 500'S    0000600000001600
00182087110GL-MECLIZINE 12.5MG TB 1000s  0000600000001450
00182119619GL-MEDROXYPROGEST 10MG 50'S   0000600000000475
00182178501GL-METHYLDOPA 250MG 100       0000600000000650
00182178510GL-METHYLDOPA 250MG 1000'S    0000600000004500
00182178605GL-METHYLDOPA 500HG 500'S     0000600000004500
00182183101GL-METHYLDOPA W/HCTZ 250MG 1000000600000000900
00182178989GL-METOCLOPRAMIDE 10MG UD 100 0000600000000600
00182133089GL-METRONIDAZOLE 250MG UD 100 0000600000000700
00182151789GL-METRONIDAZOLE 500MG UD 100 0000600000001000
00182133005GL-METRONODAZOLE 250MG 500'S  0000600000001400
00182197101GL-NAPROXEN 250MG TB 100s     0000600000000719
00182197105GL-NAPROXEN 250MG TB 500s     0000600000003494
00182197201GL-NAPROXEN 375MG TB 100s     0000600000000910
00182197205GL-NAPROXEN 375MG TB 500s     0000600000004452
00182197301GL-NAPROXEN 500MG 100s        0000600000001129
00182197305GL-NAPROXEN 500MG TB 500s     0000600000005549
00182197401GL-NAPROXEN SOD 275MG 100s    0000600000001045
00182197405GL-NAPROXEN SOD 275MG 500s    0000600000005002
00182197501GL-NAPROXEN SOD 550MG 100s    0000600000001652
00182197505GL-NAPROXEN SOD 550MG 500s    0000600000008133
00182070289GL-NITROGLYCERINE 2.5MG UD 1000000600000000500
00182070389GL-NITROGLYCERINE 6.5MG UD 1000000600000000550
00182167089GL-NITROGLYCERINE 9MG U/D 100 0000600000000700
00182123501GL-PERPHEN/AMITRIP 2/10 100   0000600000000700
00182123601GL-PERPHEN/AMITRIP 2/25 100   0000600000000800
00182123701GL-PERPHEN/AMITRIP 4/10 100   0000600000000775
00182123801GL-PERPHEN/AMITRIP 4/25/100   0000600000000900
00182192002GL-PRAZOSIN 1MG 250'S         0000600000001000
00182192102GL-PRAZOSIN 2MG 250'S         0000600000001400
00182192201GL-PRAZOSIN 5MG 100           0000600000001200
00182446001GL-PRENATAL S TAB 100s        0000600000000299
00182170701GL-PROCAINAMIDE SR 250MG 100  0000600000000845
00182170801GL-PROCAINAMIDE SR 500MG 100  0000600000001290
00182170805GL-PROCAINAMIDE SR 500MG 500  0000600000005666
00182170901GL-PROCAINAMIDE SR 750MG 100  0000600000001500
00182176001GL-PROPRANOLOL 40MG 100       0000600000000220
00182175901GL-PRORANOLOL 20MG 100        0000600000000150
00182884489GL-SULFAMETH TRI 160MG UD 100 0000600000000900
00182170501GL-SULINDAC 150MG 100s        0000600000001950
00182170601GL-SULINDAC 200mg 100s        0000600000004054
00182170605GL-SULINDAC 200MG 500s        0000600000019017
00182131301GL-THEOPHYLLINE 200MG CP 100s 0000600000002111
00182183701GL-THIOTHIXENE 5MG 100        0000600000002159
00182183801GL-THIOTIXENE 10MG 100        0000600000003005
00182108489GL-TOLBUTAMIDE 500MG UD 100   0000600000000460
00182126001GL-TRAZODONE 100MG 100'S      0000600000001100
00182126005GL-TRAZODONE 100MG 500'S      0000600000004600
00182125910GL-TRAZODONE 50MG 1000'S      0000600000005200
00182125905GL-TRAZODONE 50MG 500'S       0000600000002800
00182125901GL-TRAZOSONE 50MG 100'S       0000600000000700
00182187201GL-TRIAMTERENE W/HCTZ 100     0000600000000845
00182062710GL-TRIHEXYPHEN 2MG TB 1000s   0000600000007700
00182062701GL-TRIHEXYPHEN 2MG TB 100s    0000600000001052
00182023234GL-TRIPLE ANTIBIOT ONT 1oz    0000600000000140
00182023233GL-TRIPLE ANTIBIOTIC ONT 1/2oz0000600000000115
00182130101GL-VERAPAMIL 120MG 100'S      0000600000000525
00182196905GL-VERAPAMIL 180MG ER 500s    0000600000015800
00182197005GL-VERAPAMIL 240MG ER 500s    0000600000016500
00182130001GL-VERAPAMIL 80MG 100s        0000600000000600
00182196901GL-VERAPAMIL ER 180MG 100S    0000184000003000
00182197001GL-VERAPAMIL ER 240MG 100S    0000600000003600
00000258343GLX-BECONASE INH. 16.8GM.     0000024000002535
00000385286GLX-TEMOVATE CR. .05% 30GM    0000300000002250
00000550038GLX-TEMOVATE CR. .05% 60GM    0000120000004090
00000385294GLX-TEMOVATE OINT. .05% 15GM  0000180000001630
00000385302GLX-TEMOVATE OINT. .05% 30GM  0000180000002250
00000406025GLX-TEMOVATE OINT. .05% 45GM  0000120000003290
00000550046GLX-TEMOVATE OINT. .05% 60GM  0000120000004090
00000360750GLX-TRANDATE 300MG 100S       0000012000006700
00000360735GLX-TRANDATE TB 200MG 100s    0000060000005075
00000255968GLX-VENTOLIN INH 17GM         0000060000001925
00000268789GLX-VENTOLIN INH REFILL 17GM  0000024000001775
00173046100GLX-ZOFRAN 50ML 6S            0000100000093021
00000474569GLX-ZOFRAN MDV 2MG/ML 20ML    0000500000018280
00000617035GR-CLINDAMYC 150MG CP 100s    0000240000003965
59762372801GR-CLINDAMYC SOL 1% 30ML      0000240000000389
59762372802GR-CLINDAMYC SOL 1% 60ML      0000240000000575
59762372501GR-GLYBURIDE 1.25MG TB 100s   0000240000000820
59762372603GR-GLYBURIDE 2.5MG TB 100s    0000240000001250
59762372707GR-GLYBURIDE 5MG TB 1000s     0000240000016800
59762372704GR-GLYBURIDE 5MG TB 100s      0000240000001890
59762372706GR-GLYBURIDE 5MG TB 500s      0000240000009300
00000614057GR-METHYLPRED 4MG TB 100s     0000240000003218
00000614040GR-METHYLPRED PAK 4MG 21s     0000240000000585
59762166508GR-PENTRAX TAR SHAMPOO 8oz    0003000000000882
59762139504GR-PRAMEGEL 1% 4oz            0007210000000505
00781108013GVA-ALLOPURINOL 100MG UD 100s 0000240000000448
00781108213GVA-ALLOPURINOL 300MG UD 100s 0000240000000835
00781148613GVA-AMITRIPTYL 10MG UD 100s   0000240000000230
00781148713GVA-AMITRIPTYL 25MG UD 100s   0000240000000257
00781148813GVA-AMITRIPTYL 50MG UD 100s   0000240000000323
00781148913GVA-AMITRIPTYL 75MG UD 100s   0000240000000422
00000565028GVA-CHLORPRO HCL 100MG UD 100s0000240000000635
00781171513GVA-CHLORPROM HCL 10MG UD 100s0000240000000350
00000570572GVA-CHLORPROM HCL 25MG UD 100s0000240000000390
00781161313GVA-CHLORPROPAMI 100MG UD 100s0000240000000294
00781162313GVA-CHLORPROPAMI 250MG UD 100s0000240000000360
00781197313GVA-DESIPRAMINE 50MG UD 100s  0000240000002078
00781248913GVA-DIPHENHYD 50MG UD 100s    0000240000000325
00781189013GVA-DIPYRIDAM 25MG UD 100s    0000240000000247
00781280413GVA-DOXEPIN HCL 100MG UD 100s 0000240000001683
00781280013GVA-DOXEPIN HCL 10MG UD 100s  0000240000000700
00781280113GVA-DOXEPIN HCL 25MG UD 100s  0000240000000765
00781280213GVA-DOXEPIN HCL 50MG UD 100s  0000240000001012
00781280313GVA-DOXEPIN HCL 75MG UD 100s  0000240000001599
00781116113GVA-FERROUS SULF 5GR RED 100s 0000240000000298
00781143913GVA-FLUPHEN HCL 10MG UD 100s  0000240000004663
00781143813GVA-FLUPHEN HCL 5MG UD 100s   0000240000003695
00781181813GVA-FUROSEMIDE 20MG UD 100s   0000240000000240
00781196613GVA-FUROSEMIDE 40MG UD 100s   0000240000000249
00781144613GVA-FUROSEMIDE 80MG UD 100s   0000240000000463
00781139713GVA-HALOPERIDOL 10MG UD 100s  0000240000000570
00781139613GVA-HALOPERIDOL 5MG UD 100s   0000240000000455
00781148113GVA-HYDROCHLOROTHAZ 50MG 100s 0000240000000256
00781133413GVA-HYDROXYZ HCL 25MG UD 100s 0000240000000413
00781176413GVA-IMIPRAMINE 25MG UD 100s   0000240000000296
00781232513GVA-INDOMETH 25MG UD 100s     0000240000000370
00781126213GVA-LON0X TABS UD 100s        0000240000000222
00781175013GVA-METHOCARB 750MG UD 100s   0000240000001021
00781132013GVA-METHYLDOP 250MG UD 100s   0000240000000921
00781174213GVA-METRONID 250MG UD 100s    0000240000000422
00781174713GVA-METRONID 500MG UD 100s    0000240000001100
00781271813GVA-NITROGLYC SR 2.5MG 100s   0000240000000450
00781278613GVA-NITROGLYC SR 6.5MG 100s   0000240000000499
00781172013GVA-PROPOX NAP/APAP 100MG 100s0000240000000831
00781135413GVA-PROPRANOLOL 20MG UD 100s  0000240000000293
00781180413GVA-QUINIDINE GLUC 324MG 100s 0000240000001560
00781160413GVA-THIORIDAZINE 10MG UD 100s 0000240000000330
00781162413GVA-THIORIDAZINE 25MG UD 100s 0000240000000445
00781163413GVA-THIORIDAZINE 50MG UD 100s 0000240000000616
00781193213GVA-TOLAZAMIDE 250MG UD 100s  0000240000001367
00713011801GW-ACEPHEN 120MG SUPP 100s    0000420000001384
00000342923GW-ACEPHEN 120MG SUPP 12s     0000360000000261
00713011850GW-ACEPHEN 120MG SUPP 50s     0000420000000692
00713016401GW-ACEPHEN 325MG SUPP 100s    0000360000002082
00000409862GW-ACEPHEN 325MG SUPP 12s     0000360000000266
00713016450GW-ACEPHEN 325MG SUPP 50s     0000360000000688
00713016501GW-ACEPHEN 650MG SUPP 100s    0000360000002309
00713016512GW-ACEPHEN 650MG SUPP 12s     0000360000000272
00713016505GW-ACEPHEN 650MG SUPP 500s    0000360000007218
00713016550GW-ACEPHEN 650MG SUPP 50s     0000360000001203
00713050301GW-ANUCORT HC 25MG SUPP 100s  0000360000003500
00000264507GW-ANUCORT HC 25MG SUPP 12s   0000360000000445
00000471953GW-ANUCORT HC 25MG SUPP 24s   0000360000000792
00713024931GW-ANUSERT OINT 30s           0000360000000165
00713024932GW-ANUSERT OINT 60s           0000360000000210
00000243220GW-ANUSERT SUPP 12s           0000360000000155
00713051024GW-ANUSERT SUPP 24s           0000360000000250
00713010401GW-ASPIRIN 125MG SUPP 100s    0000420000001230
00713010412GW-ASPIRIN 125MG SUPP 12s     0000360000000170
00713010450GW-ASPIRIN 125MG SUPP 50s     0000420000000645
00713010550GW-ASPIRIN 300MG SUPP 100s    0000420000001260
00000163899GW-ASPIRIN 300MG SUPP 12s     0000360000000174
00713010550GW-ASPIRIN 300MG SUPP 50s     0000420000000670
00713010601GW-ASPIRIN 600MG SUPP 1000s   0000360000001190
00000163857GW-ASPIRIN 600MG SUPP 12s     0000360000000180
00713010650GW-ASPIRIN 600MG SUPP 50s     0000360000000610
00713010910GW-BISACODYL 10MG 1000s       0000360000004882
00000255349GW-BISACODYL 10MG 100s        0000360000000755
00000255331GW-BISACODYL 10MG 12s         0000360000000110
00713010905GW-BISACODYL 10MG 500s        0000360000003464
00713010950GW-BISACODYL 10MG 50s         0000360000000431
00713012201GW-CHLORAL HYD 500MG SUPP 100s0000420000009900
00713025804GW-DIAPER RASH OINT 120ML     0000420000000176
00000490482GW-FEMILAX TAB 30s            0000360000000110
00713040060GW-FEMILAX TAB 60s            0000360000000180
00713040090GW-FEMILAX TAB 90s            0000360000000270
00713040789GW-FIBERNORM TAB 90s          0000420000000807
00713024837GW-HEM PREP OINT 45GM         0000360000000255
00713050512GW-HEM PREP SUPP 12s          0000360000000240
00713050524GW-HEM PREP SUPP 24s          0000360000000337
00713017630GW-INDOMETHACIN 50MG SUPP 30s 0000360000002976
00713040130GW-LAX PILLS 30s              0000420000000114
00713016612GW-MIGERGOT SUPP 12s          0000420000002250
00000561472GW-PROCHLORPER 25MG SUPP 12s  0000360000002213
00713013212GW-PROMETHEGAN 50MG SUPP 12s  0000360000002422
00000101782GW-SANI SUPP ADULT SUPP 100s  0000420000000248
00713010109GW-SANI SUPP ADULT SUPP 10s   0000420000000101
00000243204GW-SANI SUPP ADULT SUPP 12s   0000420000000090
00000269720GW-SANI SUPP ADULT SUPP 25s   0000420000000101
00000269738GW-SANI SUPP ADULT SUPP 50s   0000420000000155
00713010209GW-SANI SUPP PED SUPP 10s     0000420000000101
00000243212GW-SANI SUPP PED SUPP 12s     0000420000000101
00000471946GW-SANI SUPP PED SUPP 25s     0000420000000101
00713010125GW-SANI-SUPP ADULT SUPP 25s UD0000420000000122
00713010150GW-SANI-SUPP ADULT SUPP 50s UD0000420000000200
00713010225GW-SANI-SUPP PED SUPP 25s UD  0000420000000122
00713010709GW-TEBAMIDE 100MG SUPP 10s    0000360000000286
00000395582GW-TEBAMIDE 200MG SUPP 10s    0000360000000316
00713010850GW-TEBAMIDE 200MG SUPP 50s    0000360000001511
00000163840GW-TRUPHYLLIN 500MG SUPP 10s  0000420000000915
00713010325GW-TRUPHYLLIN 500MG SUPP 25s  0000420000001674
00713010350GW-TRUPHYLLIN 500MG SUPP 50s  0000420000003150
00000163881GW-TRUPHYLLINE 250MG SUPP 10s 0000360000000765
00713012525GW-TRUPHYLLINE 250MG SUPP 25s 0000360000001261
00000355586HOE-DIABETA 1.25MG 50s        0000096000000665
00000355594HOE-DIABETA 2.5MG 100S        0000024000002000
00039005150HOE-DIABETA 2.5MG 500S        0000060000009400
00000419432HOE-DIABETA 5MG 1000S         0000144000032800
00000355602HOE-DIABETA 5MG 100S          0000240000003300
00000360834HOE-DIABETA 5MG 500S          0000048000017200
00000366708HOE-TOPICORT OINT .25% 60GM   0000000000003016
05840662333IMM-LEUCOVIN 350MG 10CC VL    0001000000002850
05840662668IMM-LEUCOVORIN 15MG 12S       0000002000006000
05840662137IMM-LEUCOVORIN 50MG EA        0001000000000410
05840662235IMM-LEUCOVORIN CAL 100ML VL   0001000000000785
00000611129IMM-METHOREXATE 25MG.ML VL 10C0001000000000950
00205450723IMM-METHOTREXATE 2.5MG 100S   0001000000027500
00205532526IMM-METHOTREXATE LIQ PF 50MG  0001000000000330
00000110593IMM-METHOTREXATE LIQ PP 50MG  0001000000000330
00205533734IMM-METHOTRXATE 250MG LPF 10CC0001000000000875
00205532618IMM-METHOTRXATE FPF 100MG 4CC 0001000000000550
00205532730IMM-METHOTRXATE LPF 200MG 8CC 0001000000000695
00548653800IMS-CAL GLUC 10% 200ML VL 12s 0000016000009600
00548200100IMS-DEXTROSE INJ w/st GA 50%  0000001000014000
00548613500IMS-DOPAMIN INJ 40MG/ML 20ML  0000600000001504
00548119000IMS-LIDOCAINE 2% 5ML 25s      0000015000007750
00548630000IMS-LIDOCAINE TOP SOL 4%      0000080000013000
00548654000IMS-POTAS.ACET.100ML VL 12s   0000006000006000
00548105200IMS-SOD BIC 8.4% 50ML 25s     0000004000013750
00548205200IMS-SOD BIC 8.4% 50ML w/st 25s0000034000011250
00548305200IMS-SOD BICARB INJ 8.4% 25s   0000006000013500
00548652000IMS-SODIUM CHLOR.200ML VL 12s 0000004000007800
00058072730IOL-DAC1(0727-30)             0000156000000250
00000369181IOL-DEXACIDIN SUSP            0002476000000654
00000457093IOL-FLUOR OP SOL 5ML          0000188000000743
00058235815IOL-FLUOROP 1% 15ML           0001485000001540
00000137554IOL-HYPOTEARS DRP 15ML        0000007000000600
00000450288IOL-INFLAM(2877-15)           0000002000002398
00000137935IOL-INFLAM. MLD. .125% 5ML    0000277000000940
00000255364IOL-INFLAMASE 1/8% 10CC       0000419000001450
00058251415IOL-PILO(2514-15)             0000567000000835
00000501668IOL-PILOCAR 1% 15CC           0000048000000780
00000501684IOL-PILOCAR 2% 15ML           0001051000000825
00000501692IOL-PILOCAR 3% 15ML           0001464000000825
00000501726IOL-PILOCAR 6% 15CC           0003076000000950
00058073215IOL-SULF 10 15ML              0002844000000710
00000137745IOL-TEARISOL 15CC             0000365000000560
05492010510IPR-ATENOLOL 50MG 100         0000072000001125
05045840050JAN-IMODIUM 2MG 500S          0000379000026390
05045801001JAN-INAPSINE AMP              0001500000002832
00000264770KNL-ISOPTIN 120MG 100'S       0000623000004300
00000467621KNL-ISOPTIN SR 240MG 500S     0000006000061900
00000101774KS-CALCIFEROL DROPS 2OZ       0001474000001850
00091020210KS-CHARDONNA 2 100'S          0000495000001200
00000408542KS-COLYTE 4000ML              0000036000001150
00000495523KS-COLYTE FLAV                0000012000001195
00000398818KS-DEPONIT .2MG 30s           0000549000003000
00000398826KS-DEPONIT .4MG 30s           0001263000003400
00000253641KS-DILATRATE 40MG 100S        0000048000003900
00000159764KS-FEDAHIST GYROCAP 100'S     0000924000003300
00091005501KS-FEDAHIST TIMECAP 100       0000266000002900
00000606293KS-KUTRASE 100'S              0001152000003500
00000340661KS-LACTRASE CAP 250MG 100     0001344000002150
00000443580KS-LEVSIN SUBL 0.125MG 100S   0000012000002225
00000419994KS-PROCTOCREAM 30GM           0000048000001550
00000120550KS-PROCTOFOAM 10GM            0000074000001750
00000120584KS-PROCTOFOAM AERO 15GM       0000109000001080
00005466837LED-AMICAR 250MG 20ML         0001200000001050
00005539238LED-ASENDIN TAB 150MG 30s     0000371000005600
00000252122LED-ASENDIN TABS 100MG 100s   0000147000015500
00000340752LED-ASENDIN TABS 25MG 100'S   0000779000004685
00000252114LED-ASENDIN TABS 50MG 100'S   0000939000007800
00005341632LED-CIMETIDINE 300MG 100s     0000288000002700
00005341732LED-CIMETIDINE 400MG 60S      0000288000002350
00005341838LED-CIMETIDINE 800MG 30S      0000288000002350
00005376296LED-DIAMOX PAR 500MG VL       0000020000002800
00005526723LED-FERROUS SEQUEL 100'S      0000036000001525
00000111294LED-LOXITANE 10MG 100S        0000270000007700
00000111302LED-LOXITANE 25MG 100         0000360000009000
00000111310LED-LOXITANE 50MG 100         0000583000013200
00000111286LED-LOXITANE 5MG 100'S        0000355000005800
00000365056LED-MAXZ(4460-43)             0000018000006225
00005446460LED-MAXZIDE 37.5/25MG UD 100s 0001122000002900
00005446060LED-MAXZIDE 50/75MG UD 100s   0000614000004900
00005446031LED-MAXZIDE 50MG 500S         0000116000023500
00000519025LED-VANCOLED 1GM 10'S         0000500000008480
00000519017LED-VANCOLED 50OMG 10'S       0000500000004235
00205315405LED-VANCOLED 5GM VL EA        0000500000004235
00000501197LED-VERELAN 180MG 100S        0000052000008600
00000460378LED-VERELAN SR 120MG 100S     0000006000008270
00093070970LEM-CEFAZOLIN BULK 10GM       0000240000001800
00093070568LEM-CEFAZOLIN*1GM 10ML        0000240000000195
00093054305LEM-CEPHALEXIN 500MG 500      0000240000009500
00093053874LEM-CEPHALEXIN SUS 125MG 200  0000240000000410
00093054101LEM-CEPHALEXIN*250MG          0000240000001000
00093054301LEM-CEPHALEXIN*500MG 100      0000240000002000
00053054073LEM-CEPHALEXIN*SUSP 250MG 100 0000240000000400
00093054073LEM-CEPHALEXIN*SUSP 250MG 200 0000240000000675
00000254136LEM-CORTRIM*DS 100            0000120000000675
00093018805LEM-COTRIM 400MG 500          0000240000001800
00093188801LEM-COTRIM*400MG 100          0000240000000430
00093018993LEM-COTRIM*DS 100 UD          0000240000001250
00093018905LEM-COTRIM*DS 500             0000240000003000
00093009001LEM-EPITOL* 200MG 100         0000240000001000
00093026215LEM-FLUOCINONIDE .5% CRM 15   0000240000000325
00093026292LEM-FLUOCINONIDE .5% CRM 60   0000240000000600
00000435859LEM-FLUOCINONIDE TOP SOL 60ML 0000240000001070
00093085101LEM-METRONID*250MG 100        0000000000000280
00093085152LEM-METRONID*250MG 250        0000000000000712
00093023230LEM-MYCO*TRIACET CR 30        0000240000000270
00093070115LEM-MYCO*TRIACET II OINT 15   0000240000000115
00093070130LEM-MYCO*TRIACET OINT 30      0000240000000270
00093023215LEM-MYCOTRIACT*II CR 15GM     0000240000000115
00093023292LEM-MYCOTRIACT*II CR 60GM     0000240000000325
00093063801LEM-TRAZIDONE 100MG 100       0000240000000900
00093063701LEM-TRAZIDONE 50MG 100        0000240000000530
00093063710LEM-TRAZIDONE HCL 50MG 1000   0000240000005000
00904772714MAJ-ACID-GONE TAB 100s        0000360000000295
00904421360MAJ-ACIDOPHILUS CP 100s       0000360000000210
00904132377MAJ-ALL-NITE COLD CHERRY 10oz 0000360000000244
00904132321MAJ-ALL-NITE COLD CHERRY 6oz  0000360000000154
00904132277MAJ-ALL-NITE COLD FORM 10oz   0000360000000244
00904227360MAJ-AMINOPHYL 100MG TB 100s   0000360000000290
00901020161MAJ-AMITRIPTYL 25MG UD 100s   0000360000001062
00904399660MAJ-AMOXAPINE 100MG TB 100s   0000360000009900
00904399746MAJ-AMOXAPINE 150MG TB 30s    0000360000004612
00904399460MAJ-AMOXAPINE 25MG TB 100s    0000360000003448
00904399461MAJ-AMOXAPINE 25MG TB UD 100s 0000360000003751
00904399560MAJ-AMOXAPINE 50MG TB 100s    0000360000005282
00904399561MAJ-AMOXAPINE 50MG TB UD 100s 0000360000005946
00904261904MAJ-AMOXICILL 125MG/5ML 100ML 0000360000000180
00904261907MAJ-AMOXICILL 125MG/5ML 150ML 0000360000000226
00904771360MAJ-AMOXICILL 250MG CHW 100s  0000360000001951
00904771340MAJ-AMOXICILL 250MG CHW 500s  0000360000008406
00904261760MAJ-AMOXICILL 250MG CP 100s   0000360000000974
00904261740MAJ-AMOXICILL 250MG CP 500s   0000360000003739
00904262004MAJ-AMOXICILL 250MG/5ML 100ML 0000360000000293
00904262007MAJ-AMOXICILL 250MG/5ML 150ML 0000360000000357
00904261840MAJ-AMOXICILL 500MG CP 500s   0000360000007350
00904261851MAJ-AMOXICILL 500MG CP 50s    0000360000001034
00904201760MAJ-AMPICILLIN 250MG CP 100s  0000360000000717
00904201740MAJ-AMPICILLIN 250MG CP 500s  0000360000002832
00904207360MAJ-AMPICILLIN 500MG CP 100s  0000360000001217
00904207340MAJ-AMPICILLIN 500MG CP 500s  0000360000005250
00904016060MAJ-ANU-MED HC SUPP 100s      0000360000003150
00904016012MAJ-ANU-MED SUPP 12s          0000360000000476
00904058260MAJ-ASPIRIN 975MG TB 100s     0000360000000785
00904404073MAJ-ASPIRIN CHILD 81MG TB 36s 0000360000000087
00904770470MAJ-ASPIRIN LOW 81MG EC 250s  0000360000000435
00904079335MAJ-AURODEX EAR DRP 15ML      0000360000000115
00904122716MAJ-BANOPHEN ELIXER PINT      0000360000000400
00904254860MAJ-BELLAMINE TABS 100s       0000360000002286
00904105561MAJ-BENZTROPINE .5MG UD 100s  0000360000000700
00904422260MAJ-BETA-CAROTENE 10,000 100s 0000360000000171
00904076636MAJ-BETAMETH CR .05% 15GM     0000360000000367
00904076645MAJ-BETAMETH CR .05% 45GM     0000360000000688
00904076803MAJ-BETAMETH LOT .05% 60ML    0000360000000752
00904076736MAJ-BETAMETH OINT .05% 15GM   0000360000000367
00904076745MAJ-BETAMETH OINT .05% 45GM   0000360000000680
00904040616MAJ-BETHAPRIM PED SUS PINT    0000360000000660
00904040516MAJ-BETHAPRIM SUSP PINT       0000360000000695
00904020961MAJ-BISACODYL 5MG TB UD 100s  0000360000000300
00904352403MAJ-BOROFAIR OTIC SOL 2oz     0000360000000754
00904071716MAJ-BROMANATE DX COUGH PINT   0000360000000624
00904123020MAJ-BYDRAMINE 12.5MG SYR 120ML0000360000000112
00904123016MAJ-BYDRAMINE COUGH SYR PINT  0000360000000400
00904175089MAJ-CAFATINE PB TB 90s        0000360000003900
00904323261MAJ-CALCIUM CARB 600MG UD 100s0000360000000500
00904776021MAJ-CALLAGERY CLEAR LOT 180ML 0000360000000123
00904211574MAJ-CALULOSE SYR 64oz         0000360000005463
00904211516MAJ-CALULOSE SYR PINT         0000360000001581
00904322035MAJ-CARBAMIDE PER 6.5% DR 15ML0000360000000116
00904211769MAJ-CATULAC SYR 32oz          0000360000002835
00904211709MAJ-CATULAC SYR 8oz           0000360000000775
00904018460MAJ-CHLOROTHIAZ 500MG TB 100s 0000360000000798
00904354560MAJ-CHLORTOX LA CAP 100s      0000360000001775
00904431451MAJ-CHROMIUM 200MG TB 50s     0000360000000207
00904383860MAJ-CLINDAMYC 150MG CP 100s   0000360000006375
00904773330MAJ-CLINDAMYC PHOS 1% SOL 30ML0000360000000645
00904773303MAJ-CLINDAMYC PHOS 1% SOL 60ML0000360000001200
00904204360MAJ-CORTISONE 25MG TB 100s    0000360000002927
00904315110MAJ-CORTOMYC OT SOL 10ML      0000360000000578
00904780980MAJ-CYCLOBENZAPRI 10MG 1000s  0000360000025000
00904780960MAJ-CYCLOBENZAPRI 10MG 100s   0000360000004838
00904222161MAJ-CYCLOBENZAPRI 10MG UD 100s0000360000005620
00904114616MAJ-CYPROHEPTADIN 2MG/5ML PINT0000360000000490
00904386575MAJ-DEEP SEA .65% NOSE 45ML   0000360000000139
00904024360MAJ-DEXAMETH .5MG TB 100s     0000360000000375
00904024460MAJ-DEXAMETH .75MG TB 100s    0000360000000442
00904024412MAJ-DEXAMETH .75MG UNIPAK 12s 0000360000000265
00904024660MAJ-DEXAMETH 4MG TB 100s      0000360000001375
00904066815MAJ-DEXAPHEN 120/6 TB 10s     0000360000000245
00904066760MAJ-DEXAPHEN TAB 100s         0000360000000700
00904264631MAJ-DIBUCAINE 1% OINT 1oz     0000360000000116
00904264760MAJ-DICLOXACIL 250MG CP 100s  0000360000002426
00904264860MAJ-DICLOXACIL 500MG CP 100s  0000360000004086
00904789680MAJ-DICYCLOMINE 10MG CP 1000s 0000360000016560
00904776461MAJ-DIFLUNISAL 500MG UD 100s  0000360000008779
00904771760MAJ-DILTIAZEM 120MG TB 100s   0000360000006059
00904771460MAJ-DILTIAZEM 30MG TB 100s    0000360000002100
00904771440MAJ-DILTIAZEM 30MG TB 500s    0000360000010619
00904771461MAJ-DILTIAZEM 30MG TB UD 100s 0000360000002500
00904771560MAJ-DILTIAZEM 60MG TB 100s    0000360000003327
00904771540MAJ-DILTIAZEM 60MG TB 500s    0000360000015000
00904771660MAJ-DILTIAZEM 90MG TB 100s    0000360000004664
00904771661MAJ-DILTIAZEM 90MG TB UD 100s 0000360000005268
00904071328MAJ-DIMAPHEN ELIXER GAL       0000360000001920
00904021412MAJ-DIMAPHEN TAB 12s          0000360000000211
00904021424MAJ-DIMAPHEN TR TB BOX 24s    0000360000000355
00904205661MAJ-DIPHENHYD 50MG CP UD 100s 0000360000001764
00904092416MAJ-DOK SYRUP PINT            0000360000000335
00904098128MAJ-DONNAPINE ELIXER GAL      0000360000004146
00904098116MAJ-DONNAPINE ELIXER PINT     0000360000000633
00904326340MAJ-ENOMINE CAP 500s          0000360000002235
00904326360MAJ-ENOMINE CAPS 100s         0000360000000761
00904326216MAJ-ENOMINE LIQUID PINT       0000360000001071
00904033660MAJ-ERGOLOID MES 1MG ORAL 100s0000360000001279
00904033640MAJ-ERGOLOID MES 1MG ORAL 500s0000360000005325
00904265308MAJ-ERYTH/SUCC 200MG/5ML 200ML0000360000001127
00904774360MAJ-ERYTHRO DEL REL 250CP 100s0000360000001644
00904774340MAJ-ERYTHRO DEL REL 250CP 500s0000360000007360
00904284503MAJ-ERYTHRO SOL 2% 60ML       0000360000000377
00904247016MAJ-ERYTHROMY 125MG/5ML PINT  0000360000001400
00904246216MAJ-ERYTHROMY 200MG PINT      0000360000001278
00904246860MAJ-ERYTHROMY 250MG CP 100s   0000360000002000
00904247116MAJ-ERYTHROMY 250MG/5ML PINT  0000360000002325
00904246316MAJ-ERYTHROMY 400MG PINT      0000360000002426
00904166420MAJ-EYE WASH DROPS 120ML      0000360000000155
00904067761MAJ-FERROUS 250MG TR UD 100s  0000360000000457
00904759161MAJ-FERROUS 5GR GRN UD 100s   0000360000000300
00904213780MAJ-FERROUS GLUC 325MG 1000s  0000360000000894
00904098950MAJ-FERROUS SUL 75MG/.6ML 50ML0000360000000285
00904146516MAJ-FERROUS SULF 220MG PINT   0000360000000400
00904077036MAJ-FLUOCINON .05% CR 15GM    0000360000000269
00904007860MAJ-GELATIN 10GR CAP 100s     0000360000000240
00904266336MAJ-GENTAMICIN CR 15GM        0000360000000202
00904266436MAJ-GENTAMICIN OINT 15GM      0000360000000202
00904190705MAJ-GENTAMICIN OPTH SOL 5ML   0000360000000364
00904257960MAJ-GLUTAMIC ACID 340MG 100s  0000360000000488
00904775960MAJ-GUAIFENESIN 600MG LA 100s 0000360000001170
00904183040MAJ-HALOPERIDOL .5MG WHT 500s 0000360000002985
00904173460MAJ-HALOPERIDOL 10MG AQUA 100s0000360000002827
00904234160MAJ-HYDRALAZINE 100MG TB 100s 0000360000000449
00904208380MAJ-HYDROCHLORTHAL 25MG 1000s 0000360000000683
00904208980MAJ-HYDROCHLORTHAL 50MG 1000s 0000360000001074
00904267460MAJ-HYDROCORT 20MG TB 100s    0000360000000547
00904075631MAJ-HYDROCORT CR 2.5% 30GM    0000360000000450
00904035861MAJ-HYDROXYZINE 25MG UD 100s  0000360000002314
00904037916MAJ-HYDROXYZINE SYR PINT      0000360000000846
00904209560MAJ-ISONIAZID 100MG TB 100s   0000360000000417
00904209680MAJ-ISONIAZID 300MG TB 1000s  0000360000004835
00904063680MAJ-ISOXSUPRINE 20MG TB 1000s 0000360000002975
00904063661MAJ-ISOXSUPRINE 20MG UD 100s  0000360000000495
00904272060MAJ-K-VESCENT 25MEQ 100s      0000360000001075
00904272046MAJ-K-VESCENT 25MEQ 30s       0000360000000439
00904268760MAJ-L-LYSINE 500MG TB 100s    0000360000000212
00904291280MAJ-LITHIUM CARB 300MG CP 10000000360000003936
00904291260MAJ-LITHIUM CARB 300MG CP 100s0000360000000440
00904291416MAJ-LITHIUM CIT SYR PINT      0000360000001135
00904761760MAJ-LOPERAMIDE 2MG CP 100s    0000360000003363
00904761740MAJ-LOPERAMIDE 2MG CP 500s    0000360000015100
00904202060MAJ-MAJORCIN TB 100s          0000360000000158
00904198360MAJ-MAPAP 325MG TB 100s       0000360000000189
00904238460MAJ-MECLIZINE 12.5MG TB 100s  0000360000000229
00904357160MAJ-MEGASTROL 40MG TB 100s    0000360000005385
00904357140MAJ-MEGASTROL 40MG TB 500s    0000360000022500
00904357161MAJ-MEGASTROL 40MG UD 100s    0000360000005400
00904287860MAJ-METAPROTER 10MG TB 100s   0000360000000958
00904287960MAJ-METAPROTER 20MG TB 100s   0000360000001196
00904781360MAJ-METHYLDOP 250/15 TB 100s  0000360000001395
00904781460MAJ-METHYLDOP 250/25 TB 100s  0000360000001508
00904240140MAJ-METHYLDOPA 500MG TB 500s  0000360000006750
00904145360MAJ-METRONID 250MG TB 100s    0000360000000534
00904145340MAJ-METRONID 250MG TB 500s    0000360000001565
00904145361MAJ-METRONID 250MG TB UD 100s 0000360000001765
00904269460MAJ-METRONID 500MG TB 100s    0000360000001878
00904000514MAJ-MI-ACID II LIQ 12oz       0000360000000192
00904029652MAJ-MI-ACID II TB 60s         0000360000000245
00904000414MAJ-MI-ACID LIQ 12oz          0000360000000135
00904762260MAJ-MIGRATANE CAP 100s        0000360000000825
00904762270MAJ-MIGRATANE CAP 250s        0000360000001925
00904000314MAJ-MINTOX PLUS SUS 12oz      0000360000000218
00904000214MAJ-MINTOX SUSP 12oz          0000360000000134
00904101130MAJ-NALGEST PED DRP 30ML      0000360000000635
00904101016MAJ-NALGEST PED SYRUP PINT    0000360000000452
00904100416MAJ-NALGEST SYRUP PINT        0000360000000423
00904780260MAJ-NAPROXEN 275MG TB 100s    0000360000004050
00904062960MAJ-NIACIN 250MG CP 100s      0000360000000293
00904227260MAJ-NIACIN 500MG TB 100s      0000360000000275
00904282180MAJ-OXYBUTTNIN 5MG TB 1000s   0000360000013117
00904282161MAJ-OXYBUTYNIN 5MG TB UD 100s 0000360000002375
00904766069MAJ-PEDIATRIC ELECTRO 32oz    0000360000002500
00904268360MAJ-POLY TAB CHEW .5MG 100s   0000360000000285
00904317860MAJ-PRENATAL OTC TB 100s      0000360000000260
00904056060MAJ-PRIMIDONE 250MG TB 100s   0000360000002302
00904234440MAJ-PROPANTHELINE 15MG TB 500s0000360000005830
00904041180MAJ-PROPRANOL 10MG TB 1000s   0000360000002306
00904041160MAJ-PROPRANOL 10MG TB 100s    0000360000000275
00904041161MAJ-PROPRANOL 10MG TB UD 100s 0000360000001004
00904041261MAJ-PROPRANOL 20MG TB UD 100s 0000360000001464
00904041460MAJ-PROPRANOL 40MG TB 100s    0000360000000525
00904041461MAJ-PROPRANOL 40MG TB UD 100s 0000360000001875
00904042160MAJ-PROPRANOL LA 60MG CP 100s 0000360000004582
00904042260MAJ-PROPRANOL LA 80MG CP 100s 0000360000005389
00904424616MAJ-PROTIEN PWDR VANILLA 1 LB 0000360000000460
00904777770MAJ-PSEUDO-CHLOR CP 250s      0000360000001915
00904786170MAJ-PSEUDO-G/PSI CP SAC 250s  0000360000005620
00904768960MAJ-PSEUDO-G/PSI CPLTS 100s   0000360000003461
00904768970MAJ-PSEUDO-G/PSI CPLTS 250s   0000360000006922
00904786160MAJ-PSEUDO-G/PSI CPLTS EON    0000360000003461
00904166616MAJ-RENTAMINE PED SUS PINT    0000360000002295
00904219880MAJ-RESERPINE .1MG TB 1000s   0000360000002585
00904219980MAJ-RESERPINE .25MG TB 1000s  0000360000004127
00904765016MAJ-RHINATATE PED PINT        0000360000001195
00904166960MAJ-RHINATATE TAB 100s        0000360000000901
00904166970MAJ-RHINATATE TAB 250s        0000360000002076
00904119860MAJ-ROLATUSS SR TB 100s       0000360000000685
00904119840MAJ-ROLATUSS SR TB 500s       0000360000003245
00904772614MAJ-RON ACID SUS 12oz         0000360000000204
00904323514MAJ-RON-AID SUS 12oz          0000360000000175
00904070300MAJ-RONDAMINE DM SYR 120ML    0000360000000195
00904112730MAJ-S0D FLUOR .125MG DRP 30ML 0000360000000243
00904125360MAJ-SALSALATE 500MG BLU 100s  0000360000000791
00904125340MAJ-SALSALATE 500MG BLU 500s  0000360000002700
00904125040MAJ-SALSALATE 500MG YLW 500s  0000360000002700
00904125460MAJ-SALSALATE 750MG BLU 100s  0000360000000775
00904125440MAJ-SALSALATE 750MG BLU 500s  0000360000003661
00904125160MAJ-SALSALATE 750MG YLW 100s  0000360000000775
00904125140MAJ-SALSALATE 750MG YLW 500s  0000360000003661
00904125161MAJ-SALSALATE YLW 750MG UD    0000360000001800
00904125061MAJ-SALSALATE YLW UD 100s     0000360000001400
00904272454MAJ-SEL-PEN BLUE 1% SHP 7oz   0000360000000299
00904272660MAJ-SMZ 400/80 SS 100s        0000360000000845
00904272560MAJ-SMZ 800/160 DS 100s       0000360000001248
00904272561MAJ-SMZ 800/160 DS UD 100s    0000360000002466
00904177021MAJ-SORE THROAT SPYMENTH 6oz  0000360000000161
00904034380MAJ-SPIRONOLACT 25MG TB 1000s 0000360000003061
00904118660MAJ-SULFINPYRAZ 100MG TB 100s 0000360000000702
00904118760MAJ-SULFINPYRAZ 200MG CP 100s 0000360000001435
00904337860MAJ-SULINDAC 150MG TB 100s    0000360000004725
00904337840MAJ-SULINDAC 150MG TB 500s    0000360000015000
00904337960MAJ-SULINDAC 200MG TB 100s    0000360000005000
00904337940MAJ-SULINDAC 200MG TB 500s    0000360000020000
00904053060MAJ-TAB-A-VITE TB 100s        0000360000000181
00904144416MAJ-THEOPHYLLIN ELIXER PINT   0000360000000263
00904077460MAJ-THEOTAL TAB 100s          0000360000000769
00904053820MAJ-THERA LIQUID 4oz          0000360000000399
00904430309MAJ-THERA-DERM BATH OIL 8oz   0000360000000195
00904429909MAJ-THERA-DERM LOT 8oz        0000360000000162
00904033120MAJ-THERA-HIST COLD SYR 4oz   0000360000000113
00904033020MAJ-THERA-HIST EXPECT 4oz     0000360000000117
00904404451MAJ-THERMAOMETER PROBE COV 50s0000360000000229
00904399160MAJ-TRAZODONE 100MG TB 100s   0000360000002200
00904399140MAJ-TRAZODONE 100MG TB 500s   0000360000005500
00904399161MAJ-TRAZODONE 100MG TB UD 100s0000360000004500
00904399060MAJ-TRAZODONE 50MG TB 100s    0000360000001500
00904399040MAJ-TRAZODONE 50MG TB 500s    0000360000003862
00904399061MAJ-TRAZODONE 50MG TB UD 100s 0000360000002500
00904088444MAJ-TRIAMCINOL 4MG UNIPAK 16s 0000360000000680
00904032240MAJ-TUSSOGEST CAP SA 500s     0000360000004468
00904032260MAJ-TUSSOGEST CP SA 100s      0000360000001026
00904270530MAJ-TWICE-A-DAY .05% SPY 30ML 0000360000000160
00904328680MAJ-URAPINE TB 1000s          0000360000003950
00904328660MAJ-URAPINE TB 100s           0000360000000515
00904210160MAJ-VALPROIC ACID 250MG 100s  0000360000002200
00904210316MAJ-VALPROIC ACID 250MG PINT  0000360000002876
00904031535MAJ-VASOLATE EAR 2% SOL 15ML  0000360000000194
00904292460MAJ-VERAPAMIL 120MG TB 100s   0000360000001725
00904292440MAJ-VERAPAMIL 120MG TB 500s   0000360000004500
00904292461MAJ-VERAPAMIL 120MG UD 100s   0000360000002850
00904772360MAJ-VERAPAMIL 240MG SR TB 100s0000360000007725
00904292080MAJ-VERAPAMIL 80MG TB 1000s   0000360000007950
00904292060MAJ-VERAPAMIL 80MG TB 100s    0000360000001346
00904292040MAJ-VERAPAMIL 80MG TB 500s    0000360000003225
00904292061MAJ-VERAPAMIL 80MG TB UD 100s 0000360000002175
00904418160MAJ-VIT B COMP W/B-12 100s    0000360000000257
00904052361MAJ-VIT C 500MG TB UD 100s    0000360000000493
00904029160MAJ-VIT D 50,000 UNITS 100s   0000360000000465
00904260822MAJ-VIT-A&D OINT 120ML        0000360000000147
00904054480MAJ-VIT-B-1 100MG TB 1000s    0000360000001245
00904051860MAJ-VIT-B-6 100MG TB 100s     0000360000000212
00904424960MAJ-VIT-C W/RH 500MG TB 100s  0000360000000248
00904027472MAJ-VIT-E 400IU CP 300s       0000360000000935
00904275260MAJ-VIT-E CAP NAT 100s        0000360000000512
00904184322MAJ-VIT-E CREAM 120ML         0000360000000189
00904030361MAJ-VITAB-C CAP-D 100s        0000360000000497
00904430535MAJ-WART-AWAY LIQUID 5oz      0000360000000125
00904325580MAJ-YOHIMBINE 5MG TB 1000s    0000360000005500
00904325560MAJ-YOHIMBINE 5MG TB 100s     0000360000000625
00904275802MAJ-ZINC OXIDE OINT 2oz       0000360000000115
00000132258MCN-HALDOL AMP 5MG 10X1ML     0001461000003375
00000132266MCN-HALDOL VL 5MG 10ML        0000850000003375
00000159392MCN-PANCREASE 250S            0000064000006250
00000424408MCN-PANCREASE MT CP 10 100s   0000012000005200
00000424416MCN-PANCREASE MT16            0000024000008295
05595048040NOV-ALBUTEROL 2MG 500S        0000240000000730
05595348070NOV-ALBUTEROL SULF 2MG 100S   0000240000000300
05595313040NOV-AMOXICILL 250MG/5ML 100ML 0000240000000175
05595313038NOV-AMOXICILL 250MG/5ML 80ML  0000240000000175
05595372470NOV-AMOXICILLIN 250MG 500s    0000240000002100
05595372480NOV-AMOXICILLIN 250MG CP 1000s0000240000003850
05595372440NOV-AMOXICILLIN 250MG CP 100s 0000240000000560
05595371601NOV-AMOXICILLIN 500MG 100 U/D 0000240000001150
05595371670NOV-AMOXICILLIN 500MG 500     0000240000003800
05595371640NOV-AMOXICILLIN CAP 500MG 100 0000240000000920
05595371633NOV-AMOXICILLIN CAP 500MG 50  0000240000000550
05595314947NOV-AMOXICILLIN SUS 125MG 150L0000240000000175
05595314938NOV-AMOXICILLIN SUS 125MG 80ML0000240000000135
05595314940NOV-AMOXICILLIN XSUS 125MG 1000000240000000145
05595313047NOV-AMOXICLLIN SUS 250MG 150  0000240000000235
05595340140NOV-ATENOLOL 100MG 100s       0000240000000700
05595303980NOV-ATENOLOL 50MG 1000s       0000240000003600
05595303940NOV-ATENOLOL 50MG 100s        0000240000000410
05595384040NOV-CEPHALEXIN 250MG 100      0000240000000755
05595384001NOV-CEPHALEXIN 250MG 100 UD   0000240000000175
05595384070NOV-CEPHALEXIN 250MG 500      0000240000003500
05595311440NOV-CEPHALEXIN 500MG 100      0000240000001325
05595311401NOV-CEPHALEXIN 500MG 100 U/D  0000240000001685
05595311470NOV-CEPHALEXIN 500MG 500      0000240000006000
05595310653NOV-CEPHALEXIN SUS 125MG 200ML0000240000000350
05595309240NOV-CEPHALEXIN SUS 250MG 100ML0000240000000260
05595309253NOV-CEPHALEXIN SUS 250MG 200ML0000240000000500
05595318180NOV-CIMETIDINE 200MG 1000s    0000240000026000
05595318140NOV-CIMETIDINE 200MG 100s     0000240000002980
05595318170NOV-CIMETIDINE 200MG 500s     0000240000013900
05595319280NOV-CIMETIDINE 300MG 1000S    0000240000028000
05595319240NOV-CIMETIDINE 300MG 100s     0000240000003050
05595319270NOV-CIMETIDINE 300MG 500s     0000240000014200
05595320480NOV-CIMETIDINE 400MG 1000S    0000240000038500
05595320440NOV-CIMETIDINE 400MG 100s     0000600000005200
05595320470NOV-CIMETIDINE 400MG 500s     0000240000024200
05595323580NOV-CIMETIDINE 800MG 1000S    0000240000080000
05595323540NOV-CIMETIDINE 800MG 100S     0000240000008900
05595323570NOV-CIMETIDINE 800MG 500s     0000240000042000
05595338240NOV-CLOFIBRATE 500MG 100s     0000240000000930
05595343940NOV-INDOMETHACIN 50MG 100s    0000240000000375
05595342080NOV-INDOMETHACIN CP 25MG 1000s0000240000002350
05595343970NOV-INDOMETHACIN CP 50MG 500s 0000240000001500
05595302040NOV-LOPERAMIDE CP 2MG 100s    0000240000001750
05595302070NOV-LOPERAMIDE CP 2MG 500s    0000240000008100
05595347140NOV-METHYLDOPA 250MG 100      0000240000000475
05595316480NOV-METHYLDOPA 250MG 1000s    0000240000004000
05595349840NOV-METHYLDOPA 500MG 100      0000240000001000
05595372780NOV-METOPROLOL 50MG 1000s     0000240000007200
05595372740NOV-METOPROLOL 50MG TB 100s   0000240000000800
05595373480NOV-METOPTOLOL 100MG 1000s    0000240000010530
05595373440NOV-METOPTOLOL 100MG 100s     0000240000001170
05595351740NOV-NAPROXEN 250MG 100S       0000240000000800
05595351780NOV-NAPROXIN 250MG 1000S      0000240000007250
05595351770NOV-NAPROXIN 250MG 500S       0000240000003600
05595353180NOV-NAPROXIN 275MG 1000S      0000240000008500
05595353140NOV-NAPROXIN 275MG 100S       0000240000001000
05595353170NOV-NAPROXIN 275MG 500S       0000240000004500
05595353141NOV-NAPROXIN 275MG UD 100S    0000240000001720
05595351880NOV-NAPROXIN 375MG 1000S      0000240000008600
05595351840NOV-NAPROXIN 375MG 100S       0000240000001025
05595351870NOV-NAPROXIN 375MG 500S       0000240000004550
05595352080NOV-NAPROXIN 500MG 1000S      0000240000011200
05595352040NOV-NAPROXIN 500MG 100S       0000240000001225
05595352070NOV-NAPROXIN 500MG 500S       0000240000005600
05595353380NOV-NAPROXIN 550MG 1000S      0000240000013000
05595353340NOV-NAPROXIN 550MG 100S       0000240000001545
05595353370NOV-NAPROXIN 550MG 500S       0000240000006900
05595309370NOV-PINDOLOL 10MG 500S        0000240000012200
05595308870NOV-PINDOLOL 5MG 500S         0000240000008300
05595361740NOV-PIROXICAM 10MG 100S       0000240000000800
05595364080NOV-PIROXICAM 20MG 1000S      0000240000008500
05595364040NOV-PIROXICAM 20MG 100S       0000240000001020
05595364070NOV-PIROXICAM 20MG 500S       0000240000004600
05595381580NOV-TOLMETIN 400MG 1000S      0000240000015350
05595381540NOV-TOLMETIN 400MG 100S       0000240000001700
05595381570NOV-TOLMETIN 400MG 500S       0000240000008200
05595381740NOV-TOLMETIN 600MG 100S       0000240000005400
00169183511NOVO-NOVOLIN L 10ML VL        0000096000001350
00169183411NOVO-NOVOLIN N 10ML VL        0000096000001350
00169183311NOVO-NOVOLIN R 10ML VL        0000072000001350
00000494468PD-ACCUPRIL 10MG 90s          0000096000006600
00000494476PD-ACCUPRIL 20MG 90s          0000115000006600
00000506857PD-ACCUPRIL 40MG 90s          0000120000006600
00000494450PD-ACCUPRIL 5MG 90S           0000063000006450
00000143172PD-CELONTIN 300MG 100S        0000012000005890
00000262584PD-CHOLEDYL SA 400MG 100S     0000012000002900
00000262592PD-CHOLEDYL SA 600MG 100S     0000013000003400
00000142828PD-DILANTIN 100MG 100S        0000036000001750
00000426213PD-LOPID 600MG 60S            0000036000005800
00000134692PD-NARDIL 15MG 100S           0000012000003245
00000269225PD-PROCAN SR 750MG 100s       0000162000006000
00000369512PD-PROCAN SR TABS 1000MG 100s 0001209000007400
00013113691PH-ADRIAMYCIN PFS 10MG 10'S   0000300000001620
00013116683PH-ADRIAMYCIN PFS 200MG EA    0000300000031800
00013114694PH-ADRIAMYCIN PFS 20MG EA     0000300000003335
00013115679PH-ADRIAMYCIN PFS 50MG EA     0000300000008000
00013108691PH-ADRIAMYCIN RDF 10MG 10'S   0000300000001575
00013111683PH-ADRIAMYCIN RDF 150MG EA    0000300000023500
00000405290PH-ADRIAMYCIN RDF 20MG EA     0000300000003300
00000405308PH-ADRIAMYCIN RDF 50MG EA     0000300000007600
00013104694PH-ADRUCIL 2.5G 5s            0000144000002400
00013103691PH-ADRUCIL 500MG 10s          0000144000001100
00013560693PH-NEOSAR 100MG 12'S          0001200000004500
00013563670PH-NEOSAR 1GM 6'S             0001200000001600
00013561693PH-NEOSAR 200MG 12'S          0001200000006700
00013562693PH-NEOSAR 500MG 12'S          0001200000000945
00013745686PH-VINCASAR PFS 1MG 10s       0000200000000825
00013746686PH-VINCASAR PFS 2MG 10s       0000200000001650
03982105505PHT-AMPHOTERICIN B  PWD 50GM  0000480000001880
00000472654PUD-TRILISATE 500MG 500s      0000002000024002
00021142050REC-PHAZYME 95 50'S           0000004000000743
00049043305RIC-RIMSO -50 50ML            0003600000002901
00000510552ROR-DILACOR XR CAP 240MG 100s 0000872000008975
00032030099ROR-SLO BID 300MG 1000s       0000074000030000
00000268367ROR-SLO-BID 100MG 100S        0000158000001750
00000441238ROR-SLO-BID 125MG 100S        0000072000002050
00000344234ROR-SLO-BID 50MG 100S         0000031000001325
00000441220ROR-SLO-BID 75MG 100S         0000007000001485
00000268375ROR-SLO-BID GYRO 200MG 100S   0000012000002525
00000268383ROR-SLO-BID GYRO 300MG 100s   0000024000003125
00000399147ROR-SLOW-BID 200MG CP 1000s   0000072000026980
00054812025ROX-CALCIUM CARB 250MG UD 100'0000009000000845
00054340844ROX-ISOETHARINE*30ML DRP      0003214000000800
00054340840ROX-ISOETHARINE*HYD INH       0000036000000350
00000395871ROX-LITHIUM CARB*300MG TB 10000000417000003500
00054252731ROX-LITHIUM*CARB 300MG CP 10000001218000003500
00054473025ROX-PREDNISONE*TB 10MG 100    0001220000000395
00054474125ROX-PREDNISONE*TB 1MG 100     0000012000000225
00054472825ROX-PREDNISONE*TB 5MG 100     0001200000000240
00087071401RPC-COLACE CAP 100MG 30'S     0000006000000789
05409206501RPC-COMHIST LA CAP 100s       0000072000006500
00087071501RPC-PERI-COLACE CAP 30'S      0000005000000963
05409543660RPC-SALUTENSIN 50MG TB 100s   0000024000007700
00536370098RUG-A&D OINTMENT 16oz         0000500000000400
00536370096RUG-A&D OINTMENT 2oz          0000500000000110
00536301410RUG-ACETA-GESIC TABS 1000s    0000500000001600
00536301401RUG-ACETA-GESIC TABS 100s     0000500000000240
00536301435RUG-ACETA-GESIC TABS 24s BL/PK0000500000000100
00536211070RUG-ACETIC ACID OT/SOL 10ML   0000500000000320
00536210272RUG-ACETIC ACID OT/SOL 15ML   0000500000000210
00536718001RUG-ACIDOPHILUS CAPTAB 100s   0001000000000235
00536718101RUG-ACIDOPHILUS EX/STRNG 100s 0000500000000245
00536041585RUG-ALBUTEROL SOL .5% 20ML    0000500000000922
00538300801RUG-ALBUTEROL SUL 2MG 100s TB 0000500000000395
00536300805RUG-ALBUTEROL SUL 2MG 500s TB 0000500000001510
00536300901RUG-ALBUTEROL SUL 4MG 100s TB 0000500000000750
00536300905RUG-ALBUTEROL SUL 4MG 500s TB 0000500000002900
00536041585RUG-ALBUTEROLSUL LQ STRAW 16oz0000500000001100
00536301601RUG-ALENIC ALKA EX/STRNG 100s 0000500000000380
00536301301RUG-ALENIC ALKA NEW TB 100s   0000500000000300
00536641001RUG-ALFALFA 8GR TABS 100s     0000500000000125
00536346701RUG-ALLER CHLOR 4MG TABS 100s 0000500000000300
00536346710RUG-ALLER CHLOR 4MG TB 1000s  0000500000000450
00536346735RUG-ALLER CHLOR 4MG TB 24s    0000500000000105
00536301501RUG-ALLER CHLOR DECON TB 100s 0000500000000225
00536037097RUG-ALLER CHLOR SYRUP 4oz     0000500000000170
00536051097RUG-ALLERFRIM SYR BOX 4oz     0000500000000145
00536051085RUG-ALLERFRIM SYRUP PINT      0000500000000420
00536302110RUG-ALLERFRIM TABS 1000s      0000500000002100
00536302101RUG-ALLERFRIM TABS 100s       0000500000000450
00536302135RUG-ALLERFRIM TB BL/PK 24s    0000500000000140
00536301734RUG-ALLERGY REL MED BL/PK 20s 0000500000000120
00536302710RUG-ALLOPURINOL 100MG TB 1000s0000500000002200
00536302701RUG-ALLOPURINOL 100MG TB 100s 0000500000000280
00536302801RUG-ALLOPURINOL 300MG TB 100s 0000500000000650
00536302810RUG-ALLOPURINOL TB 300MG 1000s0000500000004950
00536302805RUG-ALLOPURINOL TB 300MG 500s 0000500000002600
00536001583RUG-ALMACONE II DBL/STRNG 12oz0000500000000240
00536002583RUG-ALMACONE LIQUID 12oz      0000500000000190
00536303501RUG-ALMACONE MLT TB 100s      0000500000000185
00536266585RUG-AMANTADIN 50MG/ML SYR PNT 0000500000003600
00536309001RUG-AMANTADINE 100MG 100S     0000500000001400
00536569901RUG-AMILORIDE W/HYDRO 5/50 TB 0000500000000890
00536304610RUG-AMINOPHY 100MG TB 1000s   0000500000001175
00536306001RUG-AMINOPHY 200MG TB 100s    0000500000000285
00536020259RUG-AMINOPHY LIQ DYE FREE 8oz 0000500000000650
00536307501RUG-AMITRIPTYL 100MG TB 100s  0000500000000397
00536307505RUG-AMITRIPTYL 100MG TB 500s  0000500000001575
00536307101RUG-AMITRIPTYL 10MG 100s      0000500000000115
00536307110RUG-AMITRIPTYL 10MG TB 1000s  0000500000000850
00536307210RUG-AMITRIPTYL 25MG TB 1000s  0000500000000925
00536307310RUG-AMITRIPTYL 50MG TB 1000s  0000500000001500
00536307301RUG-AMITRIPTYL 50MG TB 100s   0000500000000225
00536307305RUG-AMITRIPTYL 50MG TB 500s   0000500000000805
00536307401RUG-AMITRIPTYL 75MG TB 100s   0000500000000295
00536307405RUG-AMITRIPTYL 75MG TB 500s   0000500000001200
00536300607RUG-AMOXAPINE 150MG TB 30s    0000500000004100
00536300301RUG-AMOXAPINE 25MG TB 100s    0000500000003125
00536300401RUG-AMOXAPINE 50MG 100S       0000500000005325
00536300501RUG-AMOXAPINE TAB 100MG 100s  0000500000008800
00536007001RUG-AMOXICIL TRI 250MG CP 100s0000500000000700
00536007005RUG-AMOXICIL TRI 250MG CP 500s0000500000002700
00536008002RUG-AMOXICIL TRI 500MG CP 250s0000500000003000
00536008005RUG-AMOXICIL TRI 500MG CP 500s0000500000005500
00536008006RUG-AMOXICIL TRI 500MG CP 50s 0000500000000700
00536010574RUG-AMOXICILL SUS 250MG 150ML 0000500000000300
00536010581RUG-AMOXICILL SUS 250MG 80ML  0000500000000240
00536009082RUG-AMOXICILLI SUS 125MG 100ML0000500000000155
00536009081RUG-AMOXICILLIN SUS 125MG 80ML0000500000000140
00536002082RUG-AMPICIL SUS 125/5ML 100ML 0000500000000135
00536002084RUG-AMPICIL SUS 125/5ML 200ML 0000500000000206
00536003082RUG-AMPICIL SUS 250/5ML 100ML 0000500000000196
00536003084RUG-AMPICIL SUS 250/5ML 200ML 0000500000000311
00536001010RUG-AMPICIL TRI 250MG CP 1000s0000500000005400
00536001001RUG-AMPICIL TRI 250MG CP 100s 0000500000000640
00536001005RUG-AMPICIL TRI 250MG CP 500s 0000500000002671
00536001601RUG-AMPICIL TRI 500MG CP 100s 0000500000001135
00536001605RUG-AMPICIL TRI 500MG CP 500s 0000500000004900
00536391257RUG-ANALGESIA CRM. 3oz        0000500000000182
00536142057RUG-ANALGESIC OIN GREASLES 3oz0000500000000254
00536405070RUG-ANTIBIOTIC EAR 10ML       0001000000000485
00536407170RUG-ANTIBIOTIC EAR SUS 10ML   0000500000000450
00536558806RUG-ANTIOXIDANT FORMULA 50s   0000500000000316
00536558908RUG-ANTIOXIDANT ULTRA 60s     0000500000000810
00536125512RUG-APAP 120MG SUPP 12s       0000500000000411
00536132012RUG-APAP 325MG SUPP 12s       0000500000000457
00536322210RUG-APAP 325MG TB 1000s       0000500000001316
00536322201RUG-APAP 325MG TB 100s        0000500000000260
00536323001RUG-APAP 500MG X STR CP 100s  0000500000000336
00536323010RUG-APAP 500MG X-STR CP 1000s 0000500000002350
00536321810RUG-APAP 500MG XST CPTB 1000s 0000500000001756
00536321801RUG-APAP 500MG XST CPTB 100s  0000500000000275
00536323110RUG-APAP 500MG XST TB 1000s   0000500000001900
00536323101RUG-APAP 500MG XST TB 100s    0000500000032311
00536321806RUG-APAP 500MG XSTR CPTB 50s  0000500000000180
00536126001RUG-APAP 650MG SUPP 100s      0000500000003737
00536126012RUG-APAP 650MG SUPP 12s       0000500000000468
00536323307RUG-APAP 80MG FRUIT TB 30s    0000500000000144
00536323407RUG-APAP 80MG GRAPE TB 30s    0000500000000130
00536012297RUG-APAP ELIXIR CHERRY BOX 4oz0000500000000205
00536012285RUG-APAP ELIXIR CHERRY PINT   0000500000000484
00536322101RUG-APAP EXT STRNG TB 100s    0000500000000295
00536012372RUG-APAP/PAIN FEVER INFAN 80MG0000500000000179
00536655091RUG-ARTIFICIAL TEARS O/O 3.5GM0000500000002515
00536623072RUG-ARTIFICIAL TEARS PLUS 15ML0000500000000260
00536197072RUG-ARTIFICIAL TEARS SOL 15ML 0000500000000250
00536327801RUG-AS-CAFF TABS 100s         0000500000000220
00536331801RUG-ASIPRIN 325MG EC RED 100s 0000500000000170
00536331310RUG-ASPIRIN 325MG EC ORNG 10000000500000001214
00536331810RUG-ASPIRIN 325MG EC RED 1000s0000500000001062
00536331101RUG-ASPIRIN 325MG TRI BUFF 1000000500000000225
00536330010RUG-ASPIRIN 325MG W/BUFF      0000500000001000
00536330510RUG-ASPIRIN 325MG WH/IMP 1000s0000500000000972
00536330501RUG-ASPIRIN 325MG WH/IMP 100s 0000500000000172
00536332610RUG-ASPIRIN 650MG EC RED 1000s0000500000001945
00536332601RUG-ASPIRIN 650MG EC RED 100s 0000500000000247
00536332001RUG-ASPIRIN 800MG TB TR 100s  0000500000000783
00536332101RUG-ASPIRIN 975MG EC TB 100s  0000500000000820
00536135012RUG-ASPIRIN SUPPOS 10GR 12s   0000500000000143
00536124012RUG-ASPIRIN SUPPOS 5GR 12s    0000500000000125
00536333301RUG-ATENOL/CHLOR 100/25MG 100s0000500000008300
00536333101RUG-ATENOLOL 100MG TB 100s    0000500000002100
00536332501RUG-ATENOLOL 25MG TB 100s     0000500000000692
00536332505RUG-ATENOLOL 25MG TB 500s     0000500000003251
00536333010RUG-ATENOLOL 50MG TB 1000s    0000500000006016
00536620308RUG-ATHLETES FORM VIT TB 60s  0000500000000216
00536410098RUG-BACITRAC OIN 500U/GM 1LB  0000500000001140
00536410098RUG-BACITRACIN OINT 500U 1lb  0000500000000165
00536410098RUG-BACITRACIN ONT 500U/GM 1oz0000500000000136
00536496001RUG-BACLOFEN 20MG 100s        0000500000002250
00536495905RUG-BACLOFEN TAB 10MG 500s    0000500000005000
00536495901RUG-BACLOFEN TB 10MG 100s     0000500000001125
00536571201RUG-BEE POLLEN 500MG TB 100s  0000500000000190
00536335301RUG-BEE T VITES TB 100s       0000500000000376
00536335708RUG-BEE ZEE TABS 60s          0001000000000315
00536409256RUG-BENZOL PEROX GEL 10% 1.5oz0000500000000227
00536408956RUG-BENZOL PEROX GEL 5% 1.50z 0000500000000216
00536556601RUG-BENZONATAT 100MG CP 100s  0000500000004100
00536031595RUG-BENZOYL PER LOT 10% 1oz   0000500000000205
00536031595RUG-BENZOYL PER LOT 5% 1oz    0000500000000170
00536337110RUG-BENZTROP MESY 1MG 1000s   0000500000002620
00536337101RUG-BENZTROP MESY 1MG 100s    0000500000000318
00536337201RUG-BENZTROP MESY 2MG 100s    0000500000000375
00536337205RUG-BENZTROP MESY 2MG 500s    0000500000001400
00536503860RUG-BETAMETH DIP .05% LOT 60ML0000500000000814
00536503020RUG-BETAMETH DIP CR .05% 15GM 0000500000000308
00536503026RUG-BETAMETH DIP CR .05% 45GM 0000500000000560
00536503420RUG-BETAMETH DIP ONT .05% 15GM0000500000000319
00536431020RUG-BETAMETH VAL CR .1% 15GM  0000500000000240
00536431026RUG-BETAMETH VAL CR .1% 45GM  0000500000000420
00536433061RUG-BETAMETH VAL LOT .1% 60ML 0000500000000656
00536336510RUG-BETANECHOL CHL 10MG 1000s 0000500000001196
00536336910RUG-BETANECHOL CHL 25MG 1000s 0000500000002000
00536336601RUG-BETANECHOL CHL 50MG 100s  0000500000000473
00536135501RUG-BISCODYL 10MG SUPP 100s   0000500000000828
00536135512RUG-BISCODYL 10MG SUPP 12s    0000500000000208
00536338110RUG-BISCODYL 5MG EC LAX 1000s 0000500000001395
00536338101RUG-BISCODYL 5MG EC LAX 100s  0000500000000300
00536338104RUG-BISCODYL 5MG EC TB 25s    0000500000000185
00536230259RUG-BLUE GEL MUSCLE REL 8oz   0000500000000207
00536422098RUG-BORIC ACID 10% OINT. 1LB  0000500000000334
00536510001RUG-BRAN 500MG FC TB 100s     0000500000000110
00536572002RUG-BREWERS YEAST 7.5GR 250s  0000500000000564
00536444801RUG-BROMADRINE CP 100s        0000500000002351
00536444901RUG-BROMADRINE PD CP 100s     0000500000002161
00536039097RUG-BROMALINE ELIXIR BOX 4oz  0000500000000159
00536039090RUG-BROMALINE ELIXIR GAL      0000500000001581
00536039085RUG-BROMALINE ELIXIR PNT.     0000500000000340
00536337935RUG-BROMALINE TB BL/PK 24s    0000500000000163
00536028585RUG-BROMOPHEN DX COUGH SY 16oz0000500000000650
00536339710RUG-BROMOPHEN TD TB 1000s     0000500000003285
00536344980RUG-BRONTO-VITES W/IRON 60s   0000500000000248
00536474297RUG-CAL-GEST ANTACID TB 150s  0000500000000205
00536037758RUG-CALAMED LOT IMPROV 6oz    0000500000000166
00536033285RUG-CALAMINE LOT 16oz         0000500000000230
00536033297RUG-CALAMINE LOT 4oz          0000500000000110
00536343201RUG-CALCIUM & EGG SHELLS 100s 0000500000000162
00536342608RUG-CALCIUM 600 SUPP TB 60s   0000500000024000
00536342408RUG-CALCIUM 600 W/D SUPP 60s  0000500000000240
00536341410RUG-CALCIUM CARB 10GR 1000s   0000500000000840
00536688908RUG-CALCIUM CHEW 500MG 60s    0000500000000219
00536341710RUG-CALCIUM GLUC 15GR 1000s   0000500000001495
00536341610RUG-CALCIUM GLUC 500MG 1000s  0000500000000986
00536342210RUG-CALCIUM LACT 10GR 1000s   0000500000001041
00536342201RUG-CALCIUM LACT 10GR 100s    0000500000000167
00536341810RUG-CALCIUM LACT 325MG 1000s  0000500000000676
00536343010RUG-CALGLYCINE TABS 1000s     0000500000000968
00536343002RUG-CALGLYCINE TABS 250s      0000500000000321
00536341101RUG-CARBAMAZEP 100MG CHEW 100s0000500000001125
00536341501RUG-CARBAMEZAPIN 200MG 100S   0000500000001100
00536045475RUG-CARBODEC DM DROPS 30ML    0000500000000295
00536445201RUG-CARBODEC TABS 100s        0000500000001098
00536445301RUG-CARBODEC TR TABS 100s     0000500000001850
00536343501RUG-CARISOPRADOL 350MG 100S   0000500000000570
00536342901RUG-CARISOPRO/CMP TAB 100s    0000500000005135
00536343510RUG-CARISOPRODOL TB 350MG 10000000500000004185
00536343505RUG-CARISOPRODOL TB 350MG 500s0000500000002350
00536342905RUG-CARSOPRO/ASPIR 200/325MG  0000500000020567
00536344001RUG-CASCARA SAGRADA 5GR SC 1000000500000000252
00536034185RUG-CASCARA SAGRADA EXTRAC PIN0000500000000803
00536012005RUG-CEPHALEX CP 250MG 500s    0000500000004400
00536013001RUG-CEPHALEX CP 500MG 100s    0000500000002000
00536013005RUG-CEPHALEX CP 500MG 500s    0000500000008600
00536011684RUG-CEPHALEX PWD 125/5ML 200ML0000500000000556
00536011882RUG-CEPHALEX PWD 250/5ML 100ML0000500000000475
00536011884RUG-CEPHALEX PWD 250/5ML 200ML0000500000000840
00536011682RUG-CEPHALEX/PWDR 125/5M 100ML0000500000000319
00536012005RUG-CEPHALEXIN 250MG CP 500s  0000500000005310
00536018001RUG-CEPHRADRINE 250MG CP 100s 0000500000002400
00536018005RUG-CEPHRADRINE 250MG CP 500s 0000500000011500
00536018501RUG-CEPHRADRINE 500MG CP 100s 0000500000004400
00536344238RUG-CEROVITE ADVAN 130s       0000500000000440
00536344308RUG-CEROVITE JNR CHEW 60s     0000500000000220
00536344508RUG-CEROVITE SENIOR 60s       0000500000000240
00536344901RUG-CHEW VITE W/IRON TB 100s  0000500000000284
00536348601RUG-CHLOR-REST TB 100s        0000500000000266
00536014001RUG-CHLORAMPHEN 250MG CP 100s 0000500000002327
00536342001RUG-CHLORDRINE SR CAP 100S    0000500000001225
00536346010RUG-CHLOROTHIAZ 250MG TB 1000s0000500000003182
00536346110RUG-CHLOROTHIAZ 500MG TB 1000s0000500000005193
00536346001RUG-CHLOROTHIAZIDE 250MG 100s 0000500000000346
00536491610RUG-CHLORPROMAZ 100MG SC 1000s0000500000000625
00536491601RUG-CHLORPROMAZ 100MG TB 100s 0000500000000625
00536491810RUG-CHLORPROMAZ 200MG TB 100s 0000500000006493
00536490610RUG-CHLORPROMAZIN 25MG 1000s  0000500000002904
00536490601RUG-CHLORPROMAZIN 25MG 100s   0000500000000423
00536491510RUG-CHLORPROMAZIN 50MG 1000s  0000500000003446
