
74675REBEL 550871000900002400013757660017000024000154958400900000240001960105 D1
74675REBEL 562173000800002400010580320089000024000137774700190000240001960105 D1
74675REBEL 376277001250002400015617870004200024000161696100060000240001960105 D1
74675REBEL 405019003500002400015616210100000024000156163901100000240001960105 D1
74675REBEL 618819021000000720014207030022500024000142932400120000240001960105 D1
74675REBEL 339721001295002400010376300031000024000175324400140000240001960105 D1
74675REBEL 211870008000002400010562420077500024000157551900830000240001960105 D1
74675REBEL 024521008500002400018532830014500024000104026100155000240001960105 D1
74675REBEL 206706001000002400016239000023000024000166947300080000240001960105 D1
74675REBEL 501229006000002400016010700016000024000160150000620000240001960105 D1
74675REBEL 601435006000002400015193890080000024000151830800520000240001960105 D1
74675REBEL 601096002000002400016012860058000024000115079700200000240001960105 D1
74675REBEL 101758001450002400014111730055000024000140174500480000240001960105 D1
74675REBEL 406553007500002400013323460036000024000143114800160000240001960105 D1
74675REBEL 158303002500002400010547910042250024000121971700185000240001960105 D1
74675REBEL 753285002400002400014873970020000024000146832200120000240001960105 D1
74675REBEL 148965009600002400010721650105000024000123975601400000240001960105 D1
74675REBEL 066332023000002400011754970010000024000115183700200000240001960105 D1
74675REBEL 047449001695002400017368500033000024000158748500380000240001960105 D1
74675REBEL 587451002237000360016853210016000024000113786900510000240001960105 D1
74675REBEL 13722400670000240001      0013500002400068512300280000240001960105 D1
74675REBEL 757155001700002400015177220012500024000117154601300000240001960105 D1
74675REBEL 126391005000002400015626450030000024000112598900150000240001960105 D1
74675REBEL 578179001235002400011260030016500024000157677700180000240001960105 D1
74675REBEL 562637001800002400012201520040000024000121992300350000240001960105 D1
74675REBEL 220061003500002400016726670080000024000131310600125000240001960105 D1
74675REBEL 31271000180000240001  00  0092000004800034656900420000240001960105 D1
74675REBEL 070177003500002400016712480013500024000102237600850000240001960105 D1
74675REBEL 110684001000002400011710170020000024000184141100950000240001960105 D1
74675REBEL 744912001500002400017355710015000024000123537401100000240001960105 D1
74675REBEL 507590001875002400010597900015250024000156276900157500240001960105 D1
74675REBEL 025924001800002400010271440018000024000170336301100000240001960105 D1
74675REBEL 715136010000002400017150780138000024000171508601580000240001960105 D1
74675REBEL 070649002200002400015187530025000024000108895500280000240001960105 D1
74675REBEL 354050007800002400013833070008000004000138333100550000240001960105 D1
74675REBEL 383372001000002400013833980100000024000117023300590000240001960105 D1
74675REBEL 243592001200002400012461570015000024000139877600025401200001960105 D1
74675REBEL 138156039000002400010159090420000024000107406201400000240001960105 D1
74675REBEL 040576001800002400010780140015000024000144584100600000240001960105 D1
74675REBEL 243675000900002400011365490070000024000113264700150000240001960105 D1
74675REBEL 158550001000002400011369370090000024000133975400150000240001960105 D1
74675REBEL 257527002600000400010092740035000024000110326700150000240001960105 D1
74675REBEL 339762001800002400010018590025000024000115115900185000240001960105 D1
74675REBEL 671172004500002400015782520022000024000133977000160000024001960105 D1
74675REBEL 071142005632002400010686430022000024000107544000070000240001960105 D1
74675REBEL 447235000995002400040304520018000008800168559400160000240001960105 D1
74675REBEL 075846001400002400016177380014000024000149190200125000240001960105 D1
74675REBEL 280081001250002400010577290030000024000118986000210000240002960105 D1
74675REBEL 671172004500002400015782520022000024000130117603280000240001960105 D1
74675REBEL 246173006000002400017343430060000024000173647000600000240001960105 D1
74675REBEL 450064019000002400017128510045000024000137782000800000240001960105 D1
74675REBEL 377580004000002400016863940020000024000167319400300000240001960105 D1
74675REBEL 673186005500002400015092990027800024000115169600070000240004960105 D1
74675REBEL 339861000850002400041521400063000024000162493200520000240001960105 D1
74675REBEL 313114005870002880019993350033050008200103513900030000360001960105 D1
74675REBEL 416602000205003600010098940009500186000100943100050000144001960105 D1
74675REBEL 009449000760001440010098860010000067000101003300068500012001960105 D1
74675REBEL 089201001034002000016005280021530002400104711800263200012001960105 D1
74675REBEL 042887002632000120015884420008000101800182746900093000030001960105 D1
74675REBEL 596999001950025410011825350017250040500118200600110000073001960105 D1
74675REBEL 060418002153000600010501870011730007200109071200030000011001960105 D1
74675REBEL 054189000989001000017361810006900012000129158300125000120001960105 D1
74675REBEL 291609001380001200011517870096900012000163984900085000120001960105 D1
74675REBEL 454892000825001200017301500008500024000129161700138000120001960105 D1
74675REBEL 361097001500001200010327140044000012000167944900255000120001960105 D1
74675REBEL 094730002015001200016765850024500012000167979500800000120001960105 D1
74675REBEL 038448001150001200010160480041800012000101477900224500120001960105 D1
74675REBEL 016444008365001200013523020016500012000135249200255000120001960105 D1
74675REBEL 394437000815001200015033750061200012000101904200204000120001960105 D1
74675REBEL 016501000970002400010170200010000000400107834000642500120001960105 D1
74675REBEL 753210001835001200010782460032650012000101968700145000120001960105 D1
74675REBEL 564476001500001200015785180035700012000159789800097500120001960105 D1
74675REBEL 688085001125001200013554040034400012000177472900196500120001960105 D1
74675REBEL 326165001430001200010803820049350012000129173200097000120001960105 D1
74675REBEL 066555004100001200011851570031650012000167223800031500120001960105 D1
74675REBEL 146282005100001200014019430050000012000140193500551000120001960105 D1
74675REBEL 790121007650001200010573230055100012000141400300551000120001960105 D1
74675REBEL 143586008160001200016468360066300012000112472701530000120001960105 D1
74675REBEL 5459370066300012000155554000969000120001      00306000120000960105 D1
74675REBEL       003060001200007301680036000012000182070400581500120001960105 D1
74675REBEL 697466030600001200016974820224500012000169745800510000120001960105 D1
74675REBEL 697474004400001200010666960074000012000172090400245000120001960105 D1
74675REBEL 555177000995001200011949480011250012000167425900138000120001960105 D1
74675REBEL 291955001900001200010346030051000012000129196300153000120001960105 D1
74675REBEL 290973001530001200017140140032650012000106679500765000120001960105 D1
74675REBEL 720896002040001200014555010028400012000125917600326500300001960105 D1
74675REBEL 0668940059000012000129101300107000480001      00143000120000960105 D1
74675REBEL 07849300184000120001      0018000012000002827400632500120001960105 D1
74675REBEL 291518001620001200012915340022500012000129157500128500120001960105 D1
74675REBEL 291971001240001200014242590020000012000129154200095000120001960105 D1
74675REBEL 573303005310001200015838800081600012000173873200047500120001960105 D1
74675REBEL 467720000665001200012878130004350012000145490000204000120001960105 D1
74675REBEL 214593019000003300015396430390000004800147222502100000600001960105 D1
74675REBEL 598094030000006000014250820600000060000134514000077506018001960105 D1
74675REBEL 023705001056010730010238610010900043200171982303200000240001960105 D1
74675REBEL 719633016125002400017198490640000001200179456000425300234001960105 D1
74675REBEL 328153000510004000013922980002610008200102908200055500100010960105 D1
74675REBEL 029041000555001000010290330005550010001002901700045000002010960105 D1
74675REBEL 537506000555001000100289850005550010001002897700055500100010960105 D1
74675REBEL 029074000555001000100289440005550010001043883800095000240008960105 D1
74675REBEL 438648001150002400044387130012500024000443878800177500240004960105 D1
74675REBEL 438630001455002400015405910017750024000142604900095000240008960105 D1
74675REBEL 425009001300002400084306450009500024000844048700073000240008960105 D1
74675REBEL 439018001020002400084388790009500048000143725100095000480008960105 D1
74675REBEL 437244000950004800014388200009500048000843824200117500480004960105 D1
74675REBEL 437400001775004800044392160008850048000151991800120000480008960105 D1
74675REBEL 420638001200004800080781700006000010000107822000500000100001960105 D1
74675REBEL 591081001695001000010389920000920010000113537600011600100001960105 D1
74675REBEL 107300000085001000010390400001550010000119090000017500100001960105 D1
74675REBEL 038570000505001000010631490020000010000103860400050500100001960105 D1
74675REBEL 214114000420001000012920370008750010000133401100092500100001960105 D1
74675REBEL 365577001650001000011683930001850010000156478100072000100001960105 D1
74675REBEL 157016002900001000012023660002450010000116343600620000100001960105 D1
74675REBEL 197319000375001000011965350038500010000171648000420000100001960105 D1
74675REBEL 240432002320001000015991000013750010000160239100270000100001960105 D1
74675REBEL 611343000130001000014909380001550010000143939800021500100001960105 D1
74675REBEL 562108003000001000015621730031000010000156839400280000100001960105 D1
74675REBEL 582999014500001000013089320011800010000115790900090000100001960105 D1
74675REBEL 197947000175001000011066090005800010000159428300065500100001960105 D1
74675REBEL 762815003500001000012924580009600010000121332200142500100001960105 D1
74675REBEL 240374001375001000010307310024000010000144519700026000100001960105 D1
74675REBEL 649954004500001000014452620005100010000159753400242500100001960105 D1
74675REBEL 458805000300001000016501430046000010000129171600009500100001960105 D1
74675REBEL 450189000145001000016482870001200010000164937600020500100001960105 D1
74675REBEL 59258400042500100001      0026000010000059572800195000100001960105 D1
74675REBEL 4497930042000240000175406900480000432001      00053000144000960105 D1
74675REBEL 391011000785000960015063110009500008400139154000330003600000960105 D1
74675REBEL 391557001850036000003257870102350144000132577900145501440001960105 D1
74675REBEL 282897000905014400015443040006000144000137934700234401440001960105 D1
74675REBEL 3258030023850144000103984200182601440001      00323700000000960105 D1
74675REBEL 325837001400014400012827560006200144000128745800097001440001960105 D1
74675REBEL       001500014400004340290037000010000152001501500000100001960105 D1
74675REBEL 434035006500001000015200230275000010000143404501650000100001960105 D1
74675REBEL 157396004250005000016858000165000050000117065400800000500001960105 D1
74675REBEL 7166960330000050000161922101800000500001      00230000300000960105 D1
74675REBEL 640706001900003000016064000050000030000160639200285000300001960105 D1
74675REBEL 606244000600003000016079030085000030000160653300093000300001960105 D1
74675REBEL 606798004500003000016083310014000030000160837200600000300001960105 D1
74675REBEL 28643500125004800001      00550000600000      00175000600001960105 D1
74675REBEL       005500006000004344310017500060000112628400550000600001960105 D1
74675REBEL 114660001750006000011264660055000060000111468600175000600001960105 D1
74675REBEL       00900000600000      00325000600000      00900000600000960105 D1
74675REBEL 114652003250006000010520500015990010800116147101650000130001960105 D1
74675REBEL 417303005150006000010052800096000060000148966602400000600001960105 D1
74675REBEL 146761045900006000014345480030000050000143455500790000500001960105 D1
74675REBEL 530402005000005000014345630036000050000143457100950000500001960105 D1
74675REBEL 530410005900005000013241600500000030000132382400510000300001960105 D1
74675REBEL 324293072500000720013241860077000030000132274300470000300001960105 D1
74675REBEL 308064020000014400013793880023450144000135814300236201440001960105 D1
74675REBEL 393421002025014400013794460034840144000135820000350001440001960105 D1
74675REBEL 038364003500014400013259770011350144000104220000770000240001960105 D1
74675REBEL       018000003000001556220016000030000152857000300000300001960105 D1
74675REBEL 210716001395003000010717870056350030000181949000723500024001960105 D1
74675REBEL 780445004736014400017804030100000030000162587100980000500000960105 D1
74675REBEL 733998015200005000015998860950000010000151878704880000300001960105 D1
74675REBEL 698407023704003600016983390127250036000142668401150000360001960105 D1
74675REBEL 42047100580000360001      00307100360001      00408600360001960105 D1
74675REBEL       00487000360001      00164400360001      00242500360001960105 D1
74675REBEL 423558001900002880014223780002500028800145920600465000288001960105 D1
74675REBEL 425090000550002880014530010024500028800144783900380000072001960105 D1
74675REBEL 451203002325001410014514680096000019700147374400024000288001960105 D1
74675REBEL 475442001000002880014818950014000028800148188700030000288001960105 D1
74675REBEL 481911002075008640014819030004800028800107536600482500007001960105 D1
74675REBEL 026435000100000180015976900300000005000104576501900000300001960105 D1
74675REBEL 569418000600001000010553190021980240000145826500706200240001960105 D1
74675REBEL 467639002566002400014798570031070024000146726600830700240001960105 D1
74675REBEL 797613004600002000011118720110000028800190840000714001200001960105 D1
74675REBEL 908442013600012000017616760165000024000176168400900000240001960105 D1
74675REBEL 761692019000002400019084590643000007200163361002500000240001960105 D1
74675REBEL 761700008500002400016330570260000024000181349300450000240001960105 D1
74675REBEL 736140004600002400017359100025000024000160877800600000240001960105 D1
74675REBEL 608679003000002400012666500045000024000103337300500000240001960105 D1
74675REBEL       02704000240000      0081700024000025750100950000240001960105 D1
74675REBEL 060947002330000480010609700034350002400128303600110000455001960105 D1
74675REBEL 580027010650005000015800500110000050000157996101170000500001960105 D1
74675REBEL 579979019500005000016167060007000039400161669800155006000001960105 D1
74675REBEL 572861001400000720015273660011600001200152735800110000012001960105 D1
74675REBEL 527853001450000280015177970019320001200108646200064500240001960105 D1
74675REBEL 300749001300003000012189660020870036000151778900170000090001960105 D1
74675REBEL 309906000775001320015076570014250007200169254100165000288001960105 D1
74675REBEL 366591001200024000011735180024000036000169171700580000720001960105 D1
74675REBEL 014670002600002400010155110025500024000101553700255000240001960105 D1
74675REBEL 028928000975005640010738740024000024000108351900142500240001960105 D1
74675REBEL 099853002800002400011117650024000024000115213200150000240001960105 D1
74675REBEL 169672002700002400014873890011000060000159500900110000600001960105 D1
74675REBEL 014506003800006000010144980038000060000101429000330000600001960105 D1
74675REBEL 109405001090060000010134740033000060000178282100110006000001960105 D1
74675REBEL 014068003300006000016451350011500060000143319300130000108001960105 D1
74675REBEL 076281002800002350010441490024750001700158137100227500020001960105 D1
74675REBEL 121962002650002010015813630015000001000109124900173500048001960105 D1
74675REBEL 475368005225002400012661890009600012000136299800293500288001960105 D1
74675REBEL 373209001095015720018347390026750036000117178500460000600001960105 D1
74675REBEL 170688003000006000016560580025750022800148080600700000100001960105 D1
74675REBEL 090274001700000120010903810017000003900103559200187500179001960105 D1
74675REBEL 073882002100010000012356140038000001900177727600500000009001960105 D1
74675REBEL 241596001700002650011373310016000015000109841800200000906001960105 D1
74675REBEL 100784001215001920011704800013750107300107299100200001890001960105 D1
74675REBEL 035063000065002400013626810001530024000136224900013500288006960105 D1
74675REBEL   00  00006200240001  00  0000880024000145440500010800240001960105 D1
74675REBEL 368126000135002880060273420007020028800632625600060000288006960105 D1
74675REBEL 454413000165002880064976440002400028800149770100040000576001960105 D1
74675REBEL 030254000510002880013188570002400028800103040300041000288001960105 D1
74675REBEL 084954000120002880011202790002500028800139978200037500288001960105 D1
74675REBEL 160846000120002880011706050002370028200129306800077500240001960105 D1
74675REBEL 029173000108002400010294540000900024000144484400072500240001960105 D1
74675REBEL 043737000700002880016098260002600086400102240000011000240001960105 D1
74675REBEL 022582000225002400010262520002800028800137247400013000288001960105 D1
74675REBEL 025676000120001440010264760003300028800102567600028000288001960105 D1
74675REBEL 159475000155002880011594830001430057600129853900008500240001960105 D1
74675REBEL 339002000115002400013106640002600043200109901000011200288001960105 D1
74675REBEL 074302000112002880012985540000850028800139662200014000240001960105 D1
74675REBEL 849638000242002400013557760002500028800135578400042500288001960105 D1
74675REBEL 657775000092004320016577670001500028200165778300009500288001960105 D1
74675REBEL 159491000270002880017786620000960028200177867000018500288001960105 D1
74675REBEL 778688000354001440017786960001150028800177870400021500288001960105 D1
74675REBEL 778712000400002400010017010006500028800136289700023000288001960105 D1
74675REBEL 365825000310002880013701060003850028800123281900016000240001960105 D1
74675REBEL 454421000135002400015318970001350028800102778900052500288001960105 D1
74675REBEL 159533000097002400010338780000660024000138552600016600240001960105 D1
74675REBEL 649509000161002820014605350002400028800138546800016800288001960105 D1
74675REBEL 034868000080004320013262800002100043200146052700008000288001960105 D1
74675REBEL 3595130011360028800154182100023200282001  00  00014500240001960105 D1
74675REBEL   00  00070000240001  00  00007400240001  00  00010300240001960105 D1
74675REBEL 457887000360002400013262230001280024000144950400237500000001960105 D1
74675REBEL 017780000625001200011591860004250028800152035300245000008001960105 D1
74675REBEL 429449001420000450011082170067000000400110527000260000288001960105 D1
74675REBEL 293035002635000120015466060020260003600154661400260000030001960105 D1
74675REBEL 874768004800000720014923220019120060000146917100484500012001960105 D1
74675REBEL 133140002730000160012183700085000003600138133500405000023001960105 D1
74675REBEL 617886007400001200014705340042000004800102243400400000030001960105 D1
74675REBEL 617290072000000170018160660015000002400180187800600000360001960105 D1
74675REBEL 814749008900003600018073880119000036000179843900417500360001960105 D1
74675REBEL 072504009130000600017119520054750036000172344503500000120001960105 D1
74675REBEL 808725072500001200014361620250000012000106153100030000480001960105 D1
74675REBEL 575613022000001200012867730400000012000128669000890000360001960105 D1
74675REBEL 631051005500001200017144020220000012000130994800070000120001960105 D1
74675REBEL 634840001700001200013363050012000012000161494100180000120001960105 D1
74675REBEL 617266001850001200015108000028000012000149850100350000120001960105 D1
74675REBEL 5086140055000012000142628800290000120001      00019000120000960105 D1
74675REBEL       00105000000001      00093300000001      00115000000001960105 D1
74675REBEL       001050000000018837770099000028800188602801890000288001960105 D1
74675REBEL 206524007000000060014315770020600022600143164300580000066001960105 D1
74675REBEL 736637002150006000017362490002000060000163205900030000600001960105 D1
74675REBEL 067256004500006000015294040205000060000123962400055000600001960105 D1
74675REBEL 529438004250006000010403260010000060000104319000180000600001960105 D1
74675REBEL 217521003150012000012175540032560120000182859000530001200001960105 D1
74675REBEL 834135026127012000012175620053200120000121757000933001200001960105 D1
74675REBEL       005500006000006398150002900060000183777300080000600001960105 D1
74675REBEL 837779001200006000012073160133000120000119777200150001200001960105 D1
74675REBEL 652875000900006000016856770003000060000168030600040000600001960105 D1
74675REBEL 714956000250006000016338590002250060000163237200040000600001960105 D1
74675REBEL 669119000450006000013372460033950060000133783201600000600001960105 D1
74675REBEL 336412001895006000013371470088000060000122920300054500600001960105 D1
74675REBEL 230854001650006000012318370079000060000125401102187200600001960105 D1
74675REBEL 421800000300006000014737690010000060000147382700040000600001960105 D1
74675REBEL 421867001434006000011528190001990060000163683700011400600001960105 D1
74675REBEL 066597000400006000012120190005000060000178961000203000600001960105 D1
74675REBEL 736322000350006000017363630007200060000156531700150000600001960105 D1
74675REBEL 570713000700006000015707390018500060000167788000035000600001960105 D1
74675REBEL 701193001700006000017012010009000060000126237800060000600001960105 D1
74675REBEL 255182000550006000017012350016000060000119507300145000600001960105 D1
74675REBEL 529776000475006000012149570006500060000121310800450000600001960105 D1
74675REBEL 351173004500006000018126770009000060000163179600060000600001960105 D1
74675REBEL 136762000700006000015283640010000060000152834900140000600001960105 D1
74675REBEL 785220000719006000014061650034940060000153766200091000600001960105 D1
74675REBEL 048991004452006000013401740011290060000102470300554900600001960105 D1
74675REBEL 117986001045006000011512410050020060000115171200165200600001960105 D1
74675REBEL 152504008133006000013539380005000060000135416700055000600001960105 D1
74675REBEL 710863000700006000010578440007000060000101818400080000600001960105 D1
74675REBEL 009480000775006000011011540009000060000163267900100000600001960105 D1
74675REBEL 632877001400006000017555040012000060000104813200029900600001960105 D1
74675REBEL 707034000845006000017070750012900060000170708300566600600001960105 D1
74675REBEL 707091001500006000017452650002200060000174527300015000600001960105 D1
74675REBEL 367029000900006000016117980019500060000161178000405400600001960105 D1
74675REBEL 236646019017006000016861390021110060000158185000215900600001960105 D1
74675REBEL 581868003005006000012582440004600060000118619700110000600001960105 D1
74675REBEL 186205004600006000011859420052000060000118591800280000600001960105 D1
74675REBEL 184762000700006000010329790008450060000120998100770000600001960105 D1
74675REBEL 365635001052006000016875660001400060000168757400011500600001960105 D1
74675REBEL 589982000525006000011583600158000060000102198001650000600001960105 D1
74675REBEL 589614000600006000017840170030000018400144393700360000600001960105 D1
74675REBEL       002535000240002220000022500030000132243800409000120001960105 D1
74675REBEL 226761001630001800012268110022500018000147798400329000120001960105 D1
74675REBEL 322644004090001200014779760067000001200147794300507500060001960105 D1
74675REBEL 0080030019250006000120407300177500024001      09302100100000960105 D1
74675REBEL 51638501828000500001  00  0039650024000047729900038900240001960105 D1
74675REBEL 477331000575002400017256300008200024000111209400125000240001960105 D1
74675REBEL 744078016800002400013430460018900024000134727800930000240001960105 D1
74675REBEL 456822003218002400014563270005850024000119214600088203000001960105 D1
74675REBEL 784835000505072100012597470004480024000125981200083500240001960105 D1
74675REBEL 270827000230002400015369040002570024000161441200032300240001960105 D1
74675REBEL 270975000422002400015370760006350024000111081000035000240001960105 D1
74675REBEL 537050000390002400011474390002940024000115118300036000240001960105 D1
74675REBEL 322941002078002400011513160003250024000119231000024700240001960105 D1
74675REBEL 271890001683002400017099490007000024000127096700076500240001960105 D1
74675REBEL 841817001012002400017099720015990024000103661600029800240001960105 D1
74675REBEL 281923004663002400012789600036950024000158134800024000240001960105 D1
74675REBEL 581355000249002400013907990004630024000106991400057000240001960105 D1
74675REBEL 284026000455002400010322760002560024000100729400041300240001960105 D1
74675REBEL 537332000296002400010210480003700024000158079500022200240001960105 D1
74675REBEL 341438001021002400010426300009210024000125085200042200240001960105 D1
74675REBEL 250910001100002400011243210004500024000112435400049900240001960105 D1
74675REBEL 136846000831002400016852480002930024000131135700156000240001960105 D1
74675REBEL 573667000330002400015736750004450024000157369100061600240001960105 D1
74675REBEL       001367002400002327440013840042000114851000026100360001960105 D1
74675REBEL 266403000692004200013606510020820036000184409200026600360001960105 D1
74675REBEL 101121000688003600017029280023090036000103431400027200360001960105 D1
74675REBEL 019802007218003600016630540012030036000116127300350000360001960105 D1
74675REBEL 647990000445003600010397350007920036000110111300016500360001960105 D1
74675REBEL 101246000210003600010107690001550036000182869900025000360001960105 D1
74675REBEL 266601001230004200012471710001700036000152094000064500420001960105 D1
74675REBEL 266668001260004200016413320001740036000152099900067000420001960105 D1
74675REBEL 266673001190003600016413400001800036000124794000061000360001960105 D1
74675REBEL 521211004882003600015212030007550036000165755100011000360001960105 D1
74675REBEL 521336003464003600015213280004310036000152134400990000420001960105 D1
74675REBEL 353821000176004200013631500001100036000136426500018000360001960105 D1
74675REBEL 218875000270003600012868800008070042000108421000025500360001960105 D1
74675REBEL 083774000240003600010838400003370036000180650500297600360001960105 D1
74675REBEL 366245000114004200011428280022500042000174985300221300360001960105 D1
74675REBEL 599803002422003600011579410002480042000125471400010100420001960105 D1
74675REBEL 649772000090004200016497800001010042000115761000015500420001960105 D1
74675REBEL 254888000101004200011586530001010042000164997800010100420001960105 D1
74675REBEL 520791000122004200011676500002000042000116796500012200420001960105 D1
74675REBEL 448621000286003600014486390003160036000144864700151100360001960105 D1
74675REBEL 319483000915004200015207000016740042000152071800315000420001960105 D1
74675REBEL 319467000765003600015206920012610036000131528300066500096001960105 D1
74675REBEL 315382002000000240017870770094000006000144761503280000144001960105 D1
74675REBEL 315432003300002400013995840172000004800105206800301600000001960105 D1
74675REBEL 676684002850010000011286780060000000200162991500041001000001960105 D1
74675REBEL 656264000785010000014962400009500100000116037402750001000001960105 D1
74675REBEL 184952000330010000010588000003300100000156597800087501000001960105 D1
74675REBEL 185009000550010000011850170006950100000175563700960000016001960105 D1
74675REBEL 046821014000000010018019280077500001500125089401300000080001960105 D1
74675REBEL 310409006000000060013425190137500000400136748201125000034001960105 D1
74675REBEL 120709013500000060010923790078000000400104596300025000156001960105 D1
74675REBEL 516567000654024760011144050007430018800111479300154001485001960105 D1
74675REBEL 118414000600000070018392740023980000200128258200094000277001960105 D1
74675REBEL 018952001450004190012827640008350056700128277200078000048001960105 D1
74675REBEL 282798000825010510012828140008250146400128284800095003076001960105 D1
74675REBEL 425843000710028440014258430005600036500144268100112500072001960105 D1
74675REBEL 178228026390003790011527100028320150000140842700430000623001960105 D1
74675REBEL 234278061900000060015207670018500147400125606500120000495001960105 D1
74675REBEL 466946001150000360010934350011950001200105887500300000549001960105 D1
74675REBEL 062232003400012630011324230039000004800154390000330000924001960105 D1
74675REBEL 183525002900002660010566550035000115200152097300215001344001960105 D1
74675REBEL 538108002225000120016744240015500004800124846800175000074001960105 D1
74675REBEL 482018001080001090011589980010500120000100415000560000371001960105 D1
74675REBEL 003939015500001470010189940046850077900100187500780000939001960105 D1
74675REBEL 440727002475002880014407760023500028800144107100235000288001960105 D1
74675REBEL 859215002800000200010957450015250003600115158900770000270001960105 D1
74675REBEL 151605009000003600011516390132000058300100304600580000355001960105 D1
74675REBEL 407254006225000180017400680029000112200140726200490000614001960105 D1
74675REBEL 296988023500001160011214180084800050000112322400423500500001960105 D1
74675REBEL 746248004235005000011966830086000005200119082700827000006001960105 D1
74675REBEL 417352001800002400017747110001950024000140302200950000240001960105 D1
74675REBEL 057877000410002400010553350010000024000105745500200000240001960105 D1
74675REBEL 058750000400002400010599720006750024000107811300067500120001960105 D1
74675REBEL 774844001800002400010790530004300024000181845000125000240001960105 D1
74675REBEL 591537003000002400013372120010000024000109440900032500240001960105 D1
74675REBEL 097378000600002400010993090010700024000126638700028000000001960105 D1
74675REBEL 283481000712000000010098600002700024000101408400011500240001960105 D1
74675REBEL 014324000270002400010081930001150024000101295500032500240001960105 D1
74675REBEL 126672000900002400011263750005300024000148733000500000240001960105 D1
74675REBEL 771261000295003600010175740002100036000145301900024400360001960105 D1
74675REBEL 437426000154003600014151170002440036000111411600029000360001960105 D1
74675REBEL 132399001062003600017806500099000036000187831400461200360001960105 D1
74675REBEL 780601003448003600011553580037510036000178061900528200360001960105 D1
74675REBEL 873869005946003600011390710001800036000154029400022600360001960105 D1
74675REBEL 779520001951003600018783300084060036000139449400097400360001960105 D1
74675REBEL 440156003739003600011386100002930036000154030200035700360001960105 D1
74675REBEL 550913007350003600010842510010340036000159469700071700360001960105 D1
74675REBEL 397398002832003600013995270012170036000140031700525000360001960105 D1
74675REBEL 168799003150003600015128140004760036000175045500078500360001960105 D1
74675REBEL 644815000087003600011855870004350036000154056700011500360001960105 D1
74675REBEL 540583000400003600013447390022860036000120393500070000360001960105 D1
74675REBEL 731752000171003600015409550003670036000154106000068800360001960105 D1
74675REBEL 595272000752003600017886200003670036000156120900068000360001960105 D1
74675REBEL 575498000660003600015755060006950036000150574300030000360001960105 D1
74675REBEL 244988000754003600012450430006240036000152011400011200360001960105 D1
74675REBEL 524512000400003600017506460039000036000179155800050000360001960105 D1
74675REBEL 221317000123003600013846100054630036000169781300158100360001960105 D1
74675REBEL 071530000116003600018450990028350036000175961300077500360001960105 D1
74675REBEL 564682000798003600015596170017750036000165544900020700360001960105 D1
74675REBEL 673426006375003600015471580006450036000154998000120000360001960105 D1
74675REBEL 558353002927003600015435790005780036000143891102500000360001960105 D1
74675REBEL 933481004838003600012472880056200036000154466800049000360001960105 D1
74675REBEL 636605000139003600016881450003750036000142598300044200360001960105 D1
74675REBEL 070540000265003600014263120013750036000161805800024500360001960105 D1
74675REBEL 597245000700003600018069010001160036000144180800242600360001960105 D1
74675REBEL 440719004086003600019335070165600036000162470000877900360001960105 D1
74675REBEL 163642006059003600015361690021000036000193351501061900360001960105 D1
74675REBEL 000075002500003600010440810033270036000193352301500000360001960105 D1
74675REBEL 305904004664003600010907790052680036000145929700192000360001960105 D1
74675REBEL 249292000211003600015947540003550036000125618000176400360001960105 D1
74675REBEL 545087000335003600012966240041460036000166542200063300360001960105 D1
74675REBEL 815530002235003600018155220007610036000120632600107100360001960105 D1
74675REBEL 661124001279003600013170810053250036000131761000112700360001960105 D1
74675REBEL 235028001644003600010131440073600036000154619200037700360001960105 D1
74675REBEL 546051001400003600015459470012780036000155128300200000360001960105 D1
74675REBEL 546119002325003600015459390024260036000142709600015500360001960105 D1
74675REBEL 377994000457003600013779780003000036000146330700089400360001960105 D1
74675REBEL 481424000285003600015462000004000036000151701400026900360001960105 D1
74675REBEL 049460000240003600015476870002020036000154775200020200360001960105 D1
74675REBEL 547638000364003600014663830004880036000185823300117000360001960105 D1
74675REBEL 440180002985003600012152510028270036000143914100044900360001960105 D1
74675REBEL 465823000683003600014658490010740036000186148400054700360001960105 D1
74675REBEL 423998000450003600010323180023140036000155461800084600360001960105 D1
74675REBEL 622076000417003600016465620048350036000154009600297500360001960105 D1
74675REBEL 573984000495003600014823640010750036000150576800043900360001960105 D1
74675REBEL 052290000212003600012300110039360036000122066500044000360001960105 D1
74675REBEL 157479001135003600012803960033630036000184846501510000360001960105 D1
74675REBEL 627109000158003600013175940001890036000140094500022900360001960105 D1
74675REBEL 415067005385003600018466420225000036000106713200540000360001960105 D1
74675REBEL 698456000958003600016983810011960036000114447700139500360001960105 D1
74675REBEL 096826001508003600015164500067500036000146102000053400360001960105 D1
74675REBEL 461210001565003600013755430017650036000146122800187800360001960105 D1
74675REBEL 512921000192003600018571510002450036000136305100013500360001960105 D1
74675REBEL 582742000825003600015878730019250036000185718500021800360001960105 D1
74675REBEL 521039000134003600017505540006350036000156812100045200360001960105 D1
74675REBEL 568220000423003600019335560040500036000150713700029300360001960105 D1
74675REBEL 072381000275003600010761170131170036000187406500237500360001960105 D1
74675REBEL 857383002500003600015523980002850036000140326100026000360001960105 D1
74675REBEL 803353002302003600013769210058300036000166853300230600360001960105 D1
74675REBEL 370015000275003600011029470010040036000110296200146400360001960105 D1
74675REBEL 370049000525003600010148940018750036000184662600458200360001960105 D1
74675REBEL 384537005389003600010461690004600036000178659000191500360001960105 D1
74675REBEL 839860005620003600017782900034610036000177979300692200360001960105 D1
74675REBEL 359786003461003600014936500022950036000152150000258500360001960105 D1
74675REBEL 521567004127003600018799650011950036000101091800090100360001960105 D1
74675REBEL 330423002076003600013011350006850036000169837300324500360001960105 D1
74675REBEL 811968000204003600012048670001750036000145933900019500360001960105 D1
74675REBEL 568998000243003600018740810007910036000185179400270000360001960105 D1
74675REBEL 231613002700003600018740990007750036000187578100366100360001960105 D1
74675REBEL 232801000775003600012327690036610036000187410700180000360001960105 D1
74675REBEL 875823001400003600010998610002990036000141398900084500360001960105 D1
74675REBEL 413351001248003600017332530024660036000183342600016100360001960105 D1
74675REBEL 387670003061003600017783160007020036000177834000143500360001960105 D1
74675REBEL 642959004725003600016437180150000036000164428600500000360001960105 D1
74675REBEL 649871020000003600010182340001810036000157556300026300360001960105 D1
74675REBEL 614842000769003600017409510003990036000165180200019500360001960105 D1
74675REBEL 632922000162003600015585280001130036000175308700011700360001960105 D1
74675REBEL 833400000229003600010320860022000036000103209400550000360001960105 D1
74675REBEL 189845004500003600010319710015000036000103206000386200360001960105 D1
74675REBEL 189803002500003600010847310006800036000110462000446800360001960105 D1
74675REBEL 512400001026003600016484770001600036000151245900395000360001960105 D1
74675REBEL 750612000515003600013858980022000036000101298900287600360001960105 D1
74675REBEL 516112000194003600016564470017250036000155144000450000360001960105 D1
74675REBEL 105312002850003600017177930077250036000164065900795000360001960105 D1
74675REBEL 656413001346003600016765770032250036000110530400217500360001960105 D1
74675REBEL 204933000257003600014377560004930036000154008800046500360001960105 D1
74675REBEL 164368000147003600014013150012450036000136712800021200360001960105 D1
74675REBEL 439083000248003600016916750009350036000103917200051200360001960105 D1
74675REBEL 241976000189003600013516190004970036000116475600012500360001960105 D1
74675REBEL 348417005500003600010494860006250036000107346000011500360001960105 D1
74675REBEL 281089003375014610010304860033750085000106789200625000064001960105 D1
74675REBEL 672824005200000120016775830082950002400184733500073000240001960105 D1
74675REBEL 867127000300002400010440400001750024000104354700017500240001960105 D1
74675REBEL 034264002100002400011796970038500024000103424900056000240001960105 D1
74675REBEL 713834001150002400010363680038000024000131521800092000240001960105 D1
74675REBEL 314963000550002400018163300001750024000181631400013500240001960105 D1
74675REBEL 816322000145002400018194470002350024000120238200070000240001960105 D1
74675REBEL 176651003600002400011753230004100024000141292400075500240001960105 D1
74675REBEL 037051000175002400010370360035000024000103762200132500240001960105 D1
74675REBEL 231175001685002400010388930060000024000103971900035000240001960105 D1
74675REBEL 459958000260002400010400710005000024000153395002600000240001960105 D1
74675REBEL 526459002980002400015334890139000024000156592902800000240001960105 D1
74675REBEL 537670003050002400015548080142000024000157737903850000240001960105 D1
74675REBEL 566323005200006000015716950242000024000158846708000000240001960105 D1
74675REBEL 588137008900002400015882280420000024000130988000093000240001960105 D1
74675REBEL 036475000375002400010413760023500024000103662400150000240001960105 D1
74675REBEL 735076001750002400017459840081000024000173211500047500240001960105 D1
74675REBEL 727115004000002400017321640010000024000144692200720000240001960105 D1
74675REBEL   00  0008000024000058897001053000240001  00  00117000240000960105 D1
74675REBEL 118497000800002400012496490072500024000113665500360000240001960105 D1
74675REBEL 817155008500002400018028840010000024000181695900450000240001960105 D1
74675REBEL 836726001720002400012502660086000024000124968000102500240001960105 D1
74675REBEL 249912004550002400012506390112000024000125033200122500240001960105 D1
74675REBEL 250340005600002400010272270130000024000183673400154500240001960105 D1
74675REBEL 836759006900002400013238730122000024000129883600830000240001960105 D1
74675REBEL 711077000800002400017123800085000024000171187900102000240001960105 D1
74675REBEL 712281004600002400013099140153500024000104921300170000240001960105 D1
74675REBEL 053694008200002400018732650054000024000149910300135000096001960105 D1
74675REBEL 500827001350000960014990870013500007200148958300660000096001960105 D1
74675REBEL 500926006600001150013010690066000012000148952600645000063001960105 D1
74675REBEL 222703005890000120013880580029000001200138806600340000013001960105 D1
74675REBEL 223156001750000360010222360058000003600132371700324500012001960105 D1
74675REBEL 145367006000001620011554730074000120900167439000162000300001960105 D1
74675REBEL 046417031800003000016744080033350030000167441600800000300001960105 D1
74675REBEL 406595001575003000010503930235000030000140660300330000300001960105 D1
74675REBEL 406629007600003000013986690024000014400184183300110000144001960105 D1
74675REBEL 453712004500012000016020110016000120000145372000670001200001960105 D1
74675REBEL 453738000945012000013919460008250020000127065200165000200001960105 D1
74675REBEL 447078001880004800016231400240020000200134590000074300004001960105 D1
74675REBEL 221481002901036000018599180089750087200172889903000000074001960105 D1
74675REBEL 728543001750001580017564860020500007200172899800132500031001960105 D1
74675REBEL 756478001485000070017286910025250001200172883200312500024001960105 D1
74675REBEL 728709026980000720012778060008450000900120975900080003214001960105 D1
74675REBEL 093401000350000360013615920035000041700142406900350001218001960105 D1
74675REBEL 118935000395012200010420020002250001200112513800024001200001960105 D1
74675REBEL 433938000789000060014191350065000007200143470400096300005001960105 D1
74675REBEL 042606007700000240017173890004000050000106142400011000500001960105 D1
74675REBEL 566554001600005000013811940002400050000138116000010000500001960105 D1
74675REBEL 314997000320005000010228890002100050000145153400023501000001960105 D1
74675REBEL 646125000245005000018618980009220050000107011000039500500001960105 D1
74675REBEL 255059001510005000010702760007500050000127054600290000500001960105 D1
74675REBEL 875542001100005000011882500003800050000162292800030000500001960105 D1
74675REBEL 451542000125005000014298780003000050000137169000045000500001960105 D1
74675REBEL 468256000105005000014553960002250050000106751200017000500001960105 D1
74675REBEL 381269000145005000013717400004200050000137172400210000500001960105 D1
74675REBEL 238998000450005000013812930001400050000138130100012000500001960105 D1
74675REBEL 584227002200005000010056780002800050000152123700065000500001960105 D1
74675REBEL 750026004950005000015311860026000050000140073900024000500001960105 D1
74675REBEL 371773000190005000014007210001850050000187553400360000500001960105 D1
74675REBEL 415976001400005000015702590008900050000137180700117500500001960105 D1
74675REBEL 455154000285005000014015880006500050000123893200039700500001960105 D1
74675REBEL 476275001575005000012389720001150050000137183100085000500001960105 D1
74675REBEL 238964000925005000016110790015000050000123895600022500500001960105 D1
74675REBEL 371823000805005000012389490002950050000140074700120000500001960105 D1
74675REBEL 343194004100005000013446140031250050000134456400532500500001960105 D1
74675REBEL 344515008800005000013718720007000050000100492900270000500001960105 D1
74675REBEL 339812003000005000011171430055000050000100643700070000500001960105 D1
74675REBEL 005397000300005000010017680002400050000100497800015500500001960105 D1
74675REBEL 497955000140005000013718800001350050000137191400020600500001960105 D1
74675REBEL 371971000196005000013719890003110050000137192200540000500001960105 D1
74675REBEL 371930000640005000013719550026710050000137199700113500500001960105 D1
74675REBEL 372003004900005000014007620001820050000131980600025400500001960105 D1
74675REBEL 400770000485010000014007880004500050000164430200031600500001960105 D1
74675REBEL 770776000810005000013720600004110050000100546200045700500001960105 D1
74675REBEL 372110001316005000013721280002600050000162330600033600500001960105 D1
74675REBEL 372011002350005000015844330017560050000108826000027500500001960105 D1
74675REBEL 381152001900005000016233220323110050000141361700018000500001960105 D1
74675REBEL 372078003737005000013720940004680050000162333000014400500001960105 D1
74675REBEL 367136000130005000016233140002050050000137202900048400500001960105 D1
74675REBEL 400838000295005000016232980001890050000140084600251500500001960105 D1
74675REBEL 037457000260005000014008870002500050000140090300022000500001960105 D1
74675REBEL 420778000170005000013730350014280050000137304300118000500001960105 D1
74675REBEL 715474000225005000013730270010000050000137305000097200500001960105 D1
74675REBEL 623355000172005000010868430019450050000108683500024700500001960105 D1
74675REBEL 118083000783005000011384870008200050000137298700014300500001960105 D1
74675REBEL 373001000125005000011327870083000050000112326500241800500001960105 D1
74675REBEL 599290000692005000014077750032510050000177501500601600500001960105 D1
74675REBEL 451559000216005000015850590011400050000158505900016500500001960105 D1
74675REBEL 373076000136010000017389710022500050000105613500500000500001960105 D1
74675REBEL 732065001125005000010882030001900050000108832800037600500001960105 D1
74675REBEL 358986000315010000012386340002270050000123865900021600500001960105 D1
74675REBEL 558932004100005000015855700002050050000158556200017000500001960105 D1
74675REBEL 013102002620005000016321660003180050000101318500037500500001960105 D1
74675REBEL 750034001400005000013188990008140050000121356100030800500001960105 D1
74675REBEL 256834000560005000012746470003190050000159449900024000500001960105 D1
74675REBEL 594481000420005000018035510006560050000118842500119600500001960105 D1
74675REBEL 239129002000005000014552790004730050000137312600082800500001960105 D1
74675REBEL 238618000231005000013731420013950050000137313400030000500001960105 D1
74675REBEL 048181000185005000015614230002070050000104362000033400500001960105 D1
74675REBEL 374082000110005000015864530005640050000175000000235100500001960105 D1
74675REBEL 039214002161005000017769220001590050000158672700158100500001960105 D1
74675REBEL 595017000340005000015030600001630050000131891500065000500001960105 D1
74675REBEL 373175003285005000018402230002480050000119932300020500500001960105 D1
74675REBEL 219071000166005000015876000002300050000141434200013700500001960105 D1
74675REBEL 456160000162005000014854410002400050000150637800024000500001960105 D1
74675REBEL 414508000875005000012799920002190050000130393300149500500001960105 D1
74675REBEL 526368000986005000014145240010410050000145322500016700500001960105 D1
74675REBEL 331801000676005000015904970009680050000159048900032100500001960105 D1
74675REBEL 119628001125005000011767500011000050000103052800029500500001960105 D1
74675REBEL 417071001098005000011768590018500050000123682000057000500001960105 D1
74675REBEL 236794005135005000011154690041850050000137324100235000500001960105 D1
74675REBEL 373233020567005000014246480002520050000132679300080300500001960105 D1
74675REBEL 411702004400005000013879770020000050000141194200860000500001960105 D1
74675REBEL 411512000556005000013879850004750050000138799300084000500001960105 D1
74675REBEL 388009000319005000013878520053100050000122627400240000500001960105 D1
74675REBEL 412296011500005000012269440044000050000135911700044000500001960105 D1
74675REBEL 754788000220005000015819260002400050000135912500028400500001960105 D1
74675REBEL 414847000266005000014553860023270050000110930600163300500001960105 D1
74675REBEL 373340003182005000013733570051930050000123839400034600500001960105 D1
74675REBEL 400630000625005000013701630006250050000143587500649300500001960105 D1
74675REBEL 161299002904005000010371010004230050000102601300344600500001960105 D1
74675REBEL 026914000452005000011425050001700050000114287700061900500001960105 D1
74675REBEL 143248001792005000011429760002930050000114314900098500500001960105 D1
74675REBEL 531194000464005000013734560021330050000137346400031200500001960105 D1
74675REBEL 373480000361005000017320730009500050000173208100420000500001960105 D1
74675REBEL 122150003400005000011197350022380050000112058400237500500001960105 D1
74675REBEL 318931001695005000012254170015750050000176473800342500500001960105 D1
74675REBEL 764753003700005000018525250061000050000185906602900000500001960105 D1
74675REBEL 104562003250005000014700880120000050000183480400030000500001960105 D1
74675REBEL 318964006450005000012368690003250050000110827400136300500001960105 D1
74675REBEL 838516009800005000017162170024000050000133292400077300500001960105 D1
74675REBEL 439026000200005000014039150007000050000140392300022500500001960105 D1
74675REBEL 716134001360005000013600570008900050000171701700038600500001960105 D1
74675REBEL 717009000591005000014212630001670050000142127100030200500001960105 D1
74675REBEL 421487000114005000013735140011250050000108881500052500500001960105 D1
74675REBEL 622985000216005000010560100023700050000174288200021000500001960105 D1
74675REBEL 596695001600005000014215290003000050000159750000176000500001960105 D1
74675REBEL 373571000813005000013735970010750050000165758500200000500001960105 D1
74675REBEL 133157008500005000017135110155000050000142167700107000500001960105 D1
74675REBEL 225631000187005000013736130005850050000120058400056500500001960105 D1
74675REBEL 615922001325005000014216850002000050000103720000057900500001960105 D1
74675REBEL 421693000212005000014218910002060050000142190900021300500001960105 D1
74675REBEL 577619001136005000015776500042000050000157855900900000500001960105 D1
74675REBEL 580399002843005000015785590050000050000157771800110000500001960105 D1
74675REBEL 255406000552005000015506730021480050000165481400058200500001960105 D1
74675REBEL 655043001418005000010323340007250050000103344900165000500001960105 D1
74675REBEL 172908001500005000011600510002300050000115740400033300500001960105 D1
74675REBEL 166009000885005000011558870007730050000103742400306000500001960105 D1
74675REBEL 803577000760005000011631470025500050000142192500356200500001960105 D1
74675REBEL 448555000309005000012617350002290050000162404500014100500001960105 D1
74675REBEL 1690030007230050000100659300398300500001      00125502000000960105 D1
74675REBEL 373639011800005000012387090017850200000137365401300000500001960105 D1
74675REBEL 603605003580005000015653740022000050000153075800119000500001960105 D1
74675REBEL 488841000700005000014117280024500050000142682500350000500001960105 D1
74675REBEL 510669003100005000015520260046000050000156221500180000500001960105 D1
74675REBEL 373696000344005000016229930003500050000145541000068000500001960105 D1
74675REBEL 373720000325005000012411090003020050000125229600035500500001960105 D1
74675REBEL 083238000363005000018072550001660050000133962200016600500001960105 D1
74675REBEL 629071000132005000010823880001790050000162902200169200500001960105 D1
74675REBEL 572602000367005000011368950001460050000108537300109500500001960105 D1
74675REBEL 238782000182005000013738110014830050000165884900064700500001960105 D1
74675REBEL 435628001520005000014346700002320050000141557000033800500001960105 D1
74675REBEL 414698001288005000012529810032150050000101614700051100500001960105 D1
74675REBEL 373894001726005000012517020021850050000111226800096500500001960105 D1
74675REBEL 601218003957005000011123000011880050000137390200040000500001960105 D1
74675REBEL 214676000485010000011888880021000050000163401400235300500001960105 D1
74675REBEL 422030000493005000012949670043000050000137457900173500500001960105 D1
74675REBEL 382671001890005000015625040001170050000108196800964000500001960105 D1
74675REBEL 077479001000005000010639900028250050000105711700041800500001960105 D1
74675REBEL 382325002846005000010716210034000050000107007800042600500001960105 D1
74675REBEL 073585005124005000010727930005920050000142435800082400500001960105 D1
74675REBEL 761726004540005000012297570008870050000142202200181800500001960105 D1
74675REBEL 020396001792005000015248190004700050000160718400420000500001960105 D1
74675REBEL 430892000240005000017508100003680050000129540200099700500001960105 D1
74675REBEL 541946000135005000011859830001300050000180423700365700500001960105 D1
74675REBEL 629816000265005000018052830013750050000103449600732700500001960105 D1
74675REBEL 186635001479000000012087020013970050000115848500059900500001960105 D1
74675REBEL 818005000905005000013746370007600050000148316400024200500001960105 D1
74675REBEL 781997001862005000017820030094000050000179087300029000500001960105 D1
74675REBEL 312322000575005000011103200031790050000130032700052400500001960105 D1
74675REBEL 618959000480005000011108580010860050000137465200178900500001960105 D1
74675REBEL 597054000230005000013746600020930050000138966800032200500001960105 D1
74675REBEL 076661001558005000010760000002470100000101576800133600500001960105 D1
74675REBEL 819649000192005000011832850003420050000123201700038000500001960105 D1
74675REBEL 228064002436005000011926900002700050000119286400053400500001960105 D1
74675REBEL 848499002700005000012272720018210050000166512500038500500001960105 D1
74675REBEL 293258000593005000013163310008450050000165589400167100500001960105 D1
74675REBEL 128330001486005000012088270085000050000113844600480000500001960105 D1
74675REBEL 271882001988005000014100270028050050000156259500360000500001960105 D1
74675REBEL 374777000418005000012088500002940050000137474400010700500001960105 D1
74675REBEL 374751000253005000013747690001600050000120888400058000500001960105 D1
74675REBEL 374785000730005000016387420001190050000149862600013600500001960105 D1
74675REBEL 374793000800005000013748010001520050000137480100052400500001960105 D1
74675REBEL 374827001025005000011437190004350050000163125900192600500001960105 D1
74675REBEL 092429000164005000010916940001200050000118025702100000500001960105 D1
74675REBEL 171637002550005000016238020001920100000151651800035301000001960105 D1
74675REBEL 520130000300010000012122090005700100000143209600025101000001960105 D1
74675REBEL 450650000386010000011858840003600050000152221900958301000001960105 D1
74675REBEL 522201001065010000010007600038000100000136822600045001000001960105 D1
74675REBEL 368274002024010000013502560001960100000143213800009801000001960105 D1
74675REBEL 464099000272010000014321460001100100000143223700008901000001960105 D1
74675REBEL 432179000106010000010041190008890100000162310800015101000001960105 D1
74675REBEL 058495001675010000016230900001760100000113223300097501000001960105 D1
74675REBEL 429985000265005000011734350005200100000174401100042500360001960105 D1
74675REBEL 416743003124005000010899460002960100000106729800109601000001960105 D1
74675REBEL 141184000600010000017500830036120100000109008400035401000001960105 D1
74675REBEL 083287001251010000010901830003720100000111956000139901000001960105 D1
74675REBEL 090290000448010000011252370016730100000145156700140001000001960105 D1
74675REBEL 199281000175005000011455240032000050000102850600031000500001960105 D1
74675REBEL 145524003200005000013758990001940050000118320200096200500001960105 D1
74675REBEL 432310000900010000016669250003250100000161910600034901000001960105 D1
74675REBEL 606624000129005000013697930009690100000126400200139501000001960105 D1
74675REBEL 432336000727010000014323850012160050000185793800035701000001960105 D1
74675REBEL 368522000127010000013685630001890100000118900100014101000001960105 D1
74675REBEL 758644001800010000011962870001650100000136853000016101000001960105 D1
74675REBEL 373951000305010000011963450001690100000102131100035300500001960105 D1
74675REBEL 368589000587010000018398940004020050000180535800045500500001960105 D1
74675REBEL 803593000314010000014072420018180100000156219900150000500001960105 D1
74675REBEL 561696001551005000015615890002350050000156241300240000500001960105 D1
74675REBEL 562041000335005000015673210004890050000143279900031300500001960105 D1
74675REBEL 476630006592010000013891140007820100000138912200354701000001960105 D1
74675REBEL 194530007023005000012933570008400100000143272400037500500001960105 D1
74675REBEL 567313003022005000015044800033000050000187552600056001000001960105 D1
74675REBEL 110148000893010000013686540039280100000136866200091000500001960105 D1
74675REBEL 758698001140010000017586720003720100000175871400157500500001960105 D1
74675REBEL 758706000405005000017587220006160100000175873000217500500001960105 D1
74675REBEL 715516000125010000014936840001500100000167677500062700500001960105 D1
74675REBEL 433359001129005000012254330002020100000136868800212701000001960105 D1
74675REBEL 225425000250010000014648180021560100000146483400041701000001960105 D1
74675REBEL 656330001588010000014648420005500100000126197400223701000001960105 D1
74675REBEL 386912003800010000010983010050000050000150350800047000500001960105 D1
74675REBEL 024133000960005000011991330056000050000109013400096000500001960105 D1
74675REBEL 185694000450005000014689750024140050000123836000185200500001960105 D1
74675REBEL 476648000489010000013687200040000050000136875300078900500001960105 D1
74675REBEL 224881000179010000013687610009520100000122726400024001000001960105 D1
74675REBEL 171520001529010000014334740002350100000136879500058501000001960105 D1
74675REBEL 090340000713010000011766850001690100000118920900474500500001960105 D1
74675REBEL 225086000330010000011892170032000050000122509400046601000001960105 D1
74675REBEL 070967001782005000013642320001630100000184226000020100500001960105 D1
74675REBEL 199539000241005000013297060055000050000150108000605300500001960105 D1
74675REBEL 514117030900005000011998930001770050000119975200018900500001960105 D1
74675REBEL 503573000200005000015794900004020050000155401400076500500001960105 D1
74675REBEL 562389002185005000017370150001070100000138094900046900500001960105 D1
74675REBEL 380931000523010000013288070004460050000184774900009800500001960105 D1
74675REBEL 645077000228005000012487240001490050000116347700089700500001960105 D1
74675REBEL 503631000217010000013500090445000100000134899500690000500001960105 D1
74675REBEL 148940001952010000011490470020970100000114916100230000500001960105 D1
74675REBEL 149187002000005000015025750028600050000107439300283400500001960105 D1
74675REBEL 022145000250005000016231810002300100000174952300097000500001960105 D1
74675REBEL 623199000175010000017707270059150100000109783200095001000001960105 D1
74675REBEL 623207000193010000017707190069850050000164983000178801000001960105 D1
74675REBEL 367250000326010000013669300003190100000131801400024201000001960105 D1
74675REBEL 055939004252005000012208480004390100000124554800185001000001960105 D1
74675REBEL 749515011000010000017495070023750050000162321500020900500001960105 D1
74675REBEL 189225000211005000015551280043930050000182752700695801000001960105 D1
74675REBEL 827535009008010000018446050004940050000108764300118600500001960105 D1
74675REBEL 685693000209010000016857010009880050000150364900018901000001960105 D1
74675REBEL 307587001555010000013094840024160100000122489900201900500001960105 D1
74675REBEL 238915000248010000013690740002680050000173667800190001000001960105 D1
74675REBEL 203893000550010000015567950031990100000144274900530000500001960105 D1
74675REBEL 443598013300005000015704810002850100000156844400019201000001960105 D1
74675REBEL 116384000310010000011150970002050050000155680300052001000001960105 D1
74675REBEL 363499000900010000014094170007990100000123260300102901000001960105 D1
74675REBEL 369116001415010000012254740083790100000118941501392500500001960105 D1
74675REBEL 498063000925005000011112520004590050000136915700135501000001960105 D1
74675REBEL 225458000460010000010644510057480100000122482400275101000001960105 D1
74675REBEL 627075008400010000013107890210000050000164277700043901000001960105 D1
74675REBEL 642793003000005000017503150011220050000175017400127600500001960105 D1
74675REBEL 902320004500005000012601820026000050000175014100280000500001960105 D1
74675REBEL 591495000680010000015916440007020100000135168400130701000001960105 D1
74675REBEL 597740005504010000016066990008000050000172131600698200500001960105 D1
74675REBEL 436261001400005000011600020009750100000161800900023501000001960105 D1
74675REBEL 618017000934010000018970580303000050000128575900320000500001960105 D1
74675REBEL 896605019822005000012718330020870050000156320500037801000001960105 D1
74675REBEL 563700000870010000015861070014250100000106370100066001000001960105 D1
74675REBEL 591487001254010000014434810001770050000144356400020000000001960105 D1
74675REBEL 264119000999010000015613650051000050000156111800530000500001960105 D1
74675REBEL 089284002000010000011188690011250100000157893000016800500001960105 D1
74675REBEL 369488000340010000012513630022300050000120373700109000500001960105 D1
74675REBEL 108597000360010000016818660009750050000167924100130000500001960105 D1
74675REBEL 681858006200005000016577000015000050000165861700725000500001960105 D1
74675REBEL 245910001600005000012463300075000050000124775900250000500001960105 D1
74675REBEL 247775012000005000013673910002150100000120046900124001000001960105 D1
74675REBEL 808279000480010000012004510001400100000136950400108301000001960105 D1
74675REBEL 503698000129010000015106280003610050000107019300308300500001960105 D1
74675REBEL 503664000495005000017999650034100050000108096000064201000001960105 D1
74675REBEL 189498001250010000011044480003540100000136953800087701000001960105 D1
74675REBEL 476671000117010000010242570003900100000136949600071101000001960105 D1
74675REBEL 696088000121010000017999730012750050000150370600020201000001960105 D1
74675REBEL 716597001400010000017166620031000050000156103500200000500001960105 D1
74675REBEL 561043006000005000017019380071120050000122400600410000500001960105 D1
74675REBEL 236679000390005000012366950003070100000133705500045000500001960105 D1
74675REBEL 108209002275005000011814120027900050000144463800019001000001960105 D1
74675REBEL 623223000238010000013696520013640100000120030300014101000001960105 D1
74675REBEL 163345000212010000011895480001410100000109475500019201000001960105 D1
74675REBEL 437848001923005000013959130002750100000120565800344500500001960105 D1
74675REBEL 326694001200005000010883020002210050000179076600081501000001960105 D1
74675REBEL 510909000220010000016552330002550050000131229800117801000001960105 D1
74675REBEL 623256000189010000011691440004670050000150371400030001000001960105 D1
74675REBEL 163675000165005000010779410004350050000150380500015501000001960105 D1
74675REBEL 369694003878010000013696860004760100000136970200203500500001960105 D1
74675REBEL 837336000184005000011971110005730100000119717800247701000001960105 D1
74675REBEL 197954000712010000011980020031740100000119858000061901000001960105 D1
74675REBEL 198838000797010000011990590034230100000141521600600001000001960105 D1
74675REBEL 496927009900005000013842550028000050000138830600389000500001960105 D1
74675REBEL 099275004400005000012317790002290050000121387600032600500001960105 D1
74675REBEL 505065001687010000011840930002750100000181694200015400500001960105 D1
74675REBEL 152843001337010000011058580046060100000118670000275000500001960105 D1
74675REBEL 369983000595010000012266130004550050000127614700066300500001960105 D1
74675REBEL 282327000710005000012005920003010050000120204400039501000001960105 D1
74675REBEL 202309000436010000012431620002270100000174987900077201000001960105 D1
74675REBEL 762294005255005000017622860036010050000113430401200000500001960105 D1
74675REBEL 861666002250005000018616740024000050000108052300025300500001960105 D1
74675REBEL 190488000302005000011210950003490050000163031900031801000001960105 D1
74675REBEL 190702000318010000010209330003500100000108428500240000500001960105 D1
74675REBEL 635839000310005000011906290024000050000119044600031000500001960105 D1
74675REBEL 493817005725005000013002360007500050000111033500392500500001960105 D1
74675REBEL 130484001125005000010925510005610050000108597700123200500001960105 D1
74675REBEL 085548000334010000014936680006910100000137057700019600000001960105 D1
74675REBEL 370585000376000000016235870001690100000137060100035801000001960105 D1
74675REBEL 752832001035010000017528730013520100000158118100225000500001960105 D1
74675REBEL 769398000391010000017771690010150050000129481900462500500001960105 D1
74675REBEL 370635000467010000013706500011690100000124874000292300500001960105 D1
74675REBEL 342550001320005000015874360027270050000158695800060000500001960105 D1
74675REBEL 114124000600005000016117560003350100000151251700033401000001960105 D1
74675REBEL 224923000934010000016428190010500050000165031700471000500001960105 D1
74675REBEL 748665007500005000015751340017000050000180605900067001000001960105 D1
74675REBEL 229153001050010000016485920005430100000124312000059501000001960105 D1
74675REBEL 137661000000010000011125080001190050000124993802151000500001960105 D1
74675REBEL 700237006481005000016792090053120050000168585900643500500001960105 D1
74675REBEL 561829001420010000015618520062090100000103912300083201000001960105 D1
74675REBEL 039206003769010000010392550012590100000150978600095301000001960105 D1
74675REBEL 231373000160010000012313810007400100000150984400127201000001960105 D1
74675REBEL 231720000155010000012319690008790100000150987700133301000001960105 D1
74675REBEL 231977000280010000012329260011920100000166807900035201000001960105 D1
74675REBEL 233874000287010000015099680010390100000137413200048100500001960105 D1
74675REBEL 252320002759010000012520720001450050000137093200234001000001960105 D1
74675REBEL 370940003862005000012255240005730100000137095700597301000001960105 D1
74675REBEL 225490000745010000017301350002410050000138978300134701000001960105 D1
74675REBEL 389791002946010000011168140056010100000121140900108501000001960105 D1
74675REBEL 636480006811010000012063420007810100000130657100700000500001960105 D1
74675REBEL 306555000780005000013710050007800050000156004500254501000001960105 D1
74675REBEL 547422000300005000015445930004370050000154189600030000500001960105 D1
74675REBEL 544593000400005000013158200027140100000131581200426501000001960105 D1
74675REBEL 088294000914005000012546070002180050000167919100023700500001960105 D1
74675REBEL 790774000309005000016236370001720050000147697800056001000001960105 D1
74675REBEL 119438000675010000015884180004000050000133394800024000500001960105 D1
74675REBEL 335810000242005000013158870002000050000150387000016201000001960105 D1
74675REBEL 837989000435005000012549530002370050000156256100154601000001960105 D1
74675REBEL 213835000265010000014057040002150050000127032200175400500001960105 D1
74675REBEL 309492000430005000018373100003010050000183730200041400500001960105 D1
74675REBEL 397802000343010000016493350003630100000123097900022000500001960105 D1
74675REBEL 163873000680010000018186090003000100000145108800048501000001960105 D1
74675REBEL 210567000500010000012143870001750100000183699400041900500001960105 D1
74675REBEL 503896000325010000017698020002120050000147012000128700500001960105 D1
74675REBEL 737288000702010000017424450014320050000174244500132500500001960105 D1
74675REBEL 316349000850005000011909830070000050000131638000370000500001960105 D1
74675REBEL 741686000975005000012432380009880100000131739600168301000001960105 D1
74675REBEL 581694001705005000015822620027500050000158235301000000500001960105 D1
74675REBEL 167346000309005000013741570005910050000150394600063901000001960105 D1
74675REBEL 503987000233005000011961540013650050000118914200136500500001960105 D1
74675REBEL 360487000410010000013771920046210100000125653700012700500001960105 D1
74675REBEL 377259000790010000015603180068000050000156032600815000500001960105 D1
74675REBEL 526236004700005000017934710022600050000119859800062501000001960105 D1
74675REBEL 317479000890010000011566790039000100000152622800113501000001960105 D1
74675REBEL 773762000758005000013606440003090050000184778000219201000001960105 D1
74675REBEL 847772000433005000011911710021700050000125656000041001000001960105 D1
74675REBEL 613950000970010000011605070026010100000116046500036101000001960105 D1
74675REBEL 429431001864010000014517240019500100000116052300035001000001960105 D1
74675REBEL 160549000550010000011600280010200100000119145200390000500001960105 D1
74675REBEL 801266003000005000011605310024000050000116056400390000500001960105 D1
74675REBEL 405162000958010000011482210011130100000142630400170001000001960105 D1
74675REBEL 273680007500010000017691330022000050000114860100247500500001960105 D1
74675REBEL 377507001095010000016171000015000050000137748100064100500001960105 D1
74675REBEL 377499000847005000015215260005110100000115707300085501000001960105 D1
74675REBEL 801282003779010000011571980017070100000110581701850001000001960105 D1
74675REBEL 436071006300010000011056500035000050000151154300017000500001960105 D1
74675REBEL 376962000127005000011687240002010100000159077800112401000001960105 D1
74675REBEL 681585006427010000012670960006750050000126708800280000500001960105 D1
74675REBEL 782102004650005000017821100099000050000126590000137501000001960105 D1
74675REBEL 200188000227010000017551730006090100000120031100051901000001960105 D1
74675REBEL 378356000504010000013322390026720050000133274800187300500001960105 D1
74675REBEL 378349000526010000015984250008920050000158382300015701000001960105 D1
74675REBEL 603118003489005000015850340002600100000130777700019001000001960105 D1
74675REBEL 309583000330010000013110190007400100000126703900290700500001960105 D1
74675REBEL 110908003886010000013946270023810100000108346900140000500001960105 D1
74675REBEL 310458002500010000010834100013500050000123199300030201000001960105 D1
74675REBEL 378463000349010000012384440092000050000123885700009900500001960105 D1
74675REBEL 200154000539010000013785050002100050000137851300025200500001960105 D1
74675REBEL 455238000249010000012388400001200050000150486000129701000001960105 D1
74675REBEL 239541005141005000013784970003000050000145521200012000500001960105 D1
74675REBEL 455220000310005000012949540011620100000163821300105001000001960105 D1
74675REBEL 241075000573010000013898040003250050000145522000030000500001960105 D1
74675REBEL 5964110005000100000159672600172500500001      00325000500001960105 D1
74675REBEL 782128000528005000010870070002900100000121700000048801000001960105 D1
74675REBEL 242826001278010000011455990023360100000112129300017700500001960105 D1
74675REBEL 266916000145005000015795400001540050000137695400117100500001960105 D1
74675REBEL 623678000215010000015987140001460050000123675200032301000001960105 D1
74675REBEL 236562000240010000013611880002500100000136120400031101000001960105 D1
74675REBEL 378877004190010000016680950035000050000107530900110300500001960105 D1
74675REBEL 231860000952010000012446810040000100000180003700610000500001960105 D1
74675REBEL 798660007200005000014090110308000050000156726300180000500001960105 D1
74675REBEL 721258000497010000012531610016450100000140275000302501000001960105 D1
74675REBEL 254946003685005000013790240003230050000119179100032901000001960105 D1
74675REBEL 857953000510010000018084850006900050000150403500015000500001960105 D1
74675REBEL 201764000486005000015042580003200050000150456300037000500001960105 D1
74675REBEL 574632000185010000013792550002500100000147699400038701000001960105 D1
74675REBEL 505206000131005000015040350001590050000110267300010900500001960105 D1
74675REBEL 505214000122005000015040680002680050000150405000014600500001960105 D1
74675REBEL 163931000191005000012017640005330100000150409200020000500001960105 D1
74675REBEL 253070000185010000012535420002090100000150423300041400500001960105 D1
74675REBEL 372953000136005000015042170001640050000112247300045100500001960105 D1
74675REBEL 090431000297005000010910900008660050000101999200177800500001960105 D1
74675REBEL 504225000250005000015041180003320050000150455500022300500001960105 D1
74675REBEL 504258000328005000015045630003910050000120672200018200500001960105 D1
74675REBEL   00  000432005000015114930004460050000150400100024601000001960105 D1
74675REBEL 504019000245010000018478060002900100000150404300020201000001960105 D1
74675REBEL 019992001720005000015356090007700100000120232500105401000001960105 D1
74675REBEL 437814000310005000010892500002100050000148789200011800500001960105 D1
74675REBEL 379503000202010000015048370003120100000123673700100000500001960105 D1
74675REBEL 211813000237005000015048520001720050000138179800041000500001960105 D1
74675REBEL 381806000120010000013818220001600100000138184800065201000001960105 D1
74675REBEL 260455004421002620010393540034820006000126249300225000216001960105 D1
74675REBEL 262527003100000240018776390004000002400117306200102700276001960105 D1
74675REBEL 325480000850006400015722710009000072000129401700060000313000960105 D1
74675REBEL 695098004000000600013639780029850064400161956900259500240001960105 D1
74675REBEL 171306001125021000011716450011250150000133994500140020000001960105 D1
74675REBEL 8436310125000335400136362200739500291001      00135700036000960105 D1
74675REBEL 47247200880000288001      0015000000100039420500220000044001960105 D1
74675REBEL 394197031000000070012661480054600043200134019000160000228001960105 D1
74675REBEL 158873000775013570014447110011200010000111649100440000130001960105 D1
74675REBEL 104711001325003670011047520042000001800108068900300000024001960105 D1
74675REBEL 149963004000009840013187580049500007200131911100410000036001960105 D1
74675REBEL 199620000420001040013221490036730028800132209900078600024001960105 D1
74675REBEL 30738900332100288001      0003740010000022521900110900100001960105 D1
74675REBEL 099325001642001000013388480006400010000133068800048300100001960105 D1
74675REBEL 620096000345001000010183330012000010000151731800048000100001960105 D1
74675REBEL 193304001835001000014923060023750010000119316300265000100001960105 D1
74675REBEL 09905100186200100001      0056000010000023579600076100100001960105 D1
74675REBEL 097683000627001000010969820004200010000101705300100500100001960105 D1
74675REBEL 026922002500001000015027240020000010000149652100130000100001960105 D1
74675REBEL 335844001500001000013366850010000010000137444700075800252001960105 D1
74675REBEL 563056011300000480014916620012000000300147909700240200048001960105 D1
74675REBEL 023804000875002400010666390011000024000118828400165000240001960105 D1
74675REBEL 306894001000002400016138930009220024000107479900331100240001960105 D1
74675REBEL 459933006622002400016192390011490024000161393500218200240001960105 D1
74675REBEL 344283001556000310014218180043490024000161392700152300240001960105 D1
74675REBEL 315010002777000040010242810019160024000152240900315000072001960105 D1
74675REBEL 522391002950000720010154200059420024000102046100427800019001960105 D1
74675REBEL 135707000150000560012821860021000007200133876400223500240001960105 D1
74675REBEL 338780001935002400011384200005000024000158827700041500240001960105 D1
74675REBEL 235564014667000480010382730009600000700103845500412700011001960105 D1
74675REBEL 462226002222000010010382810020000007200103845500333500086001960105 D1
74675REBEL 488266001200000720013652050004300002500136314501280000072001960105 D1
74675REBEL 363531030000000720013634080035000007200136284800370000072001960105 D1
74675REBEL 327734000307002400013984200019200024000144989200442000240001960105 D1
74675REBEL 081695001128002400015092400075000024000150492800300000072001960105 D1
74675REBEL 510503003000000720015104870019500007200147145800566700005001960105 D1
74675REBEL   00  000900004800010463420020950108700158144700236501000001960105 D1
74675REBEL 581462002435006000012955840012000161400129556800152500063001960105 D1
74675REBEL 102699001390009600012956260015500141100100000000000000000000960105 D1
EOF                                                                           D1