000890301023MD-MINITRAN .1mg/hr 30s      000000000100144000026630
000890302023MD-MINITRAN .2mg/hr 30s      000000000100288000028800
000890303023MD-MINITRAN .4mg/hr 30s      000000000100288000032810
000890304023MD-MINITRAN .6mg/hr 30s      000000000100144000033730
00074626001AB-3-PENTOTHAL 2.5gm 25s      000000000100014400291720
00074641801AB-3-PENTOTHAL 250mg SYR Ea 25000000000100048000099630
00074335201AB-3-PENTOTHAL 400mg SYR Ea 25000000000100048000139950
00074650401AB-3-PENTOTHAL 5gm KIT TRNSF  000000000100048000472500
00074567202AB-A-HYDROCORT 250mg 2ml 10s  000000000100060000018100
00074563108AB-A-METHAPRED 1000mg 8ml 25s 000000000100060000299990
00074568502AB-A-METHAPRED 125mg 2ml 10s  000000000100048000016000
00074568401AB-A-METHAPRED 40mg 1ml 10s   000000000100060000012880
00074563004AB-A-METHAPRED 500mg 4ml 25s  000000000100060000119980
00074614302AB-ACETIC ACID .25% 250ml ea  000000000100048000039650
00074330703AB-ACETYLCYST 10% VL 3x30ml   000000000100028800019710
00074330803AB-ACETYLCYST 20% VL 3x30ml   000000000100028800016880
00074445201AB-ACYCLOVIR 1gm 20ml 10s     000000000100031200132000
00074539602AB-ADAPT PLUG sht male lk luer000000000100028800099990
00074587801AB-ADAPTER PLUG male          000000000100028800119990
00074587701AB-ADAPTER PLUG male short    000000000100028800119990
00013123691AB-ADRIAMYCIN PFS 10mg 10s    000000000100028800074230
00013126683AB-ADRIAMYCIN PFS 200mg ea    000000000100028800155000
00013124694AB-ADRIAMYCIN PFS 20mg ea     000000000100028800013920
00013127687AB-ADRIAMYCIN PFS 75mg        000000000100028800069000
00013125679AB-ADRIAMYCIN PFS VL 50mg 25ml000000000100028800037940
00074150005AB-ALCOHOL w/DEX 5/5% 100ml 5s000000000100036000053700
00074806201AB-AMIDATE 20mg 10ml amp 5s   000000000100048000100000
00074806029AB-AMIDATE 2mg/ml Abj 20ml 10s000000000100028800234460
00074806101AB-AMIDATE 40mg 20ml amp 5s   000000000100048000100000
00074195701AB-AMIKACIN 1gm/4ml 4ml 10s   000000000100036000155020
00074195601AB-AMIKACIN 250mg/ml 2ml 10s  000000000100036000077510
00074243403AB-AMIKACIN 500mg 8ml Adv 25s 000000000100028800413250
00074195801AB-AMIKACIN 500mg Syg 2ml 10s 000000000100028800166250
00074195501AB-AMIKACIN 50mg/ml 2ml 10s   000000000100036000077510
00074299105AB-AMINO 10% 1000ml 6s        000000000100028800106160
00074299103AB-AMINO 10% 500ml 12s        000000000100036000093770
00074436005AB-AMINO 10% pH6 1000ml 6s    000000000100028800110000
00074298905AB-AMINO 3.5% 1000ml 6s       000000000100028800079990
00074299005AB-AMINO 5% 1000ml 6s         000000000100028800089990
00074299003AB-AMINO 5% 500ml 12s         000000000100028800082990
00074407202AB-AMINO 5.2% 300ml 12s       000000000100036000151210
00074299203AB-AMINO 7% 500ml 12s         000000000100048000094510
00074434301AB-AMINO 7% T/EL 500ml 3s     000000000100028800034590
00074299601AB-AMINO 7% TPN kit 500ml     000000000100028800033190
00074585505AB-AMINO 8.5% 1000ml 6s       000000000100036000087240
00074585503AB-AMINO 8.5% IV SOL          000000000100036000075080
00074404101AB-AMINO 8.5% TPN kit 500ml   000000000100028800031040
00074585203AB-AMINO ELEC 7% 500ml 12s    000000000100028800113140
00074585605AB-AMINO ELEC 8.5% 1000ml 6s  000000000100028800109990
00074585603AB-AMINO ELEC 8.5% 500ml 12s  000000000100028800109990
00074148402AB-AMINO HBC 7% 1000ml        000000000100028800559990
00074148403AB-AMINO HBC 7% 500ml         000000000100028800559990
00074721703AB-AMINO HF 8% 500ml 12s      000000000100028800650000
00074109005AB-AMINO II 10% 1000ml 6s     000000000100028800101990
00074712107AB-AMINO II 10% 2000ml 6s     000000000100028800161800
00074109003AB-AMINO II 10% 500ml 12s     000000000100036000101990
00074712207AB-AMINO II 15% IV SOL        000000000100036000316110
00074770029AB-AMINO II 3.5/25% 1000ml 6s 000000000100028800134000
00074770129AB-AMINO II 3.5/5% 1000ml 6   000000000100028800159990
00074775129AB-AMINO II 4.25/10% 1000ml 6s000000000100028800129990
00074775729AB-AMINO II 4.25/20% 1000ml 6s000000000100028800188540
00074775229AB-AMINO II 4.25/20%U 1000ml 6000000000100002400099000
00074770229AB-AMINO II 4.25/25% 1000ml 6s000000000100028800141940
00074774429AB-AMINO II 5/25% 1000ml 6s   000000000100028800139990
00074108603AB-AMINO II 7% 500ml          000000000100028800080990
00074108805AB-AMINO II 8.5% 1000ml       000000000100028800084990
00074108803AB-AMINO II 8.5% 500ml 12s    000000000100036000073340
00074108903AB-AMINO II 8.5% w/electyl    000000000100028800073990
00074774029AB-AMINO II M 3.5% 1000ml 6s  000000000100028800159990
00074415405AB-AMINO M 3.5% 1000ml 6s     000000000100028800069990
00074161705AB-AMINO PF 10% 1000ml 6s     000000000100028800441750
00074161602AB-AMINO PF 7% 12x250ml sol   000000000100028800391250
00074418301AB-AMINO T/EL 8.5% 500ml 3s   000000000100028800032320
00074434673AB-AMINOCAP 250mg/ml 20ml 25s 000000000100036000026060
00074592101AB-AMINOPH 250mg 10ml 25s     000000000100036000014350
00074592201AB-AMINOPH 500mg 20ml 25s     000000000100036000015400
00007313505AB-ANCEF 10gm 100ml 10s       000000000100036000178500
00007313705AB-ANCEF 1gm 100ml 10s        000000000100036000023100
00007313016AB-ANCEF VIAL 1gm 25s         000000000100014400052000
00007313116AB-ANCEF VL 500mg 10ml 25s    000000000100036000029920
00074737601AB-ATRACURIUM 10mg/ml 5ml 10s 000000000100001200140000
00074491118AB-ATROPINE .1mg/ml ABJT      000000000100048000024000
00074491015AB-ATROPINE .5mg 5ml Abj 10s  000000000100028800025090
00074491134AB-ATROPINE SULF 10ml 10s     000000000100048000027450
00074491034AB-ATROPINE SULF ABJT 5ml 10s 000000000100028800031170
00074460258AB-BLOOD SECONDARY SET 26     000000000100028800269990
00074187368AB-BLOOD Y-type set 82in NV SL000000000100028800278300
00074187168AB-BLOOD-Y type set 78in SL   000000000100028800236990
00074763962AB-BRETYLIUM 1000mg 250ml 24s 000000000100028800445290
00074763862AB-BRETYLIUM 500mg 250ml 24s  000000000100028800239300
00074141210AB-BUMETANIDE .25mg MDV 10ml  000000000100028800049000
00074141204AB-BUMETANIDE .25mg VL 4ml 10s000000000100028800015200
00074141214AB-BUMETANIDE .25mg/ml 4ml 10s000000000100028800015500
00074116502AB-BUPIVAC .75% Vial 30ml 25s 000000000100028800084060
00074427201AB-BUPIVAC AMP .25% 20ml 5s   000000000100036000012950
00074115802AB-BUPIVAC AMP .25% 50ml 25s  000000000100028800079990
00074427301AB-BUPIVAC AMP .5% 20ml 5s    000000000100036000014560
00074116101AB-BUPIVAC AMP .5% 30ml 5s    000000000100028800011470
00074427401AB-BUPIVAC AMP .75% 20ml 5s   000000000100028800019990
00074116401AB-BUPIVAC AMP .75% 30ml 5s   000000000100036000014700
00074115901AB-BUPIVAC HCL .25% 10ml 50s  000000000100036000049000
00074115801AB-BUPIVAC HCL .25% 30ML A 25 000000000100036000010580
00074116201AB-BUPIVAC HCL .5% 10ml 50s   000000000100036000051930
00074116202AB-BUPIVAC HCL .5% 30ml 50s   000000000100048000048000
00074116301AB-BUPIVAC HCL .5% 50ml 50s   000000000100036000074540
00074116501AB-BUPIVAC HCL .75% 10ml 25s  000000000100036000053000
00074115902AB-BUPIVAC VIAL .25% 30ml 25s 000000000100036000046910
00074116001AB-BUPIVAC VIAL .25% 50ml 25s 000000000100036000067000
00074361301AB-BUPIVAC/DEX .75% 2ml 10s   000000000100036000020300
00074904201AB-BUPIVAC/EPI .25% 10ml 10s  000000000100036000024240
00074904202AB-BUPIVAC/EPI .25% 30ml 10s  000000000100036000024240
00074904101AB-BUPIVAC/EPI .25% 50ml 25s  000000000100028800168600
00074904301AB-BUPIVAC/EPI .25% 50ml 25s  000000000100028800145350
00074904501AB-BUPIVAC/EPI .5% 10ml 10s   000000000100036000020850
00074904502AB-BUPIVAC/EPI .5% 30ml 10s   000000000100028800023230
00074904601AB-BUPIVAC/EPI .5% 50ml 25s   000000000100028800153360
00074163110AB-CAL CHLOR 10% Syg 10ml 10s 000000000100060000039990
00074118401AB-CAL GLUC 10% 10ml 25s      000000000100048000020250
00074255302AB-CALCIUM ACE 25MEQ 50ml 25s 000000000100028800045600
00074255303AB-CALCIUM ACE 50MEQ 100ml 25s000000000100028800089990
00074492834AB-CALCIUM CHL 10ml ABJT 10s  000000000100048000027000
00074492818AB-CALCIUM CHLOR 10% ABJ      000000000100048000023400
00074103630AB-CARBOCAINE 1% Vial 30ml Ea 000000000100028800007990
00074473203AB-CEFAZOLIN 1gm ADV vial     000000000100048000060000
00074339732AB-CENOLATE 1gm Amp 2ml 50s   000000000100028800024190
00074311831AB-CENOLATE 500mg 1ml 50s     000000000100048000032000
00074416901AB-CHLOROP 2% 30ml Vial 25s   000000000100028800104650
00074417001AB-CHLOROP 3% 30ml Vial 25s   000000000100028800149990
00074409301AB-CHROMIUM 4mcg/ml 10ml 25s  000000000100028800018990
00074735102AB-CIMETIDINE 1200mg 250ml 12s000000000100028800108990
00074744501AB-CIMETIDINE 150mg/ml 8ml 10s000000000100028800026990
00074744716AB-CIMETIDINE 300mg 50ml 48s  000000000100028800116280
00074735002AB-CIMETIDINE 900mg 250ml 12s 000000000100028800092990
00039002325AB-CLAFORAN 1gm ADV 25s       000000000100028800202060
00039002350AB-CLAFORAN 1gm ADV 50s       000000000100028800404120
00039001811AB-CLAFORAN 1gm Btl 10s       000000000100028800083770
00039001850AB-CLAFORAN 1gm Vial 50s      000000000100028800384710
00039001810AB-CLAFORAN 1gm VL 10s        000000000100028800076950
00039001825AB-CLAFORAN 1gm VL 25s        000000000100028800192360
00039001910AB-CLAFORAN 2gm VL 10s        000000000100028800153890
00039001925AB-CLAFORAN 2gm VL 25s        000000000100028800384710
00039001950AB-CLAFORAN 2gm VL 50s        000000000100028800769420
00039002001AB-CLAFORAN bulk 10gm 100ml vl000000000100014400076830
00039002425AB-CLAFORAN IMIV 2gm ADV 25s  000000000100028800394420
00039002450AB-CLAFORAN IMIV 2gm ADV 50s  000000000100028800788830
00039001911AB-CLAFORAN INF 2gM VL 10s    000000000100028800162710
00074405001AB-CLINDAMY 300mg/2ml 25s     000000000100048000079650
00074405303AB-CLINDAMY PHOS 150mg 2ml 25s000000000100048000112700
00074409201AB-COPPER TRACE .4mg 10ml 25s 000000000100028800013570
00074794009AB-DEXT/SOD 2.5/.45% 1000ml 12000000000100028800069990
00074794003AB-DEXT/SOD 2.5/.45% 500ml 24s000000000100028800119990
00074794102AB-DEXT/SOD 5/.9% 250ml 24s   000000000100028800099990
00074794103AB-DEXT/SOD 5/.9% 500ml 24s   000000000100028800099990
00074808501AB-DEXTRAN HM 32% 100ml 5s    000000000100028800102470
00074150703AB-DEXTRAN-70 6% 500ml 12s    000000000100028800285000
00074793819AB-DEXTROSE 10% 1000/500ml 12s000000000100028800069990
00074793002AB-DEXTROSE 10% 250ml 24s     000000000100036000096720
00074408902AB-DEXTROSE 10% Amp 5ml 25s   000000000100036000026600
00074793003AB-DEXTROSE 10% LC 500ml 12s  000000000100028800035810
00074150805AB-DEXTROSE 2.5% WATR 1000ml 6000000000100001200015630
00074153503AB-DEXTROSE 20% WATER 500ml 12000000000100028800093450
00074789801AB-DEXTROSE 25% 10ml 10s      000000000100048000058850
00074800415AB-DEXTROSE 30% 1000ml 12s    000000000100028800071270
00074793309AB-DEXTROSE 5% 1000ml 12s     000000000100036000033400
00074792337AB-DEXTROSE 5% 100ml 80s      000000000100036000112750
00074152301AB-DEXTROSE 5% 150ml fill 12s 000000000100028800052800
00074152311AB-DEXTROSE 5% 150ml fill 12s 000000000100028800052800
00074710002AB-DEXTROSE 5% 250ml 24s      000000000100036000061600
00074792336AB-DEXTROSE 5% 50ml 80s       000000000100036000112750
00074792320AB-DEXTROSE 5% LC 25ml fill 48000000000100028800079990
00074792903AB-DEXTROSE 5% RNGR 5000ml 24s000000000100028800036990
00074793303AB-DEXTROSE 5% RNGR 500ml 12s 000000000100028800069990
00074149501AB-DEXTROSE 5% Soln 50ml 25s  000000000100048000065990
00074152201AB-DEXTROSE 5% WATER 150ml 12s000000000100028800045990
00074152202AB-DEXTROSE 5% WATER 250ml 12s000000000100028800045990
00074152203AB-DEXTROSE 5% WATER 500ml 12s000000000100028800045990
00074792503AB-DEXTROSE 5%/.33% 500ml 24s 000000000100036000052510
00074792602AB-DEXTROSE 5%/.45% 250ml 24s 000000000100036000033720
00074792603AB-DEXTROSE 5%/.45% 500ml 24s 000000000100036000033500
00074792402AB-DEXTROSE 5/.225% 250ml 24s 000000000100036000033500
00074792502AB-DEXTROSE 5/.225% 250ml 24s 000000000100028800099990
00074711907AB-DEXTROSE 50% 2000ml 6s     000000000100028800061990
00074153603AB-DEXTROSE 50% 500ml 12s     000000000100036000062950
00074664802AB-DEXTROSE 50% FLTP 10s      000000000100036000016000
00074664802AB-DEXTROSE 50% FTV 50ml 25s  000000000100048000019990
00074151805AB-DEXTROSE 50% sol 1000ml 6s 000000000100028800045990
00074751716AB-DEXTROSE 50% Syg 50ml 10s  000000000100001200029990
00074751715AB-DEXTROSE 50% Syg 50ml 10s  000000000100048000029990
00074490222AB-DEXTROSE 50%/WATER ABJ     000000000100036000027870
00074800515AB-DEXTROSE 60% 1000ml 12s    000000000100028800078990
00074564625AB-DEXTROSE 60% 1000ml 6s     000000000100028800024770
00074712007AB-DEXTROSE 70% 2000ml 6s     000000000100028800062960
00074564725AB-DEXTROSE 70% 500ml 6s      000000000100028800024770
00074153405AB-DEXTROSE SOD CHL 10% 1000ml000000000100028800033850
00074486202AB-DEXTROSE SOD CHL 10% 250ml 000000000100028800047750
00074152105AB-DEXTROSE SOD CHL 2.5% 45ml 000000000100028800030690
00074167102AB-DIAL A FLO IV set 48x18in  000000000100028800250000
00074234402AB-DOBUTAM 250mg FTV 20ml 10s 000000000100036000029210
00074234401AB-DOBUTAM 250mg FTV 20ml Ea  000000000100036000003750
00074202520AB-DOBUTAMINE 250mg 20ml 10s  000000000100048000038760
00074202554AB-DOBUTAMINE 500mg 40ml 10s  000000000100036000054270
00074372432AB-DOBUTAMINE/D5W 1000mg 250ml000000000100028800379650
00074234632AB-DOBUTAMINE/D5W 250mg 250ml 000000000100028800189880
00074234534AB-DOBUTAMINE/D5W 250mg 500ml 000000000100028800369000
00074234732AB-DOBUTAMINE/D5W 500mg 250ml 000000000100028800284770
00074234634AB-DOBUTAMINE/D5W 500mg 500ml 000000000100028800319990
00074780822AB-DOPAMINE 200mg 250ml 12s   000000000100036000115000
00074426601AB-DOPAMINE 800mg 10ml 25s    000000000100048000038500
00074426501AB-DOPAMINE 800mg/5% 10ml 25s 000000000100036000030600
00074910420AB-DOPAMINE FTV 400mg 10ml 25s000000000100036000018850
00074780922AB-DOPAMINE HCL 400mg 250ml 12000000000100036000154100
00074780824AB-DOPAMINE HCL 400mg 500ml 12000000000100048000160000
00074781022AB-DOPAMINE HCL 800mg 250ml 12000000000100048000322000
00074426618AB-DOPAMINE SYG 800mg 10ml 10s000000000100036000041050
00074582010AB-DOPAMINE VL 200mg 5ml 25s  000000000100036000011340
00074414202AB-DOPAMINE/DEX 400mg 12x250ml000000000100028800151160
00074415502AB-DOPAMINE/DEX 800mg 12x250ml000000000100028800219990
00074414203AB-DOPAMINE/DEX 800mg 12x500ml000000000100028800216510
00074118701AB-DROPERIDOL 2.5mg 2ml ampul 000000000100014400012000
00074161401AB-EMPTY EVAC 12x150ml btl    000000000100001200025000
00074161402AB-EMPTY EVAC 12x250ml        000000000100028800026450
00074161403AB-EMPTY EVAC 12x500ml btl    000000000100028800054000
00074161405AB-EMPTY EVAC 6x1000ml btl    000000000100028800028350
00074694003AB-ENDRATE 3000mg Amp 20ml 25s000000000100028800349990
00074940601AB-ENFLURANE INH 125ml        000000000100036000084620
00074940602AB-ENFLURANE INH 250ml        000000000100036000120610
00074307331AB-EPHEDRIN 50mg/ml amp       000000000100048000025750
00074492118AB-EPINEPH .1mg/ml ABJ        000000000100048000027000
00074492134AB-EPINEPH .1mg/ml ABJ        000000000100048000028450
00074724101AB-EPINEPH 1mg/ml amp         000000000100144000008620
00074647844AB-ERY LAC 1gm ADV 10s        000000000100072000062300
00074634205AB-ERY LAC 1gm vial 10s       000000000100072000056140
00074648101AB-ERY LAC 1gm vial 10s       000000000100072000058000
00074324701AB-ERY LAC 500mg ADV FT 10s   000000000100048000114000
00074636502AB-ERY LAC 500mg vial 10s     000000000100048000026500
00074648201AB-ERY LAC 500mg vial 10s     000000000100048000031800
00074377204AB-ETHANOL 95% Amp 1ml 25s    000000000100028800245990
00074448148AB-EXTEN SET 30               000000000100028800119990
00074322903AB-EXTEN SET 30 SL            000000000100028800189990
00074452258AB-EXTEN SET 30 twin-site     000000000100028800063150
00074411601AB-EXTEN SET INT SL           000000000100028800130070
00074267948AB-EXTEN SET IVEX-2 0.22 micrn000000000100028800146120
00074452458AB-EXTEN SET IVEX-HP 0.22 micr000000000100028800149480
00074406558AB-FAT EMULSION IV SET 48s    000000000100072000177340
00074647932AB-GENGRAF 100mg 30s          000000000100028800117500
00074646332AB-GENGRAF 25mg 30s           000000000100048000031370
00074788923AB-GENTAMICIN 100mg 100ml 24s 000000000100028800113480
00074340201AB-GENTAMICIN 100mg 10ml 50s  000000000100048000036650
00074340001AB-GENTAMICIN 10mg/ml 25s     000000000100036000030730
00074788423AB-GENTAMICIN 80mg 100ml 24s  000000000100028800107440
00074340101AB-GENTAMICIN 80mg 8ml 50s    000000000100036000035400
00074614206AB-GLYCINE 1.5% IRR 1500ml 8s 000000000100028800034990
00074614236AB-GLYCINE 1.5% IRR 1500ml 9s 000000000100028800035990
00074779362AB-HEP 25000U/D5W 250ml       000000000100072000098970
00074128101AB-HEP LF 100u 50x1ml         000000000100072000025000
00074128001AB-HEP LF 10u 50x1ml          000000000100001200021000
00074115170AB-HEP LF 10un 10ml 25s       000000000100072000010600
00074128131AB-HEP LF 10usp 1/2ml 50s     000000000100048000041000
00074128025AB-HEP LF 10usp 5/5ml 25s     000000000100048000027800
00074128021AB-HEP LF 10usp INTERIK 50s   000000000100048000036130
00074128031AB-HEP LF 10usp LL 50s        000000000100072000041720
00074128132AB-HEP LF CARP 100un 2ml 50s  000000000100072000038370
00074115278AB-HEP LOCK 100U/ml vial      000000000100072000014070
00074115270AB-HEP LOCK 100usp 10ml 50s   000000000100072000011500
00074115178AB-HEP LOCK 10usp 30ml 25s    000000000100001200010500
00074779323AB-HEP SOD 10000usp 100ml 24s 000000000100028800119990
00074782003AB-HEP SOD 1000usp 500ml 18s  000000000100028800052320
00074765162AB-HEP SOD 12500 .45% 250ml 24000000000100028800112090
00074779462AB-HEP SOD 12500usp 250ml 24s 000000000100028800119990
00074776003AB-HEP SOD 20000usp 500ml 24s 000000000100028800159000
00074762059AB-HEP SOD 2000usp 1000ml 12s 000000000100028800052990
00074765062AB-HEP SOD 25000 .45% 250ml 24000000000100028800109990
00074138901AB-HEP-PAK 5000U Kit 50ml Ea  000000000100048000088990
00074128202AB-HEP-PAK 500U Kit 50ml Ea   000000000100048000088990
00074128102AB-HEPARIN FL 100U/ml 2ml 50s 000000000100048000039050
00074128011AB-HEPLK FL 10u CJCT UNV 1ml50000000000100048000046740
00074128012AB-HEPLK FL 10U CRPJT 2ml 50  000000000100048000046740
00074128013AB-HEPLK FL 10U CRPJT 3ml 25s 000000000100048000028290
00074128015AB-HEPLK FL 10U CRPJT 5ml 25s 000000000100048000031120
00074128022AB-HEPLK FL 10U INTRLNK 2ml 50000000000100048000046470
00074131611AB-HEPSOD 10MU SYR CJCT 1ml 50000000000100048000069200
00074131613AB-HEPSOD 10MU SYR CJCT.5ml10s000000000100048000008190
00074258402AB-HEPSOD 2.5MU VL ADV 10ml25s000000000100048000095770
00074140211AB-HEPSOD 5MU SRY CJCT 1ml 50s000000000100048000041200
00074140201AB-HEPSOD 5MU SYR CJCT 1ml 10s000000000100048000008190
00074724803AB-HETASTARCH 6% Sol          000000000100048000275000
00074128112AB-HPLK FL 100U CRPJCT 2ml 50s000000000100048000050320
00074128115AB-HPLK FL 100U CRPJCT 5ml 25s000000000100001200031000
00074128113AB-HPLK FL 100U/ml CRPJT 3ml25000000000100048000031760
00074128002AB-HPLK FL 10U/ml CRPJT 2ml 50000000000100048000039410
00074128122AB-HPLOK FL 100u/ml    2ml 50s000000000100048000046740
00074128123AB-HPLOK FL 100U/ml  3ml  25s 000000000100048000030090
00074128133AB-HPLOK FL 100U/ml/L-LK 3ml25000000000100048000000000
00074737109AB-IONOSOL B 5% 500ml 12s     000000000100028800089990
00074737103AB-IONOSOL B 5% 500ml 24s     000000000100028800099990
00074737203AB-IONOSOL MB 5% 500ml 24s    000000000100028800044820
00074737262AB-IONOSOL MB/DX 5% 250ml 24s 000000000100036000049000
00074737362AB-IONOSOL T 5% 250ml 24s     000000000100028800053990
00074737303AB-IONOSOL T/DEX 5% 500ml 24s 000000000100036000062270
00074329202AB-ISOFLURANE        250ml    000000000100072000094500
00074329201AB-ISOFLURANE inh 100ml       000000000100048000021000
00074497718AB-ISOPROT 1:5000 10ml 10s    000000000100048000057700
00074497815AB-ISOPROT 1:5000 5ml 10s     000000000100048000049000
00074141005AB-ISUPREL AMP .2mg/ml 5ml 10s000000000100060000077570
00074151748AB-IVEX-RF filter set         000000000100028800179990
00074228831AB-KETORLC 15mg CJCT L/L 1ml10000000000100048000062910
00074379301AB-KETORLC 15mg SDV FT 1ml 25s000000000100048000057050
00074228702AB-KETORLC 30mg CJCT  2ml 10s 000000000100048000061840
00074228731AB-KETORLC 30mg CJCT L/L 1ml10000000000100048000035140
00074228761AB-KETORLC 30mg CJCT L/L 2ml10000000000100048000069840
00074228711AB-KETORLC 30mg CJCT UNV 1ml10000000000100048000065790
00074379501AB-KETOROLAC FTV 30mg 1ml 25s 000000000100060000058520
00074379601AB-KETOROLAC FTV 60mg 2ml 25s 000000000100060000060580
00074228701AB-KETOROLAC Syg 30mg 1ml 10s 000000000100060000045920
00074228811AB-KETRLAC 15mg CJCT UNV 1ml10000000000100048000062910
00074897518AB-L-CYSTEINE 50mg SYR 10ml 10000000000100048000069210
00074226720AB-LABETALOL 5mg MDV 20ml     000000000100048000004710
00074226754AB-LABETALOL 5mg MDV 40ml     000000000100048000009310
00074454102AB-LEUCOVORIN CAL 10mg FT 10ml000000000100048000006000
00074454104AB-LEUCOVORIN CAL 10mg FT 25ml000000000100048000014000
00074791624AB-LIDO .2% LC 500ml 24s      000000000100028800159990
00074492401AB-LIDO 1% 5ml 25gm 10s       000000000100048000027000
00074427601AB-LIDO 1% HCL 20ml FT 50s    000000000100048000010450
00074427001AB-LIDO 1% HCL 30ml 25s       000000000100048000090700
00074427902AB-LIDO 1% HCL 30ml 50s       000000000100048000011400
00074471301AB-LIDO 1% USP 2ml amp 25s    000000000100048000015350
00074471302AB-LIDO 1% USP 5ml amp 25s    000000000100060000013500
00074317803AB-LIDO 1%/EPI 1:200000       000000000100072000045000
00074317802AB-LIDO 1%/EPI 30ml 25s       000000000100072000030900
00074625401AB-LIDO 10% HCL 10ml 50s      000000000100048000113000
00074492301AB-LIDO 2% 25G 10s            000000000100048000029000
00074427702AB-LIDO 2% HCL 50ml ft 25s    000000000100072000013750
00074428201AB-LIDO 2% USP 20ml amp 25s   000000000100072000009410
00074318202AB-LIDO 2%/EPI 30ml 25s       000000000100072000048130
00074624801AB-LIDO 20% HCL 50s           000000000100048000176850
00074427501AB-LIDO HCL .5% VIAL          000000000100072000052580
00074427602AB-LIDO HCL 1% VIAL           000000000100072000014800
00074427701AB-LIDO HCL 2% 20ml 25s       000000000100048000011450
00074490334AB-LIDO HCL 2% 5ml ABJ        000000000100048000023650
00074428301AB-LIDO HCL 4% AMP            000000000100072000037410
00074492415AB-LIDO SYG 1% 5ml 10s        000000000100036000025000
00074490434AB-LIDO SYG 1% LF 5ml 10s     000000000100036000025670
00074793132AB-LIDO/DEX .4/5% 250ml 12s   000000000100036000067170
00074793124AB-LIDO/DEX .4/5% 500ml 24s   000000000100036000164670
00074793932AB-LIDO/DEX .8/5% 250ml 12s   000000000100028800099990
00074317901AB-LIDOCAINE/EPI 1%  30ml   5s000000000100048000023010
00074318101AB-LIDOCAINE/EPI 1.5% 30ml  5s000000000100048000025670
00074120901AB-LIDOCAINE/EPI 1.5% 5ml  10s000000000100048000025470
00074318301AB-LIDOCAINE/EPI 2%  20ml  5s 000000000100048000040210
00074978621AB-LIPOSYN II 10% 100ml 12s   000000000100028800094990
00074978601AB-LIPOSYN II 10% 200ml 12s   000000000100036000126470
00074978603AB-LIPOSYN II 10% 500ml 12s   000000000100036000097900
00074979301AB-LIPOSYN II 10% 500ml 12s   000000000100036000161220
00074979401AB-LIPOSYN II 10% 500ml 8s    000000000100028800099990
00074978901AB-LIPOSYN II 20% 200ml 12s   000000000100048000210350
00074979203AB-LIPOSYN II 20% 200ml 8s    000000000100028800133990
00074978903AB-LIPOSYN II 20% 500ml 12s   000000000100036000175300
00074979301AB-LIPOSYN II 20% 500ml 8s    000000000100028800189990
00074978702AB-LIPOSYN II 20% 50ml syg 12s000000000100028800319990
00074979021AB-LIPOSYN III 10% 100/200ml  000000000100028800094990
00074979001AB-LIPOSYN III 10% 200ml 12s  000000000100028800117500
00074979003AB-LIPOSYN III 10% 500ml 12s  000000000100036000134340
00074979103AB-LIPOSYN III 20% 500ml 12s  000000000100036000189360
00074689203AB-LIPOSYN III 30% 500ml 12s  000000000100028800249990
00074741803AB-LMD 10% w/5% DEX 500ml 12s 000000000100028800246510
00074741903AB-LMD 10% w/SOD CHL 500ml 12s000000000100028800246390
00074494301AB-MAG SULF 12.5% VL 8ml  25s 000000000100048000051140
00074672909AB-MAG SULF 40mg/ml 1000ml 12s000000000100028800070990
00074672923AB-MAG SULF 40mg/ml 100ml 24s 000000000100036000090200
00074672903AB-MAG SULF 40mg/ml 500ml 24s 000000000100028800090990
00074216801AB-MAG SULF 50% 10ml 25s      000000000100002400015990
00074216802AB-MAG SULF 50% 20ml 25s      000000000100036000033750
00074216803AB-MAG SULF 50% 50ml 25s      000000000100036000048210
00074407532AB-MAG SULF 50% AMPUL 2ml 50s 000000000100048000017510
00074175410AB-MAG SULF 50% Syg 10ml 10s  000000000100060000039990
00074673013AB-MAG SULF 80mg/ml 50ml 24s  000000000100036000087320
00074672709AB-MAG SULF/DEX 10gm/1000ml 12000000000100028800037900
00074672803AB-MAG SULF/DEX 10gm/500ml 24s000000000100028800072990
00074672723AB-MAG SULF/DEX 1gm/100ml 24s 000000000100028800109990
00074672809AB-MAG SULF/DEX 20gm/1000ml 12000000000100028800044990
00074409101AB-MANGANESE .1mg/ml 10ml 25s 000000000100036000014310
00074771309AB-MANNITOL 10% PVC 1000ml 12s000000000100028800319990
00074771403AB-MANNITOL 15% IV 500ml 12s  000000000100028800419990
00074403101AB-MANNITOL 25% 50ml 25s      000000000100036000023880
00074771209AB-MANNITOL 5% PVC 1000ml 12s 000000000100028800299990
00074771502AB-MANNITOL VL 20% 250ml 24s  000000000100036000412830
00074155910AB-MARCAINE .25% 10ml         000000000100144000021000
00074158750AB-MARCAINE .25% 50ml MLTIDOSE000000000100144000003110
00074174610AB-MARCAINE .25% W/EPI 10ml   000000000100144000024120
00074175250AB-MARCAINE .25% W/EPI 50ml   000000000100048000006090
00024122202AB-MARCAINE .25% W/EPI 50ml   000000000100048000036000
00074156030AB-MARCAINE .5% 30ml          000000000100144000015650
00074174929AB-MARCAINE .5% 30ml W/EPI    000000000100144000052670
00074161050AB-MARCAINE .5% 50ml          000000000100048000003830
00074174910AB-MARCAINE .5% W/EPI 10ml    000000000100144000025750
00074174903AB-MARCAINE .5% W/EPI 3ml     000000000100048000019000
00074175550AB-MARCAINE .5% W/EPI 50ml    000000000100144000007160
00074158210AB-MARCAINE .75% 10ml         000000000100144000020000
00074158229AB-MARCAINE .75% 30ml 10s     000000000100144000033230
00024158230AB-MARCAINE .75% 30ml AMP     000000000100144000016100
00024175030AB-MARCAINE .75% 30ml W/EPI   000000000100001200011990
00074176102AB-MARCAINE AMP 2ml 10s       000000000100144000015770
00074175250AB-MARCAINE/EPI .25% 50ml  EA 000000000100048000000000
00074303001AB-METHYLDOP 250mg 5ml 25s    000000000100048000031150
00074341401AB-METOCLOP 10mg/2ml 2ml 25s  000000000100999900027850
00074341301AB-METOCLOP 5mg/ml AMP        000000000100048000030370
00074781124AB-METRONID 500mg 100ml BAG 24000000000100048000116200
00074781137AB-METRONID 500mg 80x100ml    000000000100048000220000
00074146301AB-NALBUPHIN HCL 10mg 1ml A 50000000000100096000007300
00074146401AB-NALBUPHIN HCL 10mg FLTP 25s000000000100048000143000
00074146501AB-NALBUPHIN HCL 20mg 1ml A   000000000100048000013750
00074121201AB-NALOXONE AMP .4mg 1ml 10s  000000000100020000018000
00024180001AB-NEO-SYNE AMP 1% 1ml 25s    000000000100060000153000
00013560693AB-NEOSAR 100mg 12s           000000000100028800044860
00013563670AB-NEOSAR 1gm 6s              000000000100028800056710
00013561693AB-NEOSAR 200mg 12s           000000000100028800053920
00013564670AB-NEOSAR 2gm 6s              000000000100028800154000
00013562693AB-NEOSAR 500mg 12s           000000000100028800075520
00074372201AB-NEOSTIGMINE 1/2000 10ml 10s000000000100048000032300
00074372301AB-NEOSTIGMINE 1mg/ml 10ml 10s000000000100048000017480
00074148402AB-NITRO/DEXT 400mcg/ml 12X250000000000100028800069990
00074148403AB-NITRO/DEXT 400mcg/ml 12x500000000000100028800086990
00074410701AB-NITROGLY 25mg 5ml 25s      000000000100001200019990
00074410401AB-NITROGLY 50mg 10ml 25s     000000000100028800029820
00074148302AB-NITROGLY/DEXT 100mcg/ml sol000000000100028800061990
00074148202AB-NITROGLY/DEXT 200mcg/ml    000000000100028800060580
00074303444AB-NITROPRES 50MG ADVNT VL  EA000000000100048000003010
00074325001AB-NITROPRES 50MG KIT EA  10  000000000100048000072960
00074302401AB-NITROPRESS 25mg 2ml vl     000000000100048000002500
00074704101AB-NOREPINEPHRINE 1mg/ml AMP  000000000100048000110000
00074767003AB-NORMOSOL R 7.4 500ml 24s   000000000100028800089070
00074439905AB-NORMOSOL-M 1000ml 6s       000000000100028800029530
00074157005AB-NORMOSOL-R 7.4 1000ml 12s  000000000100028800089700
00074180802AB-NOVOCAIN 1% AMPUL 2ml  25s 000000000100048000061160
00074180806AB-NOVOCAIN 1% AMPUL 6ml  50s 000000000100048000246050
00074464502AB-PANCURONIUM 2MG AMP 5ML 25 000000000100048000068400
00074564801AB-PEDIATRIC LTA KIT  EA  25  000000000100048000174600
00074454801AB-PENTAMIDINE 300mg VIAL     000000000100036000052920
00074131701AB-PHENYTOIN 50mg/ml 2ml      000000000100048000033770
00074131702AB-PHENYTOIN 50mg/ml 5ml      000000000100048000035000
00074614102AB-PHYSIOSOL IRR 250ml 12s    000000000100028800059990
00074614122AB-PHYSIOSOL IRR 250ml 24s    000000000100028800064510
00074614103AB-PHYSIOSOL IRR 500ml 12s    000000000100028800064510
00074701205AB-PHYSIOSOL IRR 7.4 1000ml 12000000000100028800052200
00074187405AB-PONTOCA/DEX AMP SPNL 5ml 10000000000100048000056200
00074186301AB-PONTOCAINE .5% 59ml        000000000100048000021000
00074159502AB-PONTOCAINE HCL .3% 5ml AMPS000000000100144000049410
00074184906AB-PONTOCAINE HCL NIP 20ml AMP000000000100048000880000
00074186602AB-PONTOCAINE HCL SOL 2% 118ml000000000100048000033000
00074329406AB-POT ACET 2meq/ml 100ml 25s 000000000100048000063070
00074818301AB-POT ACET 2meq/ml 20ml 25s  000000000100048000022400
00074329451AB-POT ACET 2meq/ml 50ml 25s  000000000100048000040700
00074710509AB-POT CHL .3% 40meq 1000ml 12000000000100028800038740
00074710709AB-POT CHL .9% 20meq 1000ml 12000000000100028800038740
00074710909AB-POT CHL .9% 40meq 1000ml 12000000000100028800038740
00074707426AB-POT CHL 10meq 100ml 24s    000000000100028800059990
00074707514AB-POT CHL 10meq 50ml 24s     000000000100028800059990
00074663501AB-POT CHL 10meq 5ml 25s      000000000100048000009750
00074790103AB-POT CHL 10meq 600ml 24s    000000000100028800082320
00074711509AB-POT CHL 20meq .9% 1000ml 12000000000100028800069990
00074707526AB-POT CHL 20meq 100ml 24s    000000000100028800059990
00074665106AB-POT CHL 20meq 10ml 25s     000000000100048000008300
00074493201AB-POT CHL 20meq 10ml 25s     000000000100048000036850
00074711109AB-POT CHL 20meq 5% 1000ml 12s000000000100028800069990
00074707714AB-POT CHL 20meq 50/100ml 24s 000000000100028800059990
00074390703AB-POT CHL 2meq AMP   10ml 25s000000000100048000024220
00074665109AB-POT CHL 2meq VL  10ml  25s 000000000100048000010000
00074149901AB-POT CHL 2meq VL  20ml   25s000000000100048000088290
00074665305AB-POT CHL 2Meq VL 20ml   25s 000000000100048000013000
00074493901AB-POT CHL 2Meq VL PNTP 20ml25000000000100048000039800
00074493101AB-POT CHL 2Meq VL PNTP 5ml 25000000000100048000036670
00074707626AB-POT CHL 30meq 100ml 24s    000000000100028800059990
00074663601AB-POT CHL 30meq 15ml 25s     000000000100048000010110
00074711609AB-POT CHL 40meq .9% 1000ml 12000000000100028800069990
00074707726AB-POT CHL 40meq 100ml 24s    000000000100028800059990
00074665305AB-POT CHL 40meq 20ml 25s     000000000100048000010500
00074149901AB-POT CHL 40meq 25x20ml      000000000100048000088750
00074711309AB-POT CHL 40meq 5% 1000ml 12s000000000100028800069990
00074799803AB-POT CHL DX/NA 10meq 500ml  000000000100028800069990
00074799809AB-POT CHL DX/NA 20meq 1000ml 000000000100028800026860
00074799709AB-POT CHL PREMX 10ME .2% sol 000000000100028800028250
00074799309AB-POT CHL PREMX 10ME .45% sol000000000100028800028250
00074499419AB-POT CHL Syg 40meq 20ml 10s 000000000100036000033850
00074790209AB-POT CHL/DEX .15% 1000ml 12s000000000100028800034880
00074799609AB-POT CHL/DEX .224/5% 1000ml 000000000100028800028500
00074420101AB-POT PHOS 150mm 50ml 25s    000000000100036000065610
00074729601AB-POT PHOS 15mm 5ml 25s      000000000100036000012250
00074729501AB-POT PHOS 45mm 15ml 5s      000000000100036000014500
00074469801AB-PRE ATTACHED LTA KIT EA 25 000000000100048000111670
00074190201AB-PROCAINAMIDE 100mg/ml vial 000000000100048000026700
00074190301AB-PROCAINAMIDE 500mg/ml vial 000000000100036000022400
00074192304AB-PROCAINE FTV 1% 30ml 25s   000000000100036000026040
00074195304AB-PROCAINE FTV 2% 30ml 25s   000000000100036000026040
00024188022AB-PROCHLOR SYG 5mg 2ml 10s   000000000100036000021470
00074188132AB-PROCHLORPERAZINE SYR 2ml 10000000000100048000018460
00074662902AB-QUELICIN 20mg FTV 1ml 25s  000000000100028800018520
00074806515AB-QUELICIN 20mg SYR 5ml  10s 000000000100048000069960
00074614009AB-RINGERS sol 1000ml 12s     000000000100028800038990
00074798224AB-RINGERS sol 500ml 24s      000000000100028800036270
00074329906AB-SOD ACET 200meq 100ml 25s  000000000100036000070000
00074329905AB-SOD ACET 2meq 50ml ft 25   000000000100036000039200
00074729901AB-SOD ACET 40meq 20ml 25s    000000000100036000011270
00074553418AB-SOD BIC 4.2% 10ml 10s      000000000100048000027700
00074662502AB-SOD BIC 50meq 50ml 50s     000000000100036000015330
00074491622AB-SOD BIC 7.5% 50ml 10s      000000000100036000032130
00074490018AB-SOD BIC 8.4% 10meq 10ml 10s000000000100048000028850
00074663722AB-SOD BIC 8.4% 10meq 50ml 10s000000000100048000024650
00074663734AB-SOD BIC 8.4% 50ml 10s      000000000100060000026000
00074491634AB-SOD BIC 8.4% 50ml 10s      000000000100036000032580
00074490034AB-SOD BIC SYG 8.4% 10ml 10s  000000000100036000031480
00074553434AB-SOD BICARB4.2% SYR  10ML 10000000000100048000039060
00074713207AB-SOD CHL .45% 100ml 50s     000000000100028800080420
00074614706AB-SOD CHL .45% 1500ml 8s     000000000100028800025990
00074614736AB-SOD CHL .45% 1500ml 9s     000000000100028800025990
00074713202AB-SOD CHL .45% 250ml 24s     000000000100060000064100
00074798502AB-SOD CHL .45% 250ml LC 24s  000000000100060000028370
00074773020AB-SOD CHL .45% 25ml 48s      000000000100060000136560
00074798503AB-SOD CHL .45% 500ml 24s     000000000100028800031970
00074773036AB-SOD CHL .45% 50ml fill 80s 000000000100028800199990
00074797205AB-SOD CHL .9% 1000ml 12s     000000000100028800039650
00074488899AB-SOD CHL .9% 100ml 25s      000000000100060000025270
00074798437AB-SOD CHL .9% 100ml 80s      000000000100060000109410
00074488810AB-SOD CHL .9% 10ml ea        000000000100060000006800
00074488812AB-SOD CHL .9% 10ml vl 25s    000000000100060000010990
00074713806AB-SOD CHL .9% 1500ml w/han 8s000000000100028800029990
00074181202AB-SOD CHL .9% 2/2ml 50s      000000000100048000038250
00074181222AB-SOD CHL .9% 2/2ml 50s      000000000100048000040750
00074797207AB-SOD CHL .9% 2000ml 6s      000000000100028800030810
00074488820AB-SOD CHL .9% 20ml 25s       000000000100060000009100
00074613822AB-SOD CHL .9% 250ml 24s      000000000100060000032020
00074798420AB-SOD CHL .9% 250ml 48s      000000000100028800093990
00074181223AB-SOD CHL .9% 3/5ml 25s      000000000100048000028140
00074191833AB-SOD CHL .9% 3ml 25s        000000000100060000026530
00074181205AB-SOD CHL .9% 5/5ml 25s      000000000100048000027500
00074488850AB-SOD CHL .9% 50ml 100s      000000000100048000018730
00074158401AB-SOD CHL .9% 50ml 12s       000000000100060000051220
00074710102AB-SOD CHL .9% 50ml 24s       000000000100048000061650
00074798436AB-SOD CHL .9% 50ml 80s       000000000100028800119990
00074191835AB-SOD CHL .9% 5ml 25s        000000000100048000027500
00074536505AB-SOD CHL .9% FL SYR 5ml 50s 000000000100048000043200
00074613802AB-SOD CHL .9% IRRG 250ml 12s 000000000100048000024750
00074613803AB-SOD CHL .9% IRRG 500ml 12s 000000000100048000027900
00074158411AB-SOD CHL .9% PF sol 12x100ml000000000100028800106700
00074158401AB-SOD CHL .9% PF sol 12x50ml 000000000100028800062000
00074798309AB-SOD CHL .9% sol 1000ml 12s 000000000100048000018750
00074158301AB-SOD CHL .9% sol 12x150ml   000000000100028800038350
00074158302AB-SOD CHL .9% sol 12x250ml   000000000100028800038350
00074181225AB-SOD CHL .9% syr 5ml 25s    000000000100048000027850
00074181105AB-SOD CHL .9% SYR CJCT 5ml 25000000000100048000018430
00074196604AB-SOD CHL 10ml 100s          000000000100048000008500
00074665773AB-SOD CHL 2.5MEQ VL FT 20ml25000000000100048000017550
00074113002AB-SOD CHL 4meq/ml 250ml 12s  000000000100060000040880
00074114102AB-SOD CHL 4MEQ23.4% 100ml 25s000000000100048000099000
00074114101AB-SOD CHL 4MEQ23.4% 50ml  25s000000000100048000050000
00074158603AB-SOD CHL 5% sol 12x500ml    000000000100028800083550
00074196607AB-SOD CHL BACT .9% 30ml 25s  000000000100060000008900
00074798303AB-SOD CHL INJ .9% 500ml 24s  000000000100048000036150
00074798502AB-SOD CHL SOL .45% 250ml 24  000000000100060000028400
00074188512AB-SOD CHL.9%SYR   2ml 50s    000000000100048000061860
00074188503AB-SOD CHL.9%SYR CJCT  3ml 25s000000000100048000016720
00074181203AB-SOD CHL.9%SYR CJCT 3ml  25s000000000100048000029020
00074329551AB-SOD PHOS 3mm/ml FPT 50ml 25000000000100048000129670
00074739172AB-SOD PHOS 45mm 15ml 25s     000000000100060000018330
00074186468AB-SOLUSET 150x60 NV fltr&cair000000000100028800129250
00074187668AB-SOLUSET 150x60 NV w/cair   000000000100028800199990
00074798108AB-SORBITOL MANNITOL 3000ml 4s000000000100028800037980
00074614406AB-SORBITOL-MANNITOL 1500ml 8s000000000100028800035990
00074614436AB-SORBITOL-MANNITOL 1500ml 9s000000000100028800039990
00074581611AB-STERILE EMPTY 10ml vl 25s  000000000100048000012310
00074581631AB-STERILE EMPTY 30ml VL FT 25000000000100048000017330
00074711807AB-STERILE WATER 2000ml 6s    000000000100028800039990
00074790707AB-STERILE WATER RES 2000ml 6s000000000100028800043250
00074713906AB-STERILE WTR 1500ml w/han 8s000000000100028800019990
00074183701AB-SYRINGE FILTER 1.0 MICRON  000000000100028800119000
00007509216AB-TAZICEF 1gm ADV 15ml 25s   000000000100057600269000
00007508311AB-TAZICEF 1gm PB 100ml 10s   000000000100028800104990
00007508216AB-TAZICEF 1gm Vial 20ml 25s  000000000100028800269000
00007509311AB-TAZICEF 2gm ADV 21ml 10s   000000000100028800229000
00007508511AB-TAZICEF 2gm PB 100ml 10s   000000000100028800191060
00007508411AB-TAZICEF 2gm Vial 60ml 10s  000000000100028800229000
00007508611AB-TAZICEF 6gm/100ml 100ml 10s000000000100028800649000
00074766823AB-THEOPHYL 200mg 100ml 24s   000000000100028800105990
00074767713AB-THEOPHYL 200mg 50ml 24s    000000000100028800105990
00074767723AB-THEOPHYL 400mg 100ml 24s   000000000100028800105990
00074766662AB-THEOPHYL 400mg 250ml 24s   000000000100028800105990
00074766503AB-THEOPHYL 400mg 500ml 24s   000000000100028800089990
00074766603AB-THEOPHYL 800mg 1000ml 24s  000000000100028800084990
00074770502AB-THEOPHYL 800mg 250ml 24s   000000000100028800116970
00074766509AB-THEOPHYL 800mg 5% 500ml 12s000000000100028800066620
00074357701AB-TOBRAMYC 20mg 2ml 25s      000000000100072000064850
00074359002AB-TOBRAMYC 40mg/ml 5ml       000000000100072000057170
00074357801AB-TOBRAMYC 80mg 2ml 25s      000000000100072000071730
00074346913AB-TOBRAMYC/NACL 60mg 24x50ml 000000000100028800163990
00074347023AB-TOBRAMYC/NACL 80mg 24x100ml000000000100028800173250
00074325403AB-TOBRAMYCIN 10MG ADVN 6ml 25000000000100048000252000
00074325503AB-TOBRAMYCIN 10MG ADVN 8ml 25000000000100048000131000
00074588101AB-TPN ELECTRL P-FILL 20ml 25s000000000100048000158650
00074588219AB-TPN ELECTROL SYR UNV 20ml10000000000100048000068210
00074329606AB-TPN ELECTROLYTES 100ml 25s 000000000100036000126700
00074577901AB-TPN ELECTROLYTES 20ml 25s  000000000100048000055300
00074323601AB-TPN ELECTROLYTES II 20ml 50000000000100048000061350
00074329706AB-TPN ELECTROLYTES II VIAL   000000000100036000140690
00074329806AB-TPN ELECTROLYTES III VIAL  000000000100036000143070
00074384401AB-TPN ELETROLYTES III 20ml 50000000000100036000052690
00074400801AB-TRACE METAL ADD VL 50ML 25 000000000100048000105360
00074459250AB-TRACE METAL ADD VL 50ml 25s000000000100048000222910
00074462315AB-TRACE METALS SYR 5ml  10s  000000000100048000047780
00074479702AB-TRANSFER NDL 19GA 400s     000000000100028800132440
00074397201AB-TRANSFER SET additive pharm000000000100028800032410
00074171848AB-TRANSFER VENTED SET        000000000100028800249000
00074806615AB-TUBOCURARINE 3mg SYR 5ml 10000000000100048000070250
00074338604AB-TUBOCURARINE 3mg VL 20ml 25000000000100048000178520
00074653301AB-VANCOMYCIN 1gm 25ml fltp 10000000000100060000057500
00074653501AB-VANCOMYCIN 1GM ADD-VAN     000000000100048000091700
00074433201AB-VANCOMYCIN 500mg 10ml ft 10000000000100048000027110
00074653401AB-VANCOMYCIN 500mg a/v vl.   000000000100060000044320
00074650901AB-VANCOMYCIN 5gm vl          000000000100060000026900
00074185748AB-VENOSET 72 CAIR CLAMP      000000000100028800169000
00074185948AB-VENOSET 78 NV CAIR CLAMP   000000000100028800168000
00074429348AB-VENOSET 78 NV filt IVEX-2  000000000100028800189990
00074188158AB-VENOSET 78 SET w/conv pin  000000000100028800055810
00074574248AB-VENOSET ANEST CLMP NV SET  000000000100028800137710
00074181848AB-VENOSET PB NV CAIR CLAMP   000000000100028800118210
00074186048AB-VENOSET PB NV SET          000000000100028800199000
00074496748AB-VENOSET PB V CAIR CLAMP    000000000100028800299990
00074183258AB-VENOSET SEC PB VENT SET    000000000100028800089000
00074170248AB-VENOSET SEC VENT SET       000000000100028800079000
00074114402AB-VERAPAMIL 2.5mg VL 4ml  5s 000000000100048000004140
00074401101AB-VERAPAMIL 2.5mg/ml         000000000100144000003100
00074198202AB-VERAPAMIL 2.5mg/ml 2ml 10s 000000000100048000012150
00074114401AB-VERAPAMIL 5mg 2ml FLTP 25s 000000000100048000003500
00013746686AB-VINCASAR PFS 2mg 10s       000000000100028800129990
00074915701AB-VIT K INJ 10ml A 50s       000000000100048000048500
00074915801AB-VIT K INJ 1mg A 50s        000000000100036000093500
00074397703AB-WATER BACT 30ml 25s        000000000100060000010000
00074799009AB-WATER FOR INJ 1000ml 12s   000000000100028800020890
00074488799AB-WATER FOR INJ 100ml 25s    000000000100036000026000
00074488710AB-WATER FOR INJ 10ml 25s     000000000100036000006870
00074488720AB-WATER FOR INJ 20ml 25s     000000000100036000010050
00074159002AB-WATER FOR INJ 250ml 12s    000000000100028800044650
00074488750AB-WATER FOR INJ 50ml 25s     000000000100036000017000
00074797207AB-WATER STER irrg 2000ml 6s  000000000100028800039000
00074613902AB-WATER STER irrg 250ml 12s  000000000100028800015490
00074613922AB-WATER STER irrg 250ml 24s  000000000100028800029990
00074613903AB-WATER STER irrg 500ml 24s  000000000100028800029990
00074402903AB-WATER/INJ AMP 20ML   25    000000000100048000024220
00074452605AB-ZINC CHL 1mg VL  50ml  25s 000000000100072000089990
00074409001AB-ZINC CHLOR 1mg/ml 10ml 25s 000000000100028800021600
53265005010ABL-CLORAZEPATE 15mg 100s     000000000100057600028900
53265004810ABL-CLORAZEPATE 3.75mg 100s   000000000100057600009750
53265004850ABL-CLORAZEPATE 3.75mg 500s   000000000100057600046300
53265004910ABL-CLORAZEPATE 7.5mg 100s    000000000100057600016950
53265004950ABL-CLORAZEPATE 7.5mg 500s    000000000100057600080650
53265023711ABL-DIPHENOX 2.5/0.025mg 1000s000000000100057600048000
53265023710ABL-DIPHENOX 2.5/0.025mg 100s 000000000100057600005550
53265024910ABL-NITROGLY SUB 0.3mg 100s   000000000100057600003320
53265025010ABL-NITROGLY SUB 0.4mg 100s   000000000100057600003150
53265025004ABL-NITROGLY SUB 0.4mg 4x25   000000000100057600007200
53265025110ABL-NITROGLY SUB 0.6mg 100s   000000000100057600003320
53265019611ABL-PEHNAZOPYRID 100mg 1000s  000000000100057600041900
53265025004ABL-PHENAZOPYRID 100mg 100s   000000000100057600004460
53265019711ABL-PHENAZOPYRID 200mg 1000s  000000000100057600058050
53265019710ABL-PHENAZOPYRID 200mg 100s   000000000100057600006110
53265013210ABL-SALSALATE 500mg 100s      000000000100057600002450
53265013250ABL-SALSALATE 500mg 500s      000000000100057600011400
53265013310ABL-SALSALATE 750mg 100s      000000000100057600003300
53265013350ABL-SALSALATE 750mg 500s      000000000100057600015500
01747889022AK-BIOLON 1% 10mg SYG 1ml     000000000100144000070590
00998039615ALC-CYCLOGYL Drop 1% 15ml     000000000100072000015990
00065039605ALC-CYCLOGYL Drop 1% 5ml      000000000100072000011990
00998031515ALC-ISOPTO HOMATROPINE 5% 15ML000000000100045600013170
08065183905ALC-VISCOAT SYRINGE .5ml      000000000100244000074440
00023438510ALG-BETAGAN .5% 10ml          000000000100001200047130
00023438515ALG-BETAGAN .5% 15ml          000000000100002400068680
00023438505ALG-BETAGAN .5% 5ml           000000000100001200022660
00023791560ALG-ELIMITE Cream 60gm        000000000100001200024180
00023666365ALG-VITRAX Syg 30mg/ml .65ml  000000000100144000063990
00472141799ALP-ACETAMIN 1 100MG/ML 15ML  000000000100004800001110
00472003616ALP-CHLORHEX .12% LIQ 480ml   000000000100004800002910
00472136016ALP-ENULOSE 16OZ 10GM         000000000100004800004940
00472124492ALP-ERYTHROMY 2% SOL 2oz      000000000100004800002140
00472001204ALP-GUIATUSS AC Syr 4oz       000000000100004800001740
00472001116ALP-GUIATUSS DAC Syr 1 PINT   000000000100004800006180
00472103104ALP-GUIATUSS DM Syr 4oz       000000000100004800001290
00472042194ALP-GUIATUSS PE Syr 4oz       000000000100004800001380
00472162704ALP-PROMETH 10mg Syr 4oz      000000000100004800002780
00472128516ALP-SULFAMETH/TRI PED 1 Pint  000000000100000300007250
00472017956ALP-TRIPLE ANTIBIOTIC OINT 1oz000000000100004800001220
65234005010AMA-PHRENILIN TB 100S         000000000100240000029340
00000000000AMG-EPOGEN S10 1ml 10s        000000000100000201046030
55513014810AMG-EPOGEN S4 10ml            000000000100000100418410
55513082310AMG-EPOGEN S40 1ml 10s        000000000100006104396150
00000000000AMG-NEUPOG 300mcg 1ml 10s     000000000100000101532960
52152017202AMI-3-GUAIFEN CODEINE 100s    000000000100014400014680
52152003902AMI-4-AMIDRINE CP 100s        000000000100014400007180
52152003903AMI-4-AMIDRINE CP 250s        000000000100014400016430
52152018602AMI-4-PEMOLINE 37.5mg 100s    000000000100028800082340
52152016102AMI-4-PEMOLINE 37.5mg TB 100s 000000000100028800051180
52152016202AMI-4-PEMOLINE 75mg TB 100s   000000000100014400090620
52152019702AMI-4-PEMOLINE 75mg TB 100s   000000000100028800034930
52152016005AMI-4-PHENTER 30mg YLW 1000s  000000000100014400511720
52152016002AMI-4-PHENTER 30mg YLW 100s   000000000100028800054780
52152016705AMI-4-PHENTER 37.5mg CP 1000s 000000000100014400599900
52152016702AMI-4-PHENTER 37.5mg CP 100s  000000000100014400063750
52152015902AMI-4-PHENTER 37.5mg WHT 100s 000000000100014400074700
52152015905AMI-4-PHENTER 37.5mg WT 1000s 000000000100014400664700
52152013002AMI-AMI-TEX 600/120 SA TB 100s000000000100028800005000
52152013004AMI-AMI-TEX 600/120 SA TB 500s000000000100014400023680
52152013904AMI-AMIBID 30mg DM 500s       000000000100014400024060
52152013902AMI-AMIBID DM TB 100s         000000000100014400005000
52152010602AMI-AMIBID LA TB 100s         000000000100014400003560
52152010604AMI-AMIBID LA TB 500s         000000000100014400015560
52152002002AMI-AMIGESIC CP 750mg 100s    000000000100028800005310
52152002004AMI-AMIGESIC CP 750mg 500s    000000000100028800024310
52152001902AMI-AMIGESIC TB 500mg 100s    000000000100028800004060
52152001904AMI-AMIGESIC TB 500mg 500s    000000000100028800018430
52152011502AMI-BELLAMINE S TB 100s       000000000100014400009000
52152017902AMI-BETAXOLOL 10mg TB 100s    000000000100014400062180
52152018002AMI-BETAXOLOL 20mg TB 100s    000000000100014400092680
52152013605AMI-CARISOP TB 350mg 1000s    000000000100028800052430
52152013604AMI-CARISOP TB 350mg 100s     000000000100036000006370
52152013604AMI-CARISOP TB 350mg 500s     000000000100028800030370
52152013702AMI-CARISOP/ASPIRIN TB 100s   000000000100028800013120
52152013704AMI-CARISOP/ASPIRIN TB 500s   000000000100028800065000
52152001805AMI-CHLORDIAZ/CDP CP 1000s    000000000100028800023310
52152001802AMI-CHLORDIAZ/CDP CP 100s     000000000100036000003120
52152001804AMI-CHLORDIAZ/CDP CP 500s     000000000100028800012370
52152005302AMI-CHLORZOX 250mg TB 100s    000000000100014400004550
52152008602AMI-CHOL Mag/Tri 1000mg 100s  000000000100028800013120
52152008402AMI-CHOLINE Mag/Tri 500mg 100s000000000100036000009370
52152008502AMI-CHOLINE Mag/Tri 750mg 100s000000000100036000010620
52152001402AMI-DEXCHLOR MAL 4mg TB 100s  000000000100028800015570
52152001502AMI-DEXCHLOR MAL 6mg TB 100s  000000000100028800017680
52152024702AMI-GUAIF/PSEUDO 1200mg 120g  000000000100014400018040
52152024502AMI-GUAIFEN ER TB 1200mg 100s 000000000100014400009070
52152011802AMI-GUANFACINE TB 1mg 100s    000000000100028800009400
52152011804AMI-GUANFACINE TB 1mg 500s    000000000100028800046180
52152011902AMI-GUANFACINE TB 2mg 100s    000000000100028800012990
52152011904AMI-GUANFACINE TB 2mg 500s    000000000100024000062370
52152014302AMI-HYOSCYA .125mg TB 100s    000000000100014400002360
52152016302AMI-HYOSCYA .375mg CP 100s    000000000100014400007430
52152015602AMI-HYOSCYA .375mg TB 100s    000000000100014400005120
52152015502AMI-HYOSCYA SUBL .125mg 100s  000000000100014400002360
52152011705AMI-MECLIZINE CHEW 25mg 1000s 000000000100028800015260
52152011702AMI-MECLIZINE CHEW 25mg 100s  000000000100028800002490
52152011102AMI-METHENAM MAND .5gm TB 100s000000000100014400012960
52152011202AMI-METHENAM MAND 1gm TB 100s 000000000100014400022390
52152015005AMI-MUL VITA-BT FL .25mg 1000s000000000100028800017240
52152015002AMI-MULTI VITA-BT .25mg 100s  000000000100014400002030
52152003105AMI-MULTI VITA-BT .5mg 1000s  000000000100014400016550
52152003102AMI-MULTI VITA-BT .5mg 100s   000000000100014400001930
52152000105AMI-MULTI VITA-BT FL 1mg 1000s000000000100014400016370
52152000102AMI-MULTI VITA-BT FL 1mg 100s 000000000100014400001890
52152004814AMI-MULTI-RET TB 500s UD 60   000000000100014400008950
52152010502AMI-NALTREXONE 50mg TB 100s   000000000100014400207430
52152010530AMI-NALTREXONE 50mg TB 30s    000000000100014400066180
52152000305AMI-PHENAZOP 100mg TB 1000s   000000000100014400043750
52152000302AMI-PHENAZOP 100mg TB 100s    000000000100028800004680
52152000405AMI-PHENAZOP 200mg TB 1000s   000000000100014400064990
52152000402AMI-PHENAZOP 200mg TB 100s    000000000100028800006990
52152024802AMI-PRENATAL 3 TB 100s        000000000100048000016870
52152024804AMI-PRENATAL FORMULA 3 500s   000000000100014400079000
52152017802AMI-PRENATAL PLUS 27mg 100s   000000000100028800005050
52152017120AMI-PRENATAL Rx TB 200s       000000000100028800007010
52152017104AMI-PRENATAL Rx TB 500s       000000000100028800017420
52152017711AMI-PRENATAL Z FRM ADV UD     000000000100028800008710
52152012705AMI-SOD FLUOR .5mg TB 1000s   000000000100014400015040
52152012805AMI-SOD FLUOR CHW 1mg 1000s   000000000100028800016280
52152000202AMI-TRI-VITA 1mg FLUOR TB 100s000000000100014400003550
52152016602AMI-TRIMETH 250mg CP 100s     000000000100014400012690
52152006002AMI-URSODIOL 300mg CP 100s    000000000100014400126250
52152007802AMI-VITACON FORTE CP 100s     000000000100036000004700
52152007804AMI-VITACON FORTE CP 500s     000000000100028800024120
52152007602AMI-VITAPLEX F/C TB 100s      000000000100048000003950
52152007604AMI-VITAPLEX F/C TB 500s      000000000100018000017900
52152007702AMI-VITAPLEX PLUS TB 100s     000000000100036000004840
52152007704AMI-VITAPLEX Plus TB 500s     000000000100014400022950
52152003205AMI-YOHIMBINE 5.4mg TB 1000s  000000000100018000027490
00517391025AMR-CALCIUM GLUC 10% 10ml 25s 000000000100002700013750
00517003225AMR-CYANO 1000mcg/ml 10ml 25s 000000000100003600023500
00517460125AMR-GLYCOP .2mg/ml 1ml 25s    000000000100003100012750
00517265025AMR-MAG SULF 50% 50ml 25s     000000000100001200036500
00517003410AMR-NEOSTIGMINE 1:2000 10ml 10000000000100003300008000
00517480510AMR-NITROGLY 25mg/5ml 5ml 10s 000000000100003100032500
00517200025AMR-NUTRILYTE II 100ml 25s    000000000100001200049990
00517400205AMR-PAPAVERINE HCL 30mg/ml 2ml000000000100002700012990
00517029925AMR-PHENYLEPH 1% 1ml 25s      000000000100003300029990
00517209625AMR-SOD ACET 2meq/ml 20ml 25s 000000000100003200029990
00517301025AMR-STERILE WATER 10ml 25s    000000000100000100018330
06332310365APP-CISPLATIN 100mg 100ml vl  000000000100001200168770
06332310364APP-CISPLATIN 200mg 200ml vl  000000000100048000299000
06332310365APP-CISPLATIN 50mg 50ml vl    000000000100048000099000
06332347101APP-HALOPERIDOL DEC 100mg 1ml 000000000100007200017990
05276927076ARC-PANGLOBULIN 6gm vl        000000000100010000333000
00310060060AST-NOLVADEX 10mg Tab 60s     000000000100012000095690
00310060430AST-NOLVADEX 20mg Tab 30s     000000000100004800095690
00310060490AST-NOLVADEX 20mg TB 90s      000000000100001200287100
00186103501AST-SENSORCAINE .5% MDV 50ml  000000000100005000008080
00186103701AST-SENSORCAINE .75% 30ml     000000000100090000004730
00186033001AST-XYLOCAINE 2% 30gm         000000000100036000015010
00186016001AST-XYLOCAINE/EPI 2% MDV 50ml 000000000100080000005220
49669162301ATC-VENOGLOBLN S 10gm VL 100ml000000000100020000590000
49669162401ATC-VENOGLOBUL S 20gm VL 200ml000000000100003001180000
00088120305AVE-ANZEMET 100mg 5s          000000000100026400301780
00088120329AVE-ANZEMET 100mg BP 5s       000000000100001200301460
00088120229AVE-ANZEMET 50mg BP 5s        000000000100002400227440
00088120243AVE-ANZEMET 50mg UD 10s       000000000100002400454940
00088120865AVE-ANZEMET Inj 12.5mg Amp 6s 000000000100072000072220
00075245153AVE-DDAVP 4mcg/ml 10ml Vial Ea000000000100009600164990
00075245101AVE-DDAVP 4mcg/ml 1ml Amp 10s 000000000100009600164990
00075800120AVE-TAXOTERE 20mg .5ml SDV    000000000100000600255170
00075800180AVE-TAXOTERE 80mg 2ml SDV     000000000100000401020700
00555003305BAR-4-CHLORDIAZ 10mg 1000s    000000000100036000037540
00555003302BAR-4-CHLORDIAZ 10mg 100s     000000000100036000005520
00555015902BAR-4-CHLORDIAZ 25mg 100s     000000000100036000006390
00555015904BAR-4-CHLORDIAZ 25mg 500s     000000000100036000026210
00555015802BAR-4-CHLORDIAZ 5mg 100s      000000000100036000007170
00555015804BAR-4-CHLORDIAZ 5mg 500s      000000000100036000032100
00555016405BAR-4-DIAZEPAM 10mg 1000s     000000000100036000034300
00555016402BAR-4-DIAZEPAM 10mg 100s      000000000100036000003610
00555016305BAR-4-DIAZEPAM 2mg 1000s      000000000100036000025340
00555016302BAR-4-DIAZEPAM 2mg 100s       000000000100036000002670
00555036305BAR-4-DIAZEPAM 5mg 1000s      000000000100036000026390
00555036302BAR-4-DIAZEPAM 5mg 100s       000000000100036000002780
00555044302BAR-ACETOHEXAMIDE 500mg 100s  000000000100036000084760
00555058502BAR-CHLORZOXAZONE 500mg 100s  000000000100036000004770
00555058504BAR-CHLORZOXAZONE 500mg 500s  000000000100036000022060
00555063402BAR-DANAZOL 100mg 100s        000000000100036000149280
00555063502BAR-DANAZOL 200mg 100s        000000000100036000248740
00555063509BAR-DANAZOL 200mg 60s         000000000100036000169270
00555063302BAR-DANAZOL 50mg 100s         000000000100036000099490
00555005902BAR-DIPEHNHYDRAMINE 50MG      000000000100036000004400
00555025204BAR-DIPYRIDAMOLE 25mg 500s    000000000100036000044710
00555025205BAR-DIPYRIDAMOLE 25s 1000s    000000000100036000086700
00555028505BAR-DIPYRIDAMOLE 50mg 1000s   000000000100036000105580
00555028502BAR-DIPYRIDAMOLE 50mg 100s    000000000100036000012090
00555028504BAR-DIPYRIDAMOLE 50mg 500s    000000000100036000054420
00555028602BAR-DIPYRIDAMOLE 75gm 100s    000000000100036000012700
00555028604BAR-DIPYRIDAMOLE 75gm 500s    000000000100036000057160
00555028605BAR-DIPYRIDAMOLE 75mg 1000s   000000000100036000110890
00555021522BAR-E.E.S GRAN 200mg/5ml 100ml000000000100036000003730
00555021523BAR-E.E.S GRAN 200mg/5ml 200ml000000000100036000007370
00555087702BAR-FLUOXETINE 20mg 100s      000000000100036000028500
00555032402BAR-HYDROXYZINE 100mg 100s    000000000100036000012190
00555006605BAR-ISONIAZID 100mg 1000s     000000000100036000033530
00555006602BAR-ISONIAZID 100mg 100s      000000000100036000003360
00555007105BAR-ISONIAZID 300mg 1000s     000000000100036000053200
00555007102BAR-ISONIAZID 300MG TB 100S   000000000100036000005600
00555007101BAR-ISONIAZID 300MG TB 30S    000000000100036000002600
00555905058BAR-KARIVA .15mg 6x28         000000000100036000108840
00555901458BAR-LESSINA .1mg 6x28         000000000100036000112770
00555034502BAR-LITHIUM 300mg 100s        000000000100036000023360
00555057245BAR-METHOTREXATE 2.5mg 4x2    000000000100036000010900
00555057246BAR-METHOTREXATE 2.5mg 4x3    000000000100036000016200
00555057247BAR-METHOTREXATE 2.5mg 4x4    000000000100036000021230
00555057248BAR-METHOTREXATE 2.5mg 4x5    000000000100036000026820
00555057249BAR-METHOTREXATE 2.5mg 4x6    000000000100036000032400
51285030121BAR-METHYLPRED 4MG TB 21s     000000000100096000003760
00555001105BAR-TETRACYCLINE 250mg 1000s  000000000100036000029990
00555001005BAR-TETRACYCLINE 500mg 1000s  000000000100036000058780
00555001002BAR-TETRACYCLINE 500mg 100s   000000000100036000006140
00555073302BAR-TRAZODONE 500mg 100s      000000000100036000241460
00338107302BAX-DOBUT HCL/D5W 250ml 2B0791000000000100014400225000
00338100702BAX-DOPAMINE 250ml 18s 2B0842 000000000100014400140000
00338049048BAX-INTRA 10% 100ml 10s 1A6019000000000100028800074100
00338049002BAX-INTRA 10% 250ml 10s 1A6012000000000100028800084990
00338049003BAX-INTRA 10% 500ml 10s 1A6013000000000100028800089990
00338049148BAX-INTRA 20% 100ml 10s 1A6029000000000100028800098990
00338049102BAX-INTRA 20% 250ml 10s 1A6022000000000100028800099990
00338049103BAX-INTRA 20% 500ml 10s 1A6023000000000100028800138990
00338049141BAX-INTRA 20% 50ml 10s 1A6028 000000000100028800108990
64193025050BAX-IVEEGAM VL 5gm            000000000100200000360000
00338104902BAX-NITR/D5W 50mg 250ml 1A0694000000000100014400059990
00338070341BAX-POT CHL 20MEQ 24S 2B0822  000000000100014400053000
00338070348BAX-POT CHL 40MEQ 24S 2B0824  000000000100014400053000
00026063512BAY-BAYGAM IGIM SD 10ml vl    000000000100009600092160
00026063504BAY-BAYGAM IGIM SD 2ml vl     000000000100014400024000
00026063602BAY-BAYHEP B 1ml              000000000100200000095990
00026063605BAY-BAYHEP B 5ml              000000000100064900499990
00026061802BAY-BAYRAB 2ml Vial Ea        000000000100014400119990
00026063102BAY-BAYRHO-D 300U Syg Ea      000000000100100000082990
00192064871BAY-GAMIMUNE N 10% 10gm 100ml 000000000100048000670000
00192064824BAY-GAMIMUNE N 10% 20gm 200ml 000000000100048001350000
00026064812BAY-GAMIMUNE N 1gm VL 10ml    000000000100010000072670
00026064820BAY-GAMIMUNE N 5gm VL 50ml    000000000100048000363370
00270131525BDI-ISOVUE 300 61% VL 30ml 10s000000000100000600314220
00270131637BDI-ISOVUE 370 BTL 10x150ml   000000000100007200821650
00270131702BDI-ISOVUE 51% BTL 10x100ml   000000000100002400579380
00270131535BDI-ISOVUE 61% BTL 10x100ml   000000000100014400607540
00270131530BDI-ISOVUE 61% VL 10x50ml     000000000100028800352440
00270131635BDI-ISOVUE 76% BTL 10x100ml   000000000100028800674290
00270131640BDI-ISOVUE 76% BTL 10x200ml   000000000100006001116080
00270131630BDI-ISOVUE 76% VL 10x50ml     000000000100016800344960
00270131641BDI-ISOVUE MP 370 76% B 200ml 000000000100002401044620
00270141111BDI-ISOVUE-M 41% VL 10x10ml   000000000100004800409980
00270141125BDI-ISOVUE-M 41% VL 10x20ml   000000000100013200487630
00270111102BDI-PROHANCE 3mg/ml VL 5x15ml 000000000100009600300540
55390047510BED-3-KETAMINE 500mg 10ml 10s 000000000100028800090000
55390018301BED-4-BUTORPHANOL 1mg 1ml 10s 000000000100028800067500
55390018510BED-4-BUTORPHANOL 20mg 10ml Ea000000000100028800065000
55390018401BED-4-BUTORPHANOL 2mg 1ml 10s 000000000100028800072500
55390018402BED-4-BUTORPHANOL 4mg 2ml 10s 000000000100028800127500
55390012510BED-4-MIDAZOL 1mg/ml 10ml 10s 000000000100028800028230
55390013702BED-4-MIDAZOL 1mg/ml 2ml 10s  000000000100028800007050
55390013705BED-4-MIDAZOL 1mg/ml 5ml 10s  000000000100028800014110
55390012610BED-4-MIDAZOL 5mg/ml 10ml 10s 000000000100028800129410
55390013801BED-4-MIDAZOL 5mg/ml 1ml 10s  000000000100028800014110
55390013802BED-4-MIDAZOL 5mg/ml 2ml 10s  000000000100028800028230
55390012605BED-4-MIDAZOL 5mg/ml 5ml 10s  000000000100028800064700
55390046001BED-ACETAZOLAM 500mg 10ml Ea  000000000100028800023530
55390061320BED-ACYCLOVIR 1gm 20ml 10s    000000000100028800099990
55390061210BED-ACYCLOVIR 500mg 10ml 10s  000000000100028800049990
55390050605BED-ALPROST 500mcg 1ml Amp 5s 000000000100014400484500
55390050610BED-ALPROST 500mcg 1ml Vial Ea000000000100028800150000
55390022604BED-AMIKACIN 1gm 4ml 10s      000000000100028800125450
55390022602BED-AMIKACIN 500mg 2ml 10s    000000000100028800062990
55390022502BED-AMIKACIN PED 100mg 2ml 10s000000000100028800062990
55390010310BED-ATRACUR 100mg 10ml MDV 10s000000000100028800176470
55390010205BED-ATRACUR 50mg 5ml SDV 10s  000000000100028800112500
55390060020BED-AZATHIOPRINE 100mg 20ml Ea000000000100028800065620
55390050002BED-BUMETAN .5mg 2ml 10s      000000000100028800012570
55390050005BED-BUMETAN 1mg 4ml 10s       000000000100028800012990
55390050010BED-BUMETAN 2.5mg 10ml 10s    000000000100028800047100
55390078410BED-CAF/SOD BEN 500mg 2ml 10s 000000000100001200039990
55390028110BED-CERUBIDINE 20mg vl 10s    000000000100004801331520
55390040320BED-CHLOROP USP 2% 20ml Ea    000000000100028800011290
55390040420BED-CHLOROP USP 3% 20ml Ea    000000000100028800012150
55390011299BED-CISPLATIN 100mg 100ml Ea  000000000100028800133000
55390011250BED-CISPLATIN 50mg 50ml Ea    000000000100028800066500
55390012401BED-CLADRIBINE 10mg 10ml Ea   000000000100014400436050
55390060502BED-COLCHICINE 1mg 2ml 10s    000000000100060000052500
55390012210BED-CYCLOSPORINE 250mg 5ml 10s000000000100028800233330
55390013110BED-CYTARABINE 100mg vl 10s   000000000100060000029070
55390013301BED-CYTARABINE 1gm vl ea      000000000100060000018880
55390013401BED-CYTARABINE 2gm vl ea      000000000100060000038880
55390013210BED-CYTARABINE 500mg vl 10s   000000000100060000084060
55390010810BED-DAUNORUBICIN 20mg 4ml 10s 000000000100004801331520
55390010801BED-DAUNORUBICIN 50mg 10ml Ea 000000000100028800342780
55390056530BED-DILTIAZEM 125mg 25ml 10s  000000000100060000183350
55390056505BED-DILTIAZEM 25mg 5ml 10s    000000000100060000031760
55390056510BED-DILTIAZEM 50mg 10ml       000000000100060000063520
55390055510BED-DIPYRIDAMOLE 10mg 2ml 10s 000000000100060000045000
55390055501BED-DIPYRIDAMOLE 50mg 10ml Ea 000000000100060000022500
55390056090BED-DOBUTAM 12.5mg/ml 20ml 10s000000000100028800031180
55390023510BED-DOXORUBICIN 10mg 5ml 10s  000000000100014400096610
55390023110BED-DOXORUBICIN 10mg 6ml 10s  000000000100014400096610
55390023801BED-DOXORUBICIN 200mg 100ml Ea000000000100004800156000
55390023610BED-DOXORUBICIN 20mg 10ml 10s 000000000100060000212500
55390023210BED-DOXORUBICIN 20mg 20ml 10s 000000000100014400188880
55390023701BED-DOXORUBICIN 50mg 25ml Ea  000000000100028800044440
55390023301BED-DOXORUBICIN 50mg 50ml Ea  000000000100028800041970
55390001010BED-ENALAPRILAT 1.25mg 1ml 10s000000000100090000028950
55390001110BED-ENALAPRILAT 2.5mg 2ml 10s 000000000100060000057900
55390087501BED-EPHEDRINE 50mg 1ml 25s    000000000100060000025310
55390076210BED-ETOMIDATE 20mg 10ml 10s   000000000100001200129990
55390076320BED-ETOMIDATE 40mg 20ml 10s   000000000100060000207470
55390029101BED-ETOPOSIDE 100mg 5ml Ea    000000000100028800010620
55390029301BED-ETOPOSIDE 1gm 50ml Ea     000000000100028800098000
55390029201BED-ETOPOSIDE 500mg 25ml Ea   000000000100028800056140
55390002701BED-FAMOTIDINE 200mg 20ml Ea  000000000100120000010000
55390002910BED-FAMOTIDINE 20mg 2ml 10s   000000000100160000011250
55390002810BED-FAMOTIDINE 40mg 4ml 10s   000000000100060000022500
55390002601BED-FAMOTIDINE 500mg 50ml Ea  000000000100060000028120
55390013501BED-FLOXURIDINE 500mg 5ml Ea  000000000100060000133330
55390046505BED-FLUPHENAZINE 25mg 5ml Ea  000000000100028800013990
55390041010BED-FOLIC ACID 50mg 10ml Ea   000000000100028800007950
55390000410BED-GLUCAGEN 1mg 2ml 10s      000000000100014400576450
55390000401BED-GLUCAGEN Diag Kit 1mg Ea  000000000100060000057640
55390041301BED-HALIPERIDOL 100mg 1ml 10s 000000000100060000187500
55390041201BED-HALIPERIDOL 50mg 1ml 10s  000000000100060000093750
55390041205BED-HALOPERIDOL 250mg 5ml Ea  000000000100060000046870
55390041305BED-HALOPERIDOL 500mg 5ml Ea  000000000100060000093750
55390014701BED-HALOPERIDOL 50mg 10ml ea  000000000100060000055480
55390014710BED-HALOPERIDOL 5mg 1ml 10s   000000000100060000057800
55390004210BED-INAMRINONE 100mg 20ml Ea  000000000100060000057500
55390048001BED-KETOROLAC 15mg 1ml 10s    000000000100060000028950
55390048110BED-KETOROLAC 300mg 10ml 10s  000000000100060000193800
55390048101BED-KETOROLAC 30mg 1ml 10s    000000000100120000030990
55390048102BED-KETOROLAC 60mg 2ml 10s    000000000100060000034740
55390005210BED-LEUCOVORIN 100mg 15ml 10s 000000000100028800034110
55390005301BED-LEUCOVORIN 200mg 30ml Ea  000000000100028800009110
55390005401BED-LEUCOVORIN 350mg 50ml Ea  000000000100028800017500
55390000901BED-LEUCOVORIN 500mg 50ml Ea  000000000100028800021250
55390005110BED-LEUCOVORIN 50mg 10ml 10s  000000000100028800025880
55390013605BED-LEVOCARNITINE 1gm 5ml 10s 000000000100028800281250
55390088010BED-LEVOTHYROX 200mcg 10ml Ea 000000000100028800003220
55390088110BED-LEVOTHYROX 500mcg 10ml Ea 000000000100028800003220
55390003210BED-METHOTREX 100mg 4ml 10s   000000000100028800035620
55390003310BED-METHOTREX 200mg 8ml 10s   000000000100028800047500
55390003410BED-METHOTREX 250mg 10ml 10s  000000000100028800055990
55390003110BED-METHOTREX 50mg 2ml 10s    000000000100028800031250
55390025201BED-MITOMYCIN 20mg 50ml Ea    000000000100060000137500
55390025301BED-MITOMYCIN 40mg 100ml Ea   000000000100028800242250
55390025101BED-MITOMYCIN 5mg 15ml Ea     000000000100060000047050
55390012701BED-PAMIDRONATE 30mg VL 10ml  000000000100024000221550
55390012901BED-PAMIDRONATE 90mg VL 10ml  000000000100014400664680
55390010710BED-PAPAVERINE 300mg 10ml Ea  000000000100028800004940
55390011301BED-PHENTOLAM MESY 5mg 2ml Ea 000000000100028800031110
55390013901BED-POLYMIXIN B 500KU 10ml Ea 000000000100028800007720
55390012301BED-RIFAMPIN 600mg 30ml Ea    000000000100028800060070
55390003010BED-THIOTEPA 15mg 2ml vial    000000000100028800095050
55390009110BED-VINBLASTINE 10mg 10ml 10s 000000000100028800082350
06226921024BR-BENZTROP 2mg MESY 100s     000000000100036000003750
00015301020BR-BLENOXANE 15un vl       AMS000000000100028800160000
00015306301BR-BLENOXANE 30un vl       AMS000000000100028800318180
00015053941BR-CYTOXAN LYOPH 100mg 12s AMS000000000100036000040550
00015054841BR-CYTOXAN LYOPH 1gm 6s    AMS000000000100036000070000
00015054641BR-CYTOXAN LYOPH 200mg 12s AMS000000000100036000046990
00015054941BR-CYTOXAN LYOPH 2gm 6s    AMS000000000100001200109990
00015054741BR-CYTOXAN LYOPH 500mg 12s AMS000000000100036000088800
05977200273BR-ESTRADIOL 2mg tab 100s     000000000100288000016000
00087607111BR-GLUCOPHAGE 1000mg TB 100s  000000000100001200127990
00003083050BR-HYDREA 500mg 100s          000000000100144000054340
00015059501BR-MEGACE 20mg 100s           000000000100028800024990
00015059641BR-MEGACE 40mg 100s           000000000100060000043180
00015050842BR-MEGACE ORAL 40mg 8oz       000000000100000400129130
00000000000BR-METHYLPHENIDATE 10mg 1000s 000000000100288000185360
00000000000BR-METHYLPHENIDATE 10mg 100s  000000000100288000019510
00000000000BR-METHYLPHENIDATE 20mg 1000s 000000000100288000263540
00000000000BR-METHYLPHENIDATE 20mg 100sER000000000100288000061080
00000000000BR-METHYLPHENIDATE 20mg 100sIR000000000100288000027740
00000000000BR-METHYLPHENIDATE 5mg 1000s  000000000100288000129460
00000000000BR-METHYLPHENIDATE 5mg 100s   000000000100288000013620
00000000000BR-METHYLPRED 4mg TB 100s     000000000100288000011960
00000000000BR-METHYLPRED 4mg TB 21s      000000000100288000002560
00015026324BR-METOCLOP 5MG TB 100'S EA   000000000100288000005330
00015026329BR-METOCLOP 5MG TB 500'S EA   000000000100288000025400
00015300220BR-MUTAMYCIN 20mg vl       AMS000000000100028800160000
00015305920BR-MUTAMYCIN 40mg vl       AMS000000000100028800350000
00015300120BR-MUTAMYCIN 5mg vl        AMS000000000100028800059990
00015321430BR-PARAPLATIN 150mg vl        000000000100002400280150
00015335222BR-RUBEX 50mg AMS             000000000100001200049000
00015335322BR-RUBEX VL 100mg AMS         000000000100028800112000
00015347911BR-TAXOL 300mg MDV 50ml       000000000100000401415710
00015347530BR-TAXOL 30mg VL 5ml          000000000100000300141570
00015309520BR-VEPESID 100mg 5ml ea    AMS000000000100096000055000
00015308420BR-VEPESID 150mg 7.5ml ea  AMS000000000100048000020000
00015306220BR-VEPESID 1gm 50ml ea     AMS000000000100028800135000
00015306120BR-VEPESID 500mg 25ml ea   AMS000000000100028800069000
05977203867BR-WARFARIN SOD 7.5mg 100s    000000000100072000056960
51991000140BRK-MELATONIN 3mg TB 60s      000000000100004800002500
09649924030BRK-PRODIUM 30s               000000000100007200003800
62794015102BRT-MENTAX 1% Cream 15gm      000000000100003600026950
61772060051CHR-AMVISC Plus 16mg/ml .5ml  000000000100060000077440
61772060081CHR-AMVISC Plus 16mg/ml .8ml  000000000100060000099000
61772059051CHR-AMVISC Syg 12mg/ml .5ml   000000000100048000057060
61772059081CHR-AMVISC Syg 12mg/ml .8ml   000000000100010500083000
05876813015CIB-HYPOTEARS 15ml drps       000000000100057600006780
58768061010CIB-LIVOSTIN o/s .05% 10ml    000000000100999900051970
58768061005CIB-LIVOSTIN o/s .05% 5ml     000000000100999900033580
58768077352CIB-MIOCHOL E Sol 2ml         000000000100004800025900
58768077353CIB-MIOCHOL E System Pack     000000000100999900027610
58768000102CIB-OCUPRESS 1% o/s 10ml      000000000100999900041290
00066009502DER-HYTONE CRM 2.5% 2 OZ      000000000100024000010750
65430010101DEX-DEXALONE 30mg GCP 30      000000000100014400009210
49502018130DEY-ACETYLCY sol 10% 30ml 3s  000000000100060000020710
49502018230DEY-ACETYLCY sol 20% 30ml 3s  000000000100060000023830
49502069703DEY-ALBUTEROL .083mg 3ml 25s  000000000100480000004050
49502069733DEY-ALBUTEROL .083mg 3ml 30s  000000000100240000004880
49502069760DEY-ALBUTEROL .083mg 3ml 60s  000000000100480000009750
49502010501DEY-ALBUTEROL .5mg 20ml       000000000100480000003300
49502068912DEY-CROMOLYN NEB 120s         000000000100060000020710
49502068902DEY-CROMOLYN NEB 60s          000000000100060000010360
49502068503DEY-IPRAT BROM 2.5ml 25s      000000000100480000008100
49502068533DEY-IPRAT BROM 2.5ml 30s      000000000100240000010800
49502068560DEY-IPRAT BROM 2.5ml 60s      000000000100480000019410
49502083003DEY-SOD CHL .9% 3ml 100s      000000000100240000008890
49502083005DEY-SOD CHL .9% 5ml 100s      000000000100240000008890
49502064115DEY-SOD CHL 10% 15ml 50s      000000000100060000030580
49502064015DEY-SOD CHL 3% 15ml 50s       000000000100001200014990
64455000901DJ-FENESIN 600mg 100s         000000000100072000024030
05128560105DM-3-APAP/COD. 300/30mg 1000s 000000000100014400050000
05128560102DM-3-APAP/COD. 300/30mg 100s  000000000100014400006000
05128560202DM-4-APAP/COD. 300/60mg 100s  000000000100014400011100
05128560204DM-4-APAP/COD. 300/60mg 500s  000000000100014400051900
05128536402DM-4-DURADRIN CAPS 100s       000000000100072000018930
05128557628DM-APRI tab 6x28              000000000100002400099000
05128550202DM-ESTRADIOL 1mg 100s         000000000100072000008190
05128541702DM-GUAIFEN 600mg 100s         000000000100072000010200
05128542002DM-GUAIFEN DM 600/30mg 100s   000000000100072000011200
05128589802DM-GUAIFEN/PSEUDO 120/600mg   000000000100014400018000
05128530102DM-METHYLPRED 4mg 100s        000000000100072000017040
00056017475DUP-COUMADIN UD 10mg 100s     000000000100001000027150
00056016975DUP-COUMADIN UD 1mg 100s      000000000100020000029990
00056017075DUP-COUMADIN UD 2mg 100s      000000000100020000029990
00056018875DUP-COUMADIN UD 3mg 100s      000000000100013000023560
00056017275DUP-COUMADIN UD 5mg 100s      000000000100035000039990
00056018975DUP-COUMADIN UD 6mg 100s      000000000100001000025300
00056017375DUP-COUMADIN UD 7.5mg 100s    000000000100001000026170
51479003660DURA-CECLOR CD 375mg TB 60s   000000000100024000205340
51479003560DURA-CECLOR CD 500mg 60s      000000000100644400205340
51479003503DURA-CECLOR CDPAK 500mg tab   000000000100099600149480
51479043001DURA-CUTIVATE .05% CRM 30gm   000000000100002400025140
51479001401DURA-FENESIN DM TABS 100s     000000000100072000019990
05817722304ETX-3-CODEINE GUAIFEN 100's   000000000100028800028010
05817787707ETX-3-HISTINEX HC 16oz        000000000100028800007600
05817787712ETX-3-HISTINEX HC 32oz        000000000100028800014440
05817788307ETX-3-HISTINEX PV 16oz        000000000100028800007470
05817788107ETX-3-HYDRO BITARTE/GUAIFEN 16000000000100028800005890
05817788112ETX-3-HYDRO BITRATE/GUAIFEN 32000000000100028800011210
05817789007ETX-3-HYDRO-TUSSIN HD 16oz    000000000100028800013730
58177090907ETX-3-HYDROCOD BIT W/ACE 16oz 000000000100028800015290
05817735020ETX-ADV NATALCARE 9x10UD      000000000100028800017560
05817704211ETX-ANEMAGEN cap 100mg 10x10UD000000000100028800014550
05817704211ETX-ANEMAGEN FA cap 10x10UD   000000000100028800024970
05817701904ETX-BROMFENEX cap 100's       000000000100028800011540
05817702004ETX-BROMFENEX PD cap 100's    000000000100028800010780
58177026504ETX-BUSPIRONE HYDRO 10mg 100s 000000000100028800024960
58177026508ETX-BUSPIRONE HYDRO 10mg 500s 000000000100028800118580
58177030904ETX-BUSPIRONE HYDRO 15mg 100s 000000000100028800027460
58177030908ETX-BUSPIRONE HYDRO 15mg 500s 000000000100028800130450
58177026404ETX-BUSPIRONE HYDRO 5mg 100s  000000000100028800018770
58177026408ETX-BUSPIRONE HYDRO 5mg 500s  000000000100028800089160
05817704423ETX-CONISON cap 6x10UD        000000000100028800014990
05817700204ETX-DISOPYRAMIDE PHOS 100's   000000000100028800062080
05817726604ETX-DOXAZOSIN MESYLATE 1mg 100000000000100028800014370
05817726704ETX-DOXAZOSIN MESYLATE 2mg 100000000000100028800014370
05817726804ETX-DOXAZOSIN MESYLATE 4mg 100000000000100028800015090
05817726904ETX-DOXAZOSIN MESYLATE 8mg 100000000000100028800015850
05817780402ETX-ETHEZYME Ointment 1oz     000000000100028800029110
05817702409ETX-FE-TINIC 150mg 1000's     000000000100028800145350
05817702411ETX-FE-TINIC 150mg 10x10UD    000000000100028800014530
05817702511ETX-FE-TINIC 150mg FORTE      000000000100028800014130
05817721304ETX-GUAIFENEX DM 600mg 100s   000000000100028800006530
05817730804ETX-GUAIFENEX G 1200mg 100s   000000000100028800013370
05817720504ETX-GUAIFENEX LA 600mg 100s   000000000100028800004940
05817720508ETX-GUAIFENEX LA 600mg 500s   000000000100028800021970
05817720804ETX-GUAIFENEX PSE 120 600mg   000000000100028800007550
05817721404ETX-GUAIFENEX PSE 60 600mg    000000000100028800006620
05817727617ETX-GUAIFENEX Rx 14-day tab   000000000100028800013940
05817727717ETX-GUAIFENEX Rx DM 14-day tab000000000100028800015530
05817722704ETX-HISTA-VENT DA tabs 100s   000000000100028800026590
05817788007ETX-HISTINEX DM 16oz          000000000100028800008940
05817788012ETX-HISTINEX DM 32oz          000000000100028800016990
05817790607ETX-HYDRO-TUSSIN DM 16oz      000000000100028800014230
05817780302ETX-HYDROCORT/LODOQNOL 1% CRM 000000000100028800019660
05817780202ETX-HYDROQUIN 4% CRM W/SUNSCRN000000000100028800017850
05817780102ETX-HYDROQUINONE 4% CREAM     000000000100028800017850
05817701704ETX-HYOSCYAMINE cap .375mg 100000000000100028800013530
05817727404ETX-HYOSCYAMINE oral .125 100s000000000100028800006590
05817725504ETX-HYOSCYAMINE sub .125 100s 000000000100028800007070
05817723704ETX-HYOSCYAMINE tab .375mg 100000000000100028800013540
05817720104ETX-ISOSORB MN tabs 120mg 100s000000000100028800089900
05817722204ETX-ISOSORB MN tabs 30mg 100s 000000000100028800046360
05817723804ETX-ISOSORB MN tabs 60mg 100s 000000000100028800037050
05817730104ETX-KETOROLAC tab 10mg 100s   000000000100028800040840
05817730204ETX-NAPROXEN EC 375mg 100's   000000000100028800031970
05817730304ETX-NAPROXEN EC 500mg 100's   000000000100028800037190
05817732220ETX-NATALCARE CFE 60mg UD 9x10000000000100048000011880
05817725811ETX-NATALCARE FORTE UD 10x10  000000000100028800013770
05817725711ETX-NATALCARE PIC tab UD 10x10000000000100028800013770
05817722504ETX-NATALCARE PLUS tab 100s   000000000100028800005220
05817731705ETX-NATALCARE RX tab 100s     000000000100028800006600
05817732904ETX-NATATAB CFE 100's         000000000100028800011390
05817732811ETX-NATATAB CFE 10x10UD       000000000100028800016070
05817700404ETX-NITROGLYC ER 2.5mg 100s   000000000100028800003660
05817700403ETX-NITROGLYC ER 2.5mg 60s    000000000100028800002680
05817700504ETX-NITROGLYC ER 6.5mg 100s   000000000100028800004870
05817700503ETX-NITROGLYC ER 6.5mg 60s    000000000100028800003090
05817700604ETX-NITROGLYC ER 9mg 100s     000000000100028800004980
05817700603ETX-NITROGLYC ER 9mg 60s      000000000100028800003710
05817732304ETX-NITROQUICK sub .3mg 100s  000000000100072000004310
05817732404ETX-NITROQUICK sub .4mg 100s  000000000100072000004310
05817732418ETX-NITROQUICK sub .4mg 4x25s 000000000100072000009780
05817732504ETX-NITROQUICK sub .6mg 100s  000000000100028800004310
05817735126ETX-NUTRINATE chew tab 90's   000000000100028800019420
05817702904ETX-PANGESTYME CN10 100s      000000000100048000038980
05817703004ETX-PANGESTYME CN20 100s      000000000100048000057780
05817703104ETX-PANGESTYME EC 100s        000000000100048000016130
05817703106ETX-PANGESTYME EC 250s        000000000100048000037670
05817702804ETX-PANGESTYME MT16 100s      000000000100048000048230
05817704804ETX-PANGESTYME UL12 100s      000000000100048000034630
05817704904ETX-PANGESTYME UL18 100s      000000000100048000054000
05817705004ETX-PANGESTYME UL20 100s      000000000100048000060170
05817700111ETX-POT CHLOR 10meq UD 10x10  000000000100006000013700
05817720209ETX-POT CHLOR 20meq 1000s     000000000100036000242080
05817720211ETX-POT CHLOR 20meq UD        000000000100036000030150
05817700109ETX-POT CHLOR ER 10meq 1000s  000000000100072000096790
05817700104ETX-POT CHLOR ER 10meq 100s   000000000100072000010720
05817700108ETX-POT CHLOR ER 10meq 500s   000000000100072000050940
05817720204ETX-POT CHLOR TB 20meq 100s   000000000100036000024820
05817720208ETX-POT CHLOR TB 20meq 500s   000000000100036000123110
05817721211ETX-PRENATAL MR 90 tab 10x10UD000000000100028800013980
05817731604ETX-PRENATAL MTR 100s         000000000100028800014370
05817721611ETX-PRENATAL Rx tab 10x10UD   000000000100028800010830
05817727511ETX-PRENATAL Z AD tab 10x10UD 000000000100028800014150
58177033104ETX-PROPAFEN 150mg 100s       000000000100028800071730
58177033111ETX-PROPAFEN 150mg UD 100s    000000000100028800101700
58177033204ETX-PROPAFEN 225mg 100s       000000000100028800101310
58177033304ETX-PROPAFEN 300mg 100s       000000000100028800182960
05817704504ETX-PSEU-VENT IR cap 100s     000000000100028800011160
05817704604ETX-PSEU-VENT-PED IR cap 100s 000000000100028800010310
05817702204ETX-QUADRA-HIST D ER cap 100s 000000000100028800025070
05817702304ETX-QUADRA-HIST D PED ER cap  000000000100028800017950
05817703704ETX-TRIMETHOBENZ 250mg cap 100000000000100028800017050
05817729211ETX-ULTRA NATALCARE 10x10UD   000000000100048000015190
61314030302FAL-ATROPINE 1% O/S 15ml      000000000100036000002010
61314030301FAL-ATROPINE SULF 1% O/S 5ml  000000000100036000001720
61314023810FAL-CARTEOLOL 1% 10ml         000000000100036000020970
61314023510FAL-DIPIVEFRIN .1% O/S 10ml   000000000100036000003230
61314023515FAL-DIPIVEFRIN .1% O/S 15ml   000000000100036000005380
61314023505FAL-DIPIVEFRIN .10% 5ML       000000000100036000002630
61314032810FAL-FLUOROMETHOL .1% 10ml     000000000100036000007370
61314063305FAL-GENTAMIC 5ML              000000000100036000001400
61314022910FAL-LEVOBUNOLOL .5% O/S 10ml  000000000100036000005160
61314022915FAL-LEVOBUNOLOL .5% O/S 15ml  000000000100036000006180
61314022905FAL-LEVOBUNOLOL .5% O/S 5ml   000000000100036000003230
61314044705FAL-METIPRANOLOL .3% O/S 5ml  000000000100036000008330
61314063910FAL-NEO/POLY B/HC 10ML        000000000100036000006720
61314063810FAL-NEO/POLY B/HC 10ML        000000000100036000006720
61314063136FAL-NEO/POLY/DEX 3.5GM        000000000100036000002100
61314063006FAL-NEO/POLY/DEX 5ml          000000000100036000001940
61314020315FAL-PILOCARPINE 1% 15ml       000000000100036000001610
61314020415FAL-PILOCARPINE 20% 15ML      000000000100036000002420
61314020615FAL-PILOCARPINE 40% 15ML      000000000100036000003490
61314020815FAL-PILOCARPINE 6% 15ml       000000000100036000006260
61314063710FAL-PREDNISOL ACE 1% SUS 10ML 000000000100036000008330
61314063705FAL-PREDNISOL ACE 1% SUS 5ML  000000000100036000005000
61314063715FAL-PREDNISOL ACE 15ML        000000000100036000011940
61314001601FAL-PROPARACAINE .5% O/S 15ml 000000000100036000004570
61314022610FAL-TIMOLOL .25% 10ml         000000000100036000003230
61314022615FAL-TIMOLOL .25% 15ml         000000000100036000004250
61314022605FAL-TIMOLOL .250% 5ML         000000000100036000002150
61314022710FAL-TIMOLOL .50% 10ML         000000000100036000003660
61314022715FAL-TIMOLOL .50% 15ML         000000000100036000004570
61314022705FAL-TIMOLOL .50% 5ML          000000000100036000002800
61314064305FAL-TOBRAMYCIN .3% 5ML        000000000100036000001720
61314062810FAL-TRIMETHOPRIM 10ML         000000000100036000002690
61703032032FLD-4-MIDAZOLAM 1mg/ml 10ml 10000000000100072000046000
61703032053FLD-4-MIDAZOLAM 1mg/ml 5ml 10s000000000100072000025060
61703032132FLD-4-MIDAZOLAM 5mg/ml 10ml 10000000000100072000207330
61703032107FLD-4-MIDAZOLAM 5mg/ml 2ml 10s000000000100072000038330
61703032153FLD-4-MIDAZOLAM 5mg/ml 5ml 10s000000000100072000110930
61703020331FLD-ACETYLCYST 10% 30ml 10s   000000000100072000075000
61703020304FLD-ACETYLCYST 10% 4ml 10s    000000000100072000010000
61703031143FLD-ACYCLOVIR 25mg/ml 40ml 10s000000000100072000500000
61703040123FLD-ALCOHOL DEHYD 1ml 10s     000000000100072000045330
61703040151FLD-ALCOHOL DEHYD 5ml 10s     000000000100072000135000
61703020207FLD-AMIKACIN 250mg/ml 2ml 10s 000000000100072000400000
61703020802FLD-AMIKACIN 250mg/ml 3ml 10s 000000000100072000400000
61703020204FLD-AMIKACIN 250mg/ml 4ml 10s 000000000100072000700000
61703020107FLD-AMIKACIN 50mg/ml 2ml 10s  000000000100072000175000
61703031332FLD-ATRACUR 10mg/ml 10ml 10s  000000000100072000155000
61703032911FLD-CEFAZOLIN SOD INJ 1gm     000000000100072000032140
61703033311FLD-CEFUROXIME SOD INJ 1.5Gram000000000100072000114290
61703033433FLD-CEFUROXIME SOD INJ 750mg  000000000100072000161120
61703030425FLD-CYTARABINE 20mg/ml 25ml 5s000000000100072000040000
61703030350FLD-CYTARABINE 20mg/ml 50ml 5s000000000100072000076090
61703030509FLD-CYTARABINE 20mg/ml 5ml 10s000000000100072000033000
61703031922FLD-CYTARABINE AQ 2gm SDV 20ml000000000100001200030000
61703023744FLD-ENALAPRILAT 1.25mg/ml 1ml 000000000100072000005000
61703023716FLD-ENALAPRILAT 1.25mg/ml 2ml 000000000100072000010000
61703023322FLD-LABETALOL 5mg/ml 20ml 10s 000000000100003600027000
61703023341FLD-LABETALOL 5mg/ml 40ml 10s 000000000100072000100000
61703040232FLD-METHYLENE BLUE 1% 10ml 10s000000000100001200050000
61703040242FLD-METHYLENE BLUE 1% 1ml 10s 000000000100072000035000
61703021011FLD-METOCLOP 5mg/ml 10ml 25s  000000000100072000035000
61703021021FLD-METOCLOP 5mg/ml 20ml 10s  000000000100072000040000
61703021007FLD-METOCLOP 5mg/ml 2ml 25s   000000000100072000016680
61703021031FLD-METOCLOP 5mg/ml 30ml 10s  000000000100072000055000
61703030650FLD-MITOMYCIN 20mg 50ml ea    000000000100072000200000
61703040628FLD-PHYSOSTIG 1mg/ml 2ml 10s  000000000100072000025120
61703030906FLD-VINCRISTINE 1mg/ml 1ml ea 000000000100072000009990
61703030916FLD-VINCRISTINE 1mg/ml 2ml ea 000000000100072000016000
00168003631FOU-ANALGES OIN 30GM          000000000100144000000810
00168017215FOU-ATROPINE 1% EYE DR 15ML   000000000100144000001870
00168006538FOU-ATROPINE SULF             000000000100144000001570
00168001135FOU-BACITRAC 500U/GM OIN 15GM 000000000100144000000820
00168001131FOU-BACITRAC 500U/GM OIN 30GM 000000000100144000001010
00168002638FOU-BACITRACIN 3.5GM          000000000100144000001470
00168011109FOU-BACITRACIN OINT 144X1/32oz000000000100144000007130
00168005515FOU-BETAMETH DIP CRM .05% 15  000000000100144000002120
00168005546FOU-BETAMETH DIP CRM .05% 45  000000000100144000003970
00168005760FOU-BETAMETH DIP LOT .05% 60  000000000100144000004870
00168005615FOU-BETAMETH DIP OINT .05% 15 000000000100144000002120
00168005646FOU-BETAMETH DIP OINT .05% 45 000000000100144000003970
00168004015FOU-BETAMETH VAL CRM .1% 15   000000000100144000001180
00168004046FOU-BETAMETH VAL CRM .1% 45   000000000100144000002380
00168004160FOU-BETAMETH VAL LOT 60GM     000000000100144000003710
00168003315FOU-BETAMETH VAL OINT .1% 15  000000000100144000001200
00168003346FOU-BETAMETH VAL OINT .1% 45  000000000100144000002380
00168016215FOU-CLOBETASOL PROP CRM 15g   000000000100144000004500
00168016315FOU-CLOBETASOL PROP CRM 15g   000000000100144000004500
00168016330FOU-CLOBETASOL PROP CRM 30g   000000000100144000006750
00168016215FOU-CLOBETASOL PROP CRM 30g   000000000100144000004500
00168016346FOU-CLOBETASOL PROP CRM 45g   000000000100144000009850
00168016246FOU-CLOBETASOL PROP CRM 45g   000000000100144000009850
00168007038FOU-ERTHYOMYCIN OPT OINT 48   000000000100144000002100
00168005815FOU-FLUOCIN .01% CR 15GM      000000000100144000000920
00168005860FOU-FLUOCIN .01% CR 60GM      000000000100144000001680
00168006460FOU-FLUOCIN ACET .025%        000000000100144000002330
00168006015FOU-FLUOCIN ACET 15GM .025%   000000000100144000001110
00168006415FOU-FLUOCIN ACET OINT .025%   000000000100144000001110
00168005960FOU-FLUOCIN ACET SOL .01%60ML 000000000100144000003620
00168006060FOU-FLUOCINOLONE ACET CRM 60  000000000100144000002330
00168013915FOU-FLUOCINONIDE CRM 15g      000000000100144000001780
00168013930FOU-FLUOCINONIDE CRM 30g      000000000100144000002830
00168013960FOU-FLUOCINONIDE CRM 60g      000000000100144000004710
00168013515FOU-FLUOCINONIDE GEL 15g      000000000100144000007000
00168013560FOU-FLUOCINONIDE GEL 60g      000000000100144000013500
00168007115FOU-GENTAMICIN CRM .1% 15     000000000100144000001370
00168007815FOU-GENTAMICIN OINT .1% 15    000000000100144000001370
00168001531FOU-HYDROCORT 1% Cream 30gm   000000000100144000001370
00168015431FOU-HYDROCORT 1% Cream 30gm   000000000100144000001370
00168008031FOU-HYDROCORT 2.5% Cream 30gm 000000000100144000002780
00168008016FOU-HYDROCORT CRM 1lb. JAR    000000000100144000037100
00168002031FOU-HYDROCORT OINT 1%         000000000100144000001370
00168018131FOU-HYDROCORT OINT 1% 1oz TUBE000000000100144000001370
00168014616FOU-HYDROCORT OINT 1lb. 2.5%  000000000100144000037100
00168014630FOU-HYDROCORT OINT 1oz JAR    000000000100144000002850
00168005131FOU-LANOLIN HYDROUS 1oz       000000000100144000001030
00168005415FOU-NYSTATIN CR 15GM          000000000100144000001050
00168005430FOU-NYSTATIN CRM 30GM         000000000100144000001580
00168000730FOU-NYSTATIN OINT 15g         000000000100144000001630
00168000715FOU-NYSTATIN OINT 15GM        000000000100144000001080
00168008115FOU-NYSTATIN TRIAM ACET CRM 15000000000100144000001080
00168008130FOU-NYSTATIN TRIAM ACET CRM 30000000000100144000002110
00168008160FOU-NYSTATIN TRIAM ACET CRM 60000000000100144000003270
00168008915FOU-NYSTATIN TRIAM ACET ONT 15000000000100144000001110
00168008930FOU-NYSTATIN TRIAM ACET ONT 30000000000100144000002150
00168008960FOU-NYSTATIN/TRI OIN 60GM     000000000100144000003320
00168015038FOU-PURALUBE EYE OIN 3.5GM    000000000100144000001610
00168007938FOU-SULFACET 10% EYE OIN 3.5GM000000000100144000001470
00168000910FOU-TOLNAFTATE SOL 10ML BOTTLE000000000100144000001520
00168000815FOU-TOLNAFTE 1% CR 15GM       000000000100144000001200
00168000315FOU-TRIAMCIN .025% CR 15GM    000000000100144000000780
00168000580FOU-TRIAMCIN .025% OIN 80GM   000000000100144000001650
00168000380FOU-TRIAMCIN ACET CRM 80GM    000000000100144000001650
00168000680FOU-TRIAMCIN ACET OINT .1 80GM000000000100144000002360
00168000415FOU-TRIAMCIN CRM .1% 15GM     000000000100144000000830
00168000215FOU-TRIAMCIN CRM .5% 5GM      000000000100144000001980
00168000615FOU-TRIAMCIN OINT .1% 15GM    000000000100144000000830
00168000480FOU-TRIAMCINOLONE             000000000100144000002360
00168000416FOU-TRIAMCINOLONE CRM .1% 16OZ000000000100144000010410
00168001209FOU-TRIPLE ANT OIN .9GM 144s  000000000100144000007720
00168001235FOU-TRIPLE ANT OIN 15GM       000000000100144000000860
00168001231FOU-TRIPLE ANT OIN 30GM       000000000100144000001150
00168003516FOU-VIT A&D OIN 1lb JAR       000000000100144000004680
00168003504FOU-VIT A&D OIN 4oz           000000000100144000001550
00168003501FOU-VIT A&D OINT 2oz TUBE     000000000100144000000950
00168006216FOU-ZINC OXIDE OINT 1lb       000000000100144000005450
00168006231FOU-ZINC OXIDE OINT 1oz       000000000100144000000770
00496077804FRN-ANALPRAM Cream 1% 30gm    000000000100036000028610
00496080004FRN-ANALPRAM Cream 2.5% 30gm  000000000100072000031790
00496080215FRN-LOCOID Cream .1% 15gm     000000000100014400016710
00496082145FRN-LOCOID Lipo Crm 1% 45gm   000000000100014400044350
00496080315FRN-LOCOID Oint .1% 15gm      000000000100014400016710
00496080345FRN-LOCOID Oint .1% 45gm      000000000100014400035850
00703150102GEN-ALPROSTADIL 500mcg VL 1ml 000000000100014400571400
00703903203GEN-AMIKACIN 250mg 2ml 10s    000000000100014400047050
00703904003GEN-AMIKACIN 250mg 4ml 10s    000000000100014400089630
00703505103GEN-DESMOPRESS ACET 4mcg/ml   000000000100014400102350
00703505401GEN-DESMOPRESS ACET 4mcg/ml 10000000000100014400102350
00703165402GEN-DIPYRIDAMOLE 5mg/ml 10ml  000000000100028800063520
00703165202GEN-DIPYRIDAMOLE 5mg/ml 2ml   000000000100014400020000
00703500301GEN-FLUPHENAZINE 25mg/ml 5    000000000100014400006730
00703704501GEN-HALOPERID LAC 5mg VL 10ml 000000000100028800052940
00703704103GEN-HALOPERID LAC 5mg VL 1ml  000000000100028800052940
00703702301GEN-HALOPERIDOL 100mg/ml 5ml  000000000100014400070580
00070702103GEN-HALOPERIDOL 100mmg/ml 1ml 000000000100014400157640
00703701103GEN-HALOPERIDOL 50mg/ml 1ml   000000000100014400081170
00703701301GEN-HALOPERIDOL 50mg/ml 5ml   000000000100014400032350
00703820104GEN-HYDRALAZINE 20mg/ml 1ml   000000000100014400172940
00703532403GEN-L-CYCSTINE 50mg 10ml 10s  000000000100028800027050
00703532803GEN-L-CYSTEINE 50mg/ml 50ml   000000000100014400152820
00703401419GEN-LEUPROLIDE 1mg/0.2ml 2.8ml000000000100014401192940
00703401418GEN-LEUPROLIDE 2wk vl 1mg/0.2 000000000100014400198820
00703040502GEN-LEVOCARNITINE 200mg 12.5mg000000000100014400194110
00703040402GEN-LEVOCARNITINE 200mg VL 5ml000000000100028800097050
00703951403GEN-SULFA/TRIMETH 16mg 10x10ml000000000100028800029410
00703952601GEN-SULFA/TRIMETH 16mg 30ml   000000000100036000006760
00703950303GEN-SULFA/TRIMETH 16mg SDV 5ml000000000100028800023520
00703940204GEN-TOBRAMYCIN 40mg/ml 2ml 25s000000000100014400049990
00703941601GEN-TOBRAMYCIN 40mg/ml 30ml ea000000000100028800027700
00173036300GLX-ZANTAC 25mg/ml 40ml       000000000100012000048880
00781106110GNV-4-ALPRAZOLAM .25mg 1000s  000000000100072000018330
00781106101GNV-4-ALPRAZOLAM .25mg 100s   000000000100072000002620
00781106105GNV-4-ALPRAZOLAM .25mg 500s   000000000100072000009260
00781107710GNV-4-ALPRAZOLAM .5mg 1000s   000000000100072000022130
00781107701GNV-4-ALPRAZOLAM .5mg 100s    000000000100072000003000
00781107705GNV-4-ALPRAZOLAM .5mg 500s    000000000100072000011180
00781107910GNV-4-ALPRAZOLAM 1mg 1000s    000000000100072000025610
00781107901GNV-4-ALPRAZOLAM 1mg 100s     000000000100072000003370
00781107905GNV-4-ALPRAZOLAM 1mg 500s     000000000100072000013080
00781108901GNV-4-ALPRAZOLAM 2mg 100s     000000000100072000011940
00781108905GNV-4-ALPRAZOLAM 2mg 500s     000000000100072000052930
00781140301GNV-4-LORAZEPAM .5mg 100s     000000000100072000008710
00781140305GNV-4-LORAZEPAM .5mg 500s     000000000100072000039380
00781140410GNV-4-LORAZEPAM 1mg 1000s     000000000100072000081340
00781140401GNV-4-LORAZEPAM 1mg 100s      000000000100072000009110
00781140405GNV-4-LORAZEPAM 1mg 500s      000000000100072000042060
00781140501GNV-4-LORAZEPAM 2mg 100s      000000000100072000015990
00781140505GNV-4-LORAZEPAM 2mg 500s      000000000100072000069630
00015564520GNV-4-STADOL INJ 1mg 1ml      000000000100028800158330
00015564620GNV-4-STADOL INJ 2mg 1ml      000000000100028800166670
00781220101GNV-4-TEMAZEPAM 15mg 100s     000000000100072000017950
00781220105GNV-4-TEMAZEPAM 15mg 500s     000000000100072000087490
00781220201GNV-4-TEMAZEPAM 30mg 100s     000000000100072000019890
00781220205GNV-4-TEMAZEPAM 30mg 500s     000000000100072000097340
00781126210GNV-5-LONOX TB 1000s          000000000100072000078060
00781126201GNV-5-LONOX TB 100s           000000000100072000009680
00781126205GNV-5-LONOX TB 500s           000000000100072000042980
06226921124GNV-AMANT HCL 100mg 100s      000000000100036000033690
06226921129GNV-AMANT HCL 100mg 500s      000000000100036000164220
00015302320GNV-AMIKIN VL 1gm 4ml 10s     000000000100001200059990
00015302020GNV-AMIKIN VL 500mg 2ml 10s   000000000100024000094440
00781149001GNV-AMITRIPTYLINE 100mg 100s  000000000100072000012030
00781148610GNV-AMITRIPTYLINE 10mg 1000s  000000000100072000042670
00781148601GNV-AMITRIPTYLINE 10mg 100s   000000000100072000004480
00781149101GNV-AMITRIPTYLINE 150mg 100s  000000000100072000024390
00781148701GNV-AMITRIPTYLINE 25mg 100s   000000000100072000004880
00781148710GNV-AMITRIPTYLINE 25mg TB 1000000000000100072000046400
00781148810GNV-AMITRIPTYLINE 50mg 1000s  000000000100072000056180
00781148801GNV-AMITRIPTYLINE 50mg 100s   000000000100072000006530
00781148901GNV-AMITRIPTYLINE 75mg 100s   000000000100072000010580
00015710028GNV-AMPICILLIN 10gm BULK VL 10000000000100240000114350
00015740420GNV-AMPICILLIN 1gm vial 10s   000000000100240000018320
00015740220GNV-AMPICILLIN 250mg vial 10s 000000000100240000012500
00015740589GNV-AMPICILLIN 2gm ADV 10s    000000000100240000036360
00015740599GNV-AMPICILLIN 2gm vial 10s   000000000100240000035670
00015740320GNV-AMPICILLIN 500mg vial 10s 000000000100240000008670
00781150710GNV-ATENOLOL 100mg 1000s      000000000100072000045410
00781150701GNV-ATENOLOL 100mg 100s       000000000100072000005230
00781107810GNV-ATENOLOL 25mg 1000s       000000000100072000023500
00781107801GNV-ATENOLOL 25mg 100s        000000000100072000002480
00781150610GNV-ATENOLOL 50mg 1000s       000000000100072000024610
00781150601GNV-ATENOLOL 50mg 100s        000000000100072000003490
00781105901GNV-AZATHIOPRINE 50mg TB 100s 000000000100072000057230
00781183301GNV-BISOPROL 10/6.25mg TB 100s000000000100072000016290
00781183305GNV-BISOPROL 10/6.25mg TB 500s000000000100072000079090
00781184101GNV-BISOPROL 2.5/6.25mg TB 100000000000100072000016290
00781184105GNV-BISOPROL 2.5/6.25mg TB 500000000000100072000079090
00781182401GNV-BISOPROL 5/6.25mg TB 100s 000000000100072000016290
00781182405GNV-BISOPROL 5/6.25mg TB 500s 000000000100072000079090
00781106410GNV-BUPROPION 100mg TB 1000s  000000000100072000339290
00781105310GNV-BUPROPION 75mg TB 1000s   000000000100072000247940
00781106401GNV-BUPROPION HCL 100mg TB 100000000000100072000035710
00781105301GNV-BUPROPION HCL 75mg TB 100s000000000100072000026100
59772704501GNV-CAPTO 12.5mg 100s         000000000100036000002040
59772704701GNV-CAPTO 50mg 100s           000000000100036000004830
05977270481GNV-CAPTOPRIL 100mg TB 100s   000000000100072000007630
05977270453GNV-CAPTOPRIL 12.5mg TB 1000s 000000000100072000017640
05977270463GNV-CAPTOPRIL 25mg TB 1000s   000000000100072000025730
05977270461GNV-CAPTOPRIL 25mg TB 100s    000000000100072000002630
05977270473GNV-CAPTOPRIL 50mg TB 1000s   000000000100072000042680
05977251605GNV-CAPTOPRIL HCTZ 25/15 TB 10000000000100072000009010
05977251615GNV-CAPTOPRIL HCTZ 25/25 TB 10000000000100072000009010
05977251625GNV-CAPTOPRIL HCTZ 50/15 TB 10000000000100072000014110
05977251635GNV-CAPTOPRIL HCTZ 50/25 TB 10000000000100072000014110
05977272714GNV-CEFADROXIL 500mg CP 100s  000000000100072000059990
05977272713GNV-CEFADROXIL 500mg CP 50s   000000000100072000035980
00015734697GNV-CEFAZOLIN vl 10gm 100ml 10000000000100240000109000
00015733912GNV-CEFAZOLIN vl 1gm 10ml 100s000000000100240000014450
00781171810GNV-CHLORPROM HCL 100mg 1000s 000000000100072000262390
00781171801GNV-CHLORPROM HCL 100mg 100s  000000000100072000033500
00781171501GNV-CHLORPROM HCL 10mg 100s   000000000100072000016000
00781171910GNV-CHLORPROM HCL 200mg 1000s 000000000100072000436980
00781171901GNV-CHLORPROM HCL 200mg 100s  000000000100072000043700
00781171610GNV-CHLORPROM HCL 25mg 1000s  000000000100072000197690
00781171601GNV-CHLORPROM HCL 25mg 100s   000000000100072000020820
00781171710GNV-CHLORPROM HCL 50mg 1000s  000000000100072000279640
00781171701GNV-CHLORPROM HCL 50mg 100s   000000000100072000029440
05977255851GNV-CHOLESTYRAMINE 4gm 9gm    000000000100072000024670
05977255852GNV-CHOLESTYRAMINE 4gm CAN    000000000100072000019230
05977255891GNV-CHOLESTYRAMINE LT 4gm     000000000100072000024670
05977255892GNV-CHOLESTYRAMINE LT 4gm CAN 000000000100072000019230
00781135801GNV-CLEMASTINE 1.34mg 100s    000000000100072000013030
00781135901GNV-CLEMASTINE 2.68mg 100s    000000000100072000020550
00781202701GNV-CLOMIPRAMINE 25mg cap 100s000000000100072000020110
00781203701GNV-CLOMIPRAMINE 50mg cap 100s000000000100072000024250
00781204701GNV-CLOMIPRAMINE 75mg cap 100s000000000100072000043550
00781197501GNV-DESIPRAM HCL 100mg 100s   000000000100072000017430
00781197101GNV-DESIPRAM HCL 10mg 100s    000000000100072000006540
00781197650GNV-DESIPRAM HCL 150mg 50s    000000000100072000026160
00781197201GNV-DESIPRAM HCL 25mg 100s    000000000100072000004190
00781197310GNV-DESIPRAM HCL 50mg 1000s   000000000100072000049010
00781197301GNV-DESIPRAM HCL 50mg 100s    000000000100072000005330
00781197401GNV-DESIPRAM HCL 75mg 100s    000000000100072000009840
00781178501GNV-DICLOFEN SOD 25mg 100s    000000000100072000011460
00781178560GNV-DICLOFEN SOD 25mg 60s     000000000100072000008930
00781178710GNV-DICLOFEN SOD 50mg 1000s   000000000100072000092850
00781178701GNV-DICLOFEN SOD 50mg 100s    000000000100072000009750
00781178760GNV-DICLOFEN SOD 50mg 60s     000000000100072000006190
00781178910GNV-DICLOFEN SOD 75mg 1000s   000000000100072000093110
00781178901GNV-DICLOFEN SOD 75mg 100s    000000000100072000009800
00781178960GNV-DICLOFEN SOD 75mg 60s     000000000100072000006510
00781501701GNV-DICLOFENAC 50mg 100s IR   000000000100072000023810
00781138101GNV-DICLOFENAC SODIUM XR 100s 000000000100072000151240
05977260481GNV-DICLOXACILLIN 250mg 100s  000000000100072000009640
05977260581GNV-DICLOXACILLIN 500MG 100s  000000000100072000015760
00781279501GNV-DOCUSATE SOD 250mg 100s CP000000000100072000004560
00781265301GNV-DSS W/CASANTHRANOL 100mg  000000000100072000003380
59772002503GNV-ESTRADIOL .5mg tab 100s   000000000100288000003680
59772002603GNV-ESTRADIOL 1mg tab 100s    000000000100288000009280
59772002604GNV-ESTRADIOL 1mg tab 500s    000000000100288000039040
59772002704GNV-ESTRADIOL 2mg tab 500s    000000000100288000017400
00781282301GNV-FLUOXETINE 10mg Cap 100s  000000000100072000015570
00781143901GNV-FLUPHENAZINE 10mg 100s    000000000100072000014010
00781143905GNV-FLUPHENAZINE 10mg 500s    000000000100072000067950
00781143601GNV-FLUPHENAZINE 1mg 100s     000000000100072000006830
00781143605GNV-FLUPHENAZINE 1mg 500s     000000000100072000033060
00781143701GNV-FLUPHENAZINE 2.5mg 100s   000000000100072000009360
00781143705GNV-FLUPHENAZINE 2.5mg 500s   000000000100072000045360
00781143801GNV-FLUPHENAZINE 5mg 100s     000000000100072000010660
00781143805GNV-FLUPHENAZINE 5mg 500s     000000000100072000051700
00781504210GNV-FLUVOXAMINE 100mg 1000s   000000000100072001267540
00781504201GNV-FLUVOXAMINE 100mg 100s    000000000100072000133430
00781504010GNV-FLUVOXAMINE 25mg 1000s    000000000100072001157940
00781504001GNV-FLUVOXAMINE 25mg 100s     000000000100072000121890
00781504110GNV-FLUVOXAMINE 50mg 1000s    000000000100072001208880
00781504101GNV-FLUVOXAMINE 50mg 100s     000000000100072000127250
00003043730GNV-FUNGIZONE IV VL 50MG      000000000100500000006940
00781181810GNV-FUROSEMIDE 20mg 1000s     000000000100072000021210
00781181801GNV-FUROSEMIDE 20mg 100s      000000000100072000003450
00781196610GNV-FUROSEMIDE 40mg 1000s     000000000100072000026400
