RDST100074567408     1024000090000000001AB-A-HYDROCORT 1000M 8ML  
RDST100001101120     1024000170000000001AB-A-HYDROCORT 250MG 2ML  
RDST100074567304     1024000900000000001AB-A-HYDROCORT 500MG 4ML  
RDST100001746916     1024000080000000001AB-A-METHAPRED 1000M 8ML  
RDST100002145399     1024000890000000001AB-A-METHAPRED 1000MG ADVT
RDST100001101559     1024000190000000001AB-A-METHAPRED 125MG 2ML  
RDST100002141463     1024000125000000001AB-A-METHAPRED 40MG 1ML UV
RDST100001746981     1024000042000000001AB-A-METHAPRED 500MG 4ML  
RDST100001875400     1024000060000000001AB-ACETIC ACID .25% 250ML 
RDST100001738426     1024000350000000001AB-ACETIC ACID 1000ML 12'S
RDST100002133130     1024001000000000001AB-AMIDATE 20MG 10ML A 5  
RDST100001687631     1024001100000000001AB-AMIDATE 40MG 20ML A 5  
RDST100001759380     1007202100000000001AB-AMIDATE 40MG 20ML ABJT 
RDST100074490903     1024000225000000001AB-AMINOPH 250MG 10ML 10'S
RDST100001755081     1024000120000000001AB-AMINOPH USP 250MG 10ML 
RDST100001781145     1024000129500000001AB-AMINOPH USP 50MG 20ML A
RDST100001708841     1024000310000000001AB-AMINOPHILL 500MG 20ML  
RDST100001643659     1024000140000000001AB-AMINOPHYLLIN INJ 250MG 
RDST100002285971     1024000800000000001AB-AMINOSYN 10% 500ML 12'S
RDST100074108803     1024000775000000001AB-AMINOSYN 500ML 8.5%    
RDST100002285963     1024000830000000001AB-AMINOSYN 7% 500ML 12'S 
RDST100002230167     1024000850000000001AB-AMINOSYN II 10% 500ML  
RDST100001165406     1024000145000000001AB-ATROPINE SULF 10ML     
RDST100001242346     1024000155000000001AB-ATROPINE SULF 5ML      
RDST100002167971     1024000100000000001AB-BACTERIOSTATIC 30ML    
RDST100002427672     1024000230000000001AB-BRETYLIUM 50MG 10'S    
RDST100002429306     1024000080000000001AB-BRETYLIUM 50MG 10ML    
RDST100001339100     1024000600000000001AB-BUPIVAC HCL .25% 10ML  
RDST100001338342     1024000160000000001AB-BUPIVAC HCL .25% 30ML A
RDST100001341122     1024000620000000001AB-BUPIVAC HCL .5% 10ML TT
RDST100001342039     1024000600000000001AB-BUPIVAC HCL .5% 30ML TT
RDST100001345578     1024000800000000001AB-BUPIVAC HCL .5% 50ML FT
RDST100001345982     1024000520000000001AB-BUPIVAC HCL .75% 10ML  
RDST100001338748     1024000200000000001AB-BUPIVAC HCL .75% 30ML A
RDST100001340538     1024000580000000001AB-BUPIVAC HCL 30ML TT 50 
RDST100002261832     1024000200000000001AB-CALCIUM CHL 10% 18G    
RDST100001991199     1024000145000000001AB-CALCIUM CHL 10ML ABBJET
RDST100002760833     1024000550000000001AB-CLINDAMY PHOS 150MG 2ML
RDST100003614575     1024000480000000001AB-CLINDAMYCIN 300MG/2ML  
RDST100003614633     1024000750000000001AB-CLINDAMYCIN 600MG/3ML  
RDST100001413780     1024000360000000001AB-CLINDAMYCIN 9GRM/60ML  
RDST100001669571     1024000160000000001AB-COPPER TRACE .4MG 10ML 
RDST100002299253     1024000250000000001AB-DEXTROSE 10ML 5ML AMP  
RDST100001758119     1024000422500000001AB-DEXTROSE 25% 10ML 10'S 
RDST100001254549     1024000185000000001AB-DEXTROSE 50% 50ML 10'S 
RDST100001684711     1024000240000000001AB-DEXTROSE 50% FLTP 10'S 
RDST100001719509     1024000200000000001AB-DOPAMIN 400MG 10ML 25'S
RDST100001242510     1024000120000000001AB-DOPAMINE 200MG 5ML 25'S
RDST100001719541     1024000960000000001AB-DOPAMINE 800MG 10ML 25 
RDST100003223823     1024001050000000001AB-DOPAMINE HCL 400MG     
RDST100001255677     1024001400000000001AB-DOPAMINE HCL 400MG     
RDST100003224003     1024002300000000001AB-DOPAMINE HCL 800MG     
RDST100001837335     1024000100000000001AB-EPHEDRIN 50MG 1ML A    
RDST100002286029     1024000200000000001AB-EPINEPH 18G 10ML 10'S  
RDST100001867167     1024000169500000001AB-EPINEPH 21G 10ML 10'S  
RDST100003702370     1024000330000000001AB-ERY LAC (BENXFR) 1GM VL
RDST100003218344     1024000380000000001AB-ERY LAC 1GM ADDVANT    
RDST100003218286     1003600223700000001AB-ERY LAC 500MG ADDVANT  
RDST100003218146     1024000160000000001AB-ERY LAC 500MG VL 10'   
RDST100001423169     1024000510000000001AB-ERY LAC ADVT FT 500MG  
RDST100002448785     1024000670000000001AB-ERYLAC ADVT FT 1G 10'S 
RDST100003218203     1024000280000000001AB-ERYTHROCIN LAC 1GM VL  
RDST100003702438     1024000170000000001AB-ERYTHROCIN LAC 500MG VL
RDST100001386655     1024000125000000001AB-ERYTHROCIN PIGBACK     
RDST100003643681     1024001300000000001AB-FAT EMOLSION IV SET    
RDST100003242492     1024000500000000001AB-FUROSEMIDE 100MG 10ML A
RDST100001719590     1024000300000000001AB-FUROSEMIDE 10ML ABJT   
RDST100002220119     1024000150000000001AB-FUROSEMIDE 20MG 2ML A  
RDST100001397215     1024000123500000001AB-FUROSEMIDE 20MG 2ML FT 
RDST100003242435     1024000165000000001AB-FUROSEMIDE 40MG 4ML A  
RDST100002142404     1024000180000000001AB-FUROSEMIDE 40MG FLTP   
RDST100001759828     1024000180000000001AB-FUROSEMIDE 4ML ABJT SYR
RDST100002127249     1024000400000000001AB-GENTAMYCIN 100MG 10ML  
RDST100002104875     1024000350000000001AB-GENTAMYCIN 60MG 6ML    
RDST100001264076     1024000350000000001AB-GENTAMYCIN 80MG 8ML    
RDST100001968403     1024000800000000001AB-HEP SOD 20,000 10ML    
RDST100003240819     1024000125000000001AB-HEP-LOCK 100USP 10ML FT
RDST100001319268     1024000180000000001AB-HEP-LOCK SOL 10% 10ML  
RDST100001195643     1024000420000000001AB-ISOPROT 1:5000 10ML    
RDST100001989565     1024000350000000001AB-ISOPROT 1:5000 5ML 10'S
RDST100001152636     1024000135000000001AB-LIDO 1% HCL 20ML FT 50 
RDST100002768083     1024000850000000001AB-LIDO 1% HCL 30ML 25    
RDST100001719624     1024000100000000001AB-LIDO 1% USP 2ML A 100  
RDST100001719657     1024000200000000001AB-LIDO 1% USP 5ML AMP 100
RDST100003240876     1024000950000000001AB-LIDO 10% HCL 10ML      
RDST100001247212     1024000150000000001AB-LIDO 2% HCL 50ML FT 50 
RDST100003406915     1024000150000000001AB-LIDO 2% USP 20ML A 100 
RDST100002799658     1024001100000000001AB-LIDO 20% HCL PINTOP 50 
RDST100001756774     1024000187500000001AB-LIDOCAIN 1% 5ML 25G    
RDST100001272376     1024000152500000001AB-LIDOCAIN 2% 5ML 21G    
RDST100001145671     1024000157500000001AB-LIDOCAINE 1% 5ML 21G   
RDST100001760545     1024000180000000001AB-LIDOCAINE 2% 25G 10'S  
RDST100002768158     1024000180000000001AB-LIDOCAINE 2% HCL 10ML  
RDST100001369800     1024001100000000001AB-LIPOSYN II 10% 200ML 12
RDST100001369818     1024001000000000001AB-LIPOSYN II 10% 500ML 12
RDST100001369933     1024001380000000001AB-LIPOSYN II 20% 200ML 12
RDST100003226107     1024001580000000001AB-LIPOSYN II 20% 500ML 12
RDST100002262723     1024000220000000001AB-MAG. SULF 50% 10ML 20G 
RDST100002111193     1024000250000000001AB-MANNITOL 25% 50ML 25'S 
RDST100002146058     1024000280000000001AB-METHYLDOPA 250MG 5ML   
RDST100002143493     1024000780000000001AB-METRONI 500MG 100ML    
RDST100001613348     1004000080000000001AB-NALBUPHIN HCL 10MG 1ML 
RDST100003406809     1024000550000000001AB-NALBUPHIN HCL 10MG FLTP
RDST100002284974     1024000100000000001AB-NALBUPHIN HCL 20MG 1ML 
RDST100002406999     1024001000000000001AB-NALBUPHINE HCL 20MG    
RDST100002171924     1024000590000000001AB-NALOXONE .4MG 1ML HYPAK
RDST100002181170     1024000120000000001AB-NALOXONE .4MG 2ML A    
RDST100002181444     1024000150000000001AB-NALOXONE .4MG 2ML FLTP 
RDST100003276862     1120000025400000001AB-NITROPRES 50MG 2ML EA  
RDST100001179506     1024000180000000001AB-POT ACET 40MEQ 50'S    
RDST100001719715     1024000150000000001AB-POT CHL 10MEQ 5ML 100'S
RDST100001757467     1024000600000000001AB-POT CHL 10MEQ 5ML SYR  
RDST100002262731     1024000090000000001AB-POT CHL 20MEQ 10ML 25'S
RDST100001719731     1024000700000000001AB-POT CHL 20MEQ 10ML SYR 
RDST100001235373     1024000150000000001AB-POT CHL 30MEQ 15ML     
RDST100002262749     1024000100000000001AB-POT CHL 40MEQ 20ML 25'S
RDST100001719749     1024000900000000001AB-POT CHL 40MEQ 20ML SYR 
RDST100002262764     1024000150000000001AB-POT PHOS 45MM 15ML 5   
RDST100001489319     1024000350000000001AB-SOD ACET 2MEQ 50ML FT  
RDST100002261774     1024000150000000001AB-SOD ACET 40MEQ 20ML    
RDST100001334267     1024000180000000001AB-SOD BIC 4.2% 10ML 10'S 
RDST100002262780     1024000250000000001AB-SOD BIC 50MEQ 50ML 50'S
RDST100001719764     1024000185000000001AB-SOD BIC 7.5% 50ML A    
RDST100002144110     1024000450000000001AB-SOD BIC 7.5% 50ML A    
RDST100001254424     1024000220000000001AB-SOD BIC 8.4% 10MEQ 10ML
RDST100001219203     1002400160000000001AB-SOD BIC 8.4% 10MEQ 50ML
RDST100001755933     1024000563200000001AB-SOD BIC NEUT 4% 5ML 25S
RDST100001758408     1024000220000000001AB-SOD CHL .9% 100ML FLTP 
RDST100002278356     1024000070000000001AB-SOD CHL .9% 10ML FLTP  
RDST100001719772     1024000099500000001AB-SOD CHL .9% 20ML FLTP  
RDST100001643675     1008800180000000001AB-SOD CHL .9% 50ML FLTP  
RDST100002404028     1024000160000000001AB-SOD CHL .9% IRRG 1000ML
RDST100001875343     1024000140000000001AB-SOD CHL .9% IRRG 250ML 
RDST100001268630     1024000140000000001AB-SOD CHL .9% IRRG 500ML 
RDST100001758804     1024000125000000001AB-SOD CHL 20ML FLTP 25s  
RDST100002160190     1024000125000000001AB-SOD CHLOR 10 ML 100S   
RDST100003224060     1024000300000000001AB-SOD CHLOR INJ .9%      
RDST100001684950     1024000210000000001AB-SOD PHOS 45MM 15ML FLTP
RDST100002154110     1024000450000000001AB-SOD. BIC 7.5% INJ 50ML 
RDST100001254424     1024000220000000001AB-SOD. BIC 8.4% 10ML 10  
RDST100001787381     1024003280000000001AB-THAM SOL 500ML 6'S     
RDST100001643691     1024000600000000001AB-TPN ELECTROLYTE II 20ML
RDST100003702065     1024000600000000001AB-TPN ELECTROLYTE II 20ML
RDST100003702198     1024000600000000001AB-TPN ELETROLYTE III 20ML
RDST100001219229     1024001900000000001AB-TUBOCURAMIN CHL 20ML FT
RDST100002404341     1024000450000000001AB-UROLOGIC G IRRG 100ML  
RDST100002398303     1024000800000000001AB-VANCOMYCIN 1GM 25ML    
RDST100002398378     1024000400000000001AB-VANCOMYCIN 500MG 10ML  
RDST100001216498     1024000200000000001AB-VERAPAMIL 5MG 2ML FLTP 
RDST100002428845     1024000300000000001AB-VIT K INJ 10ML A 50    
RDST100002425668     1024000550000000001AB-VIT K INJ 1MG A 50     
RDST100001719988     1024000278000000001AB-WATER FOR INJ 100ML    
RDST100002279446     1024000070000000001AB-WATER FOR INJ 10ML FLTP
RDST100002713485     1024000085000000001AB-WATER FOR INJ 20ML FLTP
RDST100001195270     1024000630000000001AB-WATER FOR INJ 50ML FLTP
RDST100001760578     1024000520000000001AB-WATER FOR INJ PRESPIN  
RDST100001155217     1036000030000000001AK-AK SPORE HC 1/8OZ      
RDST100002713261     1036000020500000001AK-AK-SULF(0221-12)       
RDST100002453660     1014400050000000001ALC-EYE-STR(0530-01)      
RDST100002453678     1014400076000000001ALC-EYE-STR4(0530-04)     
RDST100002787711     1001200263200000001ALG-BETAGAN C .5% BID 10ML
RDST100002787943     1001200263200000001ALG-BETAGEN C .5% QD 10ML 
RDST100001144161     1101800080000000001ALG-BLEPH 10 OINT         
RDST100001137678     1003000093000000001ALG-BLEPH-10(0011-05)     
RDST100001286749     1254100195000000001ALG-ERYMAX SOL. 120ML     
RDST100001181999     1007300110000000001ALG-LAC(0312-07)          
RDST100002787430     1006000215300000001ALG-PROPINE C CAP .1% 10ML
RDST100002789691     1012000069000000001AMR-AMINOCARP ACID 250MG  
RDST100001742295     1012000125000000001AMR-AMINOPH 250MG 10ML    
RDST100002278471     1012000138000000001AMR-AMINOPH 500MG 20ML    
RDST100001667583     1012000969000000001AMR-AMNONIUM MOLY 250MCG  
RDST100001730464     1012000085000000001AMR-ATROPINE SULF .4MG SDV
RDST100003210242     1012000082500000001AMR-ATROPINE SULF 1MG SDV 
RDST100002215234     1024000085000000001AMR-BRETYLIUM TOS 500MG   
RDST100002280451     1012000138000000001AMR-CAL CHLOR 10% 10ML 25S
RDST100003611357     1012000650000000001AMR-CAL GLUC PBP 10%      
RDST100001663335     1012000150000000001AMR-CALCIUM GLUC 10% 10ML 
RDST100002135127     1012000440000000001AMR-CALICIUM GLUC 50ML    
RDST100001730829     1012000255000000001AMR-CHROM CHL SDV 4MG/ML  
RDST100001621986     1012000201500000001AMR-CYANOCOB 1000MCG MDV  
RDST100001663467     1012000245000000001AMR-DEXAMETH 4MG 5ML 25'S 
RDST100001663541     1012000800000000001AMR-DEXAMETH SOD PHOS MDV 
RDST100001730548     1012000115000000001AMR-DEXAMETH SOD PHOS SDV 
RDST100001436013     1012000418000000001AMR-DOPAMIN HCL 400MG SDV 
RDST100001168525     1012000224500000001AMR-DOPAMINE 200MG 5ML    
RDST100001415199     1012000836500000001AMR-DOPAMINE HCL 800MG SDV
RDST100002215531     1012000165000000001AMR-DROPERIDOL 2.5MG 2ML  
RDST100002215671     1012000255000000001AMR-DROPERIDOL 2.5MG 5ML  
RDST100001725324     1012000081500000001AMR-EPINEPHRINE 1:1000 1ML
RDST100003406196     1012000612000000001AMR-EPINEPHRINE 1:1000 PF 
RDST100001976687     1012000204000000001AMR-FUROSEMIDE 10MG 10ML  
RDST100001979756     1024000097000000001AMR-FUROSEMIDE 10MG SDV   
RDST100001979822     1000400100000000001AMR-FUROSEMIDE 10MG SDV   
RDST100001102938     1012000642500000001AMR-GLYCOPROL .2MG 20ML   
RDST100001419944     1012000183500000001AMR-GLYCOPROL .2MG 2ML SDV
RDST100001424001     1012000326500000001AMR-GLYCOPROL .2MG 5ML MDV
RDST100001197185     1012000145000000001AMR-GLYCOPYRROLATE .2MG/ML
RDST100001784990     1012000150000000001AMR-HYDROX HCL 25S        
RDST100001756295     1012000357000000001AMR-HYDROXY HCL 50MG/ML   
RDST100001622026     1012000097500000001AMR-HYDROXYZINE HCL 25MG  
RDST100001622042     1012000112500000001AMR-HYDROXYZINE HCL 50MG  
RDST100003543436     1012000344000000001AMR-L CYSTEINE USP 50MG/ML
RDST100001730555     1012000196500000001AMR-LIDOCAINE HCL 1% MDV  
RDST100001720200     1012000296000000001AMR-MAG SULF .1MG/ML 10ML 
RDST100001744804     1012000143000000001AMR-MAG SULF 50% 10ML SDV 
RDST100002293983     1012000493500000001AMR-MAG SULF 50% 2ML A 100
RDST100002284529     1012000097000000001AMR-MAG SULF 50% 2ML SDV  
RDST100003614989     1012000410000000001AMR-MAG SULF 50% 50ML SDV 
RDST100001663707     1012000316500000001AMR-MANNITOL 25% 50ML 25'S
RDST100003651072     1012000031500000001AMR-METHLDOPATE HCL 250MG 
RDST100002154896     1012000510000000001AMR-MULTI TRACE 4 2ML 25S 
RDST100003615994     1012000500000000001AMR-MULTI TRACE ELEM-5    
RDST100003218211     1012000765000000001AMR-MULTI TRACE-4 CONC SDV
RDST100003218294     1012000551000000001AMR-MULTI TRACE-4 PED SDV 
RDST100003218351     1012000551000000001AMR-MULTI TRC ELEM-4 REG  
RDST100003218351     1012000663000000001AMR-MULTITRACE-4 10ML 25S 
RDST100003218211     1012001530000000001AMR-MULTITRACE-4 CONC 10ML
RDST100003615705     1012000663000000001AMR-MULTITRACE-5 10ML 25S 
RDST100003791324     1012000969000000001AMR-MULTITRACE-5 CONC 10ML
RDST100001920651     1012000306000000001AMR-NEOSTIGMINE 1:1000 10S
RDST100001921360     1012000306000000001AMR-NEOSTIGMINE 1:2000 10S
RDST100002202992     1012000360000000001AMR-NITROGLYC 25MG 5ML SDV
RDST100002204261     1012000581500000001AMR-NITROGLYC 50MG 10ML   
RDST100001942473     1012003060000000001AMR-NUTRILITE 100ML 25S   
RDST100001943307     1012002245000000001AMR-NUTRILITE 11 100ML 25S
RDST100001942663     1012000510000000001AMR-NUTRILYTE 20ML SDV 25 
RDST100001943802     1012000440000000001AMR-NUTRILYTE II 20ML SDV 
RDST100003616505     1012000740000000001AMR-POT ACET 200MEQ SDV 25
RDST100001663772     1012000245000000001AMR-POT ACET 40MEQ 20ML   
RDST100001955137     1012000099500000001AMR-POT CHL 20MEQ 10ML MDV
RDST100002287084     1012000112500000001AMR-POT CHL 40MEQ 10ML SDV
RDST100002736445     1012000138000000001AMR-POT CHL 40MEQ 20ML SDV
RDST100002292167     1012000190000000001AMR-POT CHL 60MEQ 30ML MDV
RDST100003616653     1012000510000000001AMR-POT PHOS 150MM 50ML   
RDST100002297331     1012000153000000001AMR-POT PHOS 15MM 5ML SDV 
RDST100001443647     1012000153000000001AMR-POT PHOS 45MM 15ML SDV
RDST100001667468     1012000326500000001AMR-SELENIUM 400MCG SDV 25
RDST100003616729     1012000765000000001AMR-SOD ACET 200MEQ SDV 25
RDST100001622059     1012000204000000001AMR-SOD ACET 40MEQ SDV 25 
RDST100001661792     1012000284000000001AMR-SOD BIC 7.5% 50ML SDV 
RDST100002735017     1030000326500000001AMR-SOD BIC.8.4% 50ML TR  
RDST100003612165     1012000590000000001AMR-SOD CHL CONC 23.4%    
RDST100002261949     1048000107000000001AMR-SOD CHLOR .9% 10ML 25S
RDST100002488344     1012000143000000001AMR-SOD CHLOR .9% 2ML 25S 
RDST100001445246     1012000184000000001AMR-SOD CHLOR .9% 30ML 25s
RDST100002256717     1012000180000000001AMR-SOD CHLOR CONC 23.4%  
RDST100003616810     1012000632500000001AMR-SOD PHOS 150MM 50ML   
RDST100002263002     1012000162000000001AMR-SOD PHOS 15MM 5ML SDV 
RDST100002269215     1012000225000000001AMR-SOD PHOS 45MM 25ML SDV
RDST100002278729     1012000128500000001AMR-STERILE WATER 10ML SDV
RDST100001468768     1012000124000000001AMR-STERILE WATER 20ML SDV
RDST100003208212     1012000200000000001AMR-STERILE WATER 50 ML   
RDST100002274942     1012000095000000001AMR-STERILE WATER 5ML SDV 
RDST100001612431     1012000531000000001AMR-VASOPRESSIN 10U/.5ML  
RDST100001613744     1012000816000000001AMR-VASOPRESSIN 20U/1ML   
RDST100002434330     1012000047500000001AMR-VERAPAMIL 5MG 2ML 5'S 
RDST100002434256     1012000066500000001AMR-VERAPAMIL HCL 2ML A 5 
RDST100002435071     1012000043500000001AMR-VERPAMIL 10MG 4ML 5'S 
RDST100003210259     1012000204000000001AMR-ZINC SULFATE 1MH 10ML 
RDST100002145670     1060002100000000001ARM-GAMULIN RH SYR 6S     
RDST100002728798     1060006000000000001ARM-GAMULIN VIAL 300MCG   
RDST100001916956     1601800077500000001AST-ALBUTEROL .083% 20ML  
RDST100001157239     1107300105600000001AST-XYLOCAINE TOP SOL 4%  
RDST100001157346     1043200109000000001AST-XYLOCAINE VIS 100ML   
RDST100001221852     1024003200000000001BAY-GAMIMUNE N 10% 100ML  
RDST100001221621     1024001612500000001BAY-GAMIMUNE N 10% 50ML   
RDST100003699394     1010000055500000001BD-NEEDLE 20X1 1/2G       
RDST100003699154     1010000055500000001BD-NEEDLE 21X1            
RDST100003698933     1010000055500000001BD-NEEDLE 22X1 1/2        
RDST100003699865     1000200045000000001BD-NEEDLE 23X1            
RDST100003699626     1010000055500000001BD-NEEDLE 25X1 1/2        
RDST100003699444     1010000055500000001BD-NEEDLE 25X5 1/8G       
RDST100003699329     1010000055500000001BD-NEEDLE 26X3/8          
RDST100003699337     1010000055500000001BD-NEEDLE(5175)           
RDST100003699691     1010000055500000001BD-NEEDLE(5196)           
RDST100003697794     1024000095000000001BD-SYR(9575)8X100         
RDST100003698248     1024000115000000001BD-SYR(9661)4X40          
RDST100003698545     1024000125000000001BD-SYR(9662)4X30          
RDST100003698842     1024000177500000001BD-SYR(9663)4X30          
RDST100003697802     1024000145500000001BD-SYRINGE #9604          
RDST100003698982     1024000177500000001BD-SYRINGE #9664          
RDST100003698107     1024000095000000001BD-SYRINGE 1ML            
RDST100003697976     1024000130000000001BD-SYRINGE 1ML 25X5 5/8   
RDST100003697430     1024000095000000001BD-SYRINGE 25X5 8/10      
RDST100003698297     1024000073000000001BD-SYRINGE 3ML            
RDST100003697984     1024000102000000001BD-SYRINGE 3ML 20X1       
RDST100003697927     1048000095000000001BD-SYRINGE 3ML 21X1 1/2   
RDST100003697612     1048000095000000001BD-SYRINGE 3ML 22X1       
RDST100003697497     1048000095000000001BD-SYRINGE 3ML 25X1       
RDST100003697737     1048000095000000001BD-SYRINGE 3ML 25X1 1/2   
RDST100001404284     1048000110000000001BD-SYRINGE 5ML 100        
RDST100003698594     1048000177500000001BD-SYRINGE 5ML 21X1 1/2   
RDST100003698040     1048000088500000001BD-SYRINGE 9579           
RDST100003697844     1048000120000000001BD-SYRINGE 9623           
RDST100003697919     1048000120000000001BD-SYRINGE 9625           
RDST100002196913     1010000169500000001BIO-AMOXICIL CHEW 250MG   
RDST100001170190     1010000050500000001BIO-AMOXICILLIN CP 250MG  
RDST100001170307     1010000200000000001BIO-AMOXICILLIN CP 250MG  
RDST100001171255     1010000050500000001BIO-AMOXICILLIN CP 500MG  
RDST100001442805     1010000087500000001BIO-AMPICILLIN CP 500MG   
RDST100003507282     1010000092500000001BIO-BACLOFEN TB 10MG 100s 
RDST100003508637     1010000165000000001BIO-BACLOFEN TB 20MG 100s 
RDST100002165058     1010000018500000001BIO-CEPHALEXIN 125MG SUS  
RDST100002799252     1010000037500000001BIO-CEPHRADRINE 125MG SUS 
RDST100002799120     1010000385000000001BIO-CEPHRADRINE CP 500MG  
RDST100001165653     1010000120000000001BIO-CLOXACIL SOD CP 250MG 
RDST100001165794     1010000232000000001BIO-CLOXACIL SOD CP 500MG 
RDST100002413839     1010000137500000001BIO-DICLOXACIL SOD 250MG  
RDST100002174951     1010000270000000001BIO-DICLOXACIL SOD 500MG  
RDST100002174969     1010000013000000001BIO-IMIPRAMINE HCL TB 10MG
RDST100002174985     1010000015500000001BIO-IMIPRAMINE HCL TB 25MG
RDST100002175206     1010000021500000001BIO-IMIPRAMINE HCL TB 50MG
RDST100003652468     1010000090000000001BIO-METOCLOP HCL TB 10MG  
RDST100001813708     1010000017500000001BIO-METOCLOP HCL TB 10MG  
RDST100001808849     1010000058000000001BIO-METOCLOP HCL TB 10MG  
RDST100003638855     1010000065500000001BIO-METOCLOP HL 1MG/ML SY 
RDST100002175354     1010000096000000001BIO-NEOMYCIN SUL TB 500MG 
RDST100002249688     1010000142500000001BIO-NYSTATIN OR 100MU SU  
RDST100002175370     1010000137500000001BIO-OXACILL SOD CP 250MG  
RDST100002175396     1010000260000000001BIO-OXACILL SOD CP 500MG  
RDST100001166354     1010000240000000001BIO-PENACIL VK OVL 250MG  
RDST100002415842     1010000026000000001BIO-PENACIL VK OVL 250MG  
RDST100001964006     1010000450000000001BIO-PENACIL VK OVL 500MG  
RDST100001425792     1010000051000000001BIO-PENACIL VK OVL 500MG  
RDST100002415875     1010000242500000001BIO-PENACIL VK RND 250MG  
RDST100002415859     1010000030000000001BIO-PENACIL VK RND 250MG  
RDST100001977313     1010000460000000001BIO-PENACIL VK RND 500MG  
RDST100001977800     1010000009500000001BIO-PENACILL VK 125MG SU  
RDST100001977925     1010000014500000001BIO-PENACILL VK 125MG SU  
RDST100001975697     1010000012000000001BIO-PENACILL VK 250MG SU  
RDST100001975812     1010000020500000001BIO-PENACILL VK 250MG SU  
RDST100002418606     1010000042500000001BIO-SULFAMETH TMP SUS     
RDST100003246568     1010000260000000001BIO-SULFAMETH/TMP DS TB   
RDST100003638921     1010000195000000001BIO-TRIMETHOPRI TB 200MG  
RDST100002126050     1500000420000000001BKN-VERAPAMIL 240MG TAB   
RDST100002424869     1014400053000000001BL-DUOLUBE LIQ 3.5GM      
RDST100001814565     1009600078500000001BL-MURO 128 5% 15ML       
RDST100001889369     1008400095000000001BL-MURO 128 SOL 5% 30ML   
RDST100001475789     1360000330000000001BR-AMIKIN VL 1GM 10X4ML   
RDST100001475771     1360000185000000001BR-AMIKIN VL 500MG 10X2ML 
RDST100001626639     1144001023500000001BR-AMPICILLIN 10GM BULK VL
RDST100002446136     1144000145500000001BR-AMPICILLIN 1GM PB 100ML
RDST100002783173     1144000090500000001BR-AMPICILLIN 1GM VL 10s  
RDST100001498815     1144000060000000001BR-AMPICILLIN 250MG VL 10s
RDST100003284130     1144000234400000001BR-AMPICILLIN 2GM ADDV 10s
RDST100001235357     1144000238500000001BR-AMPICILLIN 2GM PB 100ML
RDST100001964824     1144000182600000001BR-AMPICILLIN 2GM VL 10s  
RDST100001235324     1144000140000000001BR-AMPICILLIN 500MG PB    
RDST100001721513     1144000062000000001BR-AMPICILLIN 500MG VL 10s
RDST100001486190     1144000097000000001BR-AMPICILLIN INJ 125MG   
RDST100003284064     1144000150000000001BR-AMPICILLIN INJ ADDV 10s
RDST100001344043     1010000370000000001BR-CYTOXAN 100MG 12'S     
RDST100001216662     1010001500000000001BR-CYTOXAN 1GM 6'S        
RDST100001344068     1010000650000000001BR-CYTOXAN 200MG 12'S     
RDST100001216746     1010002750000000001BR-CYTOXAN 2GM 6'S        
RDST100001344084     1010001650000000001BR-CYTOXAN 500MG 12'S     
RDST100002275923     1050000425000000001BR-CYTOXAN LYOPH 100MG    
RDST100002422186     1050001650000000001BR-CYTOXAN LYOPH 1GR 6'S  
RDST100002275998     1050000800000000001BR-CYTOXAN LYOPH 200MG    
RDST100001838366     1050003300000000001BR-CYTOXAN LYOPH 2GR 6'S  
RDST100002127363     1050001800000000001BR-CYTOXAN LYOPH 500MG    
RDST100000000000     1480000125000000001BR-FUNGIZONE IV VL 50MG   
RDST100001344415     1060000175000000001BR-K-LYTE 25MEQ OR. 30S   
RDST100001733518     1060000550000000001BR-K-LYTE CL CITRUS 100S  
RDST100002174126     1060000175000000001BR-K-LYTE CL CITRUS 30'S  
RDST100001733526     1060000550000000001BR-K-LYTE CL FRUIT 100S   
RDST100002174134     1060000175000000001BR-K-LYTE CL FRUIT 30'S   
RDST100002174118     1060000325000000001BR-K-LYTE DS OR. 30S      
RDST100001661396     1010800159900000001BR-KLOTRIX 10MEQ 100'S    
RDST100001696392     1013001650000000001BR-KLOTRIX TAB 10MEQ 1000s
RDST100001279983     1060000515000000001BR-MEGASE 20MG. 100S      
RDST100001624865     1060000960000000001BR-MEGASE 40MG. 100S      
RDST100002755321     1060002400000000001BR-MEGASE 40MG. 250S      
RDST100001318252     1060004590000000001BR-MEGASE 40MG. 500S      
RDST100001881242     1050000300000000001BR-MUCOMYST 10% 10ML 3'S  
RDST100001881259     1050000790000000001BR-MUCOMYST 10% 30ML 3'S  
RDST100001153956     1050000500000000001BR-MUCOMYST 10% 4ML 12'S  
RDST100001344472     1050000360000000001BR-MUCOMYST 20% 10ML 3'S  
RDST100001344480     1050000950000000001BR-MUCOMYST 20% 30ML 3'S  
RDST100001153959     1050000590000000001BR-MUCOMYST 20% 4ML 12'S  
RDST100001450295     1144002000000000001BR-NAFCIL 10GM BULK VL 10s
RDST100003284197     1144000234500000001BR-NAFCIL 1GM ADDVANT 10'S
RDST100001235290     1144000236200000001BR-NAFCIL 1GM PB 100ML 10s
RDST100002234474     1144000202500000001BR-NAFCIL 1GR 10'S        
RDST100003284254     1144000348400000001BR-NAFCIL 2GM ADDVANT 10'S
RDST100001235308     1144000350000000001BR-NAFCIL 2GM PB 100ML 10s
RDST100002234482     1144000350000000001BR-NAFCIL 2GR 10'S        
RDST100001479443     1144000113500000001BR-NAFCIL 500MG VL 10s    
RDST100001964840     1030001800000000001BR-OXACILLIN 10GM BULK VL 
RDST100001278001     1030000160000000001BR-OXACILLIN 1GM ADD A VL 
RDST100002487957     1030000300000000001BR-OXACILLIN 2GM VL 10s   
RDST100001395474     1030000139500000001BR-OXACILLIN 500MG VL 10s 
RDST100001233550     1030000563500000001BR-PENICILLIN G POT 20mm  
RDST100003241478     1050001520000000001BR-VEPESID 150MG          
RDST100003408671     1036002370400000001BRR-LEUCOV CAL TB 25MG 25s
RDST100003411410     1036001272500000001BRR-LEUCOVORIN CAL 5MG    
RDST100003705324     1036001150000000001BRR-METHOTREX TB 2.5MG    
RDST100001925627     1036000580000000001BRR-METHOTREX TB 2.5MG 36s
RDST100001102631     1036000307100000001BRR-METHOTREXATE 10MG     
RDST100001103175     1036000408600000001BRR-METHOTREXATE 12.5MG   
RDST100001104884     1036000487000000001BRR-METHOTREXATE 15MG     
RDST100001100072     1036000164400000001BRR-METHOTREXATE 5MG (4X2)
RDST100001101005     1036000242500000001BRR-METHOTREXATE 7.5MG    
RDST100001429653     1007200380000000001BTS-E-MYCIN 250MG 500     
RDST100001826031     1014100232500000001BTS-E-MYCIN 333MG 100'S   
RDST100001152362     1019700960000000001BTS-E-MYCIN 333MG 500'S   
RDST100001212877     1028800140000000001BTS-IBUPROFEN 600MG 500s  
RDST100002299246     1086400207500000001BTS-IBUPROFEN 800MG 500s  
RDST100001379528     1005003000000000001BW-WELLCOVORIN 25MG 25'S  
RDST100001379379     1030001900000000001BW-WELLCOVORIN 5MG 100'S  
RDST100002239804     1010000060000000001BW-WELLCOVORIN VL. 100MG. 
RDST100001847508     1240000219800000001CETY-CETACAINE SP 56GM.   
RDST100003445103     1028801100000000001CHR-CYTARABINE 500MG LYOPH
RDST100002230449     1024001650000000001CHR-DOXORUB LYOP 10MG 10'S
RDST100002230571     1024000900000000001CHR-DOXORUB LYOP 50MG     
RDST100002228443     1024001900000000001CHR-DOXORUB SOL 10MG 5ML  
RDST100003444809     1024002500000000001CHR-DOXORUB SOL 20MG 10ML 
RDST100002230746     1024000850000000001CHR-DOXORUB SOL 50MG 25ML 
RDST100002247278     1024002600000000001CHR-DOXORUBICIN 20MG 6S   
RDST100003702826     1024000460000000001CHR-LEUCOVORIN 100MG 10   
RDST100003705183     1024000250000000001CHR-LEUCOVORIN 50MG 10'S  
RDST100003646999     1024000950000000001CHR-VINBLASTINE 10MG 10'S 
RDST100001204593     1004800233000000001CIB-APRESOLINE 25 MG 100  
RDST100001204643     1002400343500000001CIB-APRESOLINE 50MG 100   
RDST100002174183     1050001065000000001CLI-INTRALIPID 10% 250ML  
RDST100002280857     1050001100000000001CLI-INTRALIPIDS 10% 500ML 
RDST100002712958     1050001170000000001CLI-INTRALIPIDS 20% 250ML 
RDST100002281087     1050002050000000001CLI-INTRALIPIDS 20% 500ML 
RDST100001689827     1600000072500000001CNN-TUBERSOL 5TU 10 TST VL
RDST100001689637     1600000155000000001CNN-TUBERSOL 5TU TST VL   
RDST100002176055     1007200140000000001DER-BENZAGEL 10 GEL 10%   
RDST100002175768     1001200110000000001DER-BENZAGEL 5 42.5GM     
RDST100001160233     1028800165000000001DEY-ALBUTEROL .083% 30X3ML
RDST100001615160     1240000120000000001DEY-ALBUTEROL .83MG 3ML   
RDST100002442119     1036000240000000001DEY-ALBUTEROL .83MG 3ML   
RDST100001161603     1072000580000000001DEY-CROMOLYN INH 20MG     
RDST100001710102     1024000260000000001DEY-ISOETHARINE .08%      
RDST100001710086     1024000255000000001DEY-ISOETHARINE .17%      
RDST100003614757     1056400097500000001DEY-MET SUL(676-03)       
RDST100003225265     1024000240000000001DEY-MUCOSIL(0181-04)      
RDST100003286028     1024000142500000001DEY-MUCOSIL(0181-10)      
RDST100003284007     1024000280000000001DEY-MUCOSIL(0181-30)      
RDST100003225323     1024000240000000001DEY-MUCOSIL(0182-04)      
RDST100003286044     1024000150000000001DEY-MUCOSIL(0182-10)      
RDST100003286143     1024000270000000001DEY-MUCOSIL(0182-30)      
RDST100001106178     1060000110000000001DEY-SOD CHLOR .45% 3ml    
RDST100001111947     1060000110000000001DEY-SOD CHLOR .45% 5ML    
RDST100002206621     1060000380000000001DEY-SOD CHLOR 3% VL 15ML  
RDST100002206969     1060000380000000001DEY-SODIUM CHL .10% 15ML  
RDST100001710045     1060000330000000001DEY-SODIUM CHL .9% 10ML   
RDST100001106871     1600000109000000001DEY-SODIUM CHL .9% 3ML 100
RDST100001710011     1060000330000000001DEY-SODIUM CHL .9% 3ML 250
RDST100001107853     1600000110000000001DEY-SODIUM CHL .9% 5ML 100
RDST100001710029     1060000330000000001DEY-SODIUM CHL .9% 5ML 250
RDST100001103258     1060000115000000001DEY-WATER INH AMP 3ML 100s
RDST100002180552     1010800130000000001DOW-GRANULEX SP. 4OZ.     
RDST100003623485     1023500280000000001DUP-NARCAN .4MG 10ML EA   
RDST100002754109     1001700247500000001DUP-NARCAN .4MG 1ML 10'S  
RDST100001737741     1002000227500000001DUP-NUBAIN 20MG/ML 10'S   
RDST100001737865     1020100265000000001DUP-NUBAIN 20MG/ML 10ML EA
RDST100001201631     1001000150000000001DUP-NUBAIN AMP 20MG 10'S  
RDST100001201888     1004800173500000001DUP-NUBAIN VIAL 10MG      
RDST100003450319     1022800257500000001FOR-AEROCHAMBER MIS W/MASK
RDST100001360635     1010000700000000001FOR-ANTILIRIUM 2ML 12s    
RDST100002443554     1001200170000000001FOR-CEBO CAP BL.          
RDST100002443547     1003900170000000001FOR-CEBO CAP GR.          
RDST100002443539     1017900187500000001FOR-CEBO CAP OR.          
RDST100001224179     1100000210000000001FOR-ELIXOPHYLLIN ELIX 16OZ
RDST100001862069     1001900380000000001FOR-ESGIC CAP 100'S       
RDST100001194885     1000900500000000001FOR-KAY CIEL PWD PKT 100'S
RDST100001888734     1026500170000000001FOR-LEVOTHROID .125MG 100 
RDST100001195171     1015000160000000001FOR-LEVOTHROID .15MG 100  
RDST100001195403     1090600200000000001FOR-LEVOTHROID .175MG 100 
RDST100001194737     1019200121500000001FOR-LEVOTHROID .5MG 100'S 
RDST100002756179     1107300137500000001FOR-LEVOTHROID .75MG 100  
RDST100001692805     1189000200000000001FOR-THYROID 180MG 100     
RDST100001881382     1028800013500000001FOU-ATROPINE SULF         
RDST100002710135     1028800013500000001FOU-BACITRACIN 3.5GM      
RDST100002401396     1028800070200000001FOU-BACITRACIN NEO 144X1  
RDST100001432541     1028800060000000001FOU-BACITRACIN OINT       
RDST100002218451     1028800016500000001FOU-BACITRACIN ZINC POLY  
RDST100002729176     1028800024000000001FOU-BETAMETH DIP CRM .05% 
RDST100002134898     1057600040000000001FOU-BETAMETH DIP CRM .05% 
RDST100002123107     1028800051000000001FOU-BETAMETH DIP LOT .05% 
RDST100002729176     1028800024000000001FOU-BETAMETH DIP OINT .05%
RDST100002729168     1028800041000000001FOU-BETAMETH DIP OINT .05%
RDST100001611920     1028800012000000001FOU-BETAMETH VAL CRM .1%  
RDST100001600857     1028800025000000001FOU-BETAMETH VAL CRM .1%  
RDST100001600881     1028800037500000001FOU-BETAMETH VAL LOT 60GM 
RDST100001600865     1028800012000000001FOU-BETAMETH VAL OINT .1% 
RDST100001600873     1028200023700000001FOU-BETAMETH VAL OINT .1% 
RDST100002425072     1028800070000000001FOU-EFODINE OINT FOIL     
RDST100001671684     1086400026000000001FOU-ERTHYOMYCIN OPT OINT  
RDST100001269398     1028800028000000001FOU-FLUOCIN ACET .025%    
RDST100001272822     1028800013000000001FOU-FLUOCIN ACET 15GM     
RDST100001269323     1014400012000000001FOU-FLUOCIN ACET OINT     
RDST100001272756     1028800033000000001FOU-FLUOCIN ACET SOL      
RDST100001269208     1028800028000000001FOU-FLUOCINOLONE ACET CRM 
RDST100002742880     1028800015500000001FOU-GENTAMICIN CRM .1% 15 
RDST100002742963     1057600014300000001FOU-GENTAMICIN OINT .1% 15
RDST100003266749     1043200026000000001FOU-HYDROCORT CR 2.5% 30GM
RDST100001669852     1028800011200000001FOU-HYDROCORT CRM 1% 1OZ  
RDST100001868454     1028800011200000001FOU-HYDROCORT OINT 1%     
RDST100001877356     1028800008500000001FOU-HYDROCORT. OINT .5%   
RDST100001936871     1028800025000000001FOU-NITROGLY 2% OINT 30GM 
RDST100001936889     1028800042500000001FOU-NITROGLYCERINE OINT   
RDST100002489862     1043200009200000001FOU-NYSTATIN CR 15GM      
RDST100001207935     1028200015000000001FOU-NYSTATIN CRM 30GM     
RDST100001276823     1028800009500000001FOU-NYSTATIN OINT 15GM    
RDST100002742823     1028800027000000001FOU-NYSTATIN ORAL 60ML    
RDST100001761998     1028200009600000001FOU-NYSTATIN TRIAM ACET   
RDST100001159201     1028800018500000001FOU-NYSTATIN TRIAM ACET   
RDST100001762186     1014400035400000001FOU-NYSTATIN TRIAM ACET   
RDST100001762368     1028800011500000001FOU-NYSTATIN TRIAM ACET   
RDST100001762541     1028800021500000001FOU-NYSTATIN TRIAM ACET   
RDST100001872959     1028800065000000001FOU-PETROLATUM WHT 144X5GM
RDST100001197334     1028800023000000001FOU-PILO HYDRO 1% 15ML    
RDST100001197482     1028800031000000001FOU-PILO HYDRO 2% 15ML    
RDST100001197821     1028800038500000001FOU-PILO HYDRO 4% 15ML    
RDST100001698570     1028800013500000001FOU-SULFSCETMIDE SOP 10%  
RDST100002229490     1028800052500000001FOU-SURGILUBE FOIL PK 3GM 
RDST100001195429     1028200016100000001FOU-TRIAMCIN ACET CRM 80GM
RDST100001195981     1028800024000000001FOU-TRIAMCIN ACET OINT .1 
RDST100001195692     1028800016800000001FOU-TRIAMCIN ACET OINT .25
RDST100001195759     1043200008000000001FOU-TRIAMCIN CRM .1% 15GM 
RDST100001680651     1043200021000000001FOU-TRIAMCIN CRM .5% 5GM  
RDST100001195924     1028800008000000001FOU-TRIAMCIN OINT .1% 15GM
RDST100001936491     1028800113600000001FOU-TRIAMCINOLONE CRM .1% 
RDST100001195825     1028200023200000001FOU-TRIAMIN(0004-80)      
RDST100001321322     1028800042500000001FUJ-ARISTOCORT REG CRM .1%
RDST100001248079     1000800245000000001FUJ-ATROPINE .4MG 20ML    
RDST100001259522     1004500142000000001FUJ-ATROPINE SULF 1MG/SDV 
RDST100001623057     1000400670000000001FUJ-CALCIUM CLUC SDV 10%  
RDST100001292036     1028800260000000001FUJ-CYCL CRM. 60GM.       
RDST100001929157     1001200263500000001FUJ-CYCL LOT 60ML         
RDST100001121409     1003600202600000001FUJ-CYCL OINT. 30GM.      
RDST100001121565     1003000260000000001FUJ-CYCL OINT. 60GM.      
RDST100002121374     1007200480000000001FUJ-DOXY 100MG 5S         
RDST100001676741     1060000191200000001FUJ-DOXYCYCLINE 200 20CC  
RDST100001226422     1001200484500000001FUJ-HEPARIN BEEF LUNG 10ML
RDST100001188655     1001600273000000001FUJ-HEPARIN SOD 10MU 1ML  
RDST100001358704     1003600850000000001FUJ-LYPHOLITE 2 20MG 25S  
RDST100001193648     1002300405000000001FUJ-MANNITOL SDV 25% 50ML 
RDST100002447803     1012000740000000001FUJ-NEBUPENT(0210-06)     
RDST100003651924     1004800420000000001FUJ-NEOSTIGMINE 10S       
RDST100003651858     1003000400000000001FUJ-NEOSTIGMINE 1:2000    
RDST100003973039     1001707200000000001FUJ-PENTAM(0211-03)       
RDST100001298678     1002400150000000001FUJ-WATER SDV 10ML 25S    
RDST100001332725     1012003500000000001GEN-AMIKACIN 250MG 2ML 10S
RDST100001334689     1012007250000000001GEN-AMIKACIN 250MG 4ML 10S
RDST100001325653     1012002500000000001GEN-AMIKACIN SULF 50MG 2ML
RDST100001776129     1048000030000000001GEN-DEXAMETH 10MG/ML 10ML 
RDST100003222346     1012002200000000001GEN-DOBUTAMINE SDV 12.5MG 
RDST100002778918     1012004000000000001GEN-ETOPOSIDE 20MG/ML 25ML
RDST100002778991     1036000890000000001GEN-ETOPOSIDE 20MG/ML 5ML 
RDST100001432129     1012000550000000001GEN-L-CYCSTINE 50MG 10ML  
RDST100001627314     1012002200000000001GEN-L-CYSTEINE HCL 50MG   
RDST100001930767     1012000070000000001GEN-LEVOTHYR SOD 200MG 6ML
RDST100001318732     1012000170000000001GEN-METOCLOPRAMINE 5MG/ML 
RDST100001808641     1012000120000000001GEN-NEOSTIGMINE .5MG 1ML  
RDST100002241529     1012000180000000001GEN-NEOSTIGMINE 10ML 10'S 
RDST100002241776     1012000185000000001GEN-NEOSTIGMINE 1MG 10ML  
RDST100002256113     1012000280000000001GEN-PANCURONIUM 1MG 10ML  
RDST100002256485     1012000350000000001GEN-PANCURONIUM 2MG 2ML   
RDST100002256303     1012000550000000001GEN-PANCURONIUM 2MG 5ML   
RDST100001955814     1012000290000000001GEN-SOD CHL 23.4 100ML 10S
RDST100002112720     1012000019000000001GEN-SOD NITROP 50MG 2ML   
RDST100001795368     1000600700000000001GGY-LIORESAL DS TAB 20MG  
RDST100001270644     1022600206000000001GGY-TOFRANIL 10MG 100     
RDST100001270701     1006600580000000001GGY-TOFRANIL 50MG 100     
RDST100001847300     1060000215000000001GL-BENXZTROPINE MESY 2MG  
RDST100003702172     1060000020000000001GL-BENZTROPINE MESY .5MG  
RDST100001714914     1060000030000000001GL-BENZTROPINE MESY 2MG   
RDST100002271369     1060000450000000001GL-CARISOPR COMPND TB 100s
RDST100002226231     1060002050000000001GL-CARISOPR COMPND TB 500s
RDST100001716505     1060000055000000001GL-CARISOPRODOL 350MG TB  
RDST100001716745     1060000425000000001GL-CARISOPRODOL TB 350MG  
RDST100001100163     1060000100000000001GL-CEPHALEXIN 250MG 100'S 
RDST100001104678     1060000180000000001GL-CEPHALEXIN 500MG 100'S 
RDST100001351949     1120000530000000001GL-CIMETIDINE 400MG 100s  
RDST100001352202     1120002612700000001GL-CIMETIDINE 400MG 500s  
RDST100001281690     1060000080000000001GL-DESIPRAMINE 25MG 100'S 
RDST100001281328     1060000120000000001GL-DESIPRAMINE 50MG 100'S 
RDST100001274208     1060000090000000001GL-DISOPYRAMIDE CAP 150MG 
RDST100001754191     1060000022500000001GL-FLUOCINOLONE ACET CRM  
RDST100001755354     1060000040000000001GL-FLUOCINONIDE CRM .5%   
RDST100001358209     1060000045000000001GL-FUROSEMIDE 80MG 100'S  
RDST100003242682     1060000100000000001GL-HALOPERIDOL 1MG 500'S  
RDST100003242567     1060000040000000001GL-HALOPERIDOL 2MG 100'S  
RDST100002266948     1060000143400000001GL-HALOPERIDOL ORG. 2MG   
RDST100001223031     1060000203000000001GL-IBUPROFEN 300MG 500'S  
RDST100001993690     1060000035000000001GL-IBUPROFEN 400MG 100    
RDST100001993708     1060000072000000001GL-IBUPROFEN 500MG 100    
RDST100002130367     1060000150000000001GL-IBUPROFEN 600MG 500'S  
RDST100002288231     1060000070000000001GL-IBUPROFEN 800MG 100'S  
RDST100002288173     1060000185000000001GL-IBUPROFEN 800MG 500'S  
RDST100001775451     1060000035000000001GL-INDOMETHACIN 25MG 100'S
RDST100001776012     1060000170000000001GL-INDOMETHACIN 25MG      
RDST100001775709     1060000090000000001GL-INDOMETHACIN 25MG 500'S
RDST100001776228     1060000055000000001GL-INDOMETHACIN 50MG 100'S
RDST100001776327     1060000160000000001GL-INDOMETHACIN 50MG 500'S
RDST100001775733     1060000047500000001GL-MEDROXYPROGEST 10MG    
RDST100001777705     1060000065000000001GL-METHYLDOPA 250MG 100   
RDST100001362888     1060000450000000001GL-METHYLDOPA 250MG 1000'S
RDST100001775741     1060000140000000001GL-METRONODAZOLE 250MG    
RDST100001947118     1060000070000000001GL-PERPHEN/AMITRIP 2/10   
RDST100001986975     1060000080000000001GL-PERPHEN/AMITRIP 2/25   
RDST100001977305     1060000077500000001GL-PERPHEN/AMITRIP 4/10   
RDST100001981968     1060000090000000001GL-PERPHEN/AMITRIP        
RDST100002212397     1060000100000000001GL-PRAZOSIN 1MG 250'S     
RDST100002212744     1060000140000000001GL-PRAZOSIN 2MG 250'S     
RDST100002217636     1060000120000000001GL-PRAZOSIN 5MG 100       
RDST100001777556     1060000129000000001GL-PROCAINAMIDE SR 500MG  
RDST100001777671     1060000566600000001GL-PROCAINAMIDE SR 500MG  
RDST100001777762     1060000150000000001GL-PROCAINAMIDE SR 750MG  
RDST100001811033     1060000022000000001GL-PROPRANOLOL 40MG 100   
RDST100001810878     1060000015000000001GL-PRORANOLOL 20MG 100    
RDST100001282128     1060000215900000001GL-THIOTHIXENE 5MG 100    
RDST100001281898     1060000300500000001GL-THIOTIXENE 10MG 100    
RDST100003229481     1060000110000000001GL-TRAZODONE 100MG 100'S  
RDST100003229721     1060000460000000001GL-TRAZODONE 100MG 500'S  
RDST100003234671     1060000520000000001GL-TRAZODONE 50MG 1000'S  
RDST100003229549     1060000280000000001GL-TRAZODONE 50MG 500'S   
RDST100003234614     1060000070000000001GL-TRAZOSONE 50MG 100'S   
RDST100003652872     1060000084500000001GL-TRIAMTERENE W/HCTZ 100 
RDST100003234762     1060000052500000001GL-VERAPAMIL 120MG 100'S  
RDST100003234952     1060000060000000001GL-VERAPAMIL 80MG 100s    
RDST100003202272     1018400300000000001GL-VERAPAMIL ER 180MG 100S
RDST100001608231     1060000360000000001GL-VERAPAMIL ER 240MG 100S
RDST100002103513     1030000225000000001GLX-TEMOVATE CR. .05% 30GM
RDST100003277282     1012000409000000001GLX-TEMOVATE CR. .05% 60GM
RDST100002103380     1018000163000000001GLX-TEMOVATE OINT. .05%   
RDST100002103455     1018000225000000001GLX-TEMOVATE OINT. .05%   
RDST100001280825     1012000329000000001GLX-TEMOVATE OINT. .05%   
RDST100003278769     1012000409000000001GLX-TEMOVATE OINT. .05%   
RDST100002160570     1006000507500000001GLX-TRANDATE TB 200MG 100s
RDST100003270659     1024000044800000001GVA-ALLOPURINOL 100MG UD  
RDST100003270717     1024000083500000001GVA-ALLOPURINOL 300MG UD  
RDST100001483361     1024000023000000001GVA-AMITRIPTYL 10MG UD    
RDST100001957729     1024000025700000001GVA-AMITRIPTYL 25MG UD    
RDST100003207636     1024000032300000001GVA-AMITRIPTYL 50MG UD    
RDST100001483817     1024000042200000001GVA-AMITRIPTYL 75MG UD    
RDST100001958172     1024000063500000001GVA-CHLORPRO HCL 100MG UD 
RDST100001622471     1024000035000000001GVA-CHLORPROM HCL 10MG UD 
RDST100001957331     1024000039000000001GVA-CHLORPROM HCL 25MG UD 
RDST100003428299     1024000029400000001GVA-CHLORPROPAMI 100MG UD 
RDST100003407236     1024000036000000001GVA-CHLORPROPAMI 250MG UD 
RDST100003271178     1024000207800000001GVA-DESIPRAMINE 50MG UD   
RDST100002422152     1024000032500000001GVA-DIPHENHYD 50MG UD 100s
RDST100001984673     1024000024700000001GVA-DIPYRIDAM 25MG UD 100s
RDST100003272622     1024000168300000001GVA-DOXEPIN HCL 100MG UD  
RDST100003272481     1024000070000000001GVA-DOXEPIN HCL 10MG UD   
RDST100003272820     1024000076500000001GVA-DOXEPIN HCL 25MG UD   
RDST100002252732     1024000101200000001GVA-DOXEPIN HCL 50MG UD   
RDST100003273174     1024000159900000001GVA-DOXEPIN HCL 75MG UD   
RDST100001958115     1024000029800000001GVA-FERROUS SULF 5GR RED  
RDST100003273364     1024000466300000001GVA-FLUPHEN HCL 10MG UD   
RDST100003273489     1024000369500000001GVA-FLUPHEN HCL 5MG UD    
RDST100001241439     1024000024000000001GVA-FUROSEMIDE 20MG UD    
RDST100001241553     1024000024900000001GVA-FUROSEMIDE 40MG UD    
RDST100003219607     1024000046300000001GVA-FUROSEMIDE 80MG UD    
RDST100003273604     1024000057000000001GVA-HALOPERIDOL 10MG UD   
RDST100003273729     1024000045500000001GVA-HALOPERIDOL 5MG UD    
RDST100001957612     1024000025600000001GVA-HYDROCHLOROTHAZ 50MG  
RDST100002252245     1024000041300000001GVA-HYDROXYZ HCL 25MG UD  
RDST100001957497     1024000029600000001GVA-IMIPRAMINE 25MG UD    
RDST100003646312     1024000037000000001GVA-INDOMETH 25MG UD 100s 
RDST100002296499     1024000102100000001GVA-METHOCARB 750MG UD    
RDST100003223377     1024000092100000001GVA-METHYLDOP 250MG UD    
RDST100003270667     1024000042200000001GVA-METRONID 250MG UD 100s
RDST100003270725     1024000110000000001GVA-METRONID 500MG UD 100s
RDST100001850510     1024000045000000001GVA-NITROGLYC SR 2.5MG    
RDST100001850635     1024000049900000001GVA-NITROGLYC SR 6.5MG    
RDST100002220895     1024000029300000001GVA-PROPRANOLOL 20MG UD   
RDST100003288115     1024000156000000001GVA-QUINIDINE GLUC 324MG  
RDST100003407111     1024000033000000001GVA-THIORIDAZINE 10MG UD  
RDST100003687134     1024000044500000001GVA-THIORIDAZINE 25MG UD  
RDST100003687191     1024000061600000001GVA-THIORIDAZINE 50MG UD  
RDST100003681764     1024000136700000001GVA-TOLAZAMIDE 250MG UD   
RDST100001703438     1009600066500000001HOE-DIABETA 1.25MG 50s    
RDST100001703446     1002400200000000001HOE-DIABETA 2.5MG 100S    
RDST100001986199     1006000940000000001HOE-DIABETA 2.5MG 500S    
RDST100002146942     1014403280000000001HOE-DIABETA 5MG 1000S     
RDST100001703453     1024000330000000001HOE-DIABETA 5MG 100S      
RDST100001741610     1004801720000000001HOE-DIABETA 5MG 500S      
RDST100002226611     1100000285000000001IMM-LEUCOVIN 350MG 10CC VL
RDST100001689660     1100000041000000001IMM-LEUCOVORIN 50MG EA    
RDST100003275021     1100000078500000001IMM-LEUCOVORIN CAL 100ML  
RDST100002787612     1100000095000000001IMM-METHOREXATE 25MG.ML VL
RDST100001322767     1100002750000000001IMM-METHOTREXATE 2.5MG    
RDST100001734086     1100000033000000001IMM-METHOTREXATE LIQ PF   
RDST100001322783     1100000033000000001IMM-METHOTREXATE LIQ PP   
RDST100002795433     1100000087500000001IMM-METHOTRXATE 250MG LPF 
RDST100001734102     1100000055000000001IMM-METHOTRXATE FPF 100MG 
RDST100001734110     1100000069500000001IMM-METHOTRXATE LPF 200MG 
RDST100002167336     1001600960000000001IMS-CAL GLUC 10% 200ML VL 
RDST100002421832     1000101400000000001IMS-DEXTROSE INJ w/st GA  
RDST100003602596     1024000150400000001IMS-DOPAMIN INJ 40MG/ML   
RDST100001371954     1001500775000000001IMS-LIDOCAINE 2% 5ML 25s  
RDST100001787605     1008001300000000001IMS-LIDOCAINE TOP SOL 4%  
RDST100001294172     1000600600000000001IMS-POTAS.ACET.100ML VL   
RDST100001748458     1000401375000000001IMS-SOD BIC 8.4% 50ML 25s 
RDST100001479195     1003401125000000001IMS-SOD BIC 8.4% 50ML w/st
RDST100001202464     1000601350000000001IMS-SOD BICARB INJ 8.4%   
RDST100002256089     1000400780000000001IMS-SODIUM CHLOR.200ML VL 
RDST100001491067     1015600025000000001IOL-DAC1(0727-30)         
RDST100002761526     1247600065400000001IOL-DEXACIDIN SUSP        
RDST100003234226     1018800074300000001IOL-FLUOR OP SOL 5ML      
RDST100003234341     1148500154000000001IOL-FLUOROP 1% 15ML       
RDST100002218766     1000700060000000001IOL-HYPOTEARS DRP 15ML    
RDST100001824028     1027700094000000001IOL-INFLAM. MLD. .125% 5ML
RDST100001730118     1041900145000000001IOL-INFLAMASE 1/8% 10CC   
RDST100001458439     1056700083500000001IOL-PILO(2514-15)         
RDST100001458447     1004800078000000001IOL-PILOCAR 1% 15CC       
RDST100001458454     1105100082500000001IOL-PILOCAR 2% 15ML       
RDST100001458462     1146400082500000001IOL-PILOCAR 3% 15ML       
RDST100001458488     1307600095000000001IOL-PILOCAR 6% 15CC       
RDST100001491323     1284400071000000001IOL-SULF 10 15ML          
RDST100001491356     1036500056000000001IOL-TEARISOL 15CC         
RDST100001101401     1007200112500000001IPR-ATENOLOL 50MG 100     
RDST100003277456     1150000283200000001JAN-INAPSINE AMP          
RDST100001991074     1062300430000000001KNL-ISOPTIN 120MG 100'S   
RDST100002161362     1000606190000000001KNL-ISOPTIN SR 240MG 500S 
RDST100001171776     1147400185000000001KS-CALCIFEROL DROPS 2OZ   
RDST100001431469     1049500120000000001KS-CHARDONNA 2 100'S      
RDST100003605250     1003600115000000001KS-COLYTE 4000ML          
RDST100003286796     1001200119500000001KS-COLYTE FLAV            
RDST100002765378     1054900300000000001KS-DEPONIT .2MG 30s       
RDST100002765626     1126300340000000001KS-DEPONIT .4MG 30s       
RDST100001734144     1004800390000000001KS-DILATRATE 40MG 100S    
RDST100001861673     1092400330000000001KS-FEDAHIST GYROCAP 100'S 
RDST100003646254     1026600290000000001KS-FEDAHIST TIMECAP 100   
RDST100002721421     1115200350000000001KS-KUTRASE 100'S          
RDST100001218981     1134400215000000001KS-LACTRASE CAP 250MG 100 
RDST100001304476     1001200222500000001KS-LEVSIN SUBL 0.125MG    
RDST100002269298     1004800155000000001KS-PROCTOCREAM 30GM       
RDST100001831817     1007400175000000001KS-PROCTOFOAM 10GM        
RDST100001321124     1120000105000000001LED-AMICAR 250MG 20ML     
RDST100001712462     1037100560000000001LED-ASENDIN TAB 150MG 30s 
RDST100001712447     1014701550000000001LED-ASENDIN TABS 100MG    
RDST100001219310     1077900468500000001LED-ASENDIN TABS 25MG     
RDST100001712439     1093900780000000001LED-ASENDIN TABS 50MG     
RDST100002231892     1028800270000000001LED-CIMETIDINE 300MG 100s 
RDST100002231413     1028800235000000001LED-CIMETIDINE 400MG 60S  
RDST100002232197     1028800235000000001LED-CIMETIDINE 800MG 30S  
RDST100001322080     1003600152500000001LED-FERROUS SEQUEL 100'S  
RDST100002251510     1027000770000000001LED-LOXITANE 10MG 100S    
RDST100002251577     1036000900000000001LED-LOXITANE 25MG 100     
RDST100002251601     1058301320000000001LED-LOXITANE 50MG 100     
RDST100002229664     1035500580000000001LED-LOXITANE 5MG 100'S    
RDST100001787191     1001800622500000001LED-MAXZ(4460-43)         
RDST100001177567     1011602350000000001LED-MAXZIDE 50MG 500S     
RDST100001388891     1050000848000000001LED-VANCOLED 1GM 10'S     
RDST100002257418     1050000423500000001LED-VANCOLED 50OMG 10'S   
RDST100001222389     1050000423500000001LED-VANCOLED 5GM VL EA    
RDST100001912898     1005200860000000001LED-VERELAN 180MG 100S    
RDST100003795283     1000600827000000001LED-VERELAN SR 120MG 100S 
RDST100002475523     1024000180000000001LEM-CEFAZOLIN BULK 10GM   
RDST100001385954     1024000019500000001LEM-CEFAZOLIN*1GM 10ML    
RDST100001330356     1024000950000000001LEM-CEPHALEXIN 500MG 500  
RDST100001301787     1024000041000000001LEM-CEPHALEXIN SUS 125MG  
RDST100001369552     1024000100000000001LEM-CEPHALEXIN*250MG      
RDST100001373182     1024000200000000001LEM-CEPHALEXIN*500MG 100  
RDST100001307834     1024000040000000001LEM-CEPHALEXIN*SUSP 250MG 
RDST100001310515     1024000067500000001LEM-CEPHALEXIN*SUSP 250MG 
RDST100001151042     1012000067500000001LEM-CORTRIM*DS 100        
RDST100001686542     1024000180000000001LEM-COTRIM 400MG 500      
RDST100001151034     1024000043000000001LEM-COTRIM*400MG 100      
RDST100002220044     1024000125000000001LEM-COTRIM*DS 100 UD      
RDST100001151059     1024000300000000001LEM-COTRIM*DS 500         
RDST100002226520     1024000100000000001LEM-EPITOL* 200MG 100     
RDST100001218437     1024000032500000001LEM-FLUOCINONIDE .5% CRM  
RDST100001217249     1024000060000000001LEM-FLUOCINONIDE .5% CRM  
RDST100001150788     1024000027000000001LEM-MYCO*TRIACET CR 30    
RDST100001150820     1024000011500000001LEM-MYCO*TRIACET II OINT  
RDST100001150887     1024000027000000001LEM-MYCO*TRIACET OINT 30  
RDST100001150762     1024000011500000001LEM-MYCOTRIACT*II CR 15GM 
RDST100001150796     1024000032500000001LEM-MYCOTRIACT*II CR 60GM 
RDST100002189249     1024000090000000001LEM-TRAZIDONE 100MG 100   
RDST100002188555     1024000053000000001LEM-TRAZIDONE 50MG 100    
RDST100002180602     1024000500000000001LEM-TRAZIDONE HCL 50MG    
RDST100001492701     1085000337500000001MCN-HALDOL VL 5MG 10ML    
RDST100003214194     1001200520000000001MCN-PANCREASE MT CP 10    
RDST100003434578     1024000115000000001NOV-AMOXICILLIN 500MG 100 
RDST100003434255     1024000380000000001NOV-AMOXICILLIN 500MG 500 
RDST100003434081     1024000092000000001NOV-AMOXICILLIN CAP 500MG 
RDST100003433778     1024000055000000001NOV-AMOXICILLIN CAP 500MG 
RDST100002468999     1024000017500000001NOV-AMOXICILLIN SUS 125MG 
RDST100002468684     1024000013500000001NOV-AMOXICILLIN SUS 125MG 
RDST100002468833     1024000014500000001NOV-AMOXICILLIN XSUS 125MG
RDST100002469591     1024000023500000001NOV-AMOXICLLIN SUS 250MG  
RDST100001926831     1024000075500000001NOV-CEPHALEXIN 250MG 100  
RDST100002150126     1024000017500000001NOV-CEPHALEXIN 250MG 100  
RDST100001931591     1024000350000000001NOV-CEPHALEXIN 250MG 500  
RDST100001933928     1024000132500000001NOV-CEPHALEXIN 500MG 100  
RDST100002151231     1024000168500000001NOV-CEPHALEXIN 500MG 100  
RDST100002225332     1024000600000000001NOV-CEPHALEXIN 500MG 500  
RDST100003694353     1024000035000000001NOV-CEPHALEXIN SUS 125MG  
RDST100003694411     1024000026000000001NOV-CEPHALEXIN SUS 250MG  
RDST100003694478     1024000050000000001NOV-CEPHALEXIN SUS 250MG  
RDST100003419579     1024000235000000001NOV-INDOMETHACIN CP 25MG  
RDST100003419694     1024000150000000001NOV-INDOMETHACIN CP 50MG  
RDST100001441773     1024000175000000001NOV-LOPERAMIDE CP 2MG 100s
RDST100001442169     1024000810000000001NOV-LOPERAMIDE CP 2MG 500s
RDST100003214459     1024000047500000001NOV-METHYLDOPA 250MG 100  
RDST100003214574     1024000100000000001NOV-METHYLDOPA 500MG 100  
RDST100003542735     1009600660000000001PD-ACCUPRIL 10MG 90s      
RDST100003542800     1011500660000000001PD-ACCUPRIL 20MG 90s      
RDST100001785138     1120900740000000001PD-PROCAN SR TABS 1000MG  
RDST100002297950     1030000162000000001PH-ADRIAMYCIN PFS 10MG    
RDST100003419116     1030003180000000001PH-ADRIAMYCIN PFS 200MG EA
RDST100002298735     1030000333500000001PH-ADRIAMYCIN PFS 20MG EA 
RDST100002299105     1030000800000000001PH-ADRIAMYCIN PFS 50MG EA 
RDST100001370691     1030000157500000001PH-ADRIAMYCIN RDF 10MG    
RDST100003691037     1030002350000000001PH-ADRIAMYCIN RDF 150MG EA
RDST100001367036     1030000330000000001PH-ADRIAMYCIN RDF 20MG EA 
RDST100001374537     1030000760000000001PH-ADRIAMYCIN RDF 50MG EA 
RDST100002189116     1120000450000000001PH-NEOSAR 100MG 12'S      
RDST100003244647     1120000160000000001PH-NEOSAR 1GM 6'S         
RDST100002189124     1120000670000000001PH-NEOSAR 200MG 12'S      
RDST100002189132     1120000094500000001PH-NEOSAR 500MG 12'S      
RDST100002778397     1000400074300000001REC-PHAZYME 95 50'S       
RDST100002458933     1360000290100000001RIC-RIMSO -50 50ML        
RDST100002728244     1000900084500000001ROX-CALCIUM CARB 250MG UD 
RDST100001963396     1321400080000000001ROX-ISOETHARINE*30ML DRP  
RDST100001697259     1003600035000000001ROX-ISOETHARINE*HYD INH   
RDST100002219897     1041700350000000001ROX-LITHIUM CARB*300MG TB 
RDST100002242485     1121800350000000001ROX-LITHIUM*CARB 300MG CP 
RDST100001707108     1122000039500000001ROX-PREDNISONE*TB 10MG 100
RDST100002268787     1001200022500000001ROX-PREDNISONE*TB 1MG 100 
RDST100002164242     1120000024000000001ROX-PREDNISONE*TB 5MG 100 
RDST100001343938     1000600078900000001RPC-COLACE CAP 100MG 30'S 
RDST100001344621     1000500096300000001RPC-PERI-COLACE CAP 30'S  
RDST100002234466     1050000110000000001RUG-CARBAMEZAPIN 200MG    
RDST100001938984     1050000057000000001RUG-CARISOPRADOL 350MG    
RDST100001120246     1050000418500000001RUG-CARISOPRODOL TB 350MG 
RDST100001938992     1050000235000000001RUG-CARISOPRODOL TB 350MG 
RDST100003226818     1050000122500000001RUG-CHLORDRINE SR CAP 100S
RDST100003250230     1050000095000000001RUG-CHLORZOXAZONE 500MG   
RDST100002481919     1050000237500000001RUG-CHOLINE MAGN TB 750MG 
RDST100003688496     1050000500000000001RUG-DESIPRAMINE TB 50 MG  
RDST100003607447     1050000110000000001RUG-DESIPRAMINE TB 50MG   
RDST100002100600     1050000119000000001RUG-DILTIAZAM TB 60MG 100s
RDST100002100444     1050000070000000001RUG-DILTIAZEM 30MG 100S   
RDST100002100519     1050000310000000001RUG-DILTIAZEM TB 30MG 500s
RDST100002100725     1050000460000000001RUG-DILTIAZEM TB 60MG 500s
RDST100002100857     1050000180000000001RUG-DILTIAZEM TB 90MG 100s
RDST100003216447     1050000096000000001RUG-IOPHEN TB 30MG 100S   
RDST100003649357     1050000096000000001RUG-ISO-ACETAZONE CP 100s 
RDST100001919273     1050000045000000001RUG-ISOCET 100S           
RDST100001982297     1050000474500000001RUG-ISOSORBIDE TB 40MG    
RDST100001200047     1050000080000000001RUG-METHYLPRED TB 4MG  21 
RDST100001282599     1050000120000000001RUG-OXYBUTYNIN TB 5MG 100s
RDST100003410545     1050000275000000001RUG-PHENERBEL S TB 100S   
RDST100002152866     1050000075000000001RUG-POT CHLOR 10MEQ 100S  
RDST100001991405     1050000462500000001RUG-PREDNISONE 20MG 1000S 
RDST100002278430     1050000292300000001RUG-PREDNISONE TB 10MG    
RDST100002146397     1050000060000000001RUG-PRENATAL PLUS TB 100S 
RDST100001941897     1050000085000000001RUG-SULFASAL 500MG 100S   
RDST100002259489     1050000700000000001RUG-SULFASALAZ TB 500MG   
RDST100001941913     1050000370000000001RUG-SULFASALAZ TB 500MG   
RDST100003502705     1050000170500000001RUG-SULINDAC TB 150MG 100s
RDST100003502622     1050000275000000001RUG-SULINDAC TB 200MG 100s
RDST100002159689     1050001000000000001RUG-SULINDAC TB 200MG 500s
RDST100001324268     1050000465000000001RUG-TRAZODONE TB 150MG    
RDST100001324482     1050000990000000001RUG-TRAZODONE TB 150MG    
RDST100001843440     1050000300400000001RUG-TRI-TANNATE P SUS 16oz
RDST100003694676     1050000140000000001RUG-TRI-TANNATE SUS 16oz  
RDST100002263077     1050000135000000001RUG-TRI-TANNATE TB 100s   
RDST100002293363     1050000325000000001RUG-TRIMETH SUL DS TB     
RDST100003693827     1050000368500000001RUG-VERAPAMIL TB 80MG     
RDST100002414746     1050000100000000001RUG-YOHIMBINE 5.4MG 100S  
RDST100001436153     1026200442100000001SAN-MELLARIL 150MG 100s   
RDST100002144137     1021600225000000001SAV-DILOR(1115-53)        
RDST100002135002     1002400310000000001SAV-DILOR*G TAB 100       
RDST100001862796     1002400040000000001SAV-EVAK Q KWIK(2189-76)  
RDST100001700178     1027600102700000001SAV-KAON CL 10 100S       
RDST100001617745     1064000085000000001SAV-KAON ELIX GRAPE 16OZ  
RDST100002733798     1072000090000000001SAV-KAON-CL 40MEQ 15ML    
RDST100002204188     1006000400000000001SAV-NITROL(5804-58)       
RDST100002280444     1064400298500000001SCH-PROVENTIL .083% 3ML   
RDST100001814862     1024000259500000001SCH-PROVENTIL SYR 2MG/5ML 
RDST100001398130     1200000140000000001SKB-ENGERIX VL 10MG 5ML   
RDST100001640366     1335401250000000001SKB-KYTRIL 1MG VL         
RDST100001717735     1029100739500000001SOLV-CREON CAP 250s       
RDST100001449222     1028800880000000001UJ-ANSAID 100MG TB 100s   
RDST100002465631     1135700077500000001UJ-MOTRIN 400MG 100S      
RDST100002173813     1010000112000000001UJ-MOTRIN 600MG 100       
RDST100001273739     1013000440000000001UJ-MOTRIN 600MG 500       
RDST100001410000     1036700132500000001UJ-MOTRIN 800MG 100       
RDST100001410042     1001800420000000001UJ-MOTRIN 800MG 500       
RDST100001735703     1002400300000000001UJ-MOTRIN(0750-02)        
RDST100003214772     1003600410000000001UJ-TOLINASE TAB 250MG 100s
RDST100001602820     1010000037400000001VAN-ACETAMIN 500MG CP UD  
RDST100001620061     1010000110900000001VAN-ALBUTEROL SL 2MG TB   
RDST100001620582     1010000164200000001VAN-ALBUTEROL SL TB 4MG   
RDST100003410420     1010000064000000001VAN-BETHANECHOL TB 25MG   
RDST100001214741     1010000048300000001VAN-CLONIDINE HCL TB .1MG 
RDST100002210292     1010000034500000001VAN-DAILY MULT.VIT. TB    
RDST100002259745     1010000120000000001VAN-DIGOXIN .125MG TB 100s
RDST100002215135     1010000048000000001VAN-IBUPROFEN 200MG TB    
RDST100002454700     1010000183500000001VAN-NAPROXEN 250MG        
RDST100002455376     1010000237500000001VAN-NAPROXEN 375MG        
RDST100002456192     1010000265000000001VAN-NAPROXEN 500MG        
RDST100002489193     1010000186200000001VAN-OXYBUTYN CHL 5MG TB   
RDST100002456598     1010000560000000001VAN-PIROXICAM 20MG        
RDST100003241692     1010000076100000001VAN-STRESS 600 W/IRON TB  
RDST100003241817     1010000062700000001VAN-THERAVEE H TB 100s    
RDST100001367929     1010000042000000001VAN-THERAVEE TB 100s      
RDST100001399989     1010000100500000001VAN-THIORIDAZ HCL 50MG TB 
RDST100002236982     1010000250000000001VAN-THIOTHEXENE 10MG CP   
RDST100001797489     1010000200000000001VAN-THIOTHEXENE 5MG CP    
RDST100001797372     1010000130000000001VAN-THIOTHIXENE 2MG CP    
RDST100001216365     1010000150000000001VAN-TRAZODONE 100MG TB    
RDST100001215888     1010000100000000001VAN-TRAZODONE 50MG TB 100s
RDST100001180884     1000300120000000001WIN-BRONKO(1041-01)       
RDST100001180819     1004800240200000001WIN-BRONKOMETER AERO 10ML 
RDST100002272631     1024000100000000001WY-BRETYLIUM 500MG 10'S   
RDST100001208255     1024000092200000001WY-DEXAM(2277-41)         
RDST100002278653     1024000331100000001WY-DOPAMINE 200MG VL 5'S  
RDST100001196559     1024000662200000001WY-DOPAMINE 400MG VL 5'S  
RDST100001666056     1024000114900000001WY-DOXYCYCLINE 100MG SDV  
RDST100001427731     1024000218200000001WY-FUROSEMIDE 40MG 4ML    
RDST100001958644     1003100155600000001WY-FUROSEMIDE AMP 40MG 4ML
RDST100001427749     1024000434900000001WY-FUROSEMIDE*100MG       
RDST100001427715     1024000152300000001WY-FUROSEMIDE*10MG/ML 25s 
RDST100003624293     1000400277700000001WY-GENTAM(2331-43)        
RDST100001717586     1024000191600000001WY-GENTAMYCIN 80MG 2ML    
RDST100001400142     1007200315000000001WY-HEP LOCK 100U 30ML 25'S
RDST100001400134     1007200295000000001WY-HEP LOCK 10U 30ML 25'S 
RDST100002729986     1024000594200000001WY-HEPARIN 5000U .5ML 50  
RDST100001654151     1001900427800000001WY-HEPARIN LF/TBX 25UN    
RDST100001293737     1005600015000000001WY-HYDROXY(2518-41)       
RDST100001941053     1007200210000000001WY-LEUCOVORIN 50MG SDV EA 
RDST100002798247     1024000223500000001WY-NALOXONE 4MG 1ML A     
RDST100002798379     1024000193500000001WY-NALOXONE HCL 4MG 10ML  
RDST100001231505     1024000050000000001WY-NEOSTIG(2540-41)       
RDST100003600855     1024000041500000001WY-NEOSTIGMINE*.5MG 10ML  
RDST100002146025     1004801466700000001WY-OMNIPEN N 10G          
RDST100001117605     1000700096000000001WY-OMNIPEN N 250MG        
RDST100001700319     1001100412700000001WY-OMNIPEN N 2G PB        
RDST100001700327     1000100222200000001WY-OMNIPEN N 500MG PB     
RDST100001254960     1007200200000000001WY-OMNIPEN-N 1G           
RDST100001117027     1008600333500000001WY-OMNIPEN-N 2G           
RDST100001310283     1007200120000000001WY-OMNIPEN-N 500MG        
RDST100002264927     1002500043000000001WY-PROCAIN(0489-21)       
RDST100002754976     1007201280000000001WY-REGLAN 10MG 25'S       
RDST100002755221     1007203000000000001WY-REGLAN 30MG 25'S       
RDST100002755221     1007200350000000001WY-REGLAN 5MG. 2ML. 25s   
RDST100001205343     1007200370000000001WY-REGLAN INJ 2ML 25'S    
RDST100002467314     1024000112800000001WY-ROBINUL VL .2MG 1ML 25S
RDST100003972312     1024000750000000001WY-SULFAMETH TRI 10ML SDV 
RDST100003972197     1007200300000000001WY-SULFAMETH TRI 5ML AMP  
RDST100003972254     1007200300000000001WY-SULFAMETH TRI 5ML SDV  
RDST100003972379     1007200195000000001WY-SULFAMETH TRI MD 30ML  
RDST100001966837     1000500566700000001WY-UNIPEN ADD-VAN 2G 10   
RDST100001684976     1108700209500000001ZNC-SOBITRATE 20MG 100    
RDST100001144526     1100000236500000001ZNC-SORBITRATE 30MG 100   
RDST100001144641     1060000243500000001ZNC-SORBITRATE 40MG 100'S 
RDST100001471341     1161400120000000001ZNC-SORBITRATE 5MG 100'S  
RDST100001471341     1006300152500000001ZNC-SORBITRATE CHEW 5MG   
RDST100002121713     1096000139000000001ZNC-SORBITRATE CHEW TAB 10
RDST100001144518     1141100155000000001ZNC-SORBITRATE ORAL 10MG  
